:020000040000FA
:10000000681200208D00000099000000A10000008F
:10001000A9000000B1000000B900000000000000CD
:10002000000000000000000000000000C10000000F
:10003000C900000000000000D1000000D90000004D
:10004000E1000000E9000000F1000000F9000000FC
:100050000101000009010000110100001901000068
:1000600021010000290100003101000039010000D8
:100070004101000049010000DFF80CD000F094F8C5
:100080000048004761060000681200208046C14613
:100090002F4880472F48004700B500F0CEF800BD3C
:1000A00000B500F0C4F800BD00B500F0C5F800BD13
:1000B00000B500F0BAF800BD00B500F001F900BDD0
:1000C00000B500F0C7F800BD00B500F0AFF800BD06
:1000D00000B500F0BEF800BD00B500F0C9F800BDE5
:1000E00000B500F0EBF800BD00B500F0E8F800BD89
:1000F00000B500F0E2F800BD07B500F099F807BDC3
:1001000007B500F096F807BD07B500F093F807BDF6
:1001100007B500F090F807BD07B500F0CDF807BDB2
:1001200007B500F07FFE07BD07B500F0D3F907BDA6
:1001300007B500F0B9FA07BD07B500F067FB07BDCA
:1001400007B500F043FE07BD07B500F0ABFA07BDE9
:1001500089020000790000000649074A08685043F8
:1001600043F23902104408604008704701490860B2
:1001700070470000740600206D4EC64130B50B4636
:10018000014600202022012409E021FA02F59D42C7
:1001900005D303FA02F5491B04FA02F52844151E9B
:1001A000A2F10102F1DC30BD064C074D06E0E0682B
:1001B00040F0010394E8070098471034AC42F6D3AE
:1001C000FFF75EFFA80E0000C80E000070B58D1886
:1001D00010F8014B14F0030201D110F8012B231188
:1001E00006D110F8013B03E010F8016B01F8016B38
:1001F000521EF9D1ABB110F8012B04F00C048A1A8D
:100200000C2C03D0A2EB84129B1C08E010F8014BCD
:10021000A2EB0422F8E712F8014B01F8014B5B1E38
:10022000F9D5A942D4D3002070BD704770477047FC
:1002300070477047704770477047704700F01F0263
:10024000012191404009800000F1E020C0F8001138
:100250007047704770474FF0E021086170474FF0DA
:10026000E021486170474FF0E0218861704700004D
:1002700010B50020FFF7EFFF0248016841F0007160
:10028000016010BD04ED00E010B50A49084808609F
:100290004FF0FF30FFF7D2FF0820FFF7CFFF092014
:1002A000FFF7CCFFBDE810400A20FFF7C7BF0000F2
:1002B00080F0FA026C060020704770477047704764
:1002C000704700000FB4054B10B503A9044A02980B
:1002D00000F018F810BC5DF814FB0000C905000020
:1002E0007006002002E008C8121F08C1002AFAD1D7
:1002F00070477047002001E001C1121F002AFBD1A6
:10030000704700002DE9FF4F89B09B460446002549
:1003100006E025280BD05A460B999047641C6D1CAB
:1003200020780028F5D10DB02846BDE8F08F0027D1
:10033000B8460122474900E0074314F8013F203B3B
:1003400002FA03F00842F7D120782E2819D114F8C8
:10035000010F47F004072A280ED06FF02F022078F3
:10036000A0F1300109290CD808EB880102EB41010A
:1003700000EB0108641CF2E70A98641C50F8048B37
:100380000A9020780028CED0642808D0692806D0AA
:1003900075281ED05A460B9990476D1C58E00A9953
:1003A0004FF00A0901C90A91002802DA40422D21C2
:1003B00002E0390504D52B218DF82010012103E03E
:1003C000F90704D02021F7E78A4608AE0DE00021A6
:1003D000FAE70A994FF00A0901C90A91F7E7494675
:1003E000FFF7CCFE303106F8011D0028F7D1ADEB48
:1003F000060000F12009780701D44FF00108C84534
:1004000002DDA8EB090000E000208046002706E09E
:1004100008A85A46C05D0B9990476D1C7F1C574534
:10042000F6DB04E030205A460B9990476D1CB8F17A
:100430000001A8F10108F5DC05E016F8010B5A46A9
:100440000B9990476D1CB9F10001A9F10109F4DC89
:10045000641C65E70928010070B500211B4A127869
:1004600007E001EB810303EBC10310F813301BB16C
:10047000491C9142F5DB70BD01EB810303EBC10127
:10048000012200F8112000EB41041E2666700025B1
:10049000A570FFF761FE6421484300EBD07121F0A5
:1004A0000101401A6430A080B420E080257265729A
:1004B000A572A91EA181E6815A212182282161828B
:1004C0003C21A182A021E182208370BDA70E000003
:1004D000FFF7C2BF10B52848041F216850F821104B
:1004E00026480D2943D2DFE801F042070B0F13170E
:1004F0001B1F272F373B3F00214800F023FB36E02E
:100500001F4800F04AFB32E01D4800F063FB2EE07C
:100510001B4800F09FFB2AE0194800F0CAFB26E0C8
:10052000174800F018FC22E0B0F90220B0F90010E2
:10053000144800F01DFA1AE0B0F90220B0F90010DA
:10054000104800F031FA12E0B0F90220B0F90010C2
:100550000C4800F048FA0AE00B4800F06DFA06E09B
:10056000094800F07CFA02E00848FFF7B1FF206874
:10057000401C206010BD00004000002078060020D4
:10058000FA060020BA070020AA080020CE080020A2
:1005900000B502460020FFF75EFE1046FFF75FFE43
:1005A0000020FFF760FE0720FFF755FE30BF00BDBB
:1005B00010B503464CF2503403E02046FFF7E8FF45
:1005C0005B1E002BF9D110BD70B504464FF080457D
:1005D0000A2C03D10D21284600F0F9FBE1B2284690
:1005E00000F0F5FB204670BD70B500221B4B1B7858
:1005F00005E002EB420410F824401CB1521C9A4260
:10060000F7DB70BD02EB4202012500F8225000EB3F
:100610008204142363700020A070A180FFF79CFD6A
:1006200000EB8000800000EBD07121F00101401A46
:10063000C0F1E100E0802572FFF78EFD00EBD07184
:1006400021F00101401A6072FFF786FD00EBD071C6
:1006500021F00101401AA07270BD0000A60E00003A
:100660001FB5002000900190029001234FF4D97132
:1006700003901A46480700F0AFFB4FF4FA7400F0FD
:10068000C7F8014603A0FFF71DFE2046FFF790FFC5
:10069000F5E70000434E4E5F524553554C543D25FF
:1006A000750A00007047000070B5534C5148002691
:1006B00021780278481CC0B2002A22D0012A3DD0FD
:1006C000022A1DD14D4D15F8210000F04FFB207876
:1006D00005EB8000407800F04FFB207805EB8000B0
:1006E000807800F04FFB207805EB8000C07800F0A8
:1006F0004FFB2078401CC0B22070122800D3267017
:1007000070BD20703E4D15F8200000F02FFB2078C2
:1007100005EB8000407800F02FFB207805EB80008F
:10072000807800F02FFB207805EB8000C07800F087
:100730002FFB20782C28E3D9267070BD3149097928
:1007400009B3314909780029F7D120702B4D4C3578
:1007500015F8200000F00AFB207805EB80004078B7
:1007600000F00AFB207805EB8000807800F00AFB9F
:10077000207805EB8000C07800F00AFB20783E2846
:10078000DBD3267070BD20701C4D703D15F8300015
:1007900000F0ECFA207805EBC000407800F0ECFAAD
:1007A000207805EBC000807800F0ECFA207805EBAB
:1007B000C000C07800F0ECFA207805EBC0000079AA
:1007C00000F0ECFA207805EBC000407900F0ECFA7C
:1007D000207805EBC000807900F0ECFA207805EB7A
:1007E000C000C07900F0ECFA20780D28CAD9267034
:1007F00070BD0000010000200A0000202405002038
:1008000000040020780600200E0000207047000041
:100810000148006870470000006000402DE9F04189
:100820000F4616461D4600245049097805E0C4EBE2
:10083000041210F8122022B1641C8C42F7DBBDE8D0
:10084000F081C4EB0411012200F8112000EB4104F7
:100850004FF0000884F80180FFF77EFC032190FB35
:10086000F1F201FB1200404200EB800005EB80003A
:100870003C38A08084F80780FFF76EFC00EBD07155
:1008800021F00101401A6072A771A0791E2750B3B0
:10089000F120608004202077FFF75EFC404200EBEF
:1008A000D07121F00101401A801E2072FFF754FC24
:1008B000142190FBF1F201FB120030443230A08190
:1008C000A0893C38E081143D2582FFF745FC90FB70
:1008D000F7F107FB1100218A143008446082E08997
:1008E0001E30A082ABE70F20608084F81C80FFF7E9
:1008F00033FC00EBD07121F00101401A801C207202
:10090000FFF72AFC00EB8000400000EBD07121F0E3
:100910000101401A30443238A081FFF71DFC00EB82
:100920008000800000EBD07121F00101401AA18904
:100930001E300844E081FFF70FFC00EB80008000D0
:1009400000EBD07121F00101401A281A14382082DE
:10095000FFF702FC90FBF7F107FB1100218A14302E
:1009600008446082E0891E38A08268E7A50E000076
:100970002DE9F04106460F461546FFF7EDFB00EB6B
:10098000D07121F00101401AC4B22B463A462146EB
:100990003046FFF743FF14352BB23A462146304626
:1009A000BDE8F041FFF73ABF2DE9F04107460D469B
:1009B0001646FFF7D1FB00EBD07121F00101401A80
:1009C000C1B2012901D0012400E0002433462A46A7
:1009D0003846FFF723FF33462A4621463846BDE80E
:1009E000F041FFF71BBF2DE9F04106460F461546C3
:1009F0002A4639463046FFF7D7FFFFF7ADFB00EB3D
:100A0000D07121F00101401AC4B2FFF7A5FB00EB41
:100A1000D07121F00101401A00F0FF082B463A4640
:100A200021463046FFF7FAFE2B463A46414630460D
:100A3000BDE8F041FFF7F2BE10B50446FFF78CFBAE
:100A400000EBD07121F00101401AC0B228B1D021D1
:100A50002046BDE81040FFF7C7BD3021F8E770B56C
:100A60000546FFF779FB00EBD07121F00101401A38
:100A7000C4B25CB1D0212846FFF7B6FD012C07D0E7
:100A8000D0212846BDE87040FFF7AEBD3021F2E727
:100A90003021F6E72DE9F0410D46002228490B7878
:100AA00004E000EB0211097821B1521C9A42F8DBF4
:100AB000BDE8F08100EB0214012666702670002765
:100AC000E773A770A772FFF747FB00EBD07121F027
:100AD0000101401A60722672A888A080FFF73CFBD3
:100AE00000EBD07121F00101401A00EB80000F21D2
:100AF00001EB4000E080E87AE072E07A022603250C
:100B0000042809D0E07A052815D0E07A0628CFD14C
:100B100026736573A573CBE727736573FFF71CFB1B
:100B200000EBD07121F00101401AC0B208B1A573E9
:100B3000BEE7A673BCE7FE2020736573A673B7E714
:100B4000A40E000020B50546FFF706FBAA2190FB86
:100B5000F1F201FB1200401DA080B4F90400052849
:100B600006DDB4F90400552802DA0620E0720CE034
:100B7000B4F90400AB2806DDB4F90400FB2802DA5E
:100B80000520E07201E00420E07228460023BDE861
:100B900020401A462146FFF77DBF70B50646FFF795
:100BA000DBFAAA2190FBF1F201FB12051935A580B1
:100BB0000420E07200231A4621463046FFF76AFF00
:100BC0001435A58021463046BDE8704000231A4602
:100BD000FFF760BFE0B50746FFF7BEFAAA2190FB1A
:100BE000F1F201FB1200401DA080B4F904000625BB
:100BF0000526052805DDB4F90400552801DAE5725B
:100C00000BE0B4F90400AB2805DDB4F90400FB28BF
:100C100001DAE67201E00420E07200231A46214660
:100C20003846FFF737FFB4F90400C0F58070A080A4
:100C3000E07A062803D0E07A052802D002E0E672C6
:100C400000E0E5723846BDE8E04000231A46214640
:100C5000FFF720BF70B50646FFF77EFAAA2190FB8A
:100C6000F1F201FB12051935A5800420E072002382
:100C70001A4621463046FFF70DFF05F11400A0800B
:100C800000231A4621463046FFF704FF05F12800ED
:100C9000A08000231A4621463046FFF7FBFE3C3574
:100CA000A58021463046BDE8704000231A46FFF774
:100CB000F1BEE0B50746FFF74FFAAA2190FBF1F22B
:100CC00001FB1200401DA080B4F904000625052692
:100CD000052805DDB4F90400552801DAE5720BE0BA
:100CE000B4F90400AB2805DDB4F90400FB2801DAEF
:100CF000E67201E00420E07200231A4621463846DD
:100D0000FFF7C8FEA0881430A08000231A462146B1
:100D10003846FFF7BFFEB4F90400C0F58070A0802C
:100D2000E07A062803D0E07A052802D002E0E672D5
:100D300000E0E57200231A4621463846FFF7AAFE76
:100D4000A0881430A0803846BDE8E04000231A4651
:100D50002146FFF79FBE10B504462046FFF77AFFF5
:100D60002046BDE81040FFF718BF00000149087099
:100D700070470000000003500149487070470000B0
:100D800000000350014988707047000000000350C4
:100D90000149C87070470000000003500149087104
:100DA000704700000000035001494871704700007F
:100DB0000000035001498871704700000000035093
:100DC0000149C87170470000000003507047426835
:100DD000D207FCD101607047F0B505AD95E8E01091
:100DE0000024002A00D001240BB144F002040DB10C
:100DF00044F004040EB144F008040FB144F01004B0
:100E0000BCF1000F01D044F0200400228260016197
:100E10008460406810F00C0F01D00120F0BD00206C
:100E2000F0BD000018480022007801280DD00228EB
:100E30000AD116490878401CC0B208700A2803D1AC
:100E40000A7013490120087070471248017801297F
:100E5000FAD111490B6810490831092B01D10B68EF
:100E600063B1022202700D48007910B108680028B1
:100E7000EAD10B480178491C0170704703230370C5
:100E8000054810380260EEE7010000200200002053
:100E90000400002006000020100802507806002000
:100EA000100000200C080301C80E00000000002004
:100EB00078060000CC010000F80F00007806002042
:100EC000F00B0000F40200002200010314010001F5
:100ED000031F400001213B12032B52073352023BF8
:100EE000D20A24D20120612CD20C20520050D2030D
:100EF00028021501A792022C0211084C61980211D8
:100F000004B89201706140A108D203086517D20CA1
:100F1000289202F80112CCA13C52088C02110178EF
:100F200001164861A8D20B7821E00619069C02112F
:100F3000022802110838061D06E4920604D20904AC
:100F40000522E4613005FFE40591E410051F8400EB
:100F5000030402762F046005BE97270704022500CC
:100F6000014009DF7FA958DF7FC95808C3BE581068
:100F70002118127F1C021997081271081286085254
:100F80006414125F105281101276105254242108FA
:100F9000100A64589F7F7FF89F7F6404126A0412CE
:100FA00071044378F8140112182110125F041250D2
:100FB00004124B04523F102104D00754F88F4964A7
:100FC00068043006A08F9FFFB00C8108C128A110D3
:100FD000210C6110E138529718929730031297FF55
:100FE00074011C80D2FF80A1100238FF7C7C048039
:080FF000F0FA1B0400000000F0
:04000005000000797E
:00000001FF
