:020000040000FA
:10000000383800208D00000099000000A100000099
:10001000A9000000B1000000B900000000000000CD
:10002000000000000000000000000000C10000000F
:10003000C900000000000000D1000000D90000004D
:10004000E1000000E9000000F1000000F9000000FC
:100050000101000009010000110100001901000068
:1000600021010000290100003101000039010000D8
:100070004101000049010000DFF80CD000F0D0F988
:1000800000480047411F0000383800208046C14624
:100090002F4880472F48004700B500F0D4FA00BD34
:1000A00000B500F01FFA00BD00B500F0CBFA00BDAE
:1000B00000B500F015FA00BD00B500F0C3FC00BDAE
:1000C00000B500F06DFC00BD00B500F00AFA00BDFF
:1000D00000B500F08FFB00BD00B500F06FFC00BD67
:1000E00000B500F0ADFC00BD00B500F0AAFC00BDFD
:1000F00000B500F0A4FC00BD07B500F0F9F907BD9C
:1001000007B500F01BFA07BD07B500F037FA07BDC9
:1001100007B500F053FA07BD07B500F08FFC07BD27
:1001200007B504F0F3FC07BD07B501F067F807BD9C
:1001300007B503F019FB07BD07B503F0C7FB07BD03
:1001400007B504F07FFC07BD07B503F00BFB07BD47
:10015000D5090000790000000649074A08685043A5
:1001600043F23902104408604008704701490860B2
:1001700070470000382B00206D4EC641F0B480EA75
:100180000102D40F4200B2EB410F02D202460846F0
:1001900011464A0042D0C30DDDB2C1F3C752AD1AB9
:1001A000202D35DAC1F3160141F4000204B15242A8
:1001B000C5F1200602FA06F12A411044B3EBD05FE4
:1001C00023D0C4B1012DA0EBC35009DCF0BC4FF02B
:1001D000004202EAC352DBB200F5000000F0F2B8C0
:1001E000400000F1807000EBC350A0F1807040EA45
:1001F000D170490009E0490841EAC071A0EBC35041
:1002000000F50000400800EBC350F0BC00F0D1B88E
:100210006142012202EB4101001BF6E7F0BC70478E
:1002200081F00041AAE780F00040A7E780EA0102E0
:1002300010B502F00043400022D04A001FD0010E4A
:1002400001EB1261C0F35600C2F3560240F4000005
:1002500042F40002A0FB022000047F39140400D005
:10026000401C50EA124001D44000491EC2B20C06A4
:1002700004EBD010401C4008802A02D003E000208C
:1002800010BD20F00100002900DA0020184310BD45
:1002900030B480EA010202F0004530F0004221F063
:1002A000004013D090B1C30DD40DC2F31601C0F3BA
:1002B0001600E41A41F4000140F400027D3491423A
:1002C00001D3641C00E04900002C02DA30BC00209D
:1002D00070474FF400000023914201D3891A034371
:1002E00040084FEA4101F7D151B1914202D14FF09C
:1002F000004105E002D24FF0010101E06FF0010181
:1003000003EBC450284430BC00F053B8C10F80EA5E
:10031000E0700844CA079623002100F053B89623E2
:100320000022114600F04EB820F00040C10DC0F38D
:10033000160040F400007F2901DA0020704796295A
:1003400003DCC1F19601C840704796398840704778
:100350002DE9F05F0546002092469B4688460646FA
:10036000814640241BE0284641464746224600F08D
:1003700078F853465A46C01A914110D31146184690
:10038000224600F05FF82D1A67EB01084F4622461F
:100390000120002100F056F817EB00094E41201E05
:1003A000A4F10104DFDC484631462A464346BDE855
:1003B000F09F0029A8BF7047401C490008BF20F0EB
:1003C0000100704710B4B0FA80FC00FA0CF050EA5B
:1003D000010404BF10BC704749B1CCF1200421FADC
:1003E00004F411FA0CF118BF012121430843A3EBD7
:1003F0000C01CB1D4FEA00614FEA102042BF0020E4
:1004000010BC704700EBC35010440029A4BF10BCBF
:100410007047401C490008BF20F0010010BC704725
:10042000064C074D06E0E06840F0010394E8070041
:1004300098471034AC42F6D3FFF722FE184C000068
:10044000384C0000202A04DB203A00FA02F1002098
:1004500070479140C2F1200320FA03F31943904002
:100460007047202A04DB203A21FA02F0002170476D
:1004700021FA02F3D040C2F120029140084319460C
:10048000704770B58D1810F8014B14F0030201D1BC
:1004900010F8012B231106D110F8013B03E010F8EE
:1004A000016B01F8016B521EF9D1ABB110F8012BB1
:1004B00004F00C048A1A0C2C03D0A2EB84129B1CAF
:1004C00008E010F8014BA2EB0422F8E712F8014B08
:1004D00001F8014B5B1EF9D5A942D4D3002070BDB1
:1004E0007047704770474FF040204069C0B2704776
:1004F00070B50DA000F0A8FA0F4800210122057880
:1005000093024FF0E0243DB1C4F800310170BDE822
:100510007040002000F07CB8C4F880310270BDE863
:100520007040002000F06AB8696E7472204B455923
:10053000302121210A0000005800002010B50AA037
:1005400000F082FA0C48017831B100210170BDE859
:100550001040012000F052B801210170BDE81040A8
:10056000012000F055B80000696E7472204B4559A7
:10057000312121210A0000000C00002010B5064C9A
:1005800021680A39216005A000F05EFA4FF0C041F1
:100590002068886010BD0000340000204F563536BA
:1005A00034305F5247425F5448524553484F4C44A1
:1005B000202D203130203D25750A000010B5064C55
:1005C00021680A31216005A000F03EFA4FF0C041D9
:1005D0002068886010BD0000340000204F5635367A
:1005E00034305F5247425F5448524553484F4C4461
:1005F000202B2031303D25750A000000034A116888
:1006000001238340994311607047000000100040AF
:10061000034A1168012383400B43136070470000B5
:1006200000100040064B19680122824002EA0100D6
:10063000002802D09143196070470A431A6070473E
:10064000001000407047704700F01F0201219140E8
:100650004009800000F1E020C0F800117047490710
:10066000090E002806DA00F00F0000F1E02080F803
:10067000141D704700F1E02080F80014704700005E
:100680000020044A00211154401CC0B20928FAD3AA
:1006900070470000283000202DE9F84380460126ED
:1006A0000096174D00276F700096164C1FE0BDF89E
:1006B000000010EA080F01D0A66000E0A7606660A5
:1006C000052000F041FE6760052000F03DFE6660F9
:1006D00003F0FEF820B16978BDF8000001436970AD
:1006E000BDF800004FF6FF7101EA40000090BDF830
:1006F0000000FF28DBD9BDE8F843102000F024BE3D
:10070000283000200050004070B5FFF7B9FF00F01E
:1007100027F80D48C178007941EA00210B48418053
:1007200000200A4B1B1D012513F81040641E05FA1A
:1007300004F20A4202D1401CC0B270BD401CC0B2DB
:100740001028F1D3002070BD28300020540A00206A
:100750000248002101604160816070470050004004
:100760002DE9FC4100270197012600961E4C2760C9
:100770001E4D2878FFF790FF6878FFF78DFF022065
:10078000019029E000961A4D4FF6FF7819E0666057
:10079000052000F0D9FD6760052000F0D5FD6660FA
:1007A00003F096F840B19DF80400BDF80010285CF5
:1007B00008439DF804106854BDF8000008EA4000A2
:1007C0000090BDF80000FF28E1D9102000F0BCFD2A
:1007D0009DF80400401C01909DF804000928D1D325
:1007E0002660BDE8FC81000000500040540A002053
:1007F00028300020704700B54FF0402300201860DB
:10080000062000F0A3F80120186000BD10B50446D2
:10081000FFF7F1FF00F067F84FF040230020186069
:10082000D82000F093F8C4F3074000F08FF8C4F329
:10083000072000F08BF8E0B200F088F80120186083
:10084000BDE8104000F04FB810B50446FFF7D3FFE5
:1008500000F049F84FF0402300201860202000F0FD
:1008600075F8C4F3074000F071F8C4F3072000F0F6
:100870006DF8E0B200F06AF801201860BDE81040A1
:1008800000F031B870B504460B4615464FF04026CF
:1008900000203060032000F059F8C3F3074000F057
:1008A00055F8C3F3072000F051F8D8B200F04EF825
:1008B000002305E0FF2000F049F8E0545B1C9BB2E8
:1008C000AB42F7D30120306070BD00B54FF040233C
:1008D00000201860052000F039F8FF2000F036F8FD
:1008E0000121196000BD00B5FFF7EFFFC007FBD184
:1008F00000BDF0B504460F461546FFF77CFF4FF0EC
:10090000402600203060022000F020F8C7F30740A6
:1009100000F01CF8C7F3072000F018F8F8B200F058
:1009200015F8002304E0E05C00F010F85B1C9BB2BB
:10093000AB42F8D301203060BDE8F040FFF7D3BFF1
:100940004FF04021486001200860704700B5024622
:10095000002105E0491CC9B2C82901D9002000BD09
:10096000FFF7C1FD0028F5D0104600F011F8002176
:1009700005E0491CC9B2C82901D9002000BDFFF714
:10098000B2FD0028F5D04FF040200069C0B200BD94
:100990004FF0402188600120C8600020C860704787
:1009A00070474FF0E021086170474FF0E021486147
:1009B00070474FF0E02188617047000010B50020BB
:1009C000FFF7EFFF0248016841F00071016010BDC0
:1009D00004ED00E010B51849164808604FF0FF30EC
:1009E000FFF732FE00210320FFF739FE0320FFF757
:1009F0002BFE00210420FFF732FE0420FFF724FE27
:100A000001210520FFF72BFE0520FFF71DFE012128
:100A10000620FFF724FE0620FFF716FE0820FFF74A
:100A200013FE0920FFF710FEBDE810400A20FFF773
:100A30000BBE000080F0FA024C0A0020704770479D
:100A400070477047704700000FB4054B10B503A9FD
:100A5000044A029800F018F810BC5DF814FB00007E
:100A60004D160000500A002002E008C8121F08C1FD
:100A7000002AFAD170477047002001E001C1121F1F
:100A8000002AFBD1704700002DE9FF4F8DB09B4637
:100A90000F460446002606E025280BD05A460F993B
:100AA0009047641C761C20780028F5D111B03046A0
:100AB000BDE8F08F0025A8460122984900E00543D3
:100AC00014F8013F203B02FA03F00842F7D12078E6
:100AD0002E2817D114F8010F45F004052A280ED04E
:100AE0006FF02F022078A0F1300109290AD808EB15
:100AF000880102EB410100EB0108641CF2E757F8A2
:100B0000048B641C20786C280DD004DC4C2812D097
:100B10006A2811D104E074280DD07A280CD10AE09B
:100B200045F4001507E0617845F48015814202D153
:100B3000641C05F58015641C2278692A45D008DC00
:100B4000002AB3D0582A69D0632A10D0642A08D169
:100B50003BE0702A67D0732A13D0752A5CD0782ABC
:100B60005CD010465A460F999047761CD3E017F890
:100B7000040B8DF8000000208DF80100E9460120EB
:100B800003E057F8049B4FF0FF3069074FF0000572
:100B900001D40AE06D1C45450DDA8542FADB19F8EF
:100BA00005100029F6D106E06D1C8542FCDB19F822
:100BB00005100029F8D12E4404E019F8010B5A461B
:100BC0000F9990476D1EF8D2A5E00A200021CDE9CB
:100BD0000801C5F3025002280DD001CFC117031E32
:100BE00071F100030DDA4FF0000CD0EB0C006CEB50
:100BF00001012D2308E0FF1D27F00707F7E8020198
:100C0000EDE72B0504D52B238DF8283001233BE09D
:100C1000EB0739D02023F7E70A2000E0102000215D
:100C2000CDE9080107E01020002145F00405CDE9D9
:100C300008014FF00808C5F3025002280FD001CF79
:100C400000214FF0000A2B071FD5702A0DD0DDE9D7
:100C500008C38CF0100C5CEA030C0CD015E0FF1DEF
:100C600027F00707F7E80201EBE740228DF828207C
:100C70004FF0010A0BE050EA010306D030238DF853
:100C800028308DF8292002239A46582A04D024A21D
:100C90000DF120090B9209E026A2F9E7DDE908230E
:100CA000FFF756FB0B9B9B5C09F8013D50EA0102E4
:100CB000F4D1ADEB090020300890680701D44FF063
:100CC00001080899884502DDA8EB010000E000203A
:100CD0008046002506E00AA85A46405D0F999047D5
:100CE0006D1C761C5545F6DB04E030205A460F9902
:100CF0009047761CB8F10001A8F10108F5DC05E089
:100D000019F8010B5A460F999047761C0899481E0E
:100D100008900029F4DC641CC5E6000009280100E5
:100D20003031323334353637383961626364656661
:100D30000000000030313233343536373839414223
:100D4000434445460000000000B58F2003F03AFE02
:100D5000492003F03DFEFF2003F040FE48205DF8EF
:100D600004EB03F041BE00B5802003F02BFE4920C8
:100D700003F02EFE002003F031FE38205DF804EB76
:100D800003F032BE70B500211C4A127807E001EB77
:100D9000810303EBC10310F813301BB1491C9142CE
:100DA000F5DB70BD01EB810303EBC101012200F80B
:100DB000112000EB4104192262700025A570FFF795
:100DC000CBF96421484300EBD07121F00101401AB6
:100DD0006430A080B420E08025726572A572A91EDF
:100DE000A1811E21E1815A212182282161823C2199
:100DF000A182A021E182208370BD0000C44B0000CD
:100E0000FFF7C0BF2DE9F84F80460D460027DFF8F9
:100E10009C91C4E007EB870000EBC70018F81010A6
:100E200000297DD0202608EB40040096E088C2B25D
:100E3000A088C023C1B2287803F0B0FE0096E088F5
:100E4000C01DC2B2A088C123C1B22878401CC0B264
:100E500003F0A4FE0096E0880E30C2B2A088C22340
:100E6000C1B22878801CC0B203F098FE0096E088DA
:100E70001530C2B2A088C323C1B22878C01CC0B24A
:100E800003F08CFE0096E0881C30C2B2A088C42318
:100E9000001FC1B22878001DC0B203F07FFE00968B
:100EA000E0881C30C2B2A088C523001DC1B22878DA
:100EB000401DC0B203F072FE4FF0600ACDF800A0F2
:100EC000E088401DC2B2A088C623C01FC1B22878E6
:100ED000801DC0B203F062FE0096E088401DC2B2E1
:100EE000A088C623C01DC1B22878C01DC0B203F0BF
:100EF00055FE0096E0880C30C2B2A088C923C01FFE
:100F0000C1B228780830C0B203F048FE0096E088ED
:100F10000C30C2B2A088C01DC1B22878093000E0F0
:100F20003CE0C0B2CA2303F039FE0096E0880A30E4
:100F3000C2B2A088C8230E38C1B228780A30C0B225
:100F400003F02CFECDF800A0E0880A30C2B2A088E1
:100F5000C8230E30C1B228780B30C0B203F01EFE99
:100F60000096E0880A30C2B2A088C7231538C1B203
:100F700028780C30C0B203F011FECDF800A0E08854
:100F80000A30C2B2A088C7231530C1B228780D300C
:100F9000C0B203F003FE28780E3028707F1C99F849
:100FA00000008742FFF636AFBDE8F88FC44B000063
:100FB0002DE9F05F064600254FF0010803274FF0AA
:100FC0000209AA46DFF8D0B10FE005EB850000EB7F
:100FD000C50016F8101039B106EB4004A1780229BB
:100FE00009D0A078401CA0706D1C9BF800008542C1
:100FF000EBDBBDE8F09F84F802A0217A79B1217A79
:10100000012923D0217A0229EED1E188891EE180CD
:10101000B4F906100A29E7DA06F810A0E4E7B4F9F3
:101020000600B4F9101088420BDC84F80AA084F89A
:1010300009A084F80880594A3146594803F046F817
:10104000D2E7E088A1890844E080CDE7607AE0B18A
:10105000607A01284FD0607A022860D0607A032835
:10106000C2D1A088801EA080E088801CE080B4F9F6
:101070000400B4F916108842B6DA484A31464848A6
:1010800003F024F884F809A0AEE7A088801EA080B1
:10109000FFF762F890FBF7F107FB1100E188401EB3
:1010A0000844E080B4F90400B4F91210884206DA6A
:1010B00084F80980394A3146394803F007F8B4F911
:1010C0000400642809DAB4F90400612805DD334A14
:1010D0003146334802F0FAFF86E7B4F90400782875
:1010E00082DAB4F90400752898DD2C4A31462C4880
:1010F00002F0ECFF78E7A088801CA080E088801ECA
:10110000E080B4F90400B4F91410884286DD84F854
:101110000990224A3146224802F0D8FF64E7A088AD
:10112000801CA080FFF718F890FBF7F107FB110077
:10113000E188401E0844E080B4F90400B4F91810B6
:10114000884205DD6772154A3146154802F0BEFF38
:10115000B4F904006E2809DAB4F904006B2805DD3F
:101160000E4A31460E4802F0B1FF3DE7B4F90400E3
:10117000802889DAB4F904007D2885DD074A3146E4
:10118000074802F0A3FFA07A401CA072A07A0428AE
:10119000A2D184F8089027E7C44B00003C2C002023
:1011A000AC2E002070B5002200230525094E0DE06D
:1011B00002EB820101EBC20400EB44018B80CB8087
:1011C00000F814304D708B700B72521C31788A42CB
:1011D000EEDB70BDC44B000010B500240023FF22DD
:1011E0002146184603F0D2FC5B1CDBB2202BF6D361
:1011F000641CE4B21E2CF1D310BD000010B5344CB9
:1012000034A02168FFF720FC39480078012802D07B
:101210000020206010BD37480178374831B122687E
:1012200000F5727151F82210416005E032492268E0
:10123000083151F822104160416830480D2943D2ED
:10124000DFE801F042070B0F13171B1F272F373B57
:101250003F002B4803F000F836E0294803F027F858
:1012600032E0274803F040F82EE0254803F07CF8F0
:101270002AE0234803F0A7F826E0214803F0F5F818
:1012800022E0B0F90220B0F900101E4802F0F2FB93
:101290001AE0B0F90220B0F900101A4802F006FC7A
:1012A00012E0B0F90220B0F90010164802F01DFC5F
:1012B0000AE0154802F042FC06E0134802F051FC37
:1012C00002E01248FFF79CFD2068401C206010BD22
:1012D000480000206372656174655F656E6D6579B5
:1012E000506C616E655F6E756D3D25640000000099
:1012F000010000200B000020580000203C2C0020A2
:10130000BE2C00207E2D00206E2E0020922E00206C
:1013100000B502460020FFF744FB1046FFF745FBEF
:101320000020FFF746FB0720FFF73BFB30BF00BD67
:1013300010B503464CF2503403E02046FFF7E8FFB7
:101340005B1E002BF9D110BD00B5034603E032202F
:10135000FFF7DEFF5B1E002BF9D100BD2DE9F84F32
:101360000746DDF828E00E460A24B2FBF4F004FB41
:101370001020B2FBF4F1B1FBF4F504FB15114FF0B2
:10138000640AB2FBFAF5B5FBF4FC04FB1C5C4FF4F9
:101390007A7BB2FBFBF5B5FBF4F804FB185842F27C
:1013A0001075B2FBF5F5B5FBF4F904FB19592D4D99
:1013B000B2FBF5F2B2FBF4F504FB15222A4D2A72BA
:1013C00085F80B9085F80E8085F811C02975E875B1
:1013D000B3FBF4F004FB1031B3FBF4F0B0FBF4F218
:1013E00004FB1202B3FBFAF0B0FBF4FC04FB1C0C90
:1013F000B3FBFBF0B0FBF4F304FB130085F8200013
:1014000085F823C085F8262085F8291017497046ED
:10141000FEF70CFFFEF788FFC0B2B0FBF4F104FB4F
:101420001101B0FBF4F0B0FBF4F204FB120085F8FC
:10143000350085F838103878012810D13078182810
:101440000DD2002400EB40014A19009493785278A1
:10145000695C03F0A3FB3078401C30703C70BDE841
:10146000F88F0000A0860100EE0A00200000C842AC
:101470002DE9F04F8246DDF82480894616461F4646
:101480000021002048F82100491C1E29FADB002514
:10149000DFF840B11CE00AEB05142078B8B1E08811
:1014A000C1B2A0884246C0B203F0C2FAE088C1B21D
:1014B000A08842460830C0B203F0BAFAE088083883
:1014C000C1B2A0884246001DC0B203F0B1FA6D1C43
:1014D0009BF800008542DEDB0025DFF8FCA01FE062
:1014E000C5EB051019F81010C9B109EB4004A0882C
:1014F000C1B260884246C0B203F09AFAA088C1B275
:10150000608842460830C0B203F092FAA0880838DA
:10151000C1B260884246001DC0B203F089FA6D1C5A
:101520009AF800008542DBDB0025DFF8B09035E05B
:1015300005EB850000EBC50016F8101069B306EB4B
:101540004004E0880E30C1B2A0884246C0B203F029
:101550006FFAE0880C30C1B2A0884246C01FC0B20A
:1015600003F066FAE0880C30C1B2A0884246C01D84
:10157000C0B203F05DFAE0880A30C1B2A0884246EA
:101580000E38C0B203F054FAE0880A30C1B2A08825
:1015900042460E30C0B203F04BFA6D1C99F80000C1
:1015A0008542C5DB00240E4D0EE004EB840007EB02
:1015B00040010A793AB1498837F81000C9B2C0B27F
:1015C000424603F035FA641C28788442EDDBBDE81E
:1015D000F08F0000C14B0000C24B0000C44B000064
:1015E000C54B0000F8B506460D4600240D4F14E02B
:1015F00004EB840106EB4102107968B110200090E1
:101600005088C2B236F811003023C1B2287803F0F6
:10161000C5FA2878401C2870641C38788442E7DBBF
:10162000F8BD0000C54B000010B500210022064B9C
:1016300005E001EB810400EB44042271491C1C7895
:10164000A142F6DB10BD0000C54B000070B504469A
:101650004FF080450A2C03D10D21284603F0F3F901
:10166000E1B2284603F0EFF9204670BD38B55021AD
:10167000007800281BD001281BD002281BD0802412
:101680008825402322460020009503F087FA582140
:10169000412322460120009503F080FA0834E2B28B
:1016A000542142230220009503F078FA38BD8024AB
:1016B000E6E79024E4E7A024E2E700002DE9FF4FED
:1016C00081B005461C460A20B2FBF0F100FB112652
:1016D000B2FBF0F1B1FBF0F300FB13176421B2FB96
:1016E000F1F1B1FBF0F300FB13184FF47A71B2FB88
:1016F000F1F1B1FBF0F300FB131942F21071B2FBF0
:10170000F1F1B1FBF0F300FB131A2849B2FBF1F140
:10171000B1FBF0F200FB12134FF0300BCDF800B02C
:1017200020782946029A03F039FA05F10800C1B27F
:10173000CDF800B020785346401CC0B2029A03F0A6
:101740002DFA05F11000C1B2CDF800B020784B465B
:10175000801CC0B2029A03F021FA05F11800C1B250
:10176000CDF800B020784346C01CC0B2029A03F006
:1017700015FA05F12000C1B2CDF800B020783B4643
:10178000001DC0B2029A03F009FACDF800B020782B
:101790002835401DE9B2C0B23346029A03F0FEF983
:1017A0002078801D207005B0BDE8F08FA086010074
:1017B0002DE9F05F06460F4600250024DFF830B122
:1017C00006F1120807F10509A5EB060AB54210D388
:1017D00045450ED2BC420CD34C450AD2E01B00EB6F
:1017E000C0000BEB4000214610F80A20284603F009
:1017F000CDF9641CE4B21E2CE8D36D1CEDB2202D93
:10180000DBD3B61DF6B20837FFB20024DFF8E0A044
:1018100006F10809AAF1100A0025A4EB0608B44253
:1018200009D34C4507D2BD4205D11AF808202946F4
:10183000204603F0ABF96D1CEDB21E2DEFD3641CF6
:10184000E4B2202CE8D3B81C00F0FF0A0024DFF833
:10185000A0B006F10809ABF1080B0025A4EB0608BF
:10186000B44209D34C4507D2554505D11BF8082091
:101870002946204603F08AF96D1CEDB21E2DEFD3E8
:10188000641CE4B2202CE8D3361FF6B2083707F008
:10189000FF090024DFF858A006F10C080AF15A0AE3
:1018A0000025A71BB44209D3444507D24D4505D1B5
:1018B0001AF807202946204603F068F96D1CEDB29E
:1018C0001E2DEFD3641CE4B2202CE9D30025094E71
:1018D000002404EB4510A9B2325CA0B203F056F923
:1018E000641C202CF5DB6D1C202DF1DBBDE8F09F86
:1018F000880A0020360B00202DE9F047064688466E
:1019000092460025DFF8AC904DE005EB850000EB3A
:10191000C50716F81700E8B306EB4704A088C3080C
:10192000E088C0F3C700801C012158F82000A3F113
:10193000010C01FA03F201FA0CFC024000EA0C0C63
:1019400042EA0C0203F1010C01FA0CFC00EA0C0C57
:1019500042EA0C02A3F1020C01FA0CFC00EA0C0CA6
:101960009B1C994042EA0C020840024392B1607805
:10197000401E6070E088143001B2A08852460838DA
:1019800000B201F0B5FE607820B9002006F817001B
:10199000FD2000E006E0A080EF20E0800649086816
:1019A000C83008606D1C99F800008542ADDBBDE8C9
:1019B000F0870000C44B0000140000202DE9F04720
:1019C0000646884692460025DFF8749032E005EB23
:1019D000450716F8270060B306EB8704A088C00807
:1019E000E188C1F3C701491C012358F8211003FA0B
:1019F00000FC0A46401C834001EA0C011A401143D6
:101A0000B9B16078401E6070E088083001B2B4F966
:101A10000400524601F06CFE607850B9002006F8D0
:101A20002700FD20A080EF20E080064801683231C9
:101A300001606D1C99F800008542C8DBBDE8F087A5
:101A4000C34B000014000020F0B50022134F20E02B
:101A500002EB820400EB44031D79CDB130F8145041
:101A6000ED085E88C6F3C7064FF0010C51F82660FA
:101A70000CFA05FC06EA0C0656B100251D71FD2581
:101A800020F81450EF245C80054B1C68641C1C601B
:101A9000521C3B789A42DBDBF0BD0000C04B0000DB
:101AA000400000202DE9FF5F83460F4616460025C3
:101AB0004FF00108AA46DFF810913AE00BEB05144D
:101AC0002078A8B3A088C008E188C1F3C70108FA4C
:101AD00000F356F82120401C94461A4008FA00F3FF
:101AE000491E0CEA030C56F8210042EA0C02184089
:101AF0000243EAB1B4F90610B4F90400039A01F004
:101B0000F7FD84F800A0FD20A080EF20E080D9F848
:101B100000000A30C9F800008F2002F03BFF0020CF
:101B200002F03EFF952002F041FF982002F044FFB2
:101B30006D1C264800788542C0DB00253DE0C5EBE2
:101B4000051B17F81B00B8B307EB4B046088C008EF
:101B5000A188C1F3C70108FA00F356F82120401C00
:101B600094461A4008FA00F3491E0CEA030C56F892
:101B7000210042EA0C0218400243EAB1B4F9041011
:101B8000B4F90200039A01F0B3FD07F81BA0FD2091
:101B90006080EF20A080D9F800000F30C9F8000065
:101BA0008F2002F0F7FE002002F0FAFE952002F0EE
:101BB000FDFE982002F000FF6D1C0548007885426C
:101BC000BDDBBDE8FF9F000014000020C14B0000FA
:101BD000C24B00002DE9F0470446E079012844D0CB
:101BE0002088C0086388C3F3C7054FF0010C00F1DB
:101BF00001090CFA00F60CFA09F751F82530801C9F
:101C00000CFA00FC6D1C03EA060803EA070951F808
:101C1000250048EA090803EA0C0300EA060148EA3D
:101C2000030848EA0108384048EA0008B8F1000F04
:101C300019D0B4F90210B4F9000001F059FDFF20E9
:101C40002080EF206080002020718F2002F0A2FE13
:101C5000002002F0A5FE952002F0A8FEBDE8F047A6
:101C6000982002F0A9BE20792071BDE8F08700001D
:101C700070B50025074E002404EB4510A9B2325C74
:101C8000A0B202F083FF641C202CF5DB6D1C202D1C
:101C9000F1DB70BD3613002070B500221B4B1B78A2
:101CA00005E002EB420410F824401CB1521C9A4299
:101CB000F7DB70BD02EB4202012500F8225000EB79
:101CC0008204102363700020A070A180FEF744FA04
:101CD00000EB8000800000EBD07121F00101401A80
:101CE000C0F1E100E0802572FEF736FA00EBD0711A
:101CF00021F00101401A6072FEF72EFA00EBD0715C
:101D000021F00101401AA07270BD0000C34B000019
:101D10002DE9F84380460D460027DFF88491B7E0AF
:101D200007EB470118F82100002871D008EB810467
:101D3000A07A28B12026607A20B1012868D168E015
:101D40000026F8E70096E088C2B2A0889023C1B2CE
:101D5000287802F023FF0096E088C2B2A088912381
:101D60000830C1B22878401CC0B202F017FF0096BC
:101D7000E088C01DC2B2A0889223C1B22878801C1E
:101D8000C0B202F00BFF0096E088C01DC2B2A0886E
:101D900093230830C1B22878C01CC0B202F0FEFE06
:101DA0000096E0880E30C2B2A0889423C1B2287891
:101DB000001DC0B202F0F2FE0096E0880E30C2B202
:101DC000A08895230830C1B22878401DC0B202F027
:101DD000E5FE0096E088001DC2B2A0889623083870
:101DE000C1B22878801DC0B202F0D8FE46F0400093
:101DF0000090E088001DC2B2A08896231030C1B2C6
:101E00002878C01DC0B202F0C9FE287808302870BA
:101E10003DE00096E088C2B2A088B323C1B2287822
:101E200002F0BCFE0096E088C01FC2B2A088B123B9
:101E3000C1B22878401CC0B202F0B0FE0096E08823
:101E4000C01DC2B2A088B523C1B22878801CC0B220
:101E500002F0A4FE0096E088C2B2A088B22308383F
:101E6000C1B22878C01CC0B202F098FE46F0400013
:101E70000090E088C2B2A088B2230830C1B22878AE
:101E8000001DC0B202F08AFE2878401D28707F1C19
:101E900099F800008742FFF643AFBDE8F8830000E1
:101EA000C34B000070B500220024174E0DE002EB7A
:101EB000420310F8231039B100EB83018D78022D15
:101EC00007D08B785B1C8B70521C31788A42EEDB1A
:101ED00070BD8C70B1F90450052D0CDBB1F90450C4
:101EE000FB2D08DCB1F9065008350A2D03DBB1F9EA
:101EF0000650E62D02DD00F82340E5E7CB8891F996
:101F000008505B1BCB80DFE7C34B000030B50022DD
:101F10000A4D0FE002EB420400EB840100238B80AA
:101F2000CB800B7200F8243005244C708B704B7200
:101F30008B72521C29788A42ECDB30BDC34B000007
:101F40001FB54FF0000801234FF4D971CDF8008080
:101F5000CDF80480CDF808801A464807CDF80C80EB
:101F600002F076FDDFF8FC93FD4A0020D9F834102A
:101F700002F020FE4FF0C040C36882684168FAA0BA
:101F8000FEF762FDFEF7E4FB6420FEF7D9FC0020BB
:101F900002F0FAFC0F2002F045FD0020FEF754FC91
:101FA0004FF48050FEF750FC4FF40050FEF74CFC0D
:101FB0004FF44050FEF748FC4FF48040FEF744FCDD
:101FC0004FF4A040FEF740FC4FF4C040FEF73CFC4D
:101FD0004FF4E040FEF738FCD9F8200000F094FD03
:101FE000D9F81C0000F08CFEDFF890B3DFF88CA36A
:101FF000E34EABF11C0B012599F8050000280CD02D
:1020000089F8058089F80A8099F8010030B1012823
:102010007ED002287DD003287CD0E9E1D9F83810A1
:10202000D9F8140081423CD20A21B0FBF1F201FB45
:10203000120CB0FBF1F2B2FBF1F301FB13236422AB
:10204000B0FBF2F2B2FBF1F401FB142E4FF47A7202
:10205000B0FBF2F2B2FBF1F401FB142442F2107275
:10206000B0FBF2F2B2FBF1F701FB1722C54FB0FB58
:10207000F7F0B0FBF1F701FB1701C34841710271A2
:10208000C47080F802E0437080F800C0D9F81800EE
:10209000FEF7BCFB4FF48072BB48D9F81810FEF76E
:1020A00028FCB648083005600024FF23E622FB2107
:1020B0002046CDF8008002F071FD641CE4B2402C93
:1020C000F3D3FFF789F808210720FFF771FBA54834
:1020D00006225030D9F81810FEF7D4FBA14CA949BC
:1020E000503440F27122607948432179514300EB2A
:1020F0000111E07800EB4002C2EBC01001EBC0011F
:10210000A07800EBC00202EB001001EB800102E0BE
:102110004FE09EE0BAE0607800EB800001EB400009
:1021200021780144C9F8381098A0FEF78DFC3027BB
:102130000097637918229821322002F02FFD009732
:1021400023791822A021332002F028FD0097E3789C
:102150001822A821342002F021FD0097A37818222C
:10216000B021352002F01AFD009763781822B821BB
:10217000362002F013FD009723781822C021372063
:1021800002F00CFD99F80B0020B112221421104628
:1021900002F0FCFCC9F8488072481130FFF766FA7B
:1021A00089F80780C9F81480C9F83C80C9F84080D4
:1021B0001EE189F80D8089F80E8089F80F8089F872
:1021C000108089F8068089F81280C9F844806C482C
:1021D00001F0E2F86A480A3001F00EF968488230EE
:1021E00002F0BCFB6F4801F05BFF6E48F030FFF778
:1021F0008DFE6D48FEF7D6FF6B481A30FFF714FAD4
:102200006A4801F065FA0024FF23E622FB212046FC
:10221000CDF8008002F0C2FC641CE4B2402CF3D381
:10222000FEF7DAFFFFF724FD544903201839086050
:1022300099F807008003091D08600820091D08603F
:10224000CBF800504D48001D0560001DC0F800800F
:10225000CEE0CBF800800024FF23E622FB212046BD
:10226000CDF8008002F09AFC641CE4B2402CF3D359
:10227000FEF7B2FF41480830056089F8048089F80C
:10228000008089F8028089F80380B1E0CBF80080F3
:102290000024FF23E622FB212046CDF8008002F037
:1022A0007DFC641CE4B2402CF3D3FEF795FF99F853
:1022B000080089F809007827202003900824332398
:1022C000009439460020039A02F068FC34230094FD
:1022D00080210120039A02F061FC48200090332302
:1022E00088210220039A02F059FC352327227C2101
:1022F0000320009402F052FC36232722842104207C
:10230000009402F04BFC282433235E22394605203A
:10231000009402F043FC34235E22802106200094C6
:1023200002F03CFC6820009033235E2288210720C5
:1023300002F034FC352365227C210820009402F051
:102340002DFC3623652284210920009402F026FC0E
:10235000302433239C2239463220009428E00000A8
:10236000738C878C000000204F56353634303A206D
:1023700025782C25782C25780A0000001C080250AE
:102380003C2C0020A08601003C2B00206E6F77467D
:102390006C61736847616D6553636F72653D257548
:1023A0000A0000007E2D0020922E00200030002028
:1023B00002F0F4FB34239C2280213320009402F0AD
:1023C000EDFB7020009033239C228821342002F002
:1023D000E5FBA32735233A467C211846009402F0FA
:1023E000DDFB36233A4684211846009402F0D6FBE2
:1023F00099F8010099F8051050EA010202D001286D
:1024000055D055E0FEF780F9C9F82400052804D01E
:1024100007280DD00D2817D03FE0FEF795FCFE48A9
:10242000017819B30178491E0170FFF71FF934E0F4
:10243000FEF78AFCF848017802292ED20178491C5F
:102440000170FFF713F928E0FEF77EFCF2480178EF
:1024500031B1017801290AD0007802280FD01CE0A0
:1024600089F8055089F80150FEF77DFC15E0FEF76C
:102470006BFC89F80550032089F801000DE0FEF798
:1024800063FC99F80B0080F0010089F80B0040B163
:1024900012221421104602F079FBC820FEF748FFF3
:1024A000AAE511221421122002F070FBF5E711B108
:1024B000022872D0ADE299F8060020B302286DD050
:1024C0000328EDD199F80700401CC0B289F8070035
:1024D00002287DD0002789F80080CF4B0A21113BCC
:1024E0000320D9F81420FFF7E9F8CB4999F8070041
:1024F000113901F037F8C849C848113900F068FDB2
:1025000099F800404DE2C64C2168201F00688142C6
:1025100001D3201D0068FEF7F7F8C9F8280001F084
:10252000DDF989F8130001F0F7F9C9F84C0099F8C2
:102530000D10491C89F80D1099F80E10491CC9B2EC
:1025400089F80E10242936D389F80E8099F80B10DB
:1025500011B108281BD01DE0B2480079810602D4D1
:1025600099F8101059B1000625D499F8100048B117
:10257000CAF8008089F81080FEF7F5FB1BE089F8A7
:102580000F5018E0CAF8005089F8105013E099F87D
:10259000101021B1012805D00DE039E221E189F8C0
:1025A0000F5008E099F81000A8B1CAF8008089F827
:1025B0001080FEF7D8FB99F80D00142829D389F86C
:1025C0000D8099F80B0058B1D9F84C00022800E0B2
:1025D00076E114D01DE0CAF8005089F81050EAE7FF
:1025E00090480079C00614D499F8100088B9F079A1
:1025F00078B98A4989480A3100F010FF09E099F852
:10260000100030B9F07920B9844984480A3100F0CB
:1026100005FF99F80D100320B1FBF0F200FB12103A
:1026200001285CD199F8100048BB99F80B0040B123
:1026300099F8130000F00F0101292BD0022938D19D
:1026400030E07848C078C10607D4B6F902101E29D8
:102650000CDD7188491F718008E0410606D4B6F987
:102660000210D22902DA7188491D7180810607D4CF
:10267000B6F90000E72832DA3088401D30802EE0BD
:1026800000062CD4B6F90000192828DD3088401F38
:10269000308024E0B6F902101E290ADD7188491F36
:1026A000718006E0B6F90210D22902DA7188491D5C
:1026B000718000F0F000302802D040280FD107E0F0
:1026C000B6F9000019280ADD3088401F308006E086
:1026D000B6F90000E72802DA3088401D308099F80A
:1026E000100010BB4C494D48891E00F041FC4B487E
:1026F0000A3000F01DFF49494B4A01F1820002F007
:102700000BF84649484A01F5A17001F059FB4648CB
:102710003E38FFF7C7FB44481A38FEF749FC4248E9
:1027200002F0BCF9414800F0FDFF206808280ED1F6
:102730003B48001D0068782809D800203A4A411E0D
:10274000643242F82010401C1E28FADB05E03649AE
:102750006431A1F2CA2000F0E7FB3448324B7838EC
:10276000A0F1F602A0F20A210090A0F2CA20FEF722
:102770007FFE99F80C0028B12C4A2848A2F1780174
:10278000FFF728FA294BA3F1F002A2F5C971A1F1D4
:10279000C000FFF787F9254AA2F1F001A1F1A200DC
:1027A000FFF70CF9214AA2F1F001A1F17E00FFF739
:1027B000A3F81E497839A1F24230FFF745F9307984
:1027C00060B999F81200F02808D389F80550022062
:1027D00089F8010089F80A80FEF7C5FA89F80650E1
:1027E0000AE489F8008099F81000A0B120246E2234
:1027F000234611464046009402F0D0F999F80000B3
:10280000401CC0B289F8000021236E227E21009472
:1028100002F0C4F90CE010E0110000203C2C002074
:102820001008025028300020AC2E0020003000207C
:1028300099F80000401C89F80000AE4B0A210320E3
:10284000D9F81420FEF73AFFAA49AB4800F0C0FBC4
:10285000A948A8490A3000F0ADFDA649A74800F0F4
:10286000D7FEA548A349823001F00AFEA149A44839
:1028700001F092F9A2489F49F030FFF749FA9D49CB
:10288000A048FEF7BFFA9F489A491A30FEF7AAFE01
:1028900099F800400FE0CDF80080FF23E622FB21ED
:1028A00099F8000002F07AF999F80000401C89F8C4
:1028B0000000641CE4B2402CEDD389F80680EFE5FB
:1028C000002789F800808B4B0A210320D9F81420B7
:1028D000FEF7F4FE874999F8070000F043FE8549AA
:1028E000854800F075FB99F800400FE0CDF80080B6
:1028F000FF23E622FB2199F8000002F04FF999F836
:102900000000401C89F80000641CE4B2402CEDD3A8
:102910004FF49670FEF70CFD89F80080754B0A2184
:102920000320D9F81420FEF7C9FE7249724800F05E
:102930004FFB99F800400FE0CDF80080FF23E6221E
:10294000FB2199F8000002F029F999F80000401CD9
:1029500089F80000641CE4B2402CEDD34FF496706B
:10296000FEF7E6FC7F1C062FABDBCBF8008089F876
:10297000068089F80550022089F8010086F8048055
:102980008EE5CDF80080FF23E622FB2199F80000B8
:1029900002F004F999F80000401C89F80000641C5A
:1029A000E4B2402CEDD34FF4FA70FEF7C1FC89F885
:1029B0000080504B0A210320D9F81420FEF77EFE38
:1029C0004C494D4800F004FB99F800400FE0CDF869
:1029D0000080FF23E622FB2199F8000002F0DEF8D8
:1029E00099F80000401C89F80000641CE4B2402CF7
:1029F000EDD34FF49670FEF79BFC7F1C062FFFF67D
:102A00006AAD89F8068089F8055089F8015047E5D4
:102A1000E1B10328B4D10029B2D120213E20CDF864
:102A2000008099F80920252302FB0010C2B2702112
:102A30000F2002F0B3F8FDF767FEC9F83000052853
:102A400034D007283BD0102843D04EE0D9F83C00C2
:102A5000FDF765FC0446D9F840000746FDF75FFC2A
:102A60002146FDF715FCC9F8440022490090C91C15
:102A70003B46481CD9F81420FEF770FC99F8030077
:102A80001828C4D3FDF740FEC9F82C00102809D13E
:102A9000FEF75AF989F80180FEF765F989F80550C3
:102AA00089F803806420FEF743FCF9E4FEF74CF953
:102AB00099F80900C8B1401E89F8090015E0FEF731
:102AC00043F999F8090002280FD2401C89F809003F
:102AD0000BE0FEF739F999F8090089F8080089F840
:102AE000055089F80180FEF73EF94FF49670FEF725
:102AF0001FFCD5E4000000203C2C0020003000200A
:102B00007E2D0020922E00202DE9F05F04464FF428
:102B100080752A4621466E48FDF7EBFE6D482A4631
:102B200004F580710646FDF7E4FE6B482A4604F57D
:102B300000710746FDF7DDFE68482A4604F540713E
:102B40008046FDF7D6FE2A4604F580616048FDF711
:102B5000D0FE2A4604F5A0613046FDF7CAFE2A469B
:102B600004F5C0613846FDF7C4FE2A4604F5E0616D
:102B70004046FDF7BEFE2A4604F500615448FDF7C5
:102B8000B8FE2A4604F510613046FDF7B2FE2A462B
:102B900004F520613846FDF7ACFE2A4604F53061A5
:102BA0004046FDF7A6FE2A4604F540614848FDF779
:102BB000A0FE2A4604F550613046FDF79AFE2A46EB
:102BC00004F560613846FDF794FE2A4604F570610D
:102BD0004046FDF78EFE2A4604F580514048FDF739
:102BE00088FE40482A4604F588518146FDF781FE5B
:102BF0003D482A4604F590518246FDF77AFE3B484F
:102C00002A4604F598518346FDF773FE2A4604F5DB
:102C1000A0512F48FDF76DFE2A4604F5A851304615
:102C2000FDF767FE2A4604F5B0513846FDF761FE10
:102C30002A4604F5B8514046FDF75BFE2A4604F5E6
:102C4000C0512748FDF755FE2A4604F5C8514846AD
:102C5000FDF74FFE2A4604F5D0515046FDF749FED8
:102C60002A4604F5D8515846FDF743FE2A4604F596
:102C7000E0511748FDF73DFE2A4604F5E85130467D
:102C8000FDF737FE2A4604F5F0513846FDF731FED0
:102C90002A4604F5F8514046FDF72BFE2A4604F576
:102CA00000511348FDF725FE2A4604F5045111484A
:102CB000FDF71FFE2A4604F508510F48FDF719FEDF
:102CC0002A4604F50C51BDE8F05F0C48FDF711BE33
:102CD000360F00203610002036110020361200205A
:102CE000361700203618002036190020361A00202A
:102CF000361300203614002036150020361600202A
:102D00002DE9F05F04464FF480752A4621466E484F
:102D1000FDF7EFFD6D482A4604F580710646FDF784
:102D2000E8FD6B482A4604F500710746FDF7E1FD12
:102D300068482A4604F540718046FDF7DAFD2A46C8
:102D400004F580616048FDF7D4FD2A4604F5A061D2
:102D50003046FDF7CEFD2A4604F5C0613846FDF742
:102D6000C8FD2A4604F5E0614046FDF7C2FD2A464B
:102D700004F500615848FDF7BCFD2A4604F51061D2
:102D80005648FDF7B6FD2A4604F520615448FDF784
:102D9000B0FD2A4604F530615248FDF7AAFD2A46E7
:102DA00004F540615048FDF7A4FD2A4604F5506142
:102DB0004E48FDF79EFD2A4604F560614C48FDF73C
:102DC00098FD2A4604F570614A48FDF792FD2A46AF
:102DD00004F580514848FDF78CFD48482A4604F523
:102DE00088518146FDF785FD45482A4604F59051F6
:102DF0008246FDF77EFD43482A4604F598518346F6
:102E0000FDF777FD2A4604F5A0513B48FDF771FD1B
:102E10002A4604F5A8514846FDF76BFD2A4604F5FD
:102E2000B0515046FDF765FD2A4604F5B8515846A5
:102E3000FDF75FFD2A4604F5C0513348FDF759FD03
:102E40002A4604F5C8513148FDF753FD2A4604F5DA
:102E5000D0512F48FDF74DFD2A4604F5D8512D4895
:102E6000FDF747FD2A4604F5E0511748FDF741FDFF
:102E70002A4604F5E8513046FDF73BFD2A4604F5A5
:102E8000F0513846FDF735FD2A4604F5F851404625
:102E9000FDF72FFD2A4604F500511F48FDF729FDD7
:102EA0002A4604F504511D48FDF723FD2A4604F582
:102EB00008511B48FDF71DFD2A4604F50C51BDE8DD
:102EC000F05F1848FDF715BD360F002036100020C2
:102ED0003611002036120020361B0020361C002040
:102EE000361D0020361E0020361F00203620002010
:102EF00036210020362200203623002036240020F0
:102F000036250020362600203627002036280020CF
:102F100036290020362A00203613002036140020DF
:102F20003615002036160020F0B505460E46002165
:102F3000002046F82100491C1E29FADB00240B4F13
:102F400010E004EB840105EB4103187948B158887F
:102F500035F81110C0B2CBB201463246184601F026
:102F600067FD641C38788442EBDBF0BDC04B000089
:102F7000C3790022002B06D0017A05290BD0017AF3
:102F80000A2908D011E00B78012B03D1C37102721A
:102F900043720A707047417A042903D84188C91ED8
:102FA000418002E04188C91C4180017A0A290AD384
:102FB0000272417A072902D3C27142727047417A84
:102FC000491C41727047017A491C01727047000028
:102FD0002DE9F8430446884698F800600025ED483E
:102FE0000078002804D0012804D0022804D004E08E
:102FF000082502E0282500E03025207900287CD033
:10300000607A08283FD2DFE800F0043F7C9FCEFDC5
:10301000FCFB052700956088C2B220883323C1B22B
:10302000304601F0BBFD00956088C2B22088342391
:103030000830C1B2701CC0B201F0B0FD45F04000D4
:1030400000906088C2B2208833231030C1B2B01C17
:10305000C0B201F0A3FD00956088C01DC2B22088F7
:103060003523001DC1B2F01CC0B201F097FD0095E0
:103070006088C01DC2B22088361D0C30C1B2F0B2CB
:10308000362301F08BFD7DE1052700956088C2B2F3
:1030900020883723C1B2304601F080FD009560885A
:1030A000C2B2208838230830C1B2701CC0B201F00F
:1030B00075FD45F0400000906088C2B2208837233B
:1030C0001030C1B2B01CC0B201F068FD009560883C
:1030D000C01DC2B220883923001DC1B2F01CC0B28D
:1030E00001F05CFD00956088C01DC2B220880C30E4
:1030F000361DC1B2F0B2392300E048E101F04EFDC7
:1031000040E1032700956088C2B220883A23C1B20B
:10311000304601F043FD00956088C2B220883B2311
:103120000830C1B2701CC0B201F038FD45F040005B
:1031300000906088C2B22088B61C1030C1B2F0B2D4
:103140003A2301F02BFD1DE1042700956088C2B2EF
:1031500020883D23C1B2304601F020FD00956088F3
:10316000C2B220883E230830C1B2701CC0B201F048
:1031700015FD45F0400500956088C2B220883D23CA
:103180001030C1B2B01CC0B201F008FD00956088DB
:10319000C01FC2B22088F61C0830C1B2F0B23C2376
:1031A00001F0FCFCEEE00727009560880F38C2B202
:1031B00020883F23001DC1B2304601F0EFFC00958E
:1031C00060880F38C2B22088F0230C30C1B2701C66
:1031D000C0B201F0E3FC00956088C01FC2B2208835
:1031E000F123001DC1B2B01CC0B201F0D7FC0095A4
:1031F0006088C01FC2B220880C30C1B2F01C02E04F
:1032000086E062E024E0C0B2F22301F0C7FC009542
:103210006088C2B22088F323C1B2301DC0B201F071
:10322000BDFC00956088C2B22088F4230830C1B28A
:10323000701DC0B201F0B2FC00956088C2B2208857
:10324000B61D1030C1B2F0B2F52301F0A7FC99E031
:10325000062700956088C01FC2B22088F623001D93
:10326000C1B2304601F09AFC45F04009CDF800901B
:103270006088C01FC2B22088F6230C30C1B2701C17
:10328000C0B201F08BFC00956088C2B22088F723A1
:10329000C1B2B01CC0B201F081FC00956088C2B21E
:1032A0002088F8230830C1B2F01CC0B201F076FCCF
:1032B000CDF800906088C2B22088361D1030C1B2AF
:1032C000F0B2F72301F06AFC5CE003270095608808
:1032D000C2B220883A23C1B2304601F05FFC0095AB
:1032E0006088C2B220883B230830C1B2701CC0B2D3
:1032F00001F054FC45F0400000906088C2B2208884
:10330000B61C1030C1B2F0B23A2301F047FC39E0EC
:10331000052700956088C2B220883323C1B23046A9
:1033200001F03CFC00956088C2B22088342308304C
:10333000C1B2701CC0B201F031FC45F040000090F9
:103340006088C2B2208833231030C1B2B01CC0B232
:1033500001F024FC00956088C01DC2B2208835238E
:10336000001DC1B2F01CC0B201F018FC00956088CD
:10337000C01DC2B22088361D0C30C1B2F0B2362357
:1033800001F00CFC98F80000384488F80000BDE813
:10339000F88300000800002078210180B4214180DA
:1033A000012101710022C271027242728171417168
:1033B00070470000F8B506460D4600240D4F14E096
:1033C00004EB840106EB4102107968B110200090F3
:1033D0005088C2B236F811003123C1B2287801F00A
:1033E000DDFB2878401C2870641C38788442E7DBB9
:1033F000F8BD0000C04B000010B500210022064BB4
:1034000005E001EB810400EB44042271491C1C78A7
:10341000A142F6DB10BD0000C04B0000F0B5027900
:10342000002A17D08279414E01254AB18279012ABA
:1034300021D08279022A0DD100230A79F2B34BE020
:10344000002202EB820301EB43031B791BB1521CE8
:10345000042AF6DBF0BD038802EB8202083321F870
:103460001230438801EB4200083B4380057130680D
:10347000401C3060F0BD002202EB820401EB4403EB
:103480001F790FB99F7B1FB1521C082AF4DBF0BDD6
:10349000078802EB82023F1D21F81270428801EB7F
:1034A0004401083A4A801D7101880C3159814088D5
:1034B000083898819D733068801C00E001E030601E
:1034C000F0BD03EB830201EB4202947B24B9147E2E
:1034D00014B992F822401CB15B1C102BADDBF0BD7F
:1034E0000488241F0C804488083C4C800D7104889B
:1034F00003EB830301EB4301241D4C814188083910
:103500009181957301880C31918241880839D1826B
:10351000157601881431D18340880838108482F8E8
:1035200022503068001D3060F0BD00003C000020DB
:1035300030B5002200240A4D0EE002EB820100EBC0
:1035400041010B793BB14B885B1F4B80B1F90230D5
:10355000052B00DA0C71521C29788A42EDDB30BD54
:10356000C04B00002DE9F84381460C4678264FF009
:1035700064082025009520780C234246314601F04E
:103580000DFB2078401CC0B2207088270D234246D6
:103590003946009501F002FB2078401CC0B2207033
:1035A0004FF0740870214B464246009501F0F6FA40
:1035B0002078401CC0B2207080210E234246009526
:1035C00001F0ECFA2078401CC0B2207090210F234B
:1035D0004246009501F0E2FA2078401CC0B220700B
:1035E0004FF08408102342463146009501F0D6FA88
:1035F0002078401CC0B22070112342463946009505
:1036000001F0CCFA2078401C2070BDE8F88300005F
:103610002DE9F84F07460D460024DFF8B0B04EE024
:1036200007EBC4063079E0B370794FEA40084FF0F9
:10363000100ACDF800A008F1E009708809F0FF0336
:10364000C2B237F83400C1B2287801F0A7FACDF839
:1036500000A008F1E108708808F0FF03C2B237F853
:1036600034000830C1B22878401CC0B201F096FA8C
:103670004FF0D00ACDF800A0708808F0FF03C01DFD
:10368000C2B237F83400C1B22878801CC0B201F051
:1036900085FACDF800A0708809F0FF03C01DC2B202
:1036A00000E00BE037F834000830C1B22878C01CC5
:1036B000C0B201F073FA2878001D2870641C9BF8D2
:1036C00000008442ACDBBDE8F88F0000C64B000070
:1036D00010B500210022054B03E000EBC10422716C
:1036E000491C1C78A142F8DB10BD0000C64B00004D
:1036F00030B500230A4C247804E002EBC3052D7991
:103700001DB15B1CA342F8DB30BD02EBC3040025F6
:10371000657122F83300618001202071A57130BDF0
:10372000C64B000030B5002200230D4D13E000EB26
:10373000C2010C7974B18C79052C03D28C79641C8C
:103740008C7107E08B714C79641C4C714C79042CA2
:1037500000D30B71521C29788A42E8DB30BD00008F
:10376000C64B00007047000070B5534C514800260E
:1037700021780278481CC0B2002A22D0012A3DD00C
:10378000022A1DD14D4D15F8210001F01BF92078BA
:1037900005EB8000407801F01BF9207805EB8000F4
:1037A000807801F01BF9207805EB8000C07801F0EB
:1037B0001BF92078401CC0B22070122800D326705C
:1037C00070BD20703E4D15F8200001F0FBF8207808
:1037D00005EB8000407801F0FBF8207805EB8000D5
:1037E000807801F0FBF8207805EB8000C07801F0CC
:1037F000FBF820782C28E3D9267070BD314909796F
:1038000009B3314909780029F7D120702B4D4C3587
:1038100015F8200001F0D6F8207805EB80004078FC
:1038200001F0D6F8207805EB8000807801F0D6F81A
:10383000207805EB8000C07801F0D6F820783E288B
:10384000DBD3267070BD20701C4D703D15F8300024
:1038500001F0B8F8207805EBC000407801F0B8F826
:10386000207805EBC000807801F0B8F8207805EBEF
:10387000C000C07801F0B8F8207805EBC0000079EE
:1038800001F0B8F8207805EBC000407901F0B8F8F5
:10389000207805EBC000807901F0B8F8207805EBBE
:1038A000C000C07901F0B8F820780D28CAD9267078
:1038B00070BD0000010000200A0000200409002063
:1038C000E00700203C2C0020100000207047000082
:1038D0000148C068704700000050004010B50C4B14
:1038E0005C420C4801680AB2406801B200209A426A
:1038F00001DA012002E0A24200DD0220994202DA50
:1039000040F0300010BDA142FCDD40F0400010BD91
:1039100060F0FFFF002000404FF0C040006870479B
:103920002DE9F0410F4616461D46002450490978FE
:1039300005E0C4EB041210F8122022B1641C8C4282
:10394000F7DBBDE8F081C4EB0411012200F811207F
:1039500000EB41044FF0000884F80180FCF7FCFB09
:10396000032190FBF1F201FB1200404200EB8000CA
:1039700005EB80003C38A08084F80780FCF7ECFB66
:1039800000EBD07121F00101401A6072A771A0799B
:103990001E2750B3F120608004202077FCF7DCFB69
:1039A000404200EBD07121F00101401A801E2072CC
:1039B000FCF7D2FB142190FBF1F201FB1200304422
:1039C0003230A081A0893C38E081143D2582FCF78B
:1039D000C3FB90FBF7F107FB1100218A1430084468
:1039E0006082E0891E30A082ABE70F20608084F8FF
:1039F0001C80FCF7B1FB00EBD07121F00101401AF3
:103A0000801C2072FCF7A8FB00EB8000400000EB5C
:103A1000D07121F00101401A30443238A081FCF706
:103A20009BFB00EB8000800000EBD07121F00101D6
:103A3000401AA1891E300844E081FCF78DFB00EBA1
:103A40008000800000EBD07121F00101401A281A9B
:103A500014382082FCF780FB90FBF7F107FB110084
:103A6000218A143008446082E0891E38A08268E709
:103A7000C24B00002DE9F04106460F461546FCF703
:103A80006BFB00EBD07121F00101401AC4B22B4650
:103A90003A4621463046FFF743FF14352BB23A46EB
:103AA00021463046BDE8F041FFF73ABF2DE9F0412D
:103AB00007460D461646FCF74FFB00EBD07121F090
:103AC0000101401AC1B2012901D0012400E0002403
:103AD00033462A463846FFF723FF33462A46214617
:103AE0003846BDE8F041FFF71BBF2DE9F04106461F
:103AF0000F4615462A4639463046FFF7D7FFFCF7F2
:103B00002BFB00EBD07121F00101401AC4B2FCF78D
:103B100023FB00EBD07121F00101401A00F0FF08F7
:103B20002B463A4621463046FFF7FAFE2B463A46E8
:103B300041463046BDE8F041FFF7F2BE10B50446FD
:103B4000FCF70AFB00EBD07121F00101401AC0B272
:103B500028B1D0212046BDE81040FEF79DB83021A5
:103B6000F8E770B50546FCF7F7FA00EBD07121F0E5
:103B70000101401AC4B25CB1D0212846FEF78CF88E
:103B8000012C07D0D0212846BDE87040FEF784B84C
:103B90003021F2E73021F6E72DE9F84F07460D46D0
:103BA00000264FF02008DFF81492FFE0C6EB061164
:103BB00017F81100002833D007EB4104207F0528B7
:103BC0002ED2DFE800F0032E6992CA004FF0600A9F
:103BD000CDF800A0A088C2B260885923C1B228786D
:103BE00000F0DCFFCDF800A0A088C01DC2B2608844
:103BF0005A23C1B22878401CC0B200F0CFFFCDF8E4
:103C000000A0A088C01CC2B260885B230838C1B283
:103C10002878801CC0B200F0C1FF2878C01C287032
:103C2000C3E04FF0A00ACDF800A0A088401CC2B2AB
:103C300060885E23401CC1B2287800F0AFFFCDF849
:103C400000A0A088401CC2B260885F230830C1B2C7
:103C50002878401CC0B200F0A1FFCDF800A0A088D9
:103C60000830C2B260885C23C1B22878801CC0B220
:103C700000F094FFCDF800A0A0880830C2B26088A0
:103C80005D230830C1B22878C01CC0B200F086FFA6
:103C90002878001D287088E0CDF80080A088C2B286
:103CA00060884023C1B2287800F078FFCDF800800A
:103CB000A088C2B2608841230830C1B22878401C75
:103CC000C0B200F06BFFCDF80080A0880838C2B207
:103CD00060884223001DC1B22878801CC0B200F069
:103CE0005DFF2878C01C28705FE04FF0E00ACDF837
:103CF00000A0A088C2B260885F23C1B2287800F01B
:103D00004DFFCDF800A0A088C2B260885E230830C5
:103D1000C1B22878401CC0B200F040FFCDF800A02E
:103D2000A0880830C2B260885D23C1B22878801CA8
:103D3000C0B200F033FFCDF800A0A0880830C2B2B6
:103D400060885C230830C1B22878C01CC0B200F083
:103D500025FF2878001D287027E0CDF80080A08876
:103D6000C2B260885923C1B2287800F017FFCDF89D
:103D70000080A088C01DC2B260885A23C1B22878D2
:103D8000401CC0B200F00AFFCDF80080A088C01C23
:103D9000C2B260885B230830C1B22878801CC0B2F0
:103DA00000F0FCFE2878C01C2870761C99F80000F2
:103DB0008642FFF6FBAEBDE8F88F0000C24B000064
:103DC0002DE9F05F8146002503274FF0020B4FF0ED
:103DD000010800264FF0040A0DE0C5EB051019F8A4
:103DE000101039B109EB40046178022909D06078DC
:103DF000401C60706D1CA94800788542EDDBBDE871
:103E0000F09F6670B4F9021005290BDBB4F90210BB
:103E1000FB2907DCB4F904100A2903DBB4F9041008
:103E2000E62902DD09F81060E4E7E07960B1E079A5
:103E30000128DFD1A07958B3A07A0528DAD2DFE8CB
:103E400000F0AEC5E5F6F400A07948B9B4F9020077
:103E5000B4F90C10884203DB84F80780A672C9E726
:103E6000A079012809D1B4F90200B4F90C108842F4
:103E700003DC84F80780A672BCE7608894F9081018
:103E800008446080A08894F909100844A080B1E734
:103E9000A07A0528AED2DFE800F003193A4C6C0096
:103EA00026776088C01C6080FCF756F990FBF7F11C
:103EB00007FB1100A1880844A080B4F90200B4F9FE
:103EC0000E10884296DB84F80A8093E784F81C8001
:103ED000FCF742F900EBD07121F00101401A618832
:103EE000801C08446080FCF737F900EBD07121F0AA
:103EF0000101401AA188801C0844A080B4F9040084
:103F0000B4F9101088428FDB84F80AB072E784F8A5
:103F10001CB060886080A088C01CA080B4F9040038
:103F2000B4F9121088429ADBA7720020FCF77AFBE2
:103F300060E72777FCF710F900EBD07121F0010161
:103F4000401A6188081A801E6080FCF705F900EBB2
:103F5000D07121F00101401AA188801C0844A08082
:103F6000B4F90200B4F91410884285DC84F80AA080
:103F700040E784F81CA0FCF7EFF800EBD07121F0CB
:103F80000101401A6188081A801E6080B4F902009D
:103F9000B4F91610884298DC84F80AA02AE784F85D
:103FA0001CA06088C01E6080FCF7D6F890FBF7F17B
:103FB00007FB1100A1880844A080B4F90200B4F9FD
:103FC0000E108842A2DC84F80A8013E72777FCF7FA
:103FD000C3F800EBD07121F00101401A6188081A82
:103FE000801E6080FCF7B8F800EBD07121F0010171
:103FF000401AA188801C0844A080B4F90400B4F9D8
:104000001010884294DC84F80AB0F3E684F81CB0FF
:1040100060886080A088C01CA080B4F90400B4F956
:104020001210884284DBA772E4E621E0FFE784F8FF
:104030001C80FCF791F800EBD07121F00101401ACF
:104040006188801C08446080FCF786F800EBD07122
:1040500021F00101401AA188801C0844A080B4F915
:104060000200B4F91410884298DB84F80AA0C1E673
:104070002677FCF771F800EBD07121F00101401AAE
:104080006188801C08446080B4F90200B4F91610FD
:1040900088429ADB84F80AA0ACE60000C24B00001C
:1040A00030B500210024084D09E0C1EB011300EBFD
:1040B00043025480948000F813405470491C2A78BD
:1040C0009142F2DB30BD0000C24B00002DE9F04709
:1040D00003460020314C247806E000EB800503EB1A
:1040E00045052D7925B1401CA042F6DBBDE8F087DF
:1040F0008C8800EB8000083423F81040CC8803EB58
:104100004005083C6C8001202871B1F90400B1F928
:104110000600B2F90000B2F9020010888B88C01ABC
:1041200006B25088C988401A07B2002E01DA7042E0
:1041300000E03046FCF7EAF80446002F01DA784246
:1041400000E03846FCF7E2F82146FCF7A1F8824689
:104150000024DFF84C80DFF84C90514658F82400DA
:10416000FCF75EF8484514D20D48143830F81400B6
:10417000E8800B48283830F814002881002E02DA35
:10418000E8884042E880002FB0DA28894042288140
:10419000ACE7641C0A2CE0DBA8E70000C54B00007C
:1041A000F04B0000000080802DE9F0410D46002218
:1041B00028490B7804E000EB0211097821B1521C68
:1041C0009A42F8DBBDE8F08100EB0214012666702C
:1041D00026700027E773A770A772FBF7BDFF00EBFF
:1041E000D07121F00101401A60722672A888A08067
:1041F000FBF7B2FF00EBD07121F00101401A00EB98
:1042000080000F2101EB4000E080E87AE072E07A64
:1042100002260325042809D0E07A052815D0E07A83
:104220000628CFD126736573A573CBE72773657313
:10423000FBF792FF00EBD07121F00101401AC0B2F0
:1042400008B1A573BEE7A673BCE7FE2020736573B3
:10425000A673B7E7C14B000020B50546FBF77CFF0E
:10426000AA2190FBF1F201FB1200401DA080B4F9DD
:104270000400052806DDB4F90400552802DA0620FA
:10428000E0720CE0B4F90400AB2806DDB4F90400D8
:10429000FB2802DA0520E07201E00420E0722846E3
:1042A0000023BDE820401A462146FFF77DBF70B5C8
:1042B0000646FBF751FFAA2190FBF1F201FB120524
:1042C0001935A5800420E07200231A4621463046A5
:1042D000FFF76AFF1435A58021463046BDE87040DF
:1042E00000231A46FFF760BFE0B50746FBF734FF2F
:1042F000AA2190FBF1F201FB1200401DA080B4F94D
:10430000040006250526052805DDB4F90400552816
:1043100001DAE5720BE0B4F90400AB2805DDB4F96D
:104320000400FB2801DAE67201E00420E0720023B9
:104330001A4621463846FFF737FFB4F90400C0F5A6
:104340008070A080E07A062803D0E07A052802D0A9
:1043500002E0E67200E0E5723846BDE8E040002386
:104360001A462146FFF720BF70B50646FBF7F4FE5C
:10437000AA2190FBF1F201FB12051935A58004205A
:10438000E07200231A4621463046FFF70DFF05F183
:104390001400A08000231A4621463046FFF704FF90
:1043A00005F12800A08000231A4621463046FFF779
:1043B000FBFE3C35A58021463046BDE87040002319
:1043C0001A46FFF7F1BEE0B50746FBF7C5FEAA2186
:1043D00090FBF1F201FB1200401DA080B4F9040033
:1043E00006250526052805DDB4F90400552801DA5F
:1043F000E5720BE0B4F90400AB2805DDB4F9040064
:10440000FB2801DAE67201E00420E07200231A467C
:1044100021463846FFF7C8FEA0881430A08000234C
:104420001A4621463846FFF7BFFEB4F90400C0F52E
:104430008070A080E07A062803D0E07A052802D0B8
:1044400002E0E67200E0E57200231A462146384693
:10445000FFF7AAFEA0881430A0803846BDE8E040EF
:1044600000231A462146FFF79FBE10B5044620469A
:10447000FFF77AFF2046BDE81040FFF718BF0000A5
:104480002DE9F84F81460D4600274FF04008DFF830
:1044900084A237E109EB0714207800282ED00026EB
:1044A000E07B08282AD2DFE800F0042A536F98C185
:1044B000E8FD40230096E088C2B2A088C1B2287807
:1044C00000F06CFB0096E0884123C2B2A08808305F
:1044D000C1B22878401CC0B200F060FB0096E088B2
:1044E00042230838C2B2A088001DC1B22878801CBF
:1044F000C0B200F053FB2878C01C287001E14FF0D7
:10450000430B0096E088C2B2A0885B46C1B228780F
:1045100000F044FBCDF80080E088C2B2A0885B4682
:104520000830C1B22878401CC0B200F037FB0096BA
:10453000E08844230838C2B2A088001DC1B22878A0
:10454000801CC0B200F02AFB2878C01C2870D8E07C
:104550004FF0450B0096E088C2B2A0885B46C1B21E
:10456000287800F01BFBCDF80080E088C2B2A0885C
:104570005B460830C1B22878401CC0B200F00EFB88
:104580002878801C2870BCE04FF0460B0096E0882D
:10459000C2B2A0885B46C1B2287800F0FFFACDF81D
:1045A0000080E088C2B2A0885B460830C1B228789B
:1045B000401CC0B200F0F2FA0096E08847230830B1
:1045C000C2B2A088001DC1B22878801CC0B200F021
:1045D000E5FA2878C01C287093E04FF0480B00964D
:1045E000E088C2B2A0885B46C1B2287800F0D6FA53
:1045F000CDF80080E088C2B2A0885B460830C1B226
:104600002878401CC0B200F0C9FA0096E08849231F
:104610000830C2B2A088001DC1B22878801CC0B288
:1046200000F0BCFA2878C01C28706AE00096E08888
:10463000C2B2A0884B23C1B2287800F0AFFACDF8FF
:104640000080E088C2B2A0884A230830C1B228782E
:10465000401CC0B200F0A2FA0096E0880838C2B24E
:10466000A0884C23001DC1B22878801CC0B200F085
:1046700095FA2878C01C287043E00096E088C2B202
:10468000A0884D23C1B2287800F088FACDF80080C8
:10469000E0880838C2B2A088C1B22878401CC0B2F5
:1046A0004E2300E005E000F079FA2878801C28709D
:1046B00027E0CDF80080E088C2B2A0885023C1B2C4
:1046C000287800F06BFACDF80080E088C2B2A088AC
:1046D0004F230830C1B22878401CC0B200F05EFA07
:1046E000CDF80080E088C01FC2B2A0885123001D11
:1046F000C1B22878801CC0B200F050FA2878C01CE3
:1047000028707F1C9AF800008742FFF6C3AEBDE810
:10471000F88F0000C14B00002DE9F74F0D46002631
:104720004FF0030900274FF0050A4FF0010B4FF03F
:1047300002080BE0009800EB0614207828B1A0785E
:10474000022809D0A078401CA070761C824800780E
:104750008642EFDBBDE8FE8FA770B4F904000528A0
:104760000BDBB4F90400FB2807DCB4F906000A28C7
:1047700003DBB4F90600E62803DD2770A780E78095
:10478000E3E7A07A78B1A07A012872D0A07A022853
:10479000DBD1A07B0728D8D2DFE800F004B5BBC28C
:1047A000C9CFD600D1E7FBF7D7FC00EB8000800033
:1047B00090FBF9F109FB1100B5F90210081AB4F9E0
:1047C00006102838884270DC207A012805D121465D
:1047D0002A460298FFF77AFC2772607A48B1E07A9D
:1047E000042837D0E07A052847D0E07A062847D059
:1047F00048E0B4F90400B5F90010884210DAB5F9C0
:104800000000B4F90410401A3C2809DAB5F9000098
:10481000B4F90410401A002802DD0620A07331E02C
:10482000B4F90400B5F90010884210DDB4F90400B1
:10483000B5F90010401A322809DAB4F90400B5F9C4
:104840000010401A002802DD84F80EA01AE00420AF
:10485000A07317E0277384F80D90FBF77DFC00EB45
:10486000D07121F00101401AC0B218B184F80E9045
:1048700008E025E084F80E8004E084F80E8001E072
:1048800084F80E90607A012807D0A07B042808D015
:1048900084F80AB084F80FA057E7E77384F80AB0E9
:1048A00053E784F80A8050E7FFE7A08894F90C10DA
:1048B0000844A080E08894F90D100844E08044E7A3
:1048C000607A01280FD0A088A080E088E080E07B9B
:1048D0000728E1D2E07B401CE073E07B0728DBD1B6
:1048E00084F80A8031E7A088A080E088E080E07B3F
:1048F0000428D1D2E07B401CE073E07B0428CBD1BC
:1049000084F80A8021E7A088A080E088001FE0806A
:104910001BE7A088801EA080E088C01EE08014E70E
:10492000A088801CA080E088C01EE0800DE7A088E1
:10493000A080E088401DE08007E7A088801EA0805E
:10494000E088C01CE08000E7A088801CA080E08890
:10495000C01CE080F9E60000C14B000030B5002229
:10496000084D0BE000EB021100238B80CB800B7015
:1049700001244C708B700B724C72521C29788A4245
:10498000F0DB30BDC14B00000149C8757047000025
:1049900000000350014908737047000000000350F5
:1049A00001494873704700000000035001498873B3
:1049B00070470000000003500149C87370470000B1
:1049C00000000350014908707047000000000350C8
:1049D0000149487070470000000003500149887089
:1049E00070470000000003500149C8707047000084
:1049F0000000035001490871704700000000035097
:104A00000149487170470000000003500149887156
:104A100070470000000003500149C8717047000052
:104A20000000035001494875704700000000035022
:104A3000C308C8080121994052F820300B4342F8BE
:104A40002030704770474268D207FCD10160704740
:104A5000F0B505AD95E8E0100024002A00D001244F
:104A60000BB144F002040DB144F004040EB144F063
:104A700008040FB144F01004BCF1000F01D044F061
:104A800020040022826001618460406810F00C0FF5
:104A900001D00120F0BD0020F0BD0000F0B50023E2
:104AA0000024194E0AE003EB830200EB42014D792A
:104AB000042D07D04A79521C4A715B1C31788B4215
:104AC000F1DBF0BD4C710D79002DF6D04D880F89CA
:104AD0003D444D8030F81250CF883D4420F81250AC
:104AE000B1F90250E62D03DCB1F902500A2D01DACA
:104AF0000C71E2E730F91250FB2D03DC30F9122083
:104B0000052ADADA0C71D8E7C54B000018480022F4
:104B1000007801280DD002280AD116490878401CD7
:104B2000C0B208700A2803D10A7013490120087026
:104B30007047124801780129FAD111490B681049D0
:104B40000831092B01D10B6863B1022202700D48B4
:104B5000007910B108680028EAD10B480178491C97
:104B60000170704703230370054810380260EEE7B8
:104B700001000020020000200400002006000020A8
:104B8000100802503C2C00201200002000EB4110C5
:104B900001494254704700000000025030B5039CA8
:104BA000850003482844C17082704370047030BD92
:104BB000000001504FF0C04358609960DA607047C0
:104BC0000C0C0803010A05000100020002000200AB
:104BD00003000400040004000500050004000400B4
:104BE00004000400040003000200020001000000B1
:104BF00000000000EC51383EEC51B83EE17A143F21
:104C00003D0A573FEC51983FA470DD3F0000304013
:104C1000A470B54000004843384C0000000000205C
:104C20003C2B000082040000505B00003C2B002065
:104C3000FC0C0000780A0000220001A301000751CB
:104C400001421007F34000010328700001215B12AC
:104C5000034E52075652025ED20A24D20120612C22
:104C6000D20C20520050D20328E124A144612C022E
:104C700011084C6198021104B89201706140A108BA
:104C8000D20308E5285208C09202F80112CCE134A0
:104C9000960438A17001164861A8D20B3021E006B5
:104CA00019069C0211022802110838062506EC217B
:104CB00044D209040522E4613005AAE406250C9CCF
:104CC00005BEE4DE012803011A240512DC011224CA
:104CD000021D0344E9580A1903740D2AC0030E117A
:104CE0000020030922D8021902F006210314061D30
:104CF0000814EDC003013298023506DC05FFE40517
:104D000015980D1EC0030522E4062501E406590688
:104D1000E410051F8400030402762F046005BE978B
:104D20002707040126B44009DF7FA958DF7FC9584F
:104D300008C3BE58102118127F1C0219970812715F
:104D400008128608526414125F10528110127610F5
:104D50005254242108100A64589F7F7FF89F7F6473
:104D600004126A041271044378F814011218211015
:104D7000125F04125004124B04523F102104D0075A
:104D800054F88F496468043006A08F9FFFB00C81EF
:104D900008C128A110210C6110E138529718929790
:104DA00030031297FF74011C80D2FF80A1100238DB
:104DB000FF7C3C0480F0FADF092F0142F8091E0253
:104DC000F8091C0404000516081E070A091E09F24A
:104DD000091E0B0E091C060D000E000F5C0A500A7E
:104DE00010FF12FF13FF14FF1108101ED1D2D3FFC2
:104DF000D1DEDFE0FFFFEDEED3FFF8F9F9E0D4D527
:104E0000D6FFE1E2E3E4FFEFF00A1006FAFBFCE470
:104E1000D708502BE5E6E7E4FFF1F2D9F3FFFDFEFA
:104E2000C0C1D8D9DAFFE8E9EAEBFFF4F5F6F7FFFD
:104E3000C2C3C4D0DBDCDDFFDBDCDCECFFFF0A003F
:104E40005741DD17FF02000203FF15FF16FF183060
:104E50003018503019A83000B03000B83000C030E1
:104E600000C83000D0300030401B50401CB840001B
:104E7000C04000C84000D0400030501D40501E507F
:104E8000501FC05000C85000D050256EA0127EA008
:104E9000138EA0149EA015FF01A005090609091193
:104EA000A0050C0D0E0F2000069C04041516FF0132
:104EB0000510B5C1E40510C3C5040510D1C524050E
:104EC00010DFC5440510ED05710529C6080437003B
:104ED000FF01083602EE023703803210860A78118D
:104EE000060008AA170405060708FF01EDD20ED236
:104EF00055010D1EA20623CFCE0213CECF0491087A
:104F000042CF0D61123125A1088118514082CE0A8D
:104F100041208106810E811261029128513C8190CD
:104F20006192C142A18891109155A1128168E17CE2
:104F3000A1927148C502B1E8817A0111DCF1B4E1B6
:104F400024C53AB1026107953A051230A10AE194ED
:104F5000E151854EB6CEBCE5107192D5C4C912C5DB
:104F600078E106E900C93A09123CC5040A17CF3AAC
:104F7000A59A0510FEC590C9BAF55DB5C005104EDD
:104F8000E13CC900E13CC1900613CE7CDD4A03053B
:104F90001142B9960610CEC6C50005147A25EA025C
:104FA0003D0001A53E0C0916FFFF22232425FFFF2B
:104FB0000004100526313031030E162700040C09B9
:104FC00016262E333433342E2700040C0916282ECF
:104FD000353635362E2900040C09162A2E37383777
:104FE000382E2B000410052C2E322E030E142D000B
:104FF000042005FF262E20200C0512212E27FF005D
:10500000044004FF2831C00C04123129FF0004437E
:10501000FF2A400C05122E2E2BFF00043004FF2E19
:1050200020800C0512393A3BFF000443FF32400C4C
:1050300005123C3D3EFF000443FF32400C05123F89
:105040004041FF000461400C0512424344FF00044C
:1050500043FF32C00C0512454647FF000461400C77
:10506000051248494AFF000461800C05124B4C4D63
:10507000FF000461400C05124E4F1FFF000461E069
:105080000C05122E2E2EFF000461E03221200D109F
:105090000004614021200D120004B004FF2E2E40B8
:1050A000ED000415E0490045E0FD000467FF26E03F
:1050B0000F1227FF00044804FFFF2C207A2DE2DDA9
:1050C0000004422AC00E162B00044A28200E16297E
:1050D00000044A26A00E1627000433FF19010E4DC6
:1050E000FF00045D05082C05C0FFFF30D207000556
:1050F0001ACCFFFF3308BE0035080D8A000819E4FA
:105100000C041A5051FF00080C05165681875700F1
:105110000815E2B411608187878054555253575067
:1051200051505255516ACC15CECF515688898F8C2B
:105130008780878988898087888987570008100D2C
:105140005E87891D808B87818088888E08AC068069
:10515000878157FFB2078C156080808D8B8F808888
:105160008F8989818B8F8F8C8088806300041009E0
:10517000CFCE6188808B8F1D20A80C1D87808B8CE3
:105180008F1D8F898762A813FF5E1F10048F8F8980
:105190000410078C8D8E1D8F8D408D0004112020F2
:1051A00006568180891D3A313EBC061D888E896273
:1051B000420330065E8087808D3A113E115FBC0449
:1051C000815FFF34081007CE585E878181C6213E7B
:1051D000EC058F895F592A0713FF61DC2004898061
:1051E0008D3EBC058D8862FFFC063D3A08114208E1
:1051F0000A108F1D89898F881D5F59802142A00B5D
:105200005A5B5C5D5F59585E62FF7A0D120008FEC2
:10521000CE3E070D1410090D8E00080E1DCF00089C
:10522000B1120D8800081C06A8A2A0A02009042223
:10523000AA011110128A083E2AA21A0F170A0A00A0
:105240000C2B81806A29B0193A20048080810830B3
:10525000088781888E8B8C80102B80872C29B01931
:10526000EE3004872E800820088889818D8E2E805C
:1052700010396C22892E12873C10058F89808B4A49
:10528000213810058B8088873F296C338D882E113B
:105290000618048D888BBC1C048F8C2E29031E8F4E
:1052A0008C0318068087707689E8116C1005878852
:1052B0008E81311F8B8CC403113E39C211981008A6
:1052C0008A68808D89812E7320058981888980195B
:1052D000C052881F1D840340172E817176878987ED
:1052E000817770887772757680878F8789891DD6D8
:1052F0002142101381808A86707680888A84718525
:105300008485847076770E428DD62121131A84E825
:1053100020042E70710610062E2E81808104400517
:1053200070768781D810058F8984191820048184AC
:105330008A0620042E2E8023122E945288D812889A
:10534000312113111D25303141212021402689149E
:105350002156111F11441122411F14042E8A690E77
:1053600024048D8D881411723174217A3142310CEC
:1053700021D445185280745280422184118221D454
:1053800035184138111641C03111210211C626715C
:105390005C413831BD31E110056D6A1E6CE4114489
:1053A00027848A5C417445EC200581806D6A4A43FC
:1053B0001E6CD61005808170760C41583104236E26
:1053C00084EA200584861E6C883281EA136B1E52A3
:1053D000112C215C218D218C432E8016136D6B2E98
:1053E00020068584866A6B24436E84AC252C411686
:1053F000538685D211F5236B1EC6213F31F662819B
:105400000E212121B24784858335AA5280D453804E
:105410005E2C21363104456E500C2E805F595E5F44
:1054200058585ECF5E1F2580358E458F3E5F720DCA
:105430005005CE60CE613E416741087C042E5F5826
:10544000D40E42603E562EE441909E6300042168D3
:1054500050045A5B80A9235F5810DD480E3404CEF7
:10546000CF61B715446E63EB0DDD000C2C05595E62
:105470005D595A050D17000C4D2408FD000852AA6D
:1054800001529A081F5659021011083D08100C0CC1
:1054900010599AAA4555551500055559581A4D00E9
:1054A000042D7A034DF80319355D80034D90033DBB
:1054B000C2033D7A035DF8036E8780034D90032D90
:1054C000C2031F80885C033E812C042D50071D8879
:1054D000032DCE033E814E046DC003213C21461AAC
:1054E00077902D38031E8954042D4E046DC0033D62
:1054F00002042404897475A2200772737770717690
:105500004A3D42034DC00319A62C0577718A858850
:10551000032C0B86848A848A867170707642032DF0
:10552000E50639A64E71380389CC132E81973D4C80
:105530000729A64B848A6645BD4D88034F68894C70
:1055400007192435783B585E5D1D8B034D0A0327F0
:1055500068870A7F8F1D22144E61E60319EA3D3EDB
:10556000032F8A768A048F1D8F431461482DC00350
:105570002D4B042DDA0491407148492A41D8A140AD
:10558000814821442C0580818A6814050D13AE14CE
:105590003E617C032E6914050113202E6048042D02
:1055A000A604438B8C54E35150842D860440068F0F
:1055B000898D8E6230B32E624025082B8466141FBD
:1055C00057514B098006562E815751A22F5056260F
:1055D000051E69D0051D23091DF404457E71423E58
:1055E00060EE0415422D12062DF4044D54033007CD
:1055F0005751525354554E35461E8A96052C068DEA
:105600008E65646482054280483DE903313E1500A1
:105610003E694E092C048788677E0441484E816CA0
:105620000535842F64664E0919A820048878840102
:105630006D3E054D4605153E3D84091DF2091005D8
:1056400089676564026D3E054906115E19861F1D56
:105650008FBA061DEA0929B24F78848B0539482193
:10566000201DC8093C058F1D8D8EEA0919B21267ED
:105670004269002C052E816466C8095F1D8FAA0649
:1056800019FA10048187676712648C2C058A646498
:10569000664A072140411F1D28061D78093D760AEC
:1056A000112512662C2D160349C05E8940072D82F4
:1056B0000725B221921DDB0931184A8FA63D40070C
:1056C0002D7A0725B22192115041186E8800041CD2
:1056D0000B596A56595A5AAAAA0505F2032C0455C1
:1056E0009AAAEE221C040455990804100451505043
:1056F000081C04AAA56519042EA91C085007A5A515
:10570000A5AAAA0A012D6A074E872E071D99033CF8
:1057100006808B888E873E0621AE3C05878F77708A
:10572000B20A528CC43287992DB8061C048777714F
:10573000CF035C04778A846C0A3DF6033D38046C21
:10574000088077707071727596064DA603315D2ED4
:1057500087B006178087AE1E8ACC055DB0062D3255
:10576000041D68031D42082DFA032377703A4D94F7
:10577000032DBE0511921D3204278889021E78FA76
:1057800003238A843A9E6208032D7004168F5A4BB5
:1057900074751C2DBC0389CC2F585E70042F8D8826
:1057A0004004311F3DC6069E634A03128877BB72D0
:1057B000753CAE810C031D360811AEA93C2D1403B7
:1057C0008D391839B41D30063D44041DBA034DE02F
:1057D000068142392E81103E6182061D4E035E50C5
:1057E00050032DEF07AF5F58BA034D0E034381807E
:1057F000A62DE007DE62FA032D0E03528054BD7A17
:10580000036DA6043D88084DDA034D7A039DDA0343
:1058100041C811561B57511A4E564907A5324DC45F
:10582000087D8E083D16099DFE034E61C4086D8EED
:10583000082D7803B57442607E6D92052D7803BE05
:1058400081FE03417E75503DBE034D7C054D7E09B2
:10585000762EC82D86044DBE035D6209411B8DC6A0
:10586000054E2E6A061E8055032D7803538484420C
:1058700061A3297F3D36031D7C032D9D0376651DA5
:105880004D24081DC8052DB60A4D7E032D08042D94
:10589000040469085DD6092DB60A3D7E032D08046F
:1058A0002D040469084DD6092D360B3D44045DF2E4
:1058B000094D040441BC1D7C0A1D46042DEE062D35
:1058C000360E4DF2094D040441BC2E80C4041DF077
:1058D0000A2DEC062D32072DFC033D7E034E87D2A8
:1058E00004238A69C02DF60A2DAA06418A2D7E035B
:1058F0005E88D2041D66044E87FE072DFA031C093C
:105900006A5A561505455A56F61710085110005593
:105910001100440A1C04506555FF032D13083EA6D0
:1059200001042D1B082D0B046E9500048D00129DA3
:10593000B70DFD80150D14C2151D650F0E1451789D
:10594000163D8E0E2E60B50A01103E6DF3162F52D5
:10595000532C0B3DFA0EEDBC0D2D12144E616A094D
:10596000AC07545551565750F2084A504A39BA6D4F
:10597000700A6E63740E5176490051221D90032106
:10598000462F545542104176490045CC4D340A1EED
:10599000848A0A1DAD0F3D0E0A6280585E2E5D0B93
:1059A0001D200A2C0465642E0C076256595D550AA9
:1059B00019B71E8694041E84F20B5F6E86040A7D5E
:1059C000900A4DC80A1DF0051E67F30558042E679E
:1059D00064357D900A213E7B8468B011421D2C0BFA
:1059E0002E858C0A814A7365661F10048067644A9D
:1059F0006F6480010471886DC20B4DC20C736E869A
:105A0000FA2E80BA048D30034DC20C11886E2E2CF4
:105A10000C2F65646A085E8440074D000D21CA3171
:105A2000D411D65D6A075D40074D000D21CA31D4FF
:105A30001DC906153829A61D2C096C05808178849E
:105A40003A044D40034D440C29A61DC0051D2E0EE1
:105A50001D40076D97035D500C3DFA0B2E8BC2075E
:105A60003D2A0E900481798A3A4DD0092C042E8B60
:105A70008FC2072D2A0E2E2E9E03713A41463D2AD3
:105A8000086E8BC20E6F678A8C081D5E0931B51DCA
:105A90005C084E8782072DC20E6F8F788C081C041D
:105AA000802E6690062D5C085DEA0D3DC2074F8989
:105AB000797A052DFC0821584D92076D2E1134047A
:105AC000808877E22DD2083E690C072D94032D388B
:105AD0000B3DC20E1DF80E11C05D440E3E69C80795
