:020000040000FA
:10000000503300208D00000099000000A100000086
:10001000A9000000B1000000B900000000000000CD
:10002000000000000000000000000000C10000000F
:10003000C900000000000000D1000000D90000004D
:10004000E1000000E9000000F1000000F9000000FC
:100050000101000009010000110100001901000068
:1000600021010000290100003101000039010000D8
:100070004101000049010000DFF80CD000F0A0F9B8
:10008000004800471D190000503300208046C1463B
:100090002F4880472F48004700B500F0F2F900BD17
:1000A00000B500F0D0F900BD00B500F0E9F900BDE1
:1000B00000B500F0C6F900BD00B500F073FB00BD4F
:1000C00000B500F03AFB00BD00B500F0BBF900BD83
:1000D00000B500F09DFA00BD00B500F03BFB00BD8F
:1000E00000B500F05DFB00BD00B500F05AFB00BD9F
:1000F00000B500F054FB00BD07B500F0AAF907BD3C
:1001000007B500F0A7F907BD07B500F0A4F907BDD2
:1001100007B500F0A1F907BD07B500F03FFB07BD2B
:1001200007B504F05BF807BD07B500F0A3FD07BDF8
:1001300007B502F0A9FE07BD07B502F057FF07BDDE
:1001400007B503F0EDFF07BD07B502F09BFE07BD45
:100150006D070000790000000649074A086850430F
:1001600043F23902104408604008704701490860B2
:1001700070470000502700206D4EC641F0B480EA61
:100180000102D40F4200B2EB410F02D202460846F0
:1001900011464A0042D0C30DDDB2C1F3C752AD1AB9
:1001A000202D35DAC1F3160141F4000204B15242A8
:1001B000C5F1200602FA06F12A411044B3EBD05FE4
:1001C00023D0C4B1012DA0EBC35009DCF0BC4FF02B
:1001D000004202EAC352DBB200F5000000F0C1B8F1
:1001E000400000F1807000EBC350A0F1807040EA45
:1001F000D170490009E0490841EAC071A0EBC35041
:1002000000F50000400800EBC350F0BC00F0A0B8BF
:100210006142012202EB4101001BF6E7F0BC70478E
:1002200081F00041AAE780F00040A7E780EA0102E0
:1002300010B502F00043400022D04A001FD0010E4A
:1002400001EB1261C0F35600C2F3560240F4000005
:1002500042F40002A0FB022000047F39140400D005
:10026000401C50EA124001D44000491EC2B20C06A4
:1002700004EBD010401C4008802A02D003E000208C
:1002800010BD20F00100002900DA0020184310BD45
:1002900030B480EA010202F0004530F0004221F063
:1002A000004013D090B1C30DD40DC2F31601C0F3BA
:1002B0001600E41A41F4000140F400027D3491423A
:1002C00001D3641C00E04900002C02DA30BC00209D
:1002D00070474FF400000023914201D3891A034371
:1002E00040084FEA4101F7D151B1914202D14FF09C
:1002F000004105E002D24FF0010101E06FF0010181
:1003000003EBC450284430BC00F022B8C10F80EA8F
:10031000E0700844CA079623002100F022B8962313
:100320000022114600F01DB820F00040C10DC0F3BE
:10033000160040F400007F2901DA0020704796295A
:1003400003DCC1F19601C840704796398840704778
:100350000029A8BF7047401C490008BF20F00100D9
:10036000704710B4B0FA80FC00FA0CF050EA0104B7
:1003700004BF10BC704749B1CCF1200421FA04F449
:1003800011FA0CF118BF012121430843A3EB0C0122
:10039000CB1D4FEA00614FEA102042BF002010BC85
:1003A000704700EBC35010440029A4BF10BC704735
:1003B000401C490008BF20F0010010BC704700003D
:1003C000064C074D06E0E06840F0010394E80700A2
:1003D00098471034AC42F6D3FFF752FEDC420000DF
:1003E000FC42000070B58D1810F8014B14F00302A8
:1003F00001D110F8012B231106D110F8013B03E0C5
:1004000010F8016B01F8016B521EF9D1ABB110F875
:10041000012B04F00C048A1A0C2C03D0A2EB8412DA
:100420009B1C08E010F8014BA2EB0422F8E712F83D
:10043000014B01F8014B5B1EF9D5A942D4D3002032
:1004400070BD7047704770474FF040204069C0B2A0
:1004500070477047704770477047000010B5074BF2
:100460001A680121814001EA0204002C02D08A436B
:100470001A6010BD0A431A6010BD00000010004051
:100480007047704700F01F02012191404009800031
:1004900000F1E020C0F80011704700000020044A7D
:1004A00000211154401CC0B20928FAD37047000043
:1004B000402B00202DE9F843804601260096174D79
:1004C00000276F700096164C1FE0BDF8000010EA80
:1004D000080F01D0A66000E0A7606660052000F06C
:1004E00043FC6760052000F03FFC666002F080FD81
:1004F00020B16978BDF8000001436970BDF80000C3
:100500004FF6FF7101EA40000090BDF80000FF289F
:10051000DBD9BDE8F843102000F026BC402B0020BA
:100520000050004070B5FFF7B9FF00F027F80D4804
:10053000C178007941EA00210B48418000200A4B34
:100540001B1D012513F81040641E05FA04F20A422F
:1005500002D1401CC0B270BD401CC0B21028F1D303
:10056000002070BD402B00206C06002002480021B6
:100570000160416081607047005000402DE9FC41FE
:1005800000270197012600961E4C27601E4D2878F3
:10059000FFF790FF6878FFF78DFF0220019029E0B8
:1005A00000961A4D4FF6FF7819E06660052000F0BE
:1005B000DBFB6760052000F0D7FB666002F018FDEA
:1005C00040B19DF80400BDF80010285C08439DF878
:1005D00004106854BDF8000008EA40000090BDF81F
:1005E0000000FF28E1D9102000F0BEFB9DF80400B8
:1005F000401C01909DF804000928D1D32660BDE875
:10060000FC810000005000406C060020402B0020C0
:10061000704700B54FF0402300201860062000F01E
:1006200062F80120186000BD10B50404FFF7F1FF67
:1006300000F026F84FF0402300201860D82000F08A
:1006400052F8C4F3074000F04EF8C4F3072000F05E
:100650004AF8E0B200F047F801201860BDE8104009
:1006600000F00EB800B54FF04023002018600520C0
:1006700000F039F8FF2000F036F80121196000BDC4
:1006800000B5FFF7EFFFC007FBD100BDF0B5044692
:100690000F461546FFF7BDFF4FF0402600203060A3
:1006A000022000F020F8C7F3074000F01CF8C7F361
:1006B000072000F018F8F8B200F015F8002304E065
:1006C000E05C00F010F85B1C9BB2AB42F8D3012059
:1006D0003060BDE8F040FFF7D3BF4FF040214860E5
:1006E00001200860704700B50246002105E0491C62
:1006F000C9B2C82901D9002000BDFFF7A5FE002816
:10070000F5D0104600F011F8002105E0491CC9B2EF
:10071000C82901D9002000BDFFF796FE0028F5D0BA
:100720004FF040200069C0B200BD4FF0402188600A
:100730000120C8600020C860704770474FF0E0217A
:10074000086170474FF0E021486170474FF0E021A9
:100750008861704710B50020FFF7F0FF024801687C
:1007600041F00071016010BD04ED00E010B50A49D0
:10077000084808604FF0FF30FFF784FE0820FFF7BD
:1007800081FE0920FFF77EFEBDE810400A20FFF73A
:1007900079BE000080F0FA026806002070477047BA
:1007A00070477047704702E008C8121F08C1002A4E
:1007B000FAD170477047002001E001C1121F002AE2
:1007C000FBD1704700B58F2003F06AFC492003F08D
:1007D0006DFCFF2003F070FC48205DF804EB03F093
:1007E00071BC00B5802003F05BFC492003F05EFC87
:1007F000002003F061FC38205DF804EB03F062BCDC
:1008000070B500211B4A127807E001EB810303EB6E
:10081000C10310F813301BB1491C9142F5DB70BDC8
:1008200001EB810303EBC101012200F8112000EB71
:1008300041041E2666700025A570FFF78DFC64211B
:10084000484300EBD07121F00101401A6430A080D0
:10085000B420E08025726572A572A91EA181E6818F
:100860005A212182282161823C21A182A021E1829A
:10087000208370BD88420000FFF7C2BF2DE9F84F0A
:1008800080460D460027DFF89C91C4E007EB870007
:1008900000EBC70018F8101000297DD0202608EBC7
:1008A00040040096E088C2B2A088C023C1B2287874
:1008B00003F0DCFC0096E088C01DC2B2A088C12312
:1008C000C1B22878401CC0B203F0D0FC0096E0888A
:1008D0000E30C2B2A088C223C1B22878801CC0B238
:1008E00003F0C4FC0096E0881530C2B2A088C32390
:1008F000C1B22878C01CC0B203F0B8FC0096E088F2
:100900001C30C2B2A088C423001FC1B22878001DC9
:10091000C0B203F0ABFC0096E0881C30C2B2A088E5
:10092000C523001DC1B22878401DC0B203F09EFC53
:100930004FF0600ACDF800A0E088401DC2B2A08848
:10094000C623C01FC1B22878801DC0B203F08EFC40
:100950000096E088401DC2B2A088C623C01DC1B267
:100960002878C01DC0B203F081FC0096E0880C30EE
:10097000C2B2A088C923C01FC1B228780830C0B253
:1009800003F074FC0096E0880C30C2B2A088C01D51
:10099000C1B22878093000E03CE0C0B2CA2303F0BD
:1009A00065FC0096E0880A30C2B2A088C8230E38E1
:1009B000C1B228780A30C0B203F058FCCDF800A0CC
:1009C000E0880A30C2B2A088C8230E30C1B22878AD
:1009D0000B30C0B203F04AFC0096E0880A30C2B285
:1009E000A088C7231538C1B228780C30C0B203F0F4
:1009F0003DFCCDF800A0E0880A30C2B2A088C72331
:100A00001530C1B228780D30C0B203F02FFC287821
:100A10000E3028707F1C99F800008742FFF636AF31
:100A2000BDE8F88F884200002DE9F05F06460025FA
:100A30004FF0010803274FF00209AA46DFF8D0B1B2
:100A40000FE005EB850000EBC50016F8101039B17A
:100A500006EB4004A178022909D0A078401CA070C0
:100A60006D1C9BF800008542EBDBBDE8F09F84F82D
:100A700002A0217A79B1217A012923D0217A022991
:100A8000EED1E188891EE180B4F906100A29E7DA7F
:100A900006F810A0E4E7B4F90600B4F91010884293
:100AA0000BDC84F80AA084F809A084F80880594A6D
:100AB0003146594802F078FED2E7E088A18908441F
:100AC000E080CDE7607AE0B1607A01284FD0607AAB
:100AD000022860D0607A0328C2D1A088801EA0803E
:100AE000E088801CE080B4F90400B4F91610884254
:100AF000B6DA484A3146484802F056FE84F809A062
:100B0000AEE7A088801EA080FFF726FB90FBF7F1E0
:100B100007FB1100E188401E0844E080B4F904009E
:100B2000B4F91210884206DA84F80980394A31464D
:100B3000394802F039FEB4F90400642809DAB4F93E
:100B40000400612805DD334A3146334802F02CFEAB
:100B500086E7B4F90400782882DAB4F9040075282D
:100B600098DD2C4A31462C4802F01EFE78E7A0881A
:100B7000801CA080E088801EE080B4F90400B4F9F5
:100B80001410884286DD84F80990224A31462248B2
:100B900002F00AFE64E7A088801CA080FFF7DCFA60
:100BA00090FBF7F107FB1100E188401E0844E0804C
:100BB000B4F90400B4F91810884205DD6772154ACB
:100BC0003146154802F0F0FDB4F904006E2809DA48
:100BD000B4F904006B2805DD0E4A31460E4802F0D8
:100BE000E3FD3DE7B4F90400802889DAB4F9040094
:100BF0007D2885DD074A3146074802F0D5FDA07AF9
:100C0000401CA072A07A0428A2D184F8089027E79B
:100C10008842000054270020C429002070B500221B
:100C200000230525094E0DE002EB820101EBC20411
:100C300000EB44018B80CB8000F814304D708B703A
:100C40000B72521C31788A42EEDB70BD8842000084
:100C500010B500240023FF222146184603F0FEFAB7
:100C60005B1CDBB2202BF6D3641CE4B21E2CF1D348
:100C700010BD000010B52848041F216850F821104D
:100C800026480D2943D2DFE801F042070B0F131766
:100C90001B1F272F373B3F00214802F04BFE36E059
:100CA0001F4802F072FE32E01D4802F08BFE2EE07B
:100CB0001B4802F0C7FE2AE0194802F0F2FE26E0C7
:100CC000174802F040FF22E0B0F90220B0F900100E
:100CD000144802F03DFA1AE0B0F90220B0F9001011
:100CE000104802F051FA12E0B0F90220B0F90010F9
:100CF0000C4802F068FA0AE00B4802F08DFA06E0B0
:100D0000094802F09CFA02E00848FFF7B5FD2068A8
:100D1000401C206010BD00003C0000205427002033
:100D2000D62700209628002086290020AA29002006
:100D300000B502460020FFF701FD1046FFF702FD57
:100D40000020FFF703FD0720FFF7F8FC30BF00BDD0
:100D500010B503464CF2503403E02046FFF7E8FF9D
:100D60005B1E002BF9D110BD00B5034603E0322015
:100D7000FFF7DEFF5B1E002BF9D100BD2DE9F84F18
:100D80000746DDF828E00E460A24B2FBF4F004FB27
:100D90001020B2FBF4F1B1FBF4F504FB15114FF098
:100DA000640AB2FBFAF5B5FBF4FC04FB1C5C4FF4DF
:100DB0007A7BB2FBFBF5B5FBF4F804FB185842F262
:100DC0001075B2FBF5F5B5FBF4F904FB19592D4D7F
:100DD000B2FBF5F2B2FBF4F504FB15222A4D2A72A0
:100DE00085F80B9085F80E8085F811C02975E87597
:100DF000B3FBF4F004FB1031B3FBF4F0B0FBF4F2FE
:100E000004FB1202B3FBFAF0B0FBF4FC04FB1C0C75
:100E1000B3FBFBF0B0FBF4F304FB130085F82000F8
:100E200085F823C085F8262085F8291017497046D3
:100E3000FFF7FCF9FFF778FAC0B2B0FBF4F104FB5E
:100E40001101B0FBF4F0B0FBF4F204FB120085F8E2
:100E5000350085F838103878012810D130781828F6
:100E60000DD2002400EB40014A1900949378527887
:100E7000695C03F0FBF93078401C30703C70BDE8D1
:100E8000F88F0000A0860100060700200000C8427D
:100E90002DE9F04F8246DDF82480894616461F462C
:100EA0000021002048F82100491C1E29FADB0025FA
:100EB000DFF840B11CE00AEB05142078B8B1E088F7
:100EC000C1B2A0884246C0B203F020F9E088C1B2A6
:100ED000A08842460830C0B203F018F9E08808380C
:100EE000C1B2A0884246001DC0B203F00FF96D1CCC
:100EF0009BF800008542DEDB0025DFF8FCA01FE048
:100F0000C5EB051019F81010C9B109EB4004A08811
:100F1000C1B260884246C0B203F0F8F8A088C1B2FE
:100F2000608842460830C0B203F0F0F8A088083864
:100F3000C1B260884246001DC0B203F0E7F86D1CE4
:100F40009AF800008542DBDB0025DFF8B09035E041
:100F500005EB850000EBC50016F8101069B306EB31
:100F60004004E0880E30C1B2A0884246C0B203F00F
:100F7000CDF8E0880C30C1B2A0884246C01FC0B294
:100F800003F0C4F8E0880C30C1B2A0884246C01D0E
:100F9000C0B203F0BBF8E0880A30C1B2A088424674
:100FA0000E38C0B203F0B2F8E0880A30C1B2A088AF
:100FB00042460E30C0B203F0A9F86D1C99F800004B
:100FC0008542C5DB00240E4D0EE004EB840007EBE8
:100FD00040010A793AB1498837F81000C9B2C0B265
:100FE000424603F093F8641C28788442EDDBBDE8A8
:100FF000F08F000085420000864200008842000019
:1010000089420000F8B506460D4600240D4F14E055
:1010100004EB840106EB4102107968B110200090C6
:101020005088C2B236F811003023C1B2287803F0DC
:101030001DF92878401C2870641C38788442E7DB4E
:10104000F8BD00008942000010B500210022064BC7
:1010500005E001EB810400EB44042271491C1C787B
:10106000A142F6DB10BD00008942000038B55021D6
:101070000078002819D0012819D080248825402321
:1010800022460020009503F0F1F858214123224622
:101090000120009503F0EAF80834E2B2542142231B
:1010A0000220009503F0E2F838BD8024E6E79024A2
:1010B000E4E700002DE9FF4F81B005461C460A20F9
:1010C000B2FBF0F100FB1126B2FBF0F1B1FBF0F343
:1010D00000FB13176421B2FBF1F1B1FBF0F300FB4D
:1010E00013184FF47A71B2FBF1F1B1FBF0F300FB8E
:1010F000131942F21071B2FBF1F1B1FBF0F300FBF6
:10110000131A2849B2FBF1F1B1FBF0F200FB121304
:101110004FF0300BCDF800B020782946029A03F04A
:10112000A5F805F10800C1B2CDF800B0207853460B
:10113000401CC0B2029A03F099F805F11000C1B248
:10114000CDF800B020784B46801CC0B2029A03F064
:101150008DF805F11800C1B2CDF800B020784346F3
:10116000C01CC0B2029A03F081F805F12000C1B2A0
:10117000CDF800B020783B46001DC0B2029A03F0C3
:1011800075F8CDF800B020782835401DE9B2C0B21E
:101190003346029A03F06AF82078801D207005B06B
:1011A000BDE8F08FA08601002DE9F05F06460F46EE
:1011B00000250024DFF830B106F1120807F1050917
:1011C000A5EB060AB54210D345450ED2BC420CD35E
:1011D0004C450AD2E01B00EBC0000BEB400021465F
:1011E00010F80A20284603F039F8641CE4B21E2CDB
:1011F000E8D36D1CEDB2202DDBD3B61DF6B2083757
:10120000FFB20024DFF8E0A006F10809AAF1100AF5
:101210000025A4EB0608B44209D34C4507D2BD42D1
:1012200005D11AF808202946204603F017F86D1C4E
:10123000EDB21E2DEFD3641CE4B2202CE8D3B81C11
:1012400000F0FF0A0024DFF8A0B006F10809ABF1B6
:10125000080B0025A4EB0608B44209D34C4507D27D
:10126000554505D11BF808202946204602F0F6FF17
:101270006D1CEDB21E2DEFD3641CE4B2202CE8D31C
:10128000361FF6B2083707F0FF090024DFF858A030
:1012900006F10C080AF15A0A0025A71BB44209D32B
:1012A000444507D24D4505D11AF807202946204666
:1012B00002F0D4FF6D1CEDB21E2DEFD3641CE4B21E
:1012C000202CE9D30025094E002404EB4510A9B2D7
:1012D000325CA0B202F0C2FF641C202CF5DB6D1C56
:1012E000202DF1DBBDE8F09FA00600204E07002076
:1012F0002DE9F0470646884692460025DFF8AC9077
:101300004DE005EB850000EBC50716F81700E8B3C4
:1013100006EB4704A088C308E088C0F3C700801C20
:10132000012158F82000A3F1010C01FA03F201FA9F
:101330000CFC024000EA0C0C42EA0C0203F1010C26
:1013400001FA0CFC00EA0C0C42EA0C02A3F1020CBC
:1013500001FA0CFC00EA0C0C9B1C994042EA0C02BE
:101360000840024392B16078401E6070E0881430FB
:1013700001B2A0885246083800B201F049FD6078F9
:1013800020B9002006F81700FD2000E006E0A0804C
:10139000EF20E08006490868C83008606D1C99F8A5
:1013A00000008542ADDBBDE8F08700008842000008
:1013B000100000202DE9F047064688469246002599
:1013C000DFF8749032E005EB450716F8270060B3AC
:1013D00006EB8704A088C008E188C1F3C701491C57
:1013E000012358F8211003FA00FC0A46401C8340F0
:1013F00001EA0C011A401143B9B16078401E6070D7
:10140000E088083001B2B4F90400524601F000FD52
:10141000607850B9002006F82700FD20A080EF205A
:10142000E08006480168323101606D1C99F80000C7
:101430008542C8DBBDE8F08787420000100000202D
:10144000F0B50022134F20E002EB820400EB4403CE
:101450001D79CDB130F81450ED085E88C6F3C7068B
:101460004FF0010C51F826600CFA05FC06EA0C0658
:1014700056B100251D71FD2520F81450EF245C8025
:10148000054B1C68641C1C60521C3B789A42DBDBD9
:10149000F0BD000084420000300000202DE9FF5F15
:1014A00083460F46164600254FF00108AA46DFF88E
:1014B00010913AE00BEB05142078A8B3A088C0087F
:1014C000E188C1F3C70108FA00F356F82120401C57
:1014D00094461A4008FA00F3491E0CEA030C56F829
:1014E000210042EA0C0218400243EAB1B4F90610A6
:1014F000B4F90400039A01F08BFC84F800A0FD20ED
:10150000A080EF20E080D9F800000A30C9F8000080
:101510008F2002F0ADFD002002F0B0FD952002F01A
:10152000B3FD982002F0B6FD6D1C26480078854278
:10153000C0DB00253DE0C5EB051B17F81B00B8B369
:1015400007EB4B046088C008A188C1F3C70108FA03
:1015500000F356F82120401C94461A4008FA00F384
:10156000491E0CEA030C56F8210042EA0C0218400E
:101570000243EAB1B4F90410B4F90200039A01F08D
:1015800047FC07F81BA0FD206080EF20A080D9F861
:1015900000000F30C9F800008F2002F069FD002024
:1015A00002F06CFD952002F06FFD982002F072FDB4
:1015B0006D1C054800788542BDDBBDE8FF9F00003B
:1015C0001000002085420000864200002DE9F0470F
:1015D0000446E079012834D02088C0086388C3F32A
:1015E000C7054FF0010C00F101090CFA00F60CFAE6
:1015F00009F751F82530801C0CFA00FC6D1C03EA39
:10160000060803EA070951F8250048EA090803EA31
:101610000C0300EA060148EA030848EA01083840DA
:1016200048EA0008B8F1000F0DD0B4F90210B4F97F
:10163000000001F0EDFBFF202080EF206080002003
:101640002071BDE8F08720792071FAE770B5002598
:10165000074E002404EB4510A9B2325CA0B202F0A0
:10166000FDFD641C202CF5DB6D1C202DF1DB70BD15
:101670004E0F002070B500221B4B1B7805E002EBDB
:10168000420410F824401CB1521C9A42F7DB70BD92
:1016900002EB4202012500F8225000EB82041423E1
:1016A00063700020A070A180FEF756FD00EB800063
:1016B000800000EBD07121F00101401AC0F1E1007F
:1016C000E0802572FEF748FD00EBD07121F00101AA
:1016D000401A6072FEF740FD00EBD07121F001016D
:1016E000401AA07270BD0000874200002DE9F84347
:1016F00080460D460027DFF88491B7E007EB4701ED
:1017000018F82100002871D008EB8104A07A28B1D4
:101710002026607A20B1012868D168E00026F8E729
:101720000096E088C2B2A0889023C1B2287802F067
:101730009DFD0096E088C2B2A08891230830C1B216
:101740002878401CC0B202F091FD0096E088C01DD0
:10175000C2B2A0889223C1B22878801CC0B202F025
:1017600085FD0096E088C01DC2B2A0889323083092
:10177000C1B22878C01CC0B202F078FD0096E088A3
:101780000E30C2B2A0889423C1B22878001DC0B226
:1017900002F06CFD0096E0880E30C2B2A08895235E
:1017A0000830C1B22878401DC0B202F05FFD00963B
:1017B000E088001DC2B2A08896230838C1B22878FC
:1017C000801DC0B202F052FD46F040000090E0885B
:1017D000001DC2B2A08896231030C1B22878C01D67
:1017E000C0B202F043FD2878083028703DE0009632
:1017F000E088C2B2A088B323C1B2287802F036FDD7
:101800000096E088C01FC2B2A088B123C1B2287878
:10181000401CC0B202F02AFD0096E088C01DC2B292
:10182000A088B523C1B22878801CC0B202F01EFD8A
:101830000096E088C2B2A088B2230838C1B22878E6
:10184000C01CC0B202F012FD46F040000090E088DB
:10185000C2B2A088B2230830C1B22878001DC0B23D
:1018600002F004FD2878401D28707F1C99F80000C4
:101870008742FFF643AFBDE8F883000087420000CF
:1018800070B500220024174E0DE002EB420310F861
:10189000231039B100EB83018D78022D07D08B78AE
:1018A0005B1C8B70521C31788A42EEDB70BD8C70F1
:1018B000B1F90450052D0CDBB1F90450FB2D08DC07
:1018C000B1F9065008350A2D03DBB1F90650E62DB3
:1018D00002DD00F82340E5E7CB8891F908505B1B57
:1018E000CB80DFE78742000030B500220A4D0FE0D1
:1018F00002EB420400EB840100238B80CB800B724F
:1019000000F8243005244C708B704B728B72521C83
:1019100029788A42ECDB30BD874200001FB50027E2
:1019200001234FF4D9710097019702971A4648078F
:10193000039702F0F6FBFEF719FE6420FEF7CDFEDA
:10194000002002F08FFB0F2002F0DAFB0020FEF7F0
:101950006BFE4FF48050FEF767FE4FF40050FEF729
:1019600063FE4FF44050FEF75FFE4FF48040FEF7F9
:101970005BFE4FF4A040FEF757FE4FF4C040FEF769
:1019800053FE4FF4E040FEF74FFEDFF81C94D9F809
:10199000180000F047FCD9F8140000F03FFDDFF814
:1019A0000C84DFF80CA4012599F8050000280CD060
:1019B00089F8057089F80A7099F8010030B101289A
:1019C00028D0022875D0032872D01DE1F8482430B1
:1019D00005600024FF23E622FB212046009702F049
:1019E00045FC641CE4B2402CF4D3FFF731F9082124
:1019F0000720FFF7D9FBEC480E30FFF737FB89F8DB
:101A00000770C9F81070C9F82C70C9F83070E9482F
:101A10000760F9E089F80B7089F80C7089F80D708F
:101A200089F8067089F80F70C9F83470DF4801F042
:101A300043F8DE480A3001F06FF8DC48823002F0EB
:101A4000FBFADD4801F09AFEDB48F030FFF74CFF6F
:101A5000DA48FFF7E3F8D9481A30FFF7F5FAD84823
:101A600001F0C6F90024FF23E622FB21204600975F
:101A700002F0FCFB641CE4B2402CF4D3FFF7E8F85E
:101A8000FFF7E4FDCA490320091D086099F8070023
:101A90008003091D0860C64808210C300160CAF89F
:101AA0000050C34820300560001D0760ACE000E036
:101AB0001BE0CAF800700024FF23E622FB21204629
:101AC000009702F0D3FB641CE4B2402CF4D3FFF780
:101AD000BFF8B7482430056089F8047089F80070B1
:101AE00089F8027089F803708EE0CAF8007000244B
:101AF000FF23E622FB212046009702F0B7FB641C7F
:101B0000E4B2402CF4D3FFF7A3F899F8080089F861
:101B1000090078264FF0200B082433235A4631461B
:101B20000020009402F0A2FB34235A4680210120B9
:101B3000009402F09BFB4820009033235A468821F2
:101B4000022002F093FB4FF0270B35235A467C21ED
:101B50000320009402F08AFB36235A468421042095
:101B6000009402F083FB28244FF05E0B33235A4687
:101B700031460520009402F079FB34235A46802137
:101B80000620009402F072FB6820009033235A462E
:101B90008821072002F06AFB4FF0650B35235A4677
:101BA0007C210820009402F061FB36235A468421F0
:101BB0000920009402F05AFB30244FF09C0B332391
:101BC0005A4631463220009402F050FB34235A46E4
:101BD00080213320009402F049FB702000903323D1
:101BE0005A468821342002F041FBA3263523324691
:101BF0007C211846009402F039FB362332468421BA
:101C00001846009402F032FB99F8010099F805108B
:101C100050EA010202D001283FD03FE0FEF782FCEB
:101C2000C9F81C00052804D007280ED00D2818D0AC
:101C30002FE0FEF7C7FD5C480E30017809B301784C
:101C4000491E0170FFF712FA23E0FEF7BBFD56486C
:101C50000E300178A9B90178491C0170FFF706FA26
:101C600017E0FEF7AFFD50480E30017819B100784B
:101C7000012807D00DE089F8055089F80150FEF7DA
:101C8000B0FD06E0FEF79EFD89F80550032089F8B7
:101C900001009620FFF75CF886E611B1022876D0A5
:101CA00042E299F8060008B3022871D00328F3D164
:101CB00099F80700401CC0B289F80700022868D0D4
:101CC000002689F80070384B0A210320D9F810202B
:101CD000FFF7F0F9344999F8070000F0D3FF3249D3
:101CE000324800F005FD99F80040E4E1304C103432
:101CF0002168201F0068814201D3201D0068FEF783
:101D000011FCC9F8200099F80B10491CC9B289F8D8
:101D10000B10182920D389F80B702A490979C906B4
:101D200008D498F80700B8B9204920480A3100F0D3
:101D300005FF11E00E2802D0102803D00CE089F82E
:101D40000C5009E099F80D0080B119481C3007606B
:101D500089F80D70FEF745FD99F80B100320B1FBD3
:101D6000F0F200FB1210012806D04AE010481C30A7
:101D7000056089F80D50EFE7D9F82000082809D050
:101D8000062821D0052829D0072831D039E0CAE11A
:101D9000B5E01DE1B8F90000192832DDB8F80000FF
:101DA000401FA8F800002CE000000020542700206D
:101DB000000802503800002096280020AA290020A0
:101DC000182B0020402B0020B8F90000E72818DA73
:101DD000B8F80000401DA8F8000012E0B8F90200B1
:101DE0001E280EDDB8F80200401FA8F8020008E027
:101DF000B8F90200D22804DAB8F80200401DA8F8A9
:101E0000020099F80D0008BBF749F84800F03EFCC5
:101E1000F6480A3000F01CFFF449F54A01F182004F
:101E200001F0E8FFF149F24A01F5A17001F036FB3B
:101E3000EF483E38FFF724FDED481A38FEF7F4FD71
:101E4000EB4802F093F9EB4800F0FCFF206808280B
:101E50000DD1E9480068782809D80020E44A411EDD
:101E6000643242F82010401C1E28FADB05E0E049ED
:101E70006431A1F2CA2000F0E5FBDE48DC4B783883
:101E8000A0F1F602A0F20A210090A0F2CA20FEF70B
:101E9000FFFFD84AD548A2F17801FFF797FBD54B51
:101EA000A3F1F002A2F5C971A1F1C000FFF7F6FAA3
:101EB000D04AA2F1F001A1F1A200FFF77BFACD4ACE
:101EC000A2F1F001A1F17E00FFF712FAC9497839B9
:101ED000A1F24230FFF7B4FA98F8040060B999F81B
:101EE0000F00F02808D389F80550022089F8010076
:101EF00089F80A70FEF775FC89F8065054E589F8F0
:101F0000007099F80D00C0B120246E2223461146BE
:101F10003846009402F0AAF999F80000401CC0B2BB
:101F200089F8000021236E227E21009402F09EF9A0
:101F300099F80000401C89F80000AB4B0A210C3BCB
:101F40000320D9F81020FFF7B5F8A749A7480C39A6
:101F500000F0CEFBA449A5480C390A3000F0BAFDC8
:101F6000A149A4480C3900F0E3FE9F499F480C3971
:101F7000823001F0F3FD9C49A0480C3901F07AF958
:101F800099499B480C393E38FFF7B0FB9649984871
:101F90000C391A38FEF772FC934995480C39FFF753
:101FA00031F899F800400EE00097FF23E622FB216C
:101FB00099F8000002F05AF999F80000401C89F8DD
:101FC0000000641CE4B2402CEED389F80670EBE408
:101FD000002689F80070844B0A210C3B0320D9F8B5
:101FE0001020FFF767F8804999F807000C3900F0D6
:101FF00049FE7D497D480C3900F07AFB99F8004094
:102000000EE00097FF23E622FB2199F8000002F082
:102010002DF999F80000401C89F80000641CE4B216
:10202000402CEED34FF4967B5846FEF791FE89F88C
:1020300000706D4B0A210C3B0320D9F81020FFF7EC
:1020400039F8694969480C3900F052FB99F80040A9
:102050000EE00097FF23E622FB2199F8000002F032
:1020600005F999F80000401C89F80000641CE4B2EE
:10207000402CEED35846FEF76BFE761C062EA8DBEE
:10208000CAF8007089F8067089F80550022089F8AE
:10209000010088F8047087E40097FF23E622FB2103
:1020A00099F8000002F0E2F899F80000401C89F865
:1020B0000000641CE4B2402CEED34FF4FA70FEF73B
:1020C00047FE89F80070484B0A210C3B0320D9F8E1
:1020D0001020FEF7EFFF444944480C3900F008FB9C
:1020E00099F800400EE00097FF23E622FB2199F8C3
:1020F000000002F0BBF899F80000401C89F80000CD
:10210000641CE4B2402CEED34FF49670FEF720FE30
:10211000761C062EFFF6D5AD89F8067089F80550B5
:1021200089F8015040E4D9B10328B4D10029B2D1D3
:1021300020213E20009799F80920252302FB00105A
:10214000C2B270210F2002F091F8FEF7EBF9C9F846
:102150002800052834D007283BD0102850D05BE059
:10216000D9F82C00FEF7DBF80446D9F83000064613
:10217000FEF7D5F82146FEF78BF8C9F834001A4966
:10218000009009393346481CD9F81020FEF7F6FDB7
:1021900099F803001828C5D3FEF7C4F9C9F824003C
:1021A000102809D1FEF70EFB89F80170FEF719FB24
:1021B00089F8055089F803706420FEF7C9FD6BE5C6
:1021C000FEF700FB99F8090030B3401E89F80900BA
:1021D00022E0FEF7F7FA99F8090002281CD2401C09
:1021E00089F8090018E000000C00002054270020A6
:1021F000C4290020182B0020140802509628002023
:10220000FEF7E0FA99F8090089F8080089F8055006
:1022100089F80170FEF7E5FA4FF49670FEF798FD25
:102220003AE500002DE9F05F04464FF480752A4638
:1022300021466E48FEF72AFA6D482A4604F5807159
:102240000646FEF723FA6B482A4604F50071074656
:10225000FEF71CFA68482A4604F540718046FEF7EE
:1022600015FA2A4604F580616048FEF70FFA2A46FF
:1022700004F5A0613046FEF709FA2A4604F5C0616C
:102280003846FEF703FA2A4604F5E0614046FEF7B9
:10229000FDF92A4604F500615448FEF7F7F92A468D
:1022A00004F510613046FEF7F1F92A4604F5206185
:1022B0003846FEF7EBF92A4604F530614046FEF752
:1022C000E5F92A4604F540614848FEF7DFF92A4659
:1022D00004F550613046FEF7D9F92A4604F56061ED
:1022E0003846FEF7D3F92A4604F570614046FEF7FA
:1022F000CDF92A4604F580514048FEF7C7F9404819
:102300002A4604F588518146FEF7C0F93D482A4621
:1023100004F590518246FEF7B9F93B482A4604F588
:1023200098518346FEF7B2F92A4604F5A0512F488A
:10233000FEF7ACF92A4604F5A8513046FEF7A6F997
:102340002A4604F5B0513846FEF7A0F92A4604F5AE
:10235000B8514046FEF79AF92A4604F5C05127487D
:10236000FEF794F92A4604F5C8514846FEF78EF95F
:102370002A4604F5D0515046FEF788F92A4604F55E
:10238000D8515846FEF782F92A4604F5E05117481D
:10239000FEF77CF92A4604F5E8513046FEF776F957
:1023A0002A4604F5F0513846FEF770F92A4604F53E
:1023B000F8514046FEF76AF92A4604F500511348E1
:1023C000FEF764F92A4604F504511148FEF75EF958
:1023D0002A4604F508510F48FEF758F92A4604F535
:1023E0000C51BDE8F05F0C48FEF750B94E0B0020D1
:1023F0004E0C00204E0D00204E0E00204E130020EB
:102400004E1400204E1500204E1600204E0F0020C6
:102410004E1000204E1100204E1200202DE9F05FDA
:1024200004464FF480752A4621466E48FEF72EF981
:102430006D482A4604F580710646FEF727F96B4879
:102440002A4604F500710746FEF720F968482A4637
:1024500004F540718046FEF719F92A4604F58061BB
:102460006048FEF713F92A4604F5A0613046FEF7EE
:102470000DF92A4604F5C0613846FEF707F92A46E9
:1024800004F5E0614046FEF701F92A4604F50061D3
:102490005848FEF7FBF82A4604F510615648FEF747
:1024A000F5F82A4604F520615448FEF7EFF82A466D
:1024B00004F530615248FEF7E9F82A4604F5406118
:1024C0005048FEF7E3F82A4604F550614E48FEF7FF
:1024D000DDF82A4604F560614C48FEF7D7F82A4635
:1024E00004F570614A48FEF7D1F82A4604F5805198
:1024F0004848FEF7CBF848482A4604F588518146FB
:10250000FEF7C4F845482A4604F590518246FEF786
:10251000BDF843482A4604F598518346FEF7B6F8BD
:102520002A4604F5A0513B48FEF7B0F82A4604F5C8
:10253000A8514846FEF7AAF82A4604F5B05150467D
:10254000FEF7A4F82A4604F5B8515846FEF79EF85F
:102550002A4604F5C0513348FEF798F82A4604F598
:10256000C8513148FEF792F82A4604F5D0512F4859
:10257000FEF78CF82A4604F5D8512D48FEF786F868
:102580002A4604F5E0511748FEF780F82A4604F57C
:10259000E8513046FEF77AF82A4604F5F0513846FD
:1025A000FEF774F82A4604F5F8514046FEF76EF837
:1025B0002A4604F500511F48FEF768F82A4604F53C
:1025C00004511D48FEF762F82A4604F508511B48DD
:1025D000FEF75CF82A4604F50C51BDE8F05F184898
:1025E000FEF754B84E0B00204E0C00204E0D00207C
:1025F0004E0E00204E1700204E1800204E190020CD
:102600004E1A00204E1B00204E1C00204E1D0020A4
:102610004E1E00204E1F00204E2000204E21002084
:102620004E2200204E2300204E2400204E25002064
:102630004E2600204E0F00204E1000204E1100208C
:102640004E120020F0B505460E460021002046F847
:102650002100491C1E29FADB00240B4F10E004EB7B
:10266000840105EB4103187948B1588835F81110F9
:10267000C0B2CBB201463246184601F047FD641C99
:1026800038788442EBDBF0BD84420000C37900223D
:10269000002B06D0017A05290DD0017A0A290AD02B
:1026A00013E00B78012B19D1C371027243720A70C7
:1026B0000320FDF7D3BE417A042903D84188C91EFF
:1026C000418002E04188C91C4180017A0A290AD36D
:1026D0000272417A072902D3C27142727047417A6D
:1026E000491C41727047017A491C01727047000011
:1026F0002DE9F8430446884698F800600025ED4827
:102700000078002804D0012804D0022804D004E076
:10271000082502E0282500E03025207900287CD01B
:10272000607A08283FD2DFE800F0043F7C9FCEFDAE
:10273000FCFB052700956088C2B220883323C1B214
:10274000304601F093FD00956088C2B220883423A2
:102750000830C1B2701CC0B201F088FD45F04000E5
:1027600000906088C2B2208833231030C1B2B01C00
:10277000C0B201F07BFD00956088C01DC2B2208808
:102780003523001DC1B2F01CC0B201F06FFD0095F1
:102790006088C01DC2B22088361D0C30C1B2F0B2B4
:1027A000362301F063FD7DE1052700956088C2B204
:1027B00020883723C1B2304601F058FD009560886B
:1027C000C2B2208838230830C1B2701CC0B201F0F8
:1027D0004DFD45F0400000906088C2B2208837234C
:1027E0001030C1B2B01CC0B201F040FD009560884D
:1027F000C01DC2B220883923001DC1B2F01CC0B276
:1028000001F034FD00956088C01DC2B220880C30F4
:10281000361DC1B2F0B2392300E048E101F026FDD7
:1028200040E1032700956088C2B220883A23C1B2F4
:10283000304601F01BFD00956088C2B220883B2322
:102840000830C1B2701CC0B201F010FD45F040006C
:1028500000906088C2B22088B61C1030C1B2F0B2BD
:102860003A2301F003FD1DE1042700956088C2B200
:1028700020883D23C1B2304601F0F8FC0095608805
:10288000C2B220883E230830C1B2701CC0B201F031
:10289000EDFC45F0400500956088C2B220883D23DC
:1028A0001030C1B2B01CC0B201F0E0FC00956088ED
:1028B000C01FC2B22088F61C0830C1B2F0B23C235F
:1028C00001F0D4FCEEE00727009560880F38C2B213
:1028D00020883F23001DC1B2304601F0C7FC00959F
:1028E00060880F38C2B22088F0230C30C1B2701C4F
:1028F000C0B201F0BBFC00956088C01FC2B2208846
:10290000F123001DC1B2B01CC0B201F0AFFC0095B4
:102910006088C01FC2B220880C30C1B2F01C02E037
:1029200086E062E024E0C0B2F22301F09FFC009553
:102930006088C2B22088F323C1B2301DC0B201F05A
:1029400095FC00956088C2B22088F4230830C1B29B
:10295000701DC0B201F08AFC00956088C2B2208868
:10296000B61D1030C1B2F0B2F52301F07FFC99E042
:10297000062700956088C01FC2B22088F623001D7C
:10298000C1B2304601F072FC45F04009CDF800902C
:102990006088C01FC2B22088F6230C30C1B2701C00
:1029A000C0B201F063FC00956088C2B22088F723B2
:1029B000C1B2B01CC0B201F059FC00956088C2B22F
:1029C0002088F8230830C1B2F01CC0B201F04EFCE0
:1029D000CDF800906088C2B22088361D1030C1B298
:1029E000F0B2F72301F042FC5CE003270095608819
:1029F000C2B220883A23C1B2304601F037FC0095BC
:102A00006088C2B220883B230830C1B2701CC0B2BB
:102A100001F02CFC45F0400000906088C2B2208894
:102A2000B61C1030C1B2F0B23A2301F01FFC39E0FD
:102A3000052700956088C2B220883323C1B2304692
:102A400001F014FC00956088C2B22088342308305D
:102A5000C1B2701CC0B201F009FC45F0400000900A
:102A60006088C2B2208833231030C1B2B01CC0B21B
:102A700001F0FCFB00956088C01DC2B220883523A0
:102A8000001DC1B2F01CC0B201F0F0FB00956088DF
:102A9000C01DC2B22088361D0C30C1B2F0B2362340
:102AA00001F0E4FB98F80000384488F80000BDE825
:102AB000F88300000800002078210180B4214180C3
:102AC000012101710022C271027242728171417151
:102AD00070470000F8B506460D4600240D4F14E07F
:102AE00004EB840106EB4102107968B110200090DC
:102AF0005088C2B236F811003123C1B2287801F0F3
:102B0000B5FB2878401C2870641C38788442E7DBC9
:102B1000F8BD00008442000010B500210022064BE1
:102B200005E001EB810400EB44042271491C1C7890
:102B3000A142F6DB10BD000084420000F0B502792E
:102B4000002A17D08279414E01254AB18279012AA3
:102B500021D08279022A0DD100230A79F2B34BE009
:102B6000002202EB820301EB43031B791BB1521CD1
:102B7000042AF6DBF0BD038802EB8202083321F859
:102B80001230438801EB4200083B438005713068F6
:102B9000401C3060F0BD002202EB820401EB4403D4
:102BA0001F790FB99F7B1FB1521C082AF4DBF0BDBF
:102BB000078802EB82023F1D21F81270428801EB68
:102BC0004401083A4A801D7101880C3159814088BE
:102BD000083898819D733068801C00E001E0306007
:102BE000F0BD03EB830201EB4202947B24B9147E17
:102BF00014B992F822401CB15B1C102BADDBF0BD68
:102C00000488241F0C804488083C4C800D71048883
:102C100003EB830301EB4301241D4C8141880839F8
:102C20009181957301880C31918241880839D18254
:102C3000157601881431D18340880838108482F8D1
:102C400022503068001D3060F0BD00002C000020D4
:102C500030B5002200240A4D0EE002EB820100EBA9
:102C600041010B793BB14B885B1F4B80B1F90230BE
:102C7000052B00DA0C71521C29788A42EDDB30BD3D
:102C8000844200002DE9F84381460C4678264FF037
:102C900064082025009520780C234246314601F037
:102CA000E5FA2078401CC0B2207088270D234246E8
:102CB0003946009501F0DAFA2078401CC0B2207045
:102CC0004FF0740870214B464246009501F0CEFA51
:102CD0002078401CC0B2207080210E23424600950F
:102CE00001F0C4FA2078401CC0B2207090210F235C
:102CF0004246009501F0BAFA2078401CC0B220701C
:102D00004FF08408102342463146009501F0AEFA98
:102D10002078401CC0B220701123424639460095ED
:102D200001F0A4FA2078401C2070BDE8F883000070
:102D30002DE9F84F07460D460024DFF8B0B04EE00D
:102D400007EBC4063079E0B370794FEA40084FF0E2
:102D5000100ACDF800A008F1E009708809F0FF031F
:102D6000C2B237F83400C1B2287801F07FFACDF84A
:102D700000A008F1E108708808F0FF03C2B237F83C
:102D800034000830C1B22878401CC0B201F06EFA9D
:102D90004FF0D00ACDF800A0708808F0FF03C01DE6
:102DA000C2B237F83400C1B22878801CC0B201F03A
:102DB0005DFACDF800A0708809F0FF03C01DC2B213
:102DC00000E00BE037F834000830C1B22878C01CAE
:102DD000C0B201F04BFA2878001D2870641C9BF8E3
:102DE00000008442ACDBBDE8F88F00008A4200009E
:102DF00010B500210022054B03E000EBC104227155
:102E0000491C1C78A142F8DB10BD00008A4200007A
:102E100030B500230A4C247804E002EBC3052D7979
:102E20001DB15B1CA342F8DB30BD02EBC3040025DF
:102E3000657122F83300618001202071A57130BDD9
:102E40008A42000030B5002200230D4D13E000EB54
:102E5000C2010C7974B18C79052C03D28C79641C75
:102E60008C7107E08B714C79641C4C714C79042C8B
:102E700000D30B71521C29788A42E8DB30BD000078
:102E80008A4200007047000070B5534C514800263C
:102E900021780278481CC0B2002A22D0012A3DD0F5
:102EA000022A1DD14D4D15F8210001F0F9F82078C6
:102EB00005EB8000407801F0F9F8207805EB800000
:102EC000807801F0F9F8207805EB8000C07801F0F7
:102ED000F9F82078401CC0B22070122800D3267068
:102EE00070BD20703E4D15F8200001F0D9F8207813
:102EF00005EB8000407801F0D9F8207805EB8000E0
:102F0000807801F0D9F8207805EB8000C07801F0D6
:102F1000D9F820782C28E3D9267070BD3149097979
:102F200009B3314909780029F7D120702B4D4C3570
:102F300015F8200001F0B4F8207805EB8000407807
:102F400001F0B4F8207805EB8000807801F0B4F847
:102F5000207805EB8000C07801F0B4F820783E2896
:102F6000DBD3267070BD20701C4D703D15F830000D
:102F700001F096F8207805EBC000407801F096F853
:102F8000207805EBC000807801F096F8207805EBFA
:102F9000C000C07801F096F8207805EBC0000079F9
:102FA00001F096F8207805EBC000407901F096F822
:102FB000207805EBC000807901F096F8207805EBC9
:102FC000C000C07901F096F820780D28CAD9267083
:102FD00070BD0000010000200A0000202005002034
:102FE000FC030020542700200D0000207047000043
:102FF0000148C06870470000005000402DE9F041D2
:103000000F4616461D4600245049097805E0C4EBDA
:10301000041210F8122022B1641C8C42F7DBBDE8C8
:10302000F081C4EB0411012200F8112000EB4104EF
:103030004FF0000884F80180FDF78EF8032190FB23
:10304000F1F201FB1200404200EB800005EB800032
:103050003C38A08084F80780FDF77EF800EBD07143
:1030600021F00101401A6072A771A0791E2750B3A8
:10307000F120608004202077FDF76EF8404200EBDD
:10308000D07121F00101401A801E2072FDF764F812
:10309000142190FBF1F201FB120030443230A08188
:1030A000A0893C38E081143D2582FDF755F890FB5E
:1030B000F7F107FB1100218A143008446082E0898F
:1030C0001E30A082ABE70F20608084F81C80FDF7E3
:1030D00043F800EBD07121F00101401A801C2072EE
:1030E000FDF73AF800EB8000400000EBD07121F0D2
:1030F0000101401A30443238A081FDF72DF800EB71
:103100008000800000EBD07121F00101401AA189FC
:103110001E300844E081FDF71FF800EB80008000BE
:1031200000EBD07121F00101401A281A14382082D6
:10313000FDF712F890FBF7F107FB1100218A14301C
:1031400008446082E0891E38A08268E78642000059
:103150002DE9F04106460F461546FCF7FDFF00EB52
:10316000D07121F00101401AC4B22B463A462146E3
:103170003046FFF743FF14352BB23A46214630461E
:10318000BDE8F041FFF73ABF2DE9F04107460D4693
:103190001646FCF7E1FF00EBD07121F00101401A67
:1031A000C1B2012901D0012400E0002433462A469F
:1031B0003846FFF723FF33462A4621463846BDE806
:1031C000F041FFF71BBF2DE9F04106460F461546BB
:1031D0002A4639463046FFF7D7FFFCF7BDFF00EB24
:1031E000D07121F00101401AC4B2FCF7B5FF00EB29
:1031F000D07121F00101401A00F0FF082B463A4639
:1032000021463046FFF7FAFE2B463A464146304605
:10321000BDE8F041FFF7F2BE10B50446FCF79CFF95
:1032200000EBD07121F00101401AC0B228B1D021C9
:103230002046BDE81040FEF71DBA3021F8E770B512
:103240000546FCF789FF00EBD07121F00101401A1F
:10325000C4B25CB1D0212846FEF70CFA012C07D08D
:10326000D0212846BDE87040FEF704BA3021F2E7CD
:103270003021F6E72DE9F84F07460D4600264FF0BE
:103280002008DFF81492FFE0C6EB061117F81100D2
:10329000002833D007EB4104207F05282ED2DFE839
:1032A00000F0032E6992CA004FF0600ACDF800A02A
:1032B000A088C2B260885923C1B2287800F0D6FF36
:1032C000CDF800A0A088C01DC2B260885A23C1B248
:1032D0002878401CC0B200F0C9FFCDF800A0A0883B
:1032E000C01CC2B260885B230838C1B22878801C39
:1032F000C0B200F0BBFF2878C01C2870C3E04FF0BC
:10330000A00ACDF800A0A088401CC2B260885E234D
:10331000401CC1B2287800F0A9FFCDF800A0A08819
:10332000401CC2B260885F230830C1B22878401CBC
:10333000C0B200F09BFFCDF800A0A0880830C2B258
:1033400060885C23C1B22878801CC0B200F08EFF78
:10335000CDF800A0A0880830C2B260885D23083094
:10336000C1B22878C01CC0B200F080FF2878001DD0
:10337000287088E0CDF80080A088C2B26088402321
:10338000C1B2287800F072FFCDF80080A088C2B2E8
:10339000608841230830C1B22878401CC0B200F0D8
:1033A00065FFCDF80080A0880838C2B2608842234B
:1033B000001DC1B22878801CC0B200F057FF2878E9
:1033C000C01C28705FE04FF0E00ACDF800A0A08894
:1033D000C2B260885F23C1B2287800F047FFCDF801
:1033E00000A0A088C2B260885E230830C1B22878ED
:1033F000401CC0B200F03AFFCDF800A0A088083011
:10340000C2B260885D23C1B22878801CC0B200F0CF
:103410002DFFCDF800A0A0880830C2B260885C23E0
:103420000830C1B22878C01CC0B200F01FFF287855
:10343000001D287027E0CDF80080A088C2B2608807
:103440005923C1B2287800F011FFCDF80080A08880
:10345000C01DC2B260885A23C1B22878401CC0B2D5
:1034600000F004FFCDF80080A088C01CC2B26088C4
:103470005B230830C1B22878801CC0B200F0F6FE91
:103480002878C01C2870761C99F800008642FFF648
:10349000FBAEBDE8F88F0000864200002DE9F05F2A
:1034A0008146002503274FF0020B4FF0010800264C
:1034B0004FF0040A0DE0C5EB051019F8101039B1F2
:1034C00009EB40046178022909D06078401C6070E3
:1034D0006D1CA94800788542EDDBBDE8F09F667061
:1034E000B4F9021005290BDBB4F90210FB2907DC43
:1034F000B4F904100A2903DBB4F90410E62902DD4B
:1035000009F81060E4E7E07960B1E0790128DFD1E3
:10351000A07958B3A07A0528DAD2DFE800F0AEC56A
:10352000E5F6F400A07948B9B4F90200B4F90C103A
:10353000884203DB84F80780A672C9E7A0790128D6
:1035400009D1B4F90200B4F90C10884203DC84F804
:103550000780A672BCE7608894F908100844608070
:10356000A08894F909100844A080B1E7A07A052842
:10357000AED2DFE800F003193A4C6C002677608881
:10358000C01C6080FCF7E8FD90FBF7F107FB110021
:10359000A1880844A080B4F90200B4F90E10884252
:1035A00096DB84F80A8093E784F81C80FCF7D4FD4E
:1035B00000EBD07121F00101401A6188801C0844A1
:1035C0006080FCF7C9FD00EBD07121F00101401AC9
:1035D000A188801C0844A080B4F90400B4F910103C
:1035E00088428FDB84F80AB072E784F81CB06088E8
:1035F0006080A088C01CA080B4F90400B4F9121047
:1036000088429ADBA7720020FCF728FF60E7277743
:10361000FCF7A2FD00EBD07121F00101401A618896
:10362000081A801E6080FCF797FD00EBD07121F036
:103630000101401AA188801C0844A080B4F902004E
:10364000B4F91410884285DC84F80AA040E784F8B5
:103650001CA0FCF781FD00EBD07121F00101401AA4
:103660006188081A801E6080B4F90200B4F916104F
:10367000884298DC84F80AA02AE784F81CA06088B5
:10368000C01E6080FCF768FD90FBF7F107FB11009E
:10369000A1880844A080B4F90200B4F90E10884251
:1036A000A2DC84F80A8013E72777FCF755FD00EBCE
:1036B000D07121F00101401A6188081A801E6080D3
:1036C000FCF74AFD00EBD07121F00101401AA188FE
:1036D000801C0844A080B4F90400B4F9101088429A
:1036E00094DC84F80AB0F3E684F81CB0608860804B
:1036F000A088C01CA080B4F90400B4F9121088425C
:1037000084DBA772E4E621E0FFE784F81C80FCF785
:1037100023FD00EBD07121F00101401A6188801C6B
:1037200008446080FCF718FD00EBD07121F0010126
:10373000401AA188801C0844A080B4F90200B4F9A2
:103740001410884298DB84F80AA0C1E62677FCF7BB
:1037500003FD00EBD07121F00101401A6188801C4B
:1037600008446080B4F90200B4F9161088429ADB6C
:1037700084F80AA0ACE600008642000030B50021C3
:103780000024084D09E0C1EB011300EB4302548013
:10379000948000F813405470491C2A789142F2DB5F
:1037A00030BD0000864200002DE9F04703460020AE
:1037B000314C247806E000EB800503EB45052D79BC
:1037C00025B1401CA042F6DBBDE8F0878C8800EBF9
:1037D0008000083423F81040CC8803EB4005083CF7
:1037E0006C8001202871B1F90400B1F90600B2F92A
:1037F0000000B2F9020010888B88C01A06B2508807
:10380000C988401A07B2002E01DA704200E0304643
:10381000FCF77CFD0446002F01DA784200E03846D0
:10382000FCF774FD2146FCF733FD82460024DFF8E7
:103830004C80DFF84C90514658F82400FCF7F0FC1F
:10384000484514D20D48143830F81400E8800B486D
:10385000283830F814002881002E02DAE888404227
:10386000E880002FB0DA288940422881ACE7641C48
:103870000A2CE0DBA8E7000089420000B442000007
:10388000000080802DE9F0410D46002228490B7888
:1038900004E000EB0211097821B1521C9A42F8DBD6
:1038A000BDE8F08100EB0214012666702670002747
:1038B000E773A770A772FCF74FFC00EBD07121F003
:1038C0000101401A60722672A888A080FCF744FCAF
:1038D00000EBD07121F00101401A00EB80000F21B4
:1038E00001EB4000E080E87AE072E07A02260325EE
:1038F000042809D0E07A052815D0E07A0628CFD12F
:1039000026736573A573CBE727736573FCF724FCF7
:1039100000EBD07121F00101401AC0B208B1A573CB
:10392000BEE7A673BCE7FE2020736573A673B7E7F6
:103930008542000020B50546FCF70EFCAA2190FB4D
:10394000F1F201FB1200401DA080B4F9040005282B
:1039500006DDB4F90400552802DA0620E0720CE016
:10396000B4F90400AB2806DDB4F90400FB2802DA40
:103970000520E07201E00420E07228460023BDE843
:1039800020401A462146FFF77DBF70B50646FCF77A
:10399000E3FBAA2190FBF1F201FB12051935A5808A
:1039A0000420E07200231A4621463046FFF76AFFE2
:1039B0001435A58021463046BDE8704000231A46E4
:1039C000FFF760BFE0B50746FCF7C6FBAA2190FBF6
:1039D000F1F201FB1200401DA080B4F9040006259D
:1039E0000526052805DDB4F90400552801DAE5723D
:1039F0000BE0B4F90400AB2805DDB4F90400FB28A2
:103A000001DAE67201E00420E07200231A46214642
:103A10003846FFF737FFB4F90400C0F58070A08086
:103A2000E07A062803D0E07A052802D002E0E672A8
:103A300000E0E5723846BDE8E04000231A46214622
:103A4000FFF720BF70B50646FCF786FBAA2190FB66
:103A5000F1F201FB12051935A5800420E072002364
:103A60001A4621463046FFF70DFF05F11400A080ED
:103A700000231A4621463046FFF704FF05F12800CF
:103A8000A08000231A4621463046FFF7FBFE3C3556
:103A9000A58021463046BDE8704000231A46FFF756
:103AA000F1BEE0B50746FCF757FBAA2190FBF1F207
:103AB00001FB1200401DA080B4F904000625052674
:103AC000052805DDB4F90400552801DAE5720BE09C
:103AD000B4F90400AB2805DDB4F90400FB2801DAD1
:103AE000E67201E00420E07200231A4621463846BF
:103AF000FFF7C8FEA0881430A08000231A46214694
:103B00003846FFF7BFFEB4F90400C0F58070A0800E
:103B1000E07A062803D0E07A052802D002E0E672B7
:103B200000E0E57200231A4621463846FFF7AAFE58
:103B3000A0881430A0803846BDE8E04000231A4633
:103B40002146FFF79FBE10B504462046FFF77AFFD7
:103B50002046BDE81040FFF718BF00002DE9F84FE0
:103B600081460D4600274FF04008DFF884A237E178
:103B700009EB0714207800282ED00026E07B0828C7
:103B80002AD2DFE800F0042A536F98C1E8FD4023F1
:103B90000096E088C2B2A088C1B2287800F066FB27
:103BA0000096E0884123C2B2A0880830C1B22878CC
:103BB000401CC0B200F05AFB0096E088422308384F
:103BC000C2B2A088001DC1B22878801CC0B200F02B
:103BD0004DFB2878C01C287001E14FF0430B009684
:103BE000E088C2B2A0885B46C1B2287800F03EFBF4
:103BF000CDF80080E088C2B2A0885B460830C1B230
:103C00002878401CC0B200F031FB0096E0884423C5
:103C10000838C2B2A088001DC1B22878801CC0B28A
:103C200000F024FB2878C01C2870D8E04FF0450B2A
:103C30000096E088C2B2A0885B46C1B2287800F046
:103C400015FBCDF80080E088C2B2A0885B46083042
:103C5000C1B22878401CC0B200F008FB2878801C54
:103C60002870BCE04FF0460B0096E088C2B2A088F6
:103C70005B46C1B2287800F0F9FACDF80080E08800
:103C8000C2B2A0885B460830C1B22878401CC0B2DE
:103C900000F0ECFA0096E08847230830C2B2A08812
:103CA000001DC1B22878801CC0B200F0DFFA28786D
:103CB000C01C287093E04FF0480B0096E088C2B219
:103CC000A0885B46C1B2287800F0D0FACDF8008019
:103CD000E088C2B2A0885B460830C1B22878401C98
:103CE000C0B200F0C3FA0096E08849230830C2B29F
:103CF000A088001DC1B22878801CC0B200F0B6FABE
:103D00002878C01C28706AE00096E088C2B2A088BB
:103D10004B23C1B2287800F0A9FACDF80080E088E2
:103D2000C2B2A0884A230830C1B22878401CC0B271
:103D300000F09CFA0096E0880838C2B2A0884C23B4
:103D4000001DC1B22878801CC0B200F08FFA28781C
:103D5000C01C287043E00096E088C2B2A0884D23C2
:103D6000C1B2287800F082FACDF80080E0880838E7
:103D7000C2B2A088C1B22878401CC0B24E2300E075
:103D800005E000F073FA2878801C287027E0CDF851
:103D90000080E088C2B2A0885023C1B2287800F029
:103DA00065FACDF80080E088C2B2A0884F230830C1
:103DB000C1B22878401CC0B200F058FACDF800809B
:103DC000E088C01FC2B2A0885123001DC1B228786C
:103DD000801CC0B200F04AFA2878C01C28707F1CF2
:103DE0009AF800008742FFF6C3AEBDE8F88F0000E6
:103DF000854200002DE9F74F0D4600264FF00309DC
:103E000000274FF0050A4FF0010B4FF002080BE0BE
:103E1000009800EB0614207828B1A078022809D079
:103E2000A078401CA070761C824800788642EFDBA8
:103E3000BDE8FE8FA770B4F9040005280BDBB4F9C8
:103E40000400FB2807DCB4F906000A2803DBB4F9F8
:103E50000600E62803DD2770A780E780E3E7A07A65
:103E600078B1A07A012872D0A07A0228DBD1A07B99
:103E70000728D8D2DFE800F004B5BBC2C9CFD6000E
:103E8000D1E7FCF769F900EB8000800090FBF9F1C5
:103E900009FB1100B5F90210081AB4F90610283808
:103EA000884270DC207A012805D121462A460298F2
:103EB000FFF77AFC2772607A48B1E07A042837D09D
:103EC000E07A052847D0E07A062847D048E0B4F9E0
:103ED0000400B5F90010884210DAB5F90000B4F911
:103EE0000410401A3C2809DAB5F90000B4F90410AE
:103EF000401A002802DD0620A07331E0B4F9040066
:103F0000B5F90010884210DDB4F90400B5F90010CD
:103F1000401A322809DAB4F90400B5F90010401A41
:103F2000002802DD84F80EA01AE00420A07317E038
:103F3000277384F80D90FCF70FF900EBD07121F096
:103F40000101401AC0B218B184F80E9008E025E0D3
:103F500084F80E8004E084F80E8001E084F80E906E
:103F6000607A012807D0A07B042808D084F80AB022
:103F700084F80FA057E7E77384F80AB053E784F892
:103F80000A8050E7FFE7A08894F90C100844A0804D
:103F9000E08894F90D100844E08044E7607A012835
:103FA0000FD0A088A080E088E080E07B0728E1D2E5
:103FB000E07B401CE073E07B0728DBD184F80A80BB
:103FC00031E7A088A080E088E080E07B0428D1D29F
:103FD000E07B401CE073E07B0428CBD184F80A80AE
:103FE00021E7A088A080E088001FE0801BE7A08870
:103FF000801EA080E088C01EE08014E7A088801C9E
:10400000A080E088C01EE0800DE7A088A080E08846
:10401000401DE08007E7A088801EA080E088C01CCB
:10402000E08000E7A088801CA080E088C01CE080C1
:10403000F9E600008542000030B50022084D0BE093
:1040400000EB021100238B80CB800B7001244C709D
:104050008B700B724C72521C29788A42F0DB30BD97
:10406000854200000149C8757047000000000350F8
:10407000014908737047000000000350014948736C
:10408000704700000000035001498873704700002A
:10409000000003500149C87370470000000003503E
:1040A0000149087070470000000003500149487042
:1040B00070470000000003500149887070470000FD
:1040C000000003500149C870704700000000035011
:1040D0000149087170470000000003500149487110
:1040E00070470000000003500149887170470000CC
:1040F000000003500149C8717047000000000350E0
:10410000014948757047000000000350C308C80803
:104110000121994052F820300B4342F8203070477B
:104120007047F0B505AD95E8E0100024002A00D0F6
:1041300001240BB144F002040DB144F004040EB1AB
:1041400044F008040FB144F01004BCF1000F01D09A
:1041500044F020040022826001618460406810F015
:104160000C0F01D00120F0BD0020F0BDF0B5002300
:104170000024194E0AE003EB830200EB42014D7963
:10418000042D07D04A79521C4A715B1C31788B424E
:10419000F1DBF0BD4C710D79002DF6D04D880F8903
:1041A0003D444D8030F81250CF883D4420F81250E5
:1041B000B1F90250E62D03DCB1F902500A2D01DA03
:1041C0000C71E2E730F91250FB2D03DC30F91220BC
:1041D000052ADADA0C71D8E7894200001848002273
:1041E000007801280DD002280AD116490878401C11
:1041F000C0B208700A2803D10A7013490120087060
:104200007047124801780129FAD111490B68104909
:104210000831092B01D10B6863B1022202700D48ED
:10422000007910B108680028EAD10B480178491CD0
:104230000170704703230370054810380260EEE7F1
:1042400001000020020000200400002006000020E1
:1042500010080250542700200F00002000EB4110EE
:1042600001494254704700000000025030B5039CE1
:10427000850003482844C17082704370047030BDCB
:10428000000001500C0C0803010A050001000200A7
:104290000200020003000400040004000500050001
:1042A00004000400040004000400030002000200F3
:1042B0000100000000000000EC51383EEC51B83E17
:1042C000E17A143F3D0A573FEC51983FA470DD3F1F
:1042D00000003040A470B54000004843FC4200009C
:1042E0000000002054270000E4030000BC5100003F
:1042F00054270020FC0B0000B60700002200010339
:1043000010010001031F400001213712032B520747
:104310003352023BD20A24D20120612CD20C20520B
:104320000050D20328021501A392022C0211084C5E
:104330006198021104B89201706140A108D203088B
:104340006517D20C289202F80112CCA13C52088CBD
:104350000211017801164861A8D20B7821E00619F4
:10436000069C0211022802110838061D06E4920676
:1043700004D209040522E4613005FFE40591E4104C
:10438000051F8400030402762F046005BE972707EB
:1043900004022500014009DF7FA958DF7FC95808C2
:1043A000C3BE58102118127F1C02199708127108F9
:1043B000128608526414125F105281101276105245
:1043C00054242108100A64589F7F7FF89F7F64045B
:1043D000126A041271044378F814011218211012A1
:1043E0005F04125004124B04523F102104D00754B2
:1043F000F88F496468043006A08F9FFFB00C8108D5
:10440000C128A110210C6110E13852971892973001
:10441000031297FF74011C80D2FF80A1100238FFA5
:104420007C2C0780F0FA02014234061E0234061C7E
:104430000404000552041E0712051E092E061E0B59
:104440000A0650120D000E000F00100010FF12FFA0
:1044500013FF14FF1108101ED1D2D3FFD1DEDFE00D
:10446000FFFFEDEED3FFF8F9F9E0D4D5D6FFE1E296
:10447000E3E4FFEFF00A1006FAFBFCE4D708502B48
:10448000E5E6E7E4FFF1F2D9F3FFFDFEC0C1D8D9BC
:10449000DAFFE8E9EAEBFFF4F5F6F7FFC2C3C4D0B0
:1044A000DBDCDDFFDBDCDCECFFFF0A005741DD1766
:1044B000FF02000203FF15FF16FF183030185030BE
:1044C00019A83000B03000B83000C03000C830004B
:1044D000D0300030401B50401CB84000C04000C8E5
:1044E0004000D0400030501D40501E50501FC05062
:1044F00000C85000D050256EA0127EA0138EA014CC
:104500009EA015FF01A0050906090911A0050C0DC3
:104510000E0F2090050404151610321601028BFFB1
:10452000010510B5C1E40510C3C5040510D1C524AB
:104530000510DFC5440510ED05710529C6080437CF
:1045400000FF01083602EE03B703FF010008AA17B7
:104550000405060708FF01ED6E06D255018D880699
:1045600001132F200400CFCE0213CECF04910842B6
:10457000CF0D61123125A1088118514082CE0A4128
:10458000208106810E811261029128513C81906147
:1045900092C142A18891109155A1128168E17CA13C
:1045A000927148C502B1E8817A0111DCF1B4E124CD
:1045B000C53AB1026107953A051230A10AE194E1CA
:1045C00051854EB6CEBCE5107192D5C4C912C578DE
:1045D000E106E900C93A09123CC5040A17CF3AA519
:1045E0009A0510FEC590C9BAF55DB5C005104EE13B
:1045F0003CC900E13CC1900613CE7CDD4A030511A5
:1046000042B9960610CEC6C50005147A25EA023DC9
:104610000001A53E0C0916FFFF22232425FFFF0001
:1046200004100526313031030E162700040C09163C
:10463000262E333433342E2700040C0916282E3549
:104640003635362E2900040C09162A2E373837380D
:104650002E2B000410052C2E322E030E142D0004D8
:104660002005FF262E20200C0512212E27FF0004F6
:104670004004FF2831C00C04123129FF000443FF1D
:104680002A400C05122E2E2BFF00043004FF2E2092
:10469000800C0512393A3BFF000443FF32400C0501
:1046A000123C3D3EFF000443FF32400C05123F40E8
:1046B00041FF000461400C0512424344FF000443E3
:1046C000FF32C00C0512454647FF000461400C054F
:1046D0001248494AFF000461800C05124B4C4DFF03
:1046E000000461400C05124E4F1FFF000461E00CF6
:1046F00005122E2E2EFF000461E03221200D100045
:1047000004614021200D120004B004FF2E2E40ED64
:10471000000415E0490045E0FD000467FF26E00FB6
:104720001227FF00044804FFFF2C207A2DE2DD0051
:1047300004422AC00E162B00044A28200E16290017
:10474000044A26A00E1627000433FF19010E4DFF60
:1047500000045D05082C05C0FFFF30D20700051AD4
:10476000CCFFFF3308BE0035080D8A000819E40CA1
:10477000041A5051FF00080C05165681875700088F
:1047800015E2B411608187878054555253575051B8
:10479000505255516ACC15CECF515688898F8C878F
:1047A00080878988898087888987570008100D5EEF
:1047B00087891D808B87818088888E08AC068087DA
:1047C0008157FFB2078C156080808D8B8F80888F1A
:1047D0008989818B8F8F8C8088806300041009CF3A
:1047E000CE6188808B8F1D20A80C1D87808B8C8FBD
:1047F0001D8F898762A813FF5E1F10048F8F8904A5
:1048000010078C8D8E1D8F8D408D00041120200689
:10481000568180891D3A313EBC061D888E896242D0
:104820000330065E8087808D3A113E115FBC0481A3
:104830005FFF34081007CE585E878181C6213EECA9
:10484000058F895F592A0713FF61DC200489808D59
:104850003EBC058D8862FFFC063D3A081142080AFD
:10486000108F1D89898F881D5F59802142A00B5AA6
:104870005B5C5D5F59585E62FF7A0D120008FECEE8
:104880003E070D1410090D8E00080E1DCF0008B153
:10489000120D8800081C06A8A2A0A020090422AAC4
:1048A000011110128A083E2ADE160F170A0A0008A4
:1048B0002B81806A29B0193A200480808108300851
:1048C0008781888E8B8C80102B80872C29B019EEE5
:1048D0003004872E800820088889818D8E2E8010D4
:1048E000396C22892E12873C10058F89808B4A21D2
:1048F0003810058B8088873F296C338D882E1106F0
:1049000018048D888BBC1C048F8C2E29031E8F8C61
:104910000318068087707689E8116C100587888EE9
:1049200081311F8B8CC403113E39C2119810088A43
:1049300068808D89812E732005898188898019C0BE
:1049400052881F1D840340172E81717687898781C5
:104950007770887772757680878F8789891DD621D1
:1049600042101381808A86707680888A847185845B
:1049700085847076770E428DD62121131A84E82023
:10498000042E70710610062E2E8180810440057061
:10499000768781D810058F89841918200481848A2C
:1049A0000620042E2E8023122E945288D81288318D
:1049B0002113111D25303141212021402689142148
:1049C00056111F11441122411F14042E8A690E240E
:1049D000048D8D881411723174217A3142310C2189
:1049E000D445185280745280422184118221D435DA
:1049F000184138111641C03111210211C626715CCF
:104A0000413831BD31E110056D6A1E6CE411442757
:104A1000848A5C417445EC200581806D6A4A431E9E
:104A20006CD61005808170760C41583104236E8459
:104A3000EA200584861E6C883281EA136B1E5211AF
:104A40002C215C218D218C432E8016136D6B2E2022
:104A5000068584866A6B24436E84AC252C411653EC
:104A60008685D211F5236B1EC6213F31F662810E79
:104A7000212121B24784858335AA5280D453805E98
:104A80002C21363104456E500C2E805F595E5F58E4
:104A9000585ECF5E1F2580358E458F3E5F720D506C
:104AA00005CE60CE613E416741087C042E5F58D43C
:104AB0000E42603E562EE441909E630004216850F1
:104AC000045A5B80A9235F5810DD480E3404CECF12
:104AD00061B715446E63EB0DDD000C2C05595E5D6E
:104AE000595A050D17000C4D2408FD000852AA0163
:104AF000529A081F5659021011083D08100C0C104C
:104B0000599AAA455555150005555970184D000478
:104B10002D7A034DF80319355D80034D90033DC296
:104B2000033D7A035DF8036E8780034D90032DC229
:104B3000031F80885C033E812C042D50071D8803D1
:104B40002DCE033E814E046DC003213C21461A77D1
:104B5000902D38031E8954042D4E046DC0033D0270
:104B6000042404897475A220077273777071764AE1
:104B70003D42034DC00319A62C0577718A85880331
:104B80002C0B86848A848A867170707642032DE5A8
:104B90000639A64E71380389CC132E81973D4C07F8
:104BA00029A64B848A6645BD4D88034F68894C070A
:104BB000192435783B585E5D1D8B034D0A03276829
:104BC000870A7F8F1D22144E61E60319EA3D3E03DA
:104BD0002F8A768A048F1D8F431461482DC0032DC0
:104BE0004B042DDA0491407148492A41D8A14081F3
:104BF0004821442C0580818A6814050D13AE143EAB
:104C0000617C032E6914050113202E6048042DA633
:104C100004438B8C54E35150842D860440068F89C5
:104C20008D8E6230B32E624025082B8466141F5788
:104C3000514B098006562E815751A22F50562605FA
:104C40001E69D0051D23091DF404457E71423E6096
:104C5000EE0415422D12062DF4044D54033007576F
:104C600051525354554E35461E8A96052C068D8E4C
:104C700065646482054280483DE903313E15003E8B
:104C8000694E092C048788677E0441484E816C0573
:104C900035842F64664E0919A82004887884016D34
:104CA0003E054D4605153E3D84091DF20910058956
:104CB000676564026D3E054906115E19861F1D8FEA
:104CC000BA061DEA0929B24F78848B05394821209C
:104CD0001DC8093C058F1D8D8EEA0919B212674265
:104CE00069002C052E816466C8095F1D8FAA06190C
:104CF000FA10048187676712648C2C058A646466E5
:104D00004A072140411F1D28061D78093D760A11DA
:104D10002512662C2D160349C05E8940072D820797
:104D200025B221921DDB0931184A8FA63D40072D7F
:104D30007A0725B22192115041186E8800041C0B8D
:104D4000596A56595A5AAAAA0505F2032C04559ACB
:104D5000AA0E1F1C04045599080410045150500851
:104D60001C04AAA56519042EA91C085007A5A5A511
:104D7000AAAA0A012D6A074E872E071D99033C0631
:104D8000808B888E873E0621AE3C05878F7770B278
:104D90000A528CC43287992DB8061C04877771CFCC
:104DA000035C04778A846C0A3DF6033D38046C0882
:104DB0008077707071727596064DA603315D2E87EF
:104DC000B006178087AE1E8ACC055DB0062D320472
:104DD0001D68031D42082DFA032377703A4D940392
:104DE0002DBE0511921D3204278889021E78FA0310
:104DF000238A843A9E6208032D7004168F5A4B74DE
:104E0000751C2DBC0389CC2F585E70042F8D8840F3
:104E100004311F3DC6069E634A03128877BB727534
:104E20003CAE810C031D360811AEA93C2D14038D38
:104E3000391839B41D30063D44041DBA034DE0064F
:104E40008142392E81103E6182061D4E035E505014
:104E5000032DEF07AF5F58BA034D0E03438180A6C1
:104E60002DE007DE62FA032D0E03528054BD7A0353
:104E70006DA6043D88084DDA034D7A039DDA03419F
:104E8000C811561B57511A4E564907A5324DC40832
:104E90007D8E083D16099DFE034E61C4086D8E0887
:104EA0002D7803B57442607E6D92052D7803BE8126
:104EB000FE03417E75503DBE034D7C054D7E097657
:104EC0002EC82D86044DBE035D6209411B8DC605AB
:104ED0004E2E6A061E8055032D780353848442614A
:104EE000A3297F3D36031D7C032D9D0376651D4D53
:104EF00024081DC8052DB60A4D7E032D08042D0477
:104F00000469085DD6092DB60A3D7E032D08042DDF
:104F1000040469084DD6092D360B3D44045DF209A1
:104F20004D040441BC1D7C0A1D46042DEE062D36A1
:104F30000E4DF2094D040441BC2E80C4041DF00A3C
:104F40002DEC062D32072DFC033D7E034E87D20447
:104F5000238A69C02DF60A2DAA06418A2D7E035E9A
:104F600088D2041D66044E87FE072DFA031C096AC9
:104F70005A561505455A56F6171008511000551186
:104F800000440A1C04506555FF032D13083EA6017A
:104F9000042D1B082D0B046E9500048D00129DB787
:104FA0000DFD80150D14C2151D650F0E14517816D8
:104FB0003D8E0E2E60B50A01103E6DF3162F525332
:104FC0002C0B3DFA0EEDBC0D2D12144E616A09AC8E
:104FD00007545551565750F2084A504A39BA6D7025
:104FE0000A6E63740E5176490051221D90032146CA
:104FF0002F545542104176490045CC4D340A1E8449
:105000008A0A1DAD0F3D0E0A6280585E2E5D0B1D93
:10501000200A2C0465642E0C076256595D550A1946
:10502000B71E8694041E84F20B5F6E86040A7D9080
:105030000A4DC80A1DF0051E67F30558042E676463
:10504000357D900A213E7B8468B011421D2C0B2EC9
:10505000858C0A814A7365661F10048067644A6FF5
:105060006480010471886DC20B4DC20C736E86FAA8
:105070002E80BA048D30034DC20C11886E2E2C0C7C
:105080002F65646A085E8440074D000D21CA31D443
:1050900011D65D6A075D40074D000D21CA31D41D50
:1050A000C906153829A61D2C096C05808178843A1B
:1050B000044D40034D440C29A61DC0051D2E0E1D98
:1050C00040076D97035D500C3DFA0B2E8BC2073DD8
:1050D0002A0E900481798A3A4DD0092C042E8B8FA8
:1050E000C2072D2A0E2E2E9E03713A41463D2A08F4
:1050F0006E8BC20E6F678A8C081D5E0931B51D5C10
:10510000084E8782072DC20E6F8F788C081C048092
:105110002E6690062D5C085DEA0D3DC2074F897929
:105120007A052DFC0821584D92076D2E113404800C
:105130008877E22DD2083E690C072D94032D380B99
:105140003DC20E1DF80E11C05D440E3E69C8072D0C
:1051500082082D24092D8406212E6F7884440E3F69
:105160006687CC031D1A043DEE0E3D3C0F1E88E2FF
:10517000063D3C0815522D0E043D0A122DAA123D83
:10518000280E34058D8E8981731E8142083E668605
:105190000F1D1404FF8D8805277F5051081C110A2C
:1051A0005C0640A5AAA655F8032C04665555FA07D7
:0C51B00011088E9900084D401800000006
:04000005000000797E
:00000001FF
