:020000040000FA
:100000004833002079000000850000008D000000CA
:10001000950000009D000000A50000000000000009
:10002000000000000000000000000000AD00000023
:10003000B500000000000000BD000000C500000089
:10004000D5000000CD000000DD000000E50000004C
:10005000ED000000F5000000FD00000005010000BB
:100060000D0100000348854600F0DAF9004800471A
:10007000792000004833002026488046C14680474A
:100080002548004700B500F052FB00BD00B500F068
:100090000BFA00BD00B500F049FB00BD00B500F053
:1000A00001FA00BD00B500F093FC00BD00B500F002
:1000B00027FC00BD00B500F0F6F900BD00B500F06A
:1000C00015FC00BD00B500F02FFC00BD00B500F030
:1000D00049FC00BD00B500F05DFC00BD00B500F0BE
:1000E00040FC00BD07B500F0E0F907BD07B500F022
:1000F000E1F907BD07B500F0E2F907BD07B500F06B
:10010000E3F907BD07B500F02BFC07BD07B504F008
:1001100075FB07BD450900006500000030B50B46C2
:10012000014600202022012409E00D46D5409D42D1
:1001300005D31D469540491B254695404019154657
:10014000521E002DF1DC30BD70B50024254600287C
:1001500001DA01244042002901DA01254942FFF772
:10016000DDFFAC4200D04042002C00D0494270BDBF
:100170000549064A08685043054A80180860400847
:100180007047014908607047EC2B00206D4EC64156
:1001900039300000F8B502464A40D40F42004B0007
:1001A00052085B089A4202D20246084611464A00AB
:1001B00023D0C30D4A00DDB2120EAD1A202D35DA60
:1001C00049020126490AF6058A19002C00D052423C
:1001D00020214F1B1146B9402A411018C20D9A42E6
:1001E00021D0002C17D0012D08DCDA05801AD20F9F
:1001F0008019D207DBB200F0D9F8F8BDDA05801A11
:10020000012340001B06C01880185A428018CA0FEC
:100210001043490007E04908C2071143DA05801A74
:1002200080194008801800F0B9F8F8BD610001227B
:10023000511A001BF7E70122D2075140AAE7012219
:10024000D2075040A6E7024670B54A40D30FDB07FD
:1002500040002DD04A002AD0010E140E00021202D6
:100260000919400A520A8418E50104465443000A59
:10027000120A2E045043A4194219200CC543AA188F
:10028000120C0125AD03521C521912047F392404AB
:1002900000D0521C104301D44000491EC2B20C06CB
:1002A000C0092018401C4008802A02D003E000202A
:1002B00070BD40084000002900DA0020184370BDDE
:1002C00070B502464A40D50F40004A00ED0740088D
:1002D0005208002814D0002A12D0C40DD30D4102B8
:1002E0000120C0055202490A520AE41A09181218DC
:1002F0007D34914201D3641C00E04900002C01DAF6
:10030000002070BD0023914201D3891A03434008A5
:1003100049000028F7D100290AD0914202D10121D9
:10032000C90705E0914201D2012101E00121C94341
:10033000E005C018401900F031F870BDC217C10FB8
:10034000504010B54018CA079623002100F02EF83F
:1003500010BD10B500229623114600F027F810BDFD
:10036000410040020122400AD205090E80187F296F
:1003700001DA00207047962903DC9622511AC84002
:1003800070479639884070470122D207002800DB69
:10039000101A002900DB511A88427047002904DA3C
:1003A000401C490001D140084000704770B400244F
:1003B000050C05D11024000402D1002921D01124FC
:1003C000050E01D100020834050F01D10001241DE2
:1003D000850F01D18000A41C002801DB4000641CB3
:1003E000002908D020252E1B0D46F540A14000D045
:1003F00001212943084301061B1B000ADB1D02D50E
:10040000002070BC7047DB05181880180029F8DA46
:10041000401C4900F5D170BC400840007047000006
:10042000064C0125064E05E0E36807CC2B430C3C47
:1004300098471034B442F7D3FFF718FE184F000066
:10044000384F000070B58D180478401CA207920F39
:1004500001D10278401C231106D10378401C03E02F
:1004600006780E70401C491C521EF9D1002B15D085
:1004700002780C268A1A3440401C0C2C03D0A401AC
:10048000121B9B1C08E004782402121B401CF8E796
:1004900014780C70491C521C5B1EF9D5A942D3D3A9
:1004A000002070BD70477047704710B5002000F005
:1004B0001DF910BD10B5012000F018F910BD10B5E0
:1004C000022000F013F910BD10B5032000F00EF962
:1004D00010BD000030B503460C4615461349488947
:1004E00000F0F2F8181200F0DCF8D8B200F0D9F8F9
:1004F0000E49888900F0E8F8201200F0D2F8E0B246
:1005000000F0CFF80020052109074860086007497E
:10051000088900F007F900200521090788600120FB
:1005200088600860284600F0BCF830BD2C2F002001
:10053000FFB585B00E461746102402962046E217F6
:10054000520F1218D210E3175B0F1B18DB10DB00E1
:100550000094E31A01D0012300E00023D2182146C1
:10056000E30F5B185B105A43D2B201923846203831
:10057000C7B2002556E00C2C05D138012C49401893
:10058000405D049011E0102C05D138012849401835
:10059000405D049009E0182C05D138012449401829
:1005A000405D049001E009B0F0BD0020039033E00D
:1005B000802104980840002806D01E480288314651
:1005C0000598FFF787FF08E00898002805D11A482A
:1005D000028831460598FFF77DFF04984006000E1B
:1005E0000490701C86B215484088B04200DCDAE7FF
:1005F0000298301AA0420BD1029E0598401C80B28E
:1006000005900E4801880598814200DCCBE706E0A2
:100610000398401CC0B2039003980828C8DB00BFB1
:10062000681CC5B201988542A5DB00BFBBE700008E
:10063000D3480000060B0020080B00202C2F0020C0
:10064000FFB581B004460D460A9E1027E0B2009027
:100650000398001980B203900498401980B2049066
:1006600016E00398844202DB009CE81985B20498E6
:10067000854200DB12E03278002329462046FFF74E
:1006800057FF3846F90F0918491009198CB2761C22
:1006900030787E2802DC30782028E2DA00BF05B00E
:1006A000F0BD00B502460120052109074860002081
:1006B0000860104600F036F8002005210907886020
:1006C00001208860086000BD00B5024600200521B9
:1006D000090748600860104600F024F80020052152
:1006E0000907886001208860086000BD30B50246B7
:1006F0000020002100230A4C216801249440204658
:1007000004460C402346002B04D10C460443044D00
:100710002C6003E00C468443014D2C6030BD00008A
:100720000010004005210907886170477047704735
:10073000C206D20E01219140014A116070470000AB
:1007400000E100E0002004E00021034A1154411CB4
:10075000C8B20928F8DB70473A2F002038B50446A4
:100760000121009100201C494870012100912AE0DC
:10077000684600882040002803D00120174988607F
:1007800002E00020154988600120144948600520D6
:1007900000F08EFD002011494860052000F088FD22
:1007A00001200E49486002F091FE002806D00A4858
:1007B00040786946098808430749487068460088B8
:1007C0004004010C009168460088FF28D0DD10200D
:1007D00000F06EFD38BD00003A2F002000500040B0
:1007E00010B5FFF7AFFF00F02DF80F4800790002B9
:1007F0000D49C97808430D49088000240FE06000C6
:100800000B49095C491E01208840084909880840B5
:10081000002802D1601CC0B210BD601CC4B2102CF4
:10082000EDDB0020F8E700003A2F0020140B002039
:10083000180B00200020024908604860886070475B
:10084000005000401CB500210191012100910020C1
:100850002349086023490878FFF780FF2149487839
:10086000FFF77CFF0221019131E00120009022E09E
:1008700001201B494860052000F01AFD002018499E
:100880004860052000F014FD01201549486002F081
:100890001DFE00280AD0144968460079095C6846A4
:1008A00000880143104A6846007911546846008860
:1008B0004004010C009168460088FF28D8DD102014
:1008C00000F0F6FC68460079401CC1B20191684610
:1008D00000790928C9DB0120014908601CBD00001E
:1008E00000500040160B00203A2F002070470000F7
:1008F000024948600121014A1160704700400040F0
:1009000070470000014908617047000000E000E006
:10091000014948617047000000E000E0014988613A
:100920007047000000E000E010B50020FFF7EAFF8C
:10093000034840680121490608430149486010BD49
:1009400000ED00E010B50120FFF7F2FE0020FFF7F8
:10095000EFFE0720FFF7ECFE0820FFF7E9FE10BDD1
:100960007047704710B50120800703F0A5FE0120F5
:10097000FFF7BCFE01A000F02DF810BD7561727488
:100980005F727820696E74206F6363757221212114
:100990000A00000008B50120800703F090FE022045
:1009A000FFF7A4FE04A0FF234133F02200210090B2
:1009B0000846FFF745FE08BD5541525454585F495B
:1009C00052516E204F43435552454421212100008E
:1009D000704700000FB410B503A9044B044A0298F5
:1009E00000F026F810BC08BC04B01847011600003F
:1009F0000C0B002030B47446641E2578641CAB4296
:100A000004D3635D5B00E31830BC18471D46F8E76C
:100A100002E008C8121F08C1002AFAD170477047C7
:100A2000002001E001C1121F002AFBD17047000025
:100A3000FFB58DB00446002506E025280AD0109A9F
:100A40000F999047641C6D1C20780028F5D128462A
:100A500011B0F0BD00270121484A009700E007438C
:100A6000641C23780846203B98401042F7D1207838
:100A70002E2817D1042007436078641C2A280CD143
:100A80000E98641C02C800910E900BE000990A2297
:100A9000514330394018641C0090207801463039A9
:100AA0000929F3D920780028D1D0642808D06928F2
:100AB00006D075281ED0109A0F9990476D1C5BE0E8
:100AC0000A200E99019001C90E91002802DA4042D5
:100AD0002D2102E0390504D52B216A46117201212E
:100AE00003E0F90704D02021F7E70BAE0B910DE0EE
:100AF0000021FAE70A200E99019001C90E91F7E74B
:100B00000199FFF70BFB3031761E31700028F7D1C9
:100B100003A8801B20300190780701D5009801E0E0
:100B2000012000900199884201DD401A00E0002078
:100B30000027009006E002A8109AC05D0F99904728
:100B40006D1C7F1C0B988742F5DB04E0109A302067
:100B50000F9990476D1C0099481E00900029F5DC04
:100B600005E03078109A761C0F9990476D1C01991A
:100B7000481E01900029F4DC641C65E70928010087
:100B8000014600204EE01A2242438A5C002A48D1E6
:100B900001231A2242438B5432231A224243521811
:100BA000537000231A2242435218937096231A223C
:100BB000424352189380B4231A2242435218D380DE
:100BC00000231A224243521813721A224243521827
:100BD00053721A224243521893729B1E1A224243A6
:100BE000521893811E231A2242435218D3815A234A
:100BF0001A2242435218138228231A2242435218BF
:100C000053823C231A22424352189382A0231A2271
:100C100042435218D382B4231A22424352181383F8
:100C200004E0401C024A12789042ACDB00BF7047DF
:100C3000D0480000F8B505460E4600241BE11A20F6
:100C40006043285C00287DD020201A2363435B1971
:100C50000090DB88DAB21A2363435B199B88D9B210
:100C60003078C02303F020FE20201A2363435B1951
:100C70000090DB88DB1DDAB21A2363435B199B8883
:100C8000D9B233785B1CD8B2C12303F00DFE20200B
:100C90001A2363435B190090DB880E33DAB21A2300
:100CA00063435B199B88D9B233789B1CD8B2C223AB
:100CB00003F0FAFD20201A2363435B190090DB88C0
:100CC0001533DAB21A2363435B199B88D9B23378A0
:100CD000DB1CD8B2C32303F0E7FD20201A236343B3
:100CE0005B190090DB881C33DAB21A2363435B196B
:100CF0009B881B1FD9B233781B1DD8B2C42303F0C5
:100D0000D3FD20201A2363435B190090DB881C333A
:100D1000DAB21A2363435B199B881B1DD9B233785F
:100D20005B1DD8B2C52303F0BFFD60201A236343C7
:100D30005B190090DB885B1DDAB21A2363435B19F1
:100D40009B8800E096E0DB1FD9B233789B1DD8B2B8
:100D5000C62303F0A9FD20201A2363435B190090EA
:100D6000DB885B1DDAB21A2363435B199B88DB1DAA
:100D7000D9B23378DB1DD8B2C62303F095FD20200D
:100D80001A2363435B190090DB880C33DAB21A2311
:100D900063435B199B88DB1FD9B233780833D8B221
:100DA000C92303F081FD20201A2363435B190090BF
:100DB000DB880C33DAB21A2363435B199B88DB1D93
:100DC000D9B233780933D8B2CA2303F06DFD20209D
:100DD0001A2363435B190090DB880A33DAB21A23C3
:100DE00063435B199B880E3BD9B233780A33D8B280
:100DF000C82303F059FD60201A2363435B19009058
:100E0000DB880A33DAB21A2363435B199B880E33FB
:100E1000D9B233780B33D8B2C82303F045FD202074
:100E20001A2363435B190090DB880A33DAB21A2372
:100E300063435B199B88153BD9B233780C33D8B226
:100E4000C72303F031FD60201A2363435B19009030
:100E5000DB880A33DAB21A2363435B199B881533A4
:100E6000D9B233780D33D8B2C72303F01DFD3078E3
:100E70000E303070641C03480078844200DADEE6ED
:100E8000F8BD0000D048000070B504460025AAE176
:100E90001A206843205C00282FD01A2068430019CC
:100EA000807802287ED100211A20684300198170C1
:100EB0001A2068430019007A00282ED11A206843AE
:100EC00000190621415E1A20684300191022825E33
:100ED000914213DC00211A206843001981721A2004
:100EE00068430019417201211A20684300190172F8
:100EF000C04A2146C04802F0B7FE73E11A20684399
:100F00000019C1881A20684300198089081801B2A5
:100F10001A2068430019C18064E11A20684300194F
:100F2000007A01287ED11A2068430019407A0028EF
:100F30005AD11A20684300198088801E01B21A20F5
:100F4000684300198180FFF713F906460321FFF774
:100F5000FBF8491E1A2068430019C088081801B21E
:100F60001A2068430019C1801A206843001904211F
:100F7000415E1A20684300191222825E914209DA0A
:100F800001211A206843001941729A4A21469A4861
:100F900002F06AFE1A20684300190421415E6429A8
:100FA0000EDA00E014E11A20684300190421415EC2
:100FB000612905DD8F4A21468F4802F055FE11E177
:100FC0001A20684300190421415E782995DA1A2015
:100FD000684300190421415E75298EDD854A21464A
:100FE000854802F041FEFDE01A2068430019407A6E
:100FF00001282CD11A20684300198088801C01B276
:101000001A206843001981801A2068430019C0889B
:10101000801E01B21A2068430019C1801A2068435B
:10102000001900E0B8E00421415E1A20684300196D
:101030001422825E9142C2DD02211A206843001907
:1010400041726C4A21466C4802F00EFECAE01A203A
:1010500068430019407A02286DD11A2068430019AC
:101060008088801C01B21A20684300198180FFF734
:101070007FF806460321FFF767F8491E1A206843E8
:101080000019C088081801B21A2068430019C180ED
:101090001A20684300190421415E1A206843001990
:1010A0001822825E914209DD03211A20684300194B
:1010B0004172504A2146504802F0D6FD1A2068433A
:1010C00000190421415E6E290CDA1A2068430019C8
:1010D0000421415E6B2905DD464A2146464802F05F
:1010E000C3FD7FE01A20684300190421415E802976
:1010F00078DA1A20684300190421415E7D2971DDE8
:101100003C4A21463C4802F0AFFD1A2068430019D2
:10111000807A401CC1B21A206843001981721A20DB
:1011200068430019807A04285CD102211A206843A0
:101130000019017256E01A2068430019407A03280A
:1011400050D11A20684300198088801E01B21A20ED
:101150006843001981801A2068430019C088801CE8
:1011600001B21A2068430019C1801A20684300198F
:101170000421415E1A20684300191622825E9142C2
:1011800030DA1C4A21461C4802F06EFD00211A206C
:1011900068430019417225E01A2068430019007A5B
:1011A00002281FD11A2068430019C088801E01B28E
:1011B0001A2068430019C1801A20684300190621CB
:1011C000415E0A290EDA00211A206843215409E001
:1011D0001A20684300198078401CC1B21A20684365
:1011E000001981706D1C05480078854200DA4FE6D1
:1011F00070BD0000F02B0020382D0020D0480000EA
:10120000014600201AE000231A224243521893801C
:101210001A2242435218D3801A2242438B54052388
:101220001A2242435218537000231A224243521882
:1012300093701A22424352181372401C024A1278C9
:101240009042E0DB70470000D048000030B5002439
:101250000CE0002506E0FF222146284603F01CFB97
:10126000681CC5B2202DF6DB601CC4B21E2CF0DB5E
:1012700030BD00B502460020FFF744FB1046FFF7E3
:1012800047FB0020FFF74AFB0720FFF73BFB30BF7F
:1012900000BD000010B503461C4603E00348FFF7FD
:1012A000E8FF641E002CF9D110BD000050C30000FF
:1012B00010B503461C4603E03220FFF7DAFF641E38
:1012C000002CF9D110BD0000F0B589B005460C46E0
:1012D00016461F460A213046FEF720FF08910A21D4
:1012E0003046FEF71BFF0A210390FEF717FF079118
:1012F00064213046FEF712FF0A210390FEF70EFF2D
:1013000006917D21C9003046FEF708FF0A210390AF
:10131000FEF704FF059127490598887306984874DD
:10132000079808750898C87523493846FEF78BFF5B
:101330000390FFF715F8C0B204900A210498FEF755
:1013400003FFC8B208900A210498FEF7FDFE0A21A7
:101350000390FEF7F9FEC8B20790164927310798A7
:101360008870C91C089888702878012820D12078B6
:1013700014281DDA002000902078410040180D4903
:10138000401883782078410040180A494018427874
:101390002078410040180749085C039020780290AB
:1013A000039903F081FA2078401C207000202870F7
:1013B00009B0F0BDAE0B00200000C842FFB50646E4
:1013C0000F461546002004E0002283000999CA5008
:1013D000401C1E28F8DB002428E02001305C002897
:1013E00023D022019219D288D1B222019219928877
:1013F000D0B2099A03F054F922019219D288D1B2DD
:101400002201921992880832D0B2099A03F048F961
:1014100022019219D288083AD1B2220192199288F7
:10142000121DD0B2099A03F03BF9641C55480078AC
:101430008442D2DB00242FE01C206043385C00286B
:1014400029D01C226243D2199288D1B21C22624355
:10145000D2195288D0B2099A03F022F91C226243B1
:10146000D2199288D1B21C226243D2195288083212
:10147000D0B2099A03F014F91C226243D21992885F
:10148000083AD1B21C226243D2195288121DD0B23E
:10149000099A03F005F9641C3B4800788442CBDBD1
:1014A00000244FE01A206043285C002849D01A220B
:1014B00062435219D2880E32D1B21A2262435219B3
:1014C0009288D0B2099A03F0EBF81A2262435219BB
:1014D000D2880C32D1B21A22624352199288D21F9A
:1014E000D0B2099A03F0DCF81A2262435219D2886A
:1014F0000C32D1B21A22624352199288D21DD0B254
:10150000099A03F0CDF81A2262435219D2880A329E
:10151000D1B21A226243521992880E3AD0B2099A75
:1015200003F0BEF81A2262435219D2880A32D1B2AD
:101530001A226243521992880E32D0B2099A03F0ED
:10154000AFF8641C114800788442ABDB002414E03F
:101550000A20604303994018007900280CD00A2221
:101560006243039BD2185288D1B20A2262439A5A2C
:10157000D0B2099A03F094F8641C054800788442BC
:10158000E6DBFFBDCD480000CE480000D04800009B
:10159000D1480000F8B505460E46002418E00A20A0
:1015A000604340190079002811D010200A236343BA
:1015B0005B1900905B88DAB20A236343EB5AD9B215
:1015C0003078302303F070F93078401C3070641CA0
:1015D000024800788442E2DBF8BD0000D1480000F8
:1015E0000146002005E000230A22424352181371ED
:1015F000401C024A12789042F5DB7047D148000047
:1016000070B504460D460A2C03D10D21400703F0A6
:1016100059F8E1B20120800703F054F8204670BD6C
:10162000F8B50646502500243078002802D001285D
:1016300004D101E0802403E0902401E0802400BF75
:1016400000BFA020E2B2E9B240230090002003F0E6
:101650002BF9A020E2B2009028460830C1B2412305
:10166000012003F021F9A020009020460830C2B2EA
:10167000281DC1B24223022003F016F9F8BDF0B5CF
:1016800085B005460E4617461C460A213846FEF729
:1016900045FD04910A213846FEF740FD0A210090DD
:1016A000FEF73CFD039164213846FEF737FD0A2121
:1016B0000090FEF733FD02917D21C9003846FEF708
:1016C0002DFD0A210090FEF729FD019130200090A8
:1016D000207832462946019B03F0E6F830202A465E
:1016E0000832D1B200902278521CD0B23246029B0E
:1016F00003F0DAF830202A461032D1B20090227876
:10170000921CD0B23246039B03F0CEF830202A461A
:101710001832D1B200902278D21CD0B23246049B4B
:1017200003F0C2F82078001D207005B0F0BD000065
:10173000F3B587B0079F08980690002520E00026A3
:101740001AE0BD4216DB38461230854212DA06989E
:1017500086420FDB0698401D86420BDA0698301A47
:101760001221484347494018E91B425C314628464C
:1017700003F092F8701CC6B21E2EE2DB681CC5B2E4
:10178000202DDCDBB81DC4B206980830C0B205902D
:10179000002517E0002611E0A5420DDB20460830A9
:1017A000854209DA0598864206D1281B36490A5C2B
:1017B0003146284603F070F8701CC6B21E2EEBDBD3
:1017C000681CC5B2202DE5DB04940598801CC0B2CE
:1017D0000390002519E0002613E0049885420EDBF3
:1017E0000498083085420ADA0398864207D10498A3
:1017F000281A26490A5C3146284603F04DF8701C29
:10180000C6B21E2EE9DB681CC5B2202DE3DB201F0B
:10181000C0B2029005980830C0B20190002519E0CE
:10182000002613E0029885420EDB02980C308542B8
:101830000ADA0198864207D10298281A14490A5CEC
:101840003146284603F028F8701CC6B21E2EE9DB8C
:10185000681CC5B2202DE3DB00250EE0002609E060
:10186000680180190B4B1A5CA9B2B0B2009003F06A
:1018700013F8761C202EF3DB6D1C202DEEDB09B057
:10188000F0BD0000380B00209E0B0020A60B0020AE
:10189000920B0020EA0B0020F7B582B005460E46F9
:1018A000002474E01A206043285C00286ED01A20BF
:1018B0006043401980884005070E1A206043401994
:1018C000C0884005000E01900198801C80003058AF
:1018D0000121B94008400199891C890071587A1E7C
:1018E00001239340194008430199891C89007158CC
:1018F0007A1C01239340194008430199891C8900EF
:101900007158BA1E01239340194008430199891C5C
:1019100089007158BA1C0123934019400843009074
:101920000098002831D01A20604340194078401EAA
:10193000C1B21A206043401941701A226243521901
:10194000D288143211B21A22624352199288083A8C
:1019500010B2049A01F064FD1A20604340194078E7
:10196000002812D100211A2060432954FD211A2099
:10197000604340198180EF211A2060434019C180E3
:1019800006480068C8300549086000BF641C044868
:101990000078844286DB05B0F0BD0000DC0A002040
:1019A000D0480000F7B582B005460E46002458E046
:1019B0000C206043285C002852D00C206043401962
:1019C00080884005070E0C2060434019C088400500
:1019D000000E01900198401C800030580121B94050
:1019E00008400199491C890071587A1C01239340D1
:1019F0001940084300900098002830D00C20604324
:101A000040194078401EC1B20C206043401941701B
:101A10000C2262435219D288083211B20C2262435E
:101A200052190420105E049A01F0FAFC0C20604365
:101A300040194078002812D100210C20604329541D
:101A4000FD210C20604340198180EF210C20604370
:101A50004019C18006480068C8300549086000BFC9
:101A6000641C044800788442A2DB05B0F0BD00008D
:101A7000DC0A0020CF480000F0B5024600202DE02F
:101A80000A2343439B181B79002B26D00A25454384
:101A9000555B6D052C0E0A254543AD186D886D0507
:101AA0002B0E9D004D590126A64035402F46002F94
:101AB00012D000250A264643B6183571FD250A26A0
:101AC00046439553EF250A264643B6187580064DC2
:101AD0002D686D1C044E356000BF401C034B1B7805
:101AE0009842CDDBF0BD0000E40A0020CC480000A5
:101AF000FFB583B005460E46174600244CE0200192
:101B0000285C002847D02001401980884005000E3D
:101B1000029020014019C0884005000E01900198F4
:101B200080003958012202988240084610400199ED
:101B300089007A580299491C01238B401A401043AE
:101B40000199491E89007A580299491C01238B404A
:101B50001A4010430090009800281BD02001401923
:101B60000621415E200140190423C35E1846069AEF
:101B700001F056FC002021016854FD202101491983
:101B80008880EF2021014919C880344800680A3054
:101B90003249086000BF641C314800788442AEDBE3
:101BA000002454E01C206043305C00284ED01C20F0
:101BB0006043801940884005000E02901C2060435D
:101BC000801980884005000E0190019880003958E6
:101BD00001220298824008461040019989007A58F3
:101BE0000299491C01238B401A4010430199491E58
:101BF00089007A580299491C01238B401A401043EE
:101C000000900098002820D01C20604380190421F7
:101C1000415E1C20604380190223C35E1846069A69
:101C200001F0FEFB00211C2060433154FD211C20EB
:101C3000604380194180EF211C206043801981801E
:101C4000064800680A300549086000BF641C054862
:101C500000788442A6DB07B0F0BD0000DC0A00205B
:101C6000CD480000CE48000070B500240DE00025EE
:101C700008E063015B19064EF25CA1B2A8B202F063
:101C80000BFE6D1C202DF4DB641C202CEFDB70BDE3
:101C9000EA130020F8B505460F4600243CE00C206E
:101CA0006043285C002836D101210C206043295470
:101CB00014210C2060434019417000210C20604326
:101CC000401981700C20604340198780E1210C206D
:101CD00060434019C18001210C206043401901720A
:101CE000FEF746FA0646C00F801940104000301A31
:101CF000C1B20C20604340194172FEF739FA064622
:101D0000C00F801940104000301AC1B20C2060434F
:101D10004019817204E0641C024800788442BEDBF2
:101D200000BFF8BDCF480000F8B505460F460024B7
:101D300013E10C206043285C00287DD00C20604318
:101D40004019807A002801D1002600E020260C20CE
:101D500060434019407A002802D001286DD19AE0F2
:101D60000C2363435B190096DB88DAB20C236343D0
:101D70005B199B88D9B23878902302F095FD0C232B
:101D800063435B190096DB88DAB20C2363435B196B
:101D90009B880833D9B23B785B1CD8B2912302F000
:101DA00083FD0C2363435B190096DB880833DAB2AA
:101DB0000C2363435B199B88D9B23B789B1CD8B238
:101DC000922302F071FD0C2363435B190096DB88BC
:101DD0000833DAB20C2363435B199B880833D9B20A
:101DE0003B78DB1CD8B2932302F05EFD0C236343E7
:101DF0005B190096DB881033DAB20C2363435B195E
:101E00009B88D9B23B781B1DD8B2942302F04CFDBD
:101E10000C2363435B190096DB881033DAB20C2382
:101E200063435B199B880833D9B23B785B1DD8B2FA
:101E3000952302F039FD01E08EE08AE00C23634334
:101E40005B190096DB88DB1CDAB20C2363435B1959
:101E50009B88083BD9B23B789B1DD8B2962302F0F1
:101E600023FD3046402108430C2363435B19009057
:101E7000DB88DB1CDAB20C2363435B199B881033CD
:101E8000D9B23B78DB1DD8B2962302F00DFD38782D
:101E9000083038705EE00C2363435B190096DB88E2
:101EA000DAB20C2363435B199B88D9B23878B32329
:101EB00002F0FAFC0C2363435B190096DB88083BB5
:101EC000DAB20C2363435B199B88D9B23B785B1C65
:101ED000D8B2B12302F0E8FC0C2363435B190096EF
:101EE000DB880833DAB20C2363435B199B88D9B2D1
:101EF0003B789B1CD8B2B52302F0D6FC0C2363437D
:101F00005B190096DB88DAB20C2363435B199B886C
:101F1000083BD9B23B78DB1CD8B2B22302F0C4FC38
:101F20003046402108430C2363435B190090DB8853
:101F3000DAB20C2363435B199B880833D9B23B7830
:101F40001B1DD8B2B22302F0AFFC3878401D3870A8
:101F500000E000BF00BF00BF641C0348007884425B
:101F600000DAE6E6F8BD0000CF48000010B50146F3
:101F700000204CE00C2242438A5C002A46D00C220E
:101F8000424352189278022A36D100230C2242434F
:101F9000521893700C22424352180423D35E052B2F
:101FA00015DB0C22424352180423D35EFB2B0EDCBC
:101FB0000C224243531806229A5E08320A2A06DB94
:101FC0000C22424352180623D35EE62B04DD002385
:101FD0000C2242438B5419E00C2242435218D388FE
:101FE0000C2242435218082414571A1B13B20C2215
:101FF00042435218D38009E00C224243521892788F
:10200000521CD3B20C22424352189370401C024A15
:1020100012789042AEDB10BDCF4800000146002090
:1020200022E000230C224243521893800C224243A8
:102030005218D3800C224243521813720C2242438E
:102040008B5405230C2242435218537000230C2258
:102050004243521893700C224243521853720C227E
:10206000424352189372401C024A12789042D8DBC5
:1020700070470000CF4800001FB50020009001907D
:10208000029001231A46FF21B3310390480702F062
:1020900024FBFEF7CFFB6420FEF72AFCF3E3F848AD
:1020A0000078012823D10020F5490870F548007810
:1020B00000281DD1002409E00020FF23E622FB2197
:1020C0000090204602F0F0FB601CC4B2402CF3DB11
:1020D000FFF7BCF80020EC49087008210720FFF743
:1020E00027FBE948FFF79CFA0020E849087069E0FF
:1020F000E4480078012848D10020E5490870E54906
:102100000870E5490870E5490870E5490860E54947
:102110000860E5490860E5490870E5490860E54858
:1021200000F065FFE44800F097FFE44802F094FAFD
:10213000E34801F07DFDE348FFF770FFE248FFF759
:102140005FF8E248FFF74CFAE14801F059F9002442
:1021500009E00020FF23E622FB210090204602F048
:10216000A3FB601CC4B2402CF3DBFFF76FF8FFF752
:102170007BFD0120D7494860C4480078800388600F
:102180000820C860012008601CE0BE4800780228D2
:1021900018D1002409E00020FF23E622FB21009053
:1021A000204602F081FB601CC4B2402CF3DBFFF739
:1021B0004DF80020C8490870C8490870C84908701F
:1021C000C8490870AF48007800283AD1AC48007878
:1021D000002836D1FEF704FBC349086008460068B2
:1021E00005280CD1A8480078002826DDA6480078EC
:1021F000401EA54908700846FFF712FA1DE0BA48CC
:10220000006807280CD1A0480078012815DA9E48FC
:102210000078401C9C4908700846FFF701FA0CE062
:10222000B14800680D2808D197480078002804D1EB
:10223000012093490870934908709620FFF72AF807
:1022400021E390480078012879D18D480078002852
:10225000FAD192480078002872D19E4800699D49C1
:10226000C968884203D39B484069782849D3FDF761
:102270007FFF0446C821FDF767FF0F3109B26846AA
:1022800081800421415E8B480022825E914203DD01
:1022900005206946C87202E006206946C872FDF74B
:1022A00067FF0446C00F001940104000201A69461D
:1022B000487280480223C35E0022825E7F4801F09C
:1022C00077FD8448406978281AD17A480222825ED4
:1022D0000021415E7A4801F0FFF8FDF749FF04460E
:1022E000C00F001940104000201A64214843643098
:1022F00005B229467348FFF7CDFC7348FEF740FC52
:1023000000BFFEF76DFA7849086061480078401C0C
:102310005F4908700846007810282DDB00200870FF
:10232000724800791021084000280AD16148C0791C
:10233000002821D160495F4800F09EFE1CE06BE25E
:102340002EE1694800680E2803D101205149087028
:1023500012E06548006810280ED14F480078002828
:1023600005D101205B49C8614B49087004E0002099
:102370005849C86148490870032145480078FDF76D
:10238000E3FE01293ED14448007800283AD156485E
:10239000006808280AD147480021415E192931DD2B
:1023A0000088401F00B2434908802BE04E48006877
:1023B00006280AD13F480021415EE72922DA008839
:1023C000401D00B23B4908801CE0474800680528D2
:1023D0000AD138480221415E1E2913DD4088401F82
:1023E00000B2344948800DE03F480068072809D111
:1023F00030480221415ED22904DA4088401D00B2F3
:102400002C4948802448007801281CD021492948BB
:1024100000F094FA284800F007FF2C4A2549274885
:1024200001F028FF294A2349254801F05DFA254893
:10243000FFF79CFD2448FEF727FD244802F07AF9B7
:10244000234801F011F823484269016928A0FEF7EA
:10245000C1FA20480069082870D11E4840697828D0
:102460006CD832A0FEF7B6FA002005E00021C9437F
:102470008200314B9950401C1E28F7DB62E05DE082
:10248000FA0A0020F40A0020DA0A0020040B0020D7
:10249000D60A0020D70A0020D80A0020FB0A002014
:1024A000DC0A0020E00A0020E40A0020F50A0020EF
:1024B000E80A0020F02B0020FA2B0020722C0020CC
:1024C000A22C0020122D00201E2D0020382D0020CF
:1024D000042F002000080250F90A0020D90A002029
:1024E000F60A0020F80A0020F00A00203A2F002007
:1024F0004E414D455441424C452D3E6D6170426107
:10250000636B67726F756E64436E743D25752C4EF8
:10251000414D455441424C452D3E6D6170536372AF
:102520006F6C6C5074723D25750A0000626F6F6F9E
:102530006D2121210A000000142E0020D249D34829
:1025400000F0D4F9D248D34BD34AD4490090D448B0
:10255000FEF734FFD34BCC4AD049D148FFF7C8FA35
:10256000D04AC949D048FFF71DFACE4AC649CA48E1
:10257000FFF792F9C649C548FFF77EFACB480079C4
:10258000002809D1CA480078F02805DB0120C94994
:1025900008700220C84908700120C849087072E11B
:1025A000C6480078022862D10020C5490870C54895
:1025B000007801281BD1202003466E22114600908E
:1025C000BF48007802F070F9BD480078401CBC4953
:1025D0000870202021236E227E210090B8480078C8
:1025E00002F062F9B6480078401CB5490870B44B57
:1025F000B5480A2102680320FFF741F8B049AB480B
:1026000000F0D6F9AE49A14800F000FDAC49A5485C
:1026100000F08EFEAA49A24801F048FCA8499F4854
:1026200000F0ECFFA649A048FFF77EFBA4499A48BA
:10263000FEF700FBA2499748FEF7ACFFA0480478DC
:102640000FE00020FF23E622FB2100909C48007849
:1026500002F02AF99A480078401C99490870601CD9
:10266000C4B2402CEDDB0020944908700BE1934884
:102670000078032893D195480078401C934908704E
:1026800008460078022866D1002453E000208C49D7
:1026900008700B468C480A2102680320FEF7EFFF02
:1026A00087498A48007800F0E7FD85497F4800F0B7
:1026B0007FF9834805780FE00020FF23E622FB2105
:1026C00000907F48007802F0EFF87D480078401CC9
:1026D0007B490870681CC5B2402DEDDBFF202D3012
:1026E000FEF7D8FD0020764908700B4676480A218F
:1026F00002680320FEF7C3FF71496C4800F058F9E7
:102700006F4805780FE00020FF23E622FB210090B0
:102710006B48007802F0C8F869480078401C6849A6
:102720000870681CC5B2402DEDDBFF202D30FEF790
:10273000B1FD641C062CA9DB0020654908605F49D7
:10274000087001205B49087002205B490870002076
:102750005649087197E0002453E00020584908705A
:102760000B4659480A2102680320FEF788FF5449A6
:102770005648007800F080FD51494C4800F018F9A7
:102780004F4805780FE00020FF23E622FB21009050
:102790004B48007802F088F849480078401C4849C6
:1027A0000870681CC5B2402DEDDBFF20F530FEF748
:1027B00071FD0020424908700B4643480A21026817
:1027C0000320FEF75CFF3E49384800F0F1F83C4832
:1027D00005780FE00020FF23E622FB210090384817
:1027E000007802F061F836480078401C34490870DF
:1027F000681CC5B2402DEDDBFF202D30FEF74AFDF1
:10280000641C062CA9DB00202C49087001202949F2
:1028100008702949087036E027480078022832D12C
:102820002448007800282ED12A480068FDF791FD41
:10283000044629480068FDF78CFD05462146FDF752
:102840003FFD26490860084603682348244902687A
:102850002448FEF739FD22480078142813DBFDF7E1
:10286000BFFF2149086008460068102808D10020F1
:102870001149087001200F4908700020184908709C
:102880006420FEF707FD0AE4142E0020FA2B002036
:102890008C2E0020382D00201E2D0020A22C002080
:1028A000722C0020042F0020122D0020F02B00207D
:1028B000F50A0020FA0A0020F40A0020FB0A002092
:1028C000D90A0020D80A0020DC0A0020040B0020CE
:1028D00000080250E00A0020E40A0020E80A002074
:1028E000F80A0020F90A0020F00A002070B5054619
:1028F0000E46002003E000218200B150401C1E283B
:10290000F9DB002412E00A20604340190079002816
:102910000BD00A22624352195288D1B20A22624372
:10292000AA5AD0B2324601F0BBFE641C02480078BD
:102930008442E8DB70BD0000CC48000070B504465E
:102940000D46E07900280DD1287801282FD1E071BB
:102950000020207201206072002028700320FDF703
:10296000C5FE24E0207A052802D0207A0A280BD15F
:10297000607A042804DC6088C01E00B2608003E036
:102980006088C01C00B26080207A0A280CDB00201E
:102990002072607A072803DB0020E071607206E095
:1029A000607A401C607202E0207A401C207270BD88
:1029B00003B587B00898007806900798007900283A
:1029C00070D00798407A0300FEF714F808056DD41C
:1029D000FDFCFBFAF9F805200590302000900798DF
:1029E0004088C0B2049007980088C0B2039006984F
:1029F000C0B233230290049A039901F055FF3020AE
:102A0000009007984088C0B204900798008808306A
:102A1000C0B203900698401CC0B234230290049ABE
:102A2000039901F041FF7020009007984088C0B2E0
:102A30000490079800881030C0B203900698801C5C
:102A4000C0B233230290049A039901F02DFF302085
:102A50000090079840880830C0B20490079800881A
:102A6000001DC0B203900698C01CC0B2352302906E
:102A7000049A039901F018FF3020009007984088CD
:102A80000830C0B20490079800880C30C0B20390A0
:102A90000698001DC0B236230290049A039901F0F3
:102AA00003FF9AE2A1E205200590302000900798EC
:102AB0004088C0B2049007980088C0B2039006987E
:102AC000C0B237230290049A039901F0EDFE302042
:102AD000009007984088C0B204900798008808309A
:102AE000C0B203900698401CC0B238230290049AEA
:102AF000039901F0D9FE7020009007984088C0B279
:102B00000490079800881030C0B203900698801C8B
:102B1000C0B237230290049A039901F0C5FE302019
:102B20000090079840880830C0B204900798008849
:102B3000001DC0B203900698C01CC0B23923029099
:102B4000049A039901F0B0FE302000900798408865
:102B50000830C0B20490079800880C30C0B20390CF
:102B60000698001DC0B239230290049A039901F01F
:102B70009BFE32E2032005903020009007984088A9
:102B8000C0B2049007980088C0B203900698C0B203
:102B90003A230290049A039901F086FE30200090B7
:102BA00007984088C0B20490079800880830C0B2E7
:102BB00003900698401CC0B23B2305E00CE2A4E160
:102BC00066E1FEE06CE019E00290049A039901F0DE
:102BD0006BFE7020009007984088C0B20490079860
:102BE00000881030C0B203900698801CC0B23A230F
:102BF0000290049A039901F057FEEEE1042005903B
:102C00003020009007984088C0B204900798008850
:102C1000C0B203900698C0B23D230290049A039973
:102C200001F042FE3020009007984088C0B2049026
:102C3000079800880830C0B203900698401CC0B2C4
:102C40003E230290049A039901F02EFE702000901A
:102C500007984088C0B20490079800881030C0B22E
:102C600003900698801CC0B23D230290049A0399F9
:102C700001F01AFE70200090079840880838C0B212
:102C80000490079800880830C0B203900698C01CD2
:102C9000C0B23C230290049A039901F005FE9CE126
:102CA0000720059030200090079840881038C0B267
:102CB000049007980088001DC0B203900698C0B227
:102CC0003F230290049A039901F0EEFD302000901A
:102CD000079840881038C0B20490079800880C30DC
:102CE000C0B203900698401CC0B2F0230290049A30
:102CF000039901F0D9FD30200090079840880838EA
:102D0000C0B2049007980088001DC0B203900698D6
:102D1000801CC0B2F1230290049A039901F0C4FD13
:102D200030200090079840880838C0B20490079877
:102D300000880C30C0B203900698C01CC0B2F223C9
:102D40000290049A039901F0AFFD3020009007989B
:102D50004088C0B2049007980088C0B203900698DB
:102D6000001DC0B2F3230290049A039901F09CFD68
:102D70003020009007984088C0B2049007980088DF
:102D80000830C0B203900698401DC0B2F4230290F0
:102D9000049A039901F088FD30200090079840883C
:102DA000C0B20490079800881030C0B20390069813
:102DB000801DC0B2F5230290049A039901F074FDBE
:102DC0000BE10620059030200090079840880838D5
:102DD000C0B2049007980088001DC0B20390069806
:102DE000C0B2F6230290049A039901F05DFD7020B1
:102DF0000090079840880838C0B20490079800886F
:102E00000C30C0B203900698401CC0B2F62302906A
:102E1000049A039901F048FD3020009007984088FB
:102E2000C0B2049007980088C0B203900698801C36
:102E3000C0B2F7230290049A039901F035FD3020C7
:102E4000009007984088C0B2049007980088083026
:102E5000C0B203900698C01CC0B2F8230290049A36
:102E6000039901F021FD7020009007984088C0B2BE
:102E70000490079800881030C0B203900698001D97
:102E8000C0B2F7230290049A039901F00DFDA4E06B
:102E9000032005903020009007984088C0B204902D
:102EA00007980088C0B203900698C0B23A230290F7
:102EB000049A039901F0F8FC3020009007984088AC
:102EC000C0B20490079800880830C0B203900698FA
:102ED000401CC0B23B230290049A039901F0E4FC29
:102EE0007020009007984088C0B20490079800882E
:102EF0001030C0B203900698801CC0B23A230290F2
:102F0000049A039901F0D0FC67E005200590302079
:102F1000009007984088C0B2049007980088C0B21B
:102F200003900698C0B233230290049A039901F0EB
:102F3000BBFC3020009007984088C0B204900798EE
:102F400000880830C0B203900698401CC0B23423F9
:102F50000290049A039901F0A7FC70200090079852
:102F60004088C0B20490079800881030C0B2039027
:102F70000698801CC0B233230290049A039901F092
:102F800093FC30200090079840880830C0B204902D
:102F900007980088001DC0B203900698C01CC0B2FC
:102FA00035230290049A039901F07EFC30200090B2
:102FB000079840880830C0B20490079800880C3009
:102FC000C0B203900698001DC0B236230290049A46
:102FD000039901F069FC00E000BF00BF0898017888
:102FE00005980818C1B20898017009B000BD782191
:102FF0000180B4214180012101710021C171017260
:10300000417201218171417170470000F8B5054698
:103010000E46002418E00A20604340190079002879
:1030200011D010200A2363435B1900905B88DAB249
:103030000A236343EB5AD9B23078312301F034FCD0
:103040003078401C3070641C024800788442E2DB17
:10305000F8BD0000CC4800000146002005E0002338
:103060000A22424352181371401C024A12789042BD
:10307000F5DB7047CC48000010B50279002A25D056
:103080008279002A23D100BF1EE00A2353435B1834
:103090001B79002B17D1038808331CB20A23534332
:1030A000CC524388083B1CB20A2353435B185C8014
:1030B00001240A2353435B181C715A4B1B685B1C89
:1030C000584C236002E0521C042ADEDBA8E082791F
:1030D000012A3CD1002237E00A2353435B181B79B5
:1030E000002B30D10A2353435B189B7B002B2AD142
:1030F00003881B1D1CB20A235343CC524388083B50
:103100001CB20A2353435B185C8001240A235343F7
:103110005B181C7103880C331CB20A2353435B18E1
:103120005C814388083B1CB20A2353435B189C8193
:1031300001240A2353435B189C733A4B1B689B1C66
:10314000384C236002E0521C082AC5DB68E0827913
:10315000022A65D1002260E00B79002B5CD10A23A2
:1031600053435B189B7B002B56D10A2353435B18B8
:103170001B7E002B50D10A2353435B181E331B794F
:10318000002B49D103881B1F1BB20B804388083BCF
:103190001BB24B8001230B7103881B1D1CB20A2339
:1031A00053435B185C814388083B1CB20A2353439A
:1031B0005B189C8101240A2353435B189C7303888A
:1031C0000C331CB20A2353435B189C824388083B90
:1031D0001CB20A2353435B18DC8201240A235343A5
:1031E0005B181C76038814331CB20A2353435B1804
:1031F000DC834388083B1CB20A2353435B181C84BE
:1032000001240A2353435B181E331C71054B1B68B2
:103210001B1D044C236002E0521C102A9CDB00BFE3
:1032200010BD0000E00A0020014600201CE00A2238
:10323000424352181279002A15D00A2242435218EA
:103240005288D21E13B20A224243521853800A22D5
:10325000424352180223D35E052B04DA00230A22CC
:10326000424352181371401C024A12789042DEDB2E
:1032700070470000CC480000F8B507460C4678259A
:10328000642620202946009020780C23324601F045
:103290000BFB2078401C2070202029461031009024
:1032A00020780D23324601F0FFFA2078401C207070
:1032B0002020324610322B46083BD9B200902078AD
:1032C0003B4601F0F1FA2078401C20702020324665
:1032D000103229460831009020780E2301F0E4FADC
:1032E0002078401C207020203246103229461831A8
:1032F000009020780F2301F0D7FA2078401C20702E
:1033000020203218294600902078102301F0CCFAB2
:103310002078401C2070202032182946103100905F
:103320002078112301F0C0FA2078401C2070F8BDED
:10333000FEB505460E4600245AE0E000401900792B
:10334000002854D0E000401940794006070E1020B4
:103350003946E031CBB2E100491900904988CAB240
:10336000E100695AC9B20191307801F09DFA10204C
:103370003B46E133DBB201930090E3005B195B88CD
:10338000DAB2E300EB5A0833D9B233785B1CD8B217
:10339000019B01F089FAD0203946E131CBB2E1003E
:1033A000491900904988C91DCAB2E100695AC9B2D9
:1033B00001913178891CC8B2019901F075FAD020C9
:1033C00000903846E030C3B2E00040194088C01D8C
:1033D000C2B2E000285A0830C1B23078C01CC0B276
:1033E000019001F061FA3078001D307000BF641C5C
:1033F000024800788442A0DBFEBD0000D2480000F5
:103400000146002004E00022C3005B181A71401C32
:10341000024A12789042F6DB70470000D248000062
:1034200030B50346002016E0C400A4182479002C0F
:1034300010D1C500AD186C71C4001353C400A4189A
:1034400061800124C500AD182C710024C500AD18A1
:10345000AC7104E0401C034C2478A042E4DB00BFC4
:1034600030BD0000D24800000146002026E0C20026
:1034700052181279002A20D0C200521892790A2AD2
:1034800007DAC20052189279521CC3005B189A7175
:1034900013E00022C3005B189A71C20052185279DF
:1034A000521CC3005B185A71C20052185279042A88
:1034B00003DB0022C3005B181A71401C024A127819
:1034C0009042D4DB70470000D24800000148C06839
:1034D0007047000000500040F7B50546164600242E
:1034E00082E01C206043285C00287CD101211C2044
:1034F0006043295400211C206043401941700F2172
:103500001C20604340194180FCF732FE07461E2113
:10351000FCF71AFE30463C38401A01B21C206043CA
:103520004019818000211C20604340198171FCF703
:103530001FFE0746C00FC01940104000381A801CFB
:1035400041B21C2060434019C171FCF711FE0746CF
:10355000C00FC01940104000381A41B21C2060430F
:1035600040190172FCF704FE07461421FCF7ECFD3C
:1035700001983238081801B21C206043401941817B
:103580001C206043401940893C3001B21C2060433C
:10359000401981813046143801B21C206043401923
:1035A000C181FCF7E5FD07461E21FCF7CDFD1C207F
:1035B00060434019C0891430081801B21C206043D0
:1035C000401901821C206043401980891E3801B2D5
:1035D0001C2060434019418200211C206043401997
:1035E000817606E0FFE7641C03480078844200DA35
:1035F00077E700BFFEBD0000CE480000F8B50546E5
:103600000E46002467E11C206043285C00287DD022
:103610001C2060434019807E0300FDF7EBF9050490
:103620003F92CDFEFD0060201C2363435B19009098
:103630009B88DAB21C2363435B195B88D9B230786C
:10364000592301F031F960201C2363435B1900907A
:103650009B88DB1DDAB21C2363435B195B88D9B2FC
:1036600033785B1CD8B25A2301F01EF960201C236A
:1036700063435B1900909B88DB1CDAB21C23634315
:103680005B195B88083BD9B233789B1CD8B25B23AB
:1036900001F00AF93078C01C30701AE1A0201C2318
:1036A00063435B1900909B885B1CDAB21C23634365
:1036B0005B195B885B1CD9B230785E2301F0F4F8AB
:1036C000A0201C2363435B1900909B885B1CDAB22B
:1036D0001C2363435B195B880833D9B233785B1CC6
:1036E000D8B25F2301F0E0F8A0201C2363435B19EC
:1036F00000909B880833DAB21C2363435B195B8814
:10370000D9B233789B1CD8B25C2300E0E2E001F030
:10371000CBF8A0201C2363435B1900909B880833DF
:10372000DAB21C2363435B195B880833D9B2337860
:10373000DB1CD8B25D2301F0B7F83078001D307083
:10374000C7E020201C2363435B1900909B88DAB2FA
:103750001C2363435B195B88D9B23078402301F0A6
:10376000A3F820201C2363435B1900909B88DAB2E6
:103770001C2363435B195B880833D9B233785B1C25
:10378000D8B2412301F090F820201C2363435B1939
:1037900000909B88083BDAB21C2363435B195B886B
:1037A0001B1DD9B233789B1CD8B2422301F07CF8A0
:1037B0003078C01C30708CE0E0201C2363435B1920
:1037C00000909B88DAB21C2363435B195B88D9B2F3
:1037D00030785F2301F068F8E0201C2363435B1915
:1037E00000909B88DAB21C2363435B195B88083323
:1037F000D9B233785B1CD8B25E2301F055F8E020D3
:103800001C2363435B1900909B880833DAB21C23A6
:1038100063435B195B8801E05AE01EE0D9B233785C
:103820009B1CD8B25D2301F03FF8E0201C236343CA
:103830005B1900909B880833DAB21C2363435B1941
:103840005B880833D9B23378DB1CD8B25C2301F033
:103850002BF83078001D30703BE020201C236343A0
:103860005B1900909B88DAB21C2363435B195B8869
:10387000D9B23078592301F017F820201C23634374
:103880005B1900909B88DB1DDAB21C2363435B1934
:103890005B88D9B233785B1CD8B25A2301F004F8A4
:1038A00020201C2363435B1900909B88DB1CDAB249
:1038B0001C2363435B195B880833D9B233789B1CA4
:1038C000D8B25B2300F0F0FF3078C01C307000E00D
:1038D00000BF00BF641C03480078844200DA92E60F
:1038E000F8BD0000CE480000F8B505460E4600249D
:1038F00095E11C206043285C00282AD01C206043EE
:103900004019407802287DD100211C2060434019D5
:1039100041701C20604340190221415E052914DBDF
:103920001C20604340190221415EFB290DDC1C2054
:10393000604340190421415E0A2906DB1C206043D4
:1039400040190421415EE62904DD00211C2060436A
:10395000295463E11C2060434019807900283AD142
:103960001C20604340190221415E1C206043401925
:103970000A22825E91420ADB01211C206043401929
:10398000817100211C206043401941721DE01C2000
:103990006043401941881C20604340190722825629
:1039A000881801B21C206043401941801C206043EC
:1039B000401981881C2060434019082282568818CB
:1039C00001B21C2060434019818000211C2060430B
:1039D0004019817622E11C2060434019807901283A
:1039E000B7D11C2060434019407A0300FDF702F86C
:1039F00005043774A1DEFE0000211C20604340193D
:103A0000817600E000E11C20604340194088C01C22
:103A100001B21C20604340194180FCF7A9FB074616
:103A20000321FCF791FB1C20604340198088081893
:103A300001B21C206043401981801C206043401962
:103A40000221415E1C20604340190C22825E91429B
:103A500004DB01211C20604340194172D3E00121A5
:103A60001C20604340198176FCF782FB0746C00F9B
:103A7000C01940104000381A801C1C2161434919AC
:103A80004988401801B21C20604340194180FCF76E
:103A90006FFB0746C00FC01940104000381A801C49
:103AA0001C21614349198988401801B21C206043D8
:103AB000401981801C20604340190421415E1C2074
:103AC000604340190E22825E914204DB02211C20D9
:103AD00060434019417296E002211C206043401966
:103AE00081761C20604341190220085E1C2161433D
:103AF000491948801C20604340198088C01C01B2CD
:103B00001C206043401981801C206043401904211F
:103B1000415E1C20604340191022825E914207DB07
:103B200003211C206043401941720020FCF7DEFD98
:103B300069E003211C20604340198176FCF718FBE3
:103B40000746C00FC01940104000381A801C1C21C5
:103B5000614349194988081A01B21C206043401981
:103B60004180FCF705FB0746C00FC019401040001C
:103B7000381A801C1C21614349198988401801B2F8
:103B80001C206043401981801C20604340190221A1
:103B9000415E1C20604340191222825E914204DC87
:103BA00004211C206043401941722CE004211C2098
:103BB000604340198176FCF7DBFA0746C00FC01955
:103BC00040104000381A801C1C2161434919498863
:103BD000081A01B21C206043401941801C20604338
:103BE00040190221415E1C20604300E00AE04019B8
:103BF0001422825E914204DC04211C20604340199F
:103C0000417200E000BF09E01C2060434019407889
:103C1000401CC1B21C20604340194170641C034821
:103C20000078844200DA64E6F8BD0000CE48000067
:103C30000146002010E000231C224243521853800A
:103C40001C224243521893801C2242438B541C2254
:103C5000424352185370401C024A12789042EADBE9
:103C600070470000CE480000F0B58BB005460E4608
:103C7000174600248CE00A20604340190079002890
:103C80007CD1B088083001B20A2060432952F08804
:103C9000083801B20A2060434019418001210A20FE
:103CA0006043401901710420305E0A900620305EA6
:103CB00009900020385E08900220385E079038880E
:103CC000B188401A00B206907888F188401A00B294
:103CD00005900699002902DA0699494200E0069902
:103CE0000846FCF72BFB04900599002902DA059998
:103CF000494200E005990846FCF720FB039004992F
:103D00000398FCF7DDFA0290002001903AE0019957
:103D10008900234A50580299FCF78DFA002100903F
:103D2000FCF732FB2BD8019840001E49095A0A20A3
:103D300060434019C180019840001B49095A0A207C
:103D40006043401901810698002809DA0A2060437F
:103D50004019C088404201B20A2060434019C18026
:103D60000598002809DA0A2060434019008940427A
:103D700001B20A2060434019018106E007E0019882
:103D8000401C019001980A28C1DB00BF05E0641CBB
:103D900006480078844200DA6DE700BF0BB0F0BD42
:103DA000F04E0000DA4E0000C64E0000D148000080
:103DB000F8B505460E4600246FE02001285C002877
:103DC0006AD101202101491948702101685400205D
:103DD00021014919C8732101491988702101491924
:103DE0008872707A2101491948720120210149190C
:103DF0000872B0882101491988800F2021014919D2
:103E0000C880F07A21014919C87220014019C07A8E
:103E100004281ED100202101491908730320210123
:103E200049194873FCF7A4F90746C00FC0194010A0
:103E30004000381AC0B200900098002804D1022037
:103E400021014919887303E003202101491988736E
:103E500021E020014019C07A05280CD1C01F2101A2
:103E600049190873032021014919487302202101CF
:103E7000491988730FE020014019C07A06280AD139
:103E800002202101491908730320210149194873AF
:103E900021014919887304E0641C034800788442B6
:103EA0008BDB00BFF8BD0000CD480000FEB5054625
:103EB0000E460024D5E12001285C00287ED0002792
:103EC0000020029020014019C07B0300FCF792FD06
:103ED0000805407DA6E4FDFCFBFA4020029022018B
:103EE00052190097D288D2B20192220152199288B7
:103EF000D1B23078029B019A00F0D6FC0097029A6A
:103F0000531C22015219D288D2B2019222015219B5
:103F100092880832D1B23278521CD0B2019A00F0A5
:103F2000C3FC00970298831C20014019C088083800
:103F3000C2B2200140198088001DC1B23078801CB7
:103F4000C0B2019000F0B0FC3078C01C307085E148
:103F500043200290210149190097C988CAB2210162
:103F600049198988C9B201913078029B00F09CFC04
:103F7000384640210843009020014019C088C2B251
:103F80002001401980880830C1B23078401CC0B28E
:103F90000190029B00F088FC00970298431C2001CE
:103FA0004019C0880838C2B2200140198088001D1D
:103FB000C1B23078801CC0B2019000E050E100F046
:103FC00073FC3078C01C307048E14520029021011C
:103FD00049190097C988CAB2210149198988C9B20B
:103FE00001913078029B00F05FFC38464021084385
:103FF000210149190090C988CAB22101491989884B
:104000000831C9B201913178491CC8B2029B0199AB
:1040100000F04AFC3078801C30701FE1462002908E
:10402000220152190097D288D2B20192220152196C
:104030009288D1B23078029B019A00F035FC384664
:1040400040210843210149190090C988CAB22101C1
:10405000491989880831C9B201913178491CC8B21F
:10406000029B019900F020FC009702994B1C210152
:104070004919C9880831CAB2210149198988091D1D
:10408000C9B201913178891CC8B2019900F00CFCC9
:104090003078C01C3070E1E04820029021014919BD
:1040A0000097C988CAB2210149198988C9B201910A
:1040B0003078029B00F0F8FB38464021084300901E
:1040C000200103E0C9E088E060E025E04019C088F5
:1040D000C2B22001401980880830C1B23078401C3B
:1040E000C0B20190029B00F0DFFB00970298431CD6
:1040F00020014019C0880830C2B2200140198088D0
:10410000001DC1B23078801CC0B2019000F0CCFB21
:104110003078C01C3070A1E0210149190097C9888E
:10412000CAB2210149198988C9B2019130784B235B
:1041300000F0BAFB3846402108432101491900909C
:10414000C988CAB22101491989880831C9B20191C7
:104150003178491CC8B24A23019900F0A5FB21011E
:1041600049190097C9880839CAB2210149198988B3
:10417000091DC9B201913178891CC8B24C2301993B
:1041800000F092FB3078C01C307067E022015219B9
:104190000097D288D2B20192220152199288D1B2EC
:1041A00030784D23019A00F07FFB384640210843C8
:1041B000009020014019C0880838C2B2200140197F
:1041C0008088C1B23078401CC0B24E23019000F00C
:1041D0006BFB3078801C307040E04A2002903846FB
:1041E00040210843009020014019C088C2B220013C
:1041F00040198088C1B230785023019000F054FB00
:10420000384640210843009020014019C088C2B2BE
:104210002001401980880830C1B23078401CC0B2FB
:104220004F23019000F040FB3846402108430090A6
:1042300020014019C088C01FC2B2200140198088E7
:10424000001DC1B23078801CC0B25123019000F033
:104250002BFB3078C01C307000E000BF00BF00BFF7
:10426000641C03480078844200DA24E6FEBD0000A6
:10427000CD480000F7B582B005460E460024E1E1C6
:104280002001285C002829D02001401980780228CC
:104290007ED1002021014919887020014019042194
:1042A000415E052911DB200140190421415EFB29F3
:1042B0000BDC200140190621415E0A2905DB2001A3
:1042C00040190621415EE62909DD002021016854DC
:1042D00021014919888021014919C880B1E12001D3
:1042E0004019807A00287DD1FBF742FF0746142150
:1042F000FBF72AFF0220305E1438401A21014919C9
:1043000006228A5E90426EDC20014019007A012864
:1043100009D12001411932460498FFF7A5FC00207D
:1043200021014919087220014019407A002844D11E
:10433000200141190420085E0021715E884216DACE
:104340000020305E2101491904228A5E801A3C282F
:104350000DDA0020305E2101491904228A5E801A9C
:10436000002804DD06202101491988735FE020013F
:1043700041190420085E0021715E884218DD200189
:1043800041190420085E0021715E401A322800E0C5
:1043900050E10DDA200141190420085E0021715E10
:1043A000401A002804DD05202101491988733EE0E8
:1043B000042021014919887339E020014019C07A8D
:1043C000042821D10020210149190873032021016B
:1043D00049194873FBF7CCFE0746C00FC0194010BF
:1043E000400001E05DE043E0381AC0B2019001985E
:1043F000002804D1022021014919887303E0032019
:1044000021014919887312E020014019C07A05285A
:1044100004D1022021014919887308E020014019C4
:10442000C07A062803D1032021014919887320018D
:104430004019407A012808D1002021014919C87388
:104440000120210149198872FBE020014019807B7D
:10445000042804D10220210149198872F1E00120C9
:10446000210149198872052021014919C873E8E022
:10447000200140198088210149190C228A56801890
:1044800000B221014919888020014019C08821010A
:1044900049190D228A56801800B221014919C88095
:1044A000CFE020014019807A01284CD12001401929
:1044B000407A012823D1200141190420085E2101FE
:1044C00049198880200141190620085E21014919F7
:1044D000C88020014019C07B0428B5DA20014019AA
:1044E000C07B401C21014919C87320014019C07BC1
:1044F0000428A9D10220210149198872A1E02001D4
:1045000041190420085E21014919888020014119C0
:104510000620085E21014919C88020014019C07B8E
:1045200007280FDA20014019C07B401C21014919DE
:10453000C87320014019C07B072803D10220210144
:10454000491988727DE020014019807A022878D1CB
:1045500020014019807B0300FCF74CFA076A05151F
:10456000263747586A00200141190420085E2101BE
:104570004919888020014019C088001F00B221011C
:104580004919C88055E0200140198088801E00B27A
:1045900021014919888020014019C088C01E00B23D
:1045A00021014919C88044E0200140198088801CFD
:1045B00000B221014919888020014019C088C01E1D
:1045C00000B221014919C88033E0200141190420BB
:1045D000085E21014919888020014019C088401DCA
:1045E00000B221014919C88023E0200140198088C8
:1045F000801E00B221014919888020014019C0881D
:10460000C01C00B221014919C88012E020014019E4
:104610008088801C00B2210149198880200140193E
:10462000C088C01C00B221014919C88001E008E01F
:1046300000BF06E0200140198078401C2101491983
:104640008870641C03480078844200DA18E605B0DC
:10465000F0BD0000CD4800000146002018E0002217
:1046600003015B189A8003015B18DA800301CA54C6
:10467000012203015B185A70002203015B189A7033
:1046800003015B181A72012203015B185A72401C65
:10469000024A12789042E2DB70470000CD480000E9
:1046A000F0B5C510CB100126AE4034469E00965999
:1046B00026439F00D651F0BD0221C1607047012101
:1046C000C160704705E04268D207D20F002A00D1CE
:1046D00000E0F8E700BF01607047F0B50446059DB3
:1046E0000026002A01D001200643002B01D0022021
:1046F0000643002D01D0042006430698002801D06F
:10470000082006430798002801D010200643089887
:10471000002801D0202006430020A0602161A6606F
:1047200060680C273840002801D00120F0BD00202F
:10473000FCE700000146002059E00A2242435218DB
:104740005279042A48D100230A2242435218537155
:104750000A22424352181279002A47D00A224243C1
:10476000521853880A224243521812899A1813B2D7
:104770000A224243521853800A2242438B5A0A2289
:1047800042435218D2889A1813B20A2242438B52DB
:104790000A22424352180223D35EE62B06DC0A2289
:1047A000424352180223D35E0A2B05DA00230A2261
:1047B00042435218137119E00A2242438A5EFB2ACF
:1047C00004DC0A2242438A5E052A0FDA00230A2209
:1047D00042435218137109E00A2242435218527997
:1047E000521CD3B20A22424352185371401C024A4F
:1047F00012789042A1DB7047D148000010B51F48E5
:104800000078012823D11E480078012835D11D48A1
:10481000006909280AD11B488069002806D10320B5
:104820001749087000201749086002E00220144967
:10483000087015480079002803D0124880690028C4
:104840001BD112480078401C1049087015E00B4835
:104850000078022811D10E480078401C0C490870DD
:10486000084600780A2808D10320FBF73FFF002004
:104870000749087001200749087010BDF40A00209C
:10488000FB0A002000080250F02B0020F50A00204F
:10489000F60A0020F90A002010B54B01014C1B1943
:1048A0001A5410BD0000025070B5049C8500064EDD
:1048B000AD19E9708500AD19AA708500AD196B704E
:1048C0008500AD192C7070BD000001500C0304016F
:1048D000010A0500000000000000000000000000C8
:1048E0000000000000000000001FCC000C000000D1
:1048F0000000000000080030006000080030006088
:10490000000000022003FC1E20022003FC1E2002E7
:1049100020000000000E1811043FFF10840C7800E6
:104920000000000F0010840F3800C00778188400C2
:1049300078000000780F8410C411240E9800E40061
:1049400084000808006800700000000000000000FB
:1049500000000000000000000007E01818200440DC
:10496000020000000040022004181807E0000000C8
:104970000000000240024001800FF001800240026E
:104980004000000080008000800FF8008000800060
:104990008000000001000D000E000000000000007B
:1049A0000000000000008000800080008000800087
:1049B0008000800000000C000C00000000000000DF
:1049C00000000000000006001800600180060018CA
:1049D000002000000007F008081004100408080771
:1049E000F000000000080408041FFC00040004009C
:1049F00000000000000E0C10141024104411840E4E
:104A00000C000000000C1810041104110412880C92
:104A1000700000000000E00320042408241FFC00B4
:104A200024000000001F9810841104110410881045
:104A3000700000000007F0088811041104188800B5
:104A400070000000001C00100010FC13001C00107F
:104A500000000000000E3811441084108411440E30
:104A600038000000000700088C1044104408880734
:104A7000F00000000000000000030C030C00000028
:104A8000000000000000000001010600000000001E
:104A900000000000000080014002200410080810FF
:104AA0000400000220022002200220022002200234
:104AB000200000000010040808041002200140003B
:104AC00080000000000E001200100C106C10800F0F
:104AD00000000003E00C1813E4142417C40828078E
:104AE000D000000004003C03C41C40074000E40068
:104AF0001C000410041FFC1104110411040E880092
:104B000070000003E00C1810041004100410081CBE
:104B100010000010041FFC10041004100408080703
:104B2000F0000010041FFC1104110417C410040845
:104B300018000010041FFC1104110017C010000819
:104B400000000003E00C181004100410441C78004E
:104B500040000010041FFC10840080008010841F9F
:104B6000FC10040000100410041FFC1004100400CA
:104B700000000000030001100110011FFE100010D2
:104B800000000010041FFC110403801464181C10A2
:104B900004000010041FFC100400040004000400C2
:104BA0000C000010041FFC1F0000FC1F001FFC1065
:104BB00004000010041FFC0C04030000E010181F88
:104BC000FC100007F008081004100410040808077F
:104BD000F0000010041FFC10841080108010800F63
:104BE00000000007F0081810241024101C080A0701
:104BF000F2000010041FFC1104110011C011300E4E
:104C00000C000400000E1C11041084108410441CBD
:104C10003800001800100010041FFC1004100018C9
:104C200000000010001FF810040004000410041F0E
:104C3000F8100010001E0011E0001C007013801C12
:104C40000010001FC0103C00E01F0000E0103C1FDF
:104C5000C000001004180C163401C001C01634182E
:104C60000C100410001C00130400FC13041C0010A2
:104C70000000000804101C1064108413041C0410AD
:104C80001800000000000000007FFE4002400240CB
:104C9000020000000030000C0003800060001C00D7
:104CA00003000000004002400240027FFE000000BE
:104CB00000000000000000200040004000400020F4
:104CC00000000000010001000100010001000100DE
:104CD0000100010000400040002000000000000032
:104CE0000000000000009801240144014401440038
:104CF000FC000410001FFC0088010401040088006F
:104D0000700000000000700088010401040104002C
:104D10008800000000007000880104010411081FD1
:104D2000FC0004000000F801440144014401440077
:104D3000C800000000010401040FFC11041104115B
:104D4000001800000000D601290129012901C9012C
:104D500006000010041FFC00840100010001040093
:104D6000FC000400000104190419FC000400040004
:104D70000000000000000300010101190119FE00FC
:104D800000000010041FFC0024004001B4010C01CD
:104D90000400000000100410041FFC0004000400C4
:104DA000000000010401FC0104010001FC010401F8
:104DB0000000FC010401FC0084010001000104006A
:104DC000FC0004000000F8010401040104010400D7
:104DD000F80000010101FF008501040104008800C2
:104DE000700000000000700088010401040105014A
:104DF000FF00010104010401FC0084010401000121
:104E0000800000000000CC012401240124012401C1
:104E100098000000000100010007F80104010400EF
:104E2000000000010001F800040004000401080172
:104E3000FC0004010001800170000C001001600101
:104E400080010001F0010C003001C00030010C01B4
:104E5000F0010000000104018C00740170018C015C
:104E6000040000010101810171000E0018016001C0
:104E700080010000000184010C013401440184011F
:104E80000C0000000000000000000001003EFC409B
:104E90000240020000000000000000FFFF000000D0
:104EA0000000000000400240023EFC010000000043
:104EB00000000000006000800080004000400020F2
:104EC000002000000A0001000200020002000300AE
:104ED00004000400040005000500040004000400B0
:104EE00004000400030002000200010000000000B2
:104EF00000000000EC51383EEC51B83EE17A143F1E
:104F00003D0A573FEC51983FA470DD3F0000304010
:104F1000A470B54000004843384F00000000002056
:104F2000F02B00004404000078610000F02B00200A
:104F300058070000200A000010090000018000004E
:104F400003FF0132E0063004C0003F060006100CEB
:104F500007E0300006211D43FFFE06210553FFFF39
:104F600012400CCC07E033FE03CC018033F0062066
:104F700005000C000042F1060005123F8001FC060E
:104F800001112A6004FFFFFC06216B6106A15A2172
:104F900001820304300401FFFE044004007FF80492
:104FA000431FE004C203283004003FF00420050141
:104FB000FFFF8004433FFC0223FFFC6F333FFF0EE3
:104FC0002179121F282104330FE004112C22C00480
:104FD000620001330130862546B106154D62800618
:104FE00016075D61062171610613001FA16106832A
:104FF00003C00603440FF0061207714406000607BB
:10500000E060E242C00635B2A2FC0645CA837FFFDB
:1050100001221F24240CF81FFFFE7FFFF8001F86CB
:10502000614A31061005060660600613000006247A
:1050300004FF87E19483E7E70622071215A7D20051
:105040000601AC0100041903FFF01E2A3F6001179E
:105050001E46FFDB011459AB01FF3C0110773923D9
:10506000011577194601199702390F1E25ED0235F2
:10507000F81E023D3F1E0619FC67021BE71E72E385
:105080003C123E02255D8D960390047FFFC31EF205
:105090007F1E72C71E127E1E72301E62801E427FED
:1050A00010127E3E1370021E2A02CB4005C000047F
:1050B000021E65E5C005020070031E200487FFF88C
:1050C0001E4300041E3005020003801E32803C2E69
:1050D0008F4E03111E2F0C1F440322601E5606DE46
:1050E0001D6A03260F2C12011EC0053FFC001E1E68
:1050F00022F41E1D87041C0701FE00183FFC410519
:10510000311E42041E216C223F1E1C0703FC00308E
:1051100001843E0563E0061E5601E1411E12202C6B
:10512000111E1E042B0521A15301FF1E2D9F0412E9
:10513000F890511E69AD511E42C01E1306081E7222
:10514000C01E1D5905223C1E3E80B00412C01E9296
:10515000081E11AB2EF8C1052DE004111E320E1EE3
:105160006E0C6003316F511E1004E001801E1C059F
:105170001801C00F6F051E072A05211E92801E52BE
:105180001C1E32F81E3E027E04323F7810073FC0DC
:1051900003003C101E13800E65120313600502010C
:1051A000F0041E50047FC0071E5E082A06A2061ED9
:1051B000157A327C3C2E18CC044DB905413C11F0D7
:1051C000100AFF800F0078100010031E7939811E2D
:1051D0002008000F8FF81004301EE2801E15C11049
:1051E000061F03F820001E8310011E300403FFE099
:1051F0001E15C132001E115D6E00A5051C060407B8
:10520000FFF07F760792031E49192C040FE0083B3C
:1052100006411E200FFC003800F020082007003057
:105220000600101E82C01E600507FC007C1E120CCA
:1052300029140400000E922B002791111E22F81E43
:1052400010046000601E10041800781E220C1E421C
:10525000EF1E15C152FC1E3320101E1574B3000141
:105260001E1A400210040020300B411E2303CF5AA7
:105270001680DF72011E32601E1218021A07EB251B
:105280008615C119AD10044000401E12C0FD211E3C
:1052900040051000070F1E15C1111E500AC0004026
:1052A0000E0061C0039E1E72061E62071E3005417D
:1052B00080071F5A1C043000040903211E437F800D
:1052C0001E1005C00E004351113C92101E2808FF0D
:1052D0008007FE00608074900447000E1E3EF14877
:1052E00008180F800FFE00618020C01C00C6001C43
:1052F0000F4B82301E15C1111E32411E3005CC00ED
:1053000038071E1320101E42F31E100B1FFF0FC183
:105310008020801C00DC1E32C01E12701E1D07097A
:1053200025C11D3D081004C180211E1EB81D041199
:105330001E8005200020F01E200636000FC1001E32
:105340001C05F000E00343033C05200061F09F05CD
:1053500019FC3D570612017A2E189104211E600592
:10536000000063D01E52FC1E25DB2F01C07F0315F9
:10537000BF32801E4C04F8000F4408411E330380E6
:105380001E600401DE001E1809FFF001FF0713C0B4
:10539000C3401F7FE721094C08F8E007C7D80FFF7B
:1053A00017063DEC075EDFFA074EFE6B092C05FF82
:1053B000900FFF710662E01E32EF1E1DF40323FF03
:1053C000F9E8CC040FFE03CB06EC0401E060CB0649
:1053D0000E1A8025070D1A43070E193F8E062DEA77
:1053E000060E3FC0E1075E3B19054C040000406615
:1053F00003BF0110A7071F4201BD052D24051E058F
:10540000A7051E070D031C0609000A000BFF041E5A
:105410000D55031A0F4B1C08D1D2D3FFD1DEDFD3B9
:10542000031014EDEED3FFF8F9F9E0D4D5D6FFE17F
:10543000E2E3E4FFEFF00A1006FAFBFCE4D70850C1
:105440002BE5E6E7E4FFF1F2D9F3FFFDFEC0C1D89A
:10545000D9DAFFE8E9EAEBFFF4F5F6F7FFC2C3C4D7
:10546000D0DBDCDDFFDBDCDCECFFFF0A5017DD17F7
:10547000FF02000203FF15FF16FF1810FF12FF13B3
:10548000FF14FF1108003E422040123040134040FC
:105490001B50401CBC4000C44000CC4000D4400025
:1054A00020501230501340501D50501E60501FC8E5
:1054B0005000D05000D850256EA0127EA0138EA0B0
:1054C000149EA015FF012F0A0BC2083808FFFF0C1D
:1054D000FF0DFF0E3FA11E7D0109910A018E0105FE
:1054E00010B9C1C50510C7C1E50510D5C505051022
:1054F000E3C5250510F10571056958053645023DDE
:105500001140097B024C0717FF01090805610302DE
:10551000A8FF01ED4305D25501BD820C0D11750D9B
:1055200023CFCE0213CECF04910842CF0D611231AA
:1055300025A1088118514082CE0A41208106810EA2
:10554000811261029128513C81906192C142A188EF
:1055500091109155A1128168E17CA1927148C50218
:10556000B1E8817A0111DCF1B4E124C53AB10261FC
:1055700007953A051230A10AE194E151854EB6CE65
:10558000BCE5107192D5C4C912C578E106E900C91D
:105590003A09123CC5040A17CF3AA59A0510FEC570
:1055A00090C9BAF55DB5C005104EE13CC900E13CBB
:1055B000C1900613CE7CDD4A03051142B996061050
:1055C000CEC6C50005147A25EA0D3EF308A53E0CAB
:1055D0000916FFFF22232425FFFF000410052631B2
:1055E0003031030E162700040C0916262E333433EF
:1055F000342E2700040C0916282E353635362E2970
:1056000000040C09162A2E373837382E2B000410C8
:10561000052C2E322E030E142D00042005FF262EFD
:1056200020200C0512212E27FF00044004FF283102
:10563000C00C04123129FF000443FF2A400C05125C
:105640002E2E2BFF00043004FF2E20800C05123973
:105650003A3BFF000443FF32400C05123C3D3EFF45
:10566000000443FF32400C05123F4041FF0004613B
:10567000400C0512424344FF000443FF32C00C05B6
:1056800012454647FF000461400C051248494AFF95
:10569000000461800C05124B4C4DFF000461400C6E
:1056A00005124E4F1FFF000461E00C05122E2E2E36
:1056B000FF000461E03221200D1000046140212030
:1056C0000D120004B004FF2E2E40ED000415E04939
:1056D0000045E0FD000467FF26E00F1227FF0004ED
:1056E0004804FFFF2C207A2DE2DD0004422AC00E80
:1056F000162B00044A28200E162900044A26A00E64
:105700001627000433FF19010E4DFF00045D580BEE
:105710003C04C0FFFFCF1000051ACCFFFF3308CDBB
:105720007B150D8A000819E40C041A5051FF00087B
:105730000C051656818757000815E2B41160818761
:10574000878054555253575051505255516ACC1579
:10575000CECF515688898F8C8780878988898087AA
:10576000888987570008100D5E87891D808B878187
:105770008088888E08AC0680878157FFB2078C1519
:105780006080808D8B8F80888F8989818B8F8F8CB3
:105790008088806300041009CFCE6188808B8F1DC4
:1057A00020A80C1D87808B8C8F1D8F898762A81382
:1057B000FF5E1F10048F8F890410078C8D8E1D8F44
:1057C0008D408D000411202006568180891D3A31BC
:1057D0003EBC061D888E8962420330065E8087804B
:1057E0008D3A113E115FBC04815FFF34081007CE73
:1057F000585E878181C6213EEC058F895F592A0753
:1058000013FF61DC200489808D3EBC058D8862FF1A
:10581000FC063D3A081142080A108F1D89898F88BD
:105820001D5F59802142A00B5A5B5C5D5F59585E39
:1058300062FF7A0D120008FECE3E070D1410090D0E
:105840008E00080E1DCF0008B1120D8800081C063E
:10585000A8A2A0A020721622AA011110128A082E56
:105860002AC7100C04170A0A0A00082B81806A292B
:10587000B0193A20048080810830088781888E8B97
:105880008C80102B80872C29B019EE3004872E8055
:105890000820088889818D8E2E8010396C22892EEF
:1058A00012873C10058F89808B4A213810058B8028
:1058B00088873F296C338D882E110618048D888BBC
:1058C000BC1C048F8C2E29031E8F8C031806808726
:1058D000707689E8116C100587888E81311F8B8C5A
:1058E000C403113E39C2119810088A68808D8981DD
:1058F0002E732005898188898019C052881F1D84D4
:105900000340172E81717687898781777088777237
:10591000757680878F8789891DD6214210138180F3
:105920008A86707680888A8471858485847076778B
:105930000E428DD62121131A84E820042E707106A0
:1059400010062E2E81808104400570768781D81044
:10595000058F89841918200481848A0620042E2E3C
:105960008023122E945288D81288312113111D25BC
:10597000303141212021402689142156111F114424
:105980001122411F14042E8A690E24048D8D88145F
:1059900011723174217A3142310C21D44518528070
:1059A000745280422184118221D435184138111655
:1059B00041C03111210211C626715C413831BD311F
:1059C000E110056D6A1E6CE4114427848A5C417401
:1059D00045EC200581806D6A4A431E6CD610058017
:1059E0008170760C41583104236E84EA2005848648
:1059F0001E6C883281EA136B1E52112C215C218DA2
:105A0000218C432E8016136D6B2E20068584866AAA
:105A10006B24436E84AC252C4116538685D211F538
:105A2000236B1EC6213F31F662810E212121B24730
:105A300084858335AA5280D453805E2C213631046C
:105A4000456E500C2E805F595E5F58585ECF5E1FCA
:105A50002580358E458F3E5F720D5005CE60CE613C
:105A60003E416741087C042E5F58D40E42603E568A
:105A70002EE441909E630004216850045A5B80A983
:105A8000235F5810DD480E3404CECF61B715446E45
:105A900063EB0DDD000C2C05595E5D595A050D17A1
:105AA000000C4D2408FD000852AA01529A081F5606
:105AB00059021011083D08104C0C599AAA45555529
:105AC00015000555590F1A0D1000042D7A034DF8D5
:105AD0000319355D80034D90033DC2033D7A035D9C
