:020000040000FA
:100000002813002075000000810000008900000016
:100010009100000099000000A10000000000000015
:10002000000000000000000000000000A900000027
:10003000B100000000000000B9000000C100000095
:10004000D1000000C9000000D9000000E10000005C
:10005000E9000000F1000000F900000001010000CB
:100060000348854600F094F900480047791D0000D8
:100070002813002026488046C1468047254800476F
:1000800000B500F030FB00BD00B500F0C0F900BDC8
:1000900000B500F027FB00BD00B500F0B6F900BDCB
:1000A00000B500F0A7FD00BD00B500F0BBFC00BD31
:1000B00000B500F0ABF900BD00B500F0ABFC00BD31
:1000C00000B500F0C3FC00BD00B500F05DFD00BD53
:1000D00000B500F071FD00BD00B500F053FD00BD9E
:1000E00007B500F095F907BD07B500F0A3F907BD06
:1000F00007B500F0B1F907BD07B500F0B5F907BDC8
:1001000007B500F0D9FC07BD07B500F0CBFC07BD73
:10011000690A00006100000030B50B46014600206E
:100120002022012409E00D46D5409D4205D31D46FD
:100130009540491B2546954040191546521E002DF5
:10014000F1DC30BD70B500242546002801DA012419
:100150004042002901DA01254942FFF7DDFFAC42A8
:1001600000D04042002C00D0494270BD0549064AEB
:1001700008685043054A80180860400870470149E4
:1001800008607047200B00206D4EC64139300000DA
:1001900003460B439B0703D009E008C9121F08C0A0
:1001A000042AFAD203E00B780370401C491C521E4B
:1001B000F9D27047F8B502464A40D40F42004B00CE
:1001C00052085B089A4202D20246084611464A008B
:1001D00023D0C30D4A00DDB2120EAD1A202D35DA40
:1001E00049020126490AF6058A19002C00D052421C
:1001F00020214F1B1146B9402A411018C20D9A42C6
:1002000021D0002C17D0012D08DCDA05801AD20F7E
:100210008019D207DBB200F081F8F8BDDA05801A48
:10022000012340001B06C01880185A428018CA0FCC
:100230001043490007E04908C2071143DA05801A54
:1002400080194008801800F061F8F8BD61000122B3
:10025000511A001BF7E70122D2075140AAE70122F9
:10026000D2075040A6E770B502464A40D50F40007D
:100270004A00ED0740085208002814D0002A12D086
:10028000C40DD30D41020120C0055202490A520A91
:10029000E41A091812187D34914201D3641C00E05D
:1002A0004900002C01DA002070BD0023914201D3E7
:1002B000891A0343400849000028F7D100290AD0D1
:1002C000914202D10121C90705E0914201D20121E9
:1002D00001E00121C943E005C018401900F016F8FB
:1002E00070BDC217C10F504010B54018CA07962301
:1002F000002100F013F810BD0122D207002800DB16
:10030000101A002900DB511A88427047002904DACC
:10031000401C490001D140084000704770B40024DF
:10032000050C05D11024000402D1002921D011248C
:10033000050E01D100020834050F01D10001241D72
:10034000850F01D18000A41C002801DB4000641C43
:10035000002908D020252E1B0D46F540A14000D0D5
:1003600001212943084301061B1B000ADB1D02D59E
:10037000002070BC7047DB05181880180029F8DAD7
:10038000401C4900F5D170BC400840007047000097
:10039000064C0125064E05E0E36807CC2B430C3CD8
:1003A00098471034B442F7D3FFF75EFE40310000A7
:1003B0006031000070B58C180578401C6B075B0F2E
:1003C00001D10378401C2A1106D10278401C03E0B9
:1003D00006780E70401C491C5B1EF9D12B0705D412
:1003E0000023521E0DD40B70491CFAE70378401C01
:1003F000CB1A921C03E01D780D70491C5B1C521E29
:10040000F9D5A142D8D3002070BD7047704770471E
:1004100010B5002000F046F905480021415E0A2988
:1004200004DD0088401F00B20149088010BD0000B3
:10043000100D002010B5012000F034F9054800210E
:10044000415EF62904DA0088401D00B201490880A7
:1004500010BD0000100D002010B5022000F022F9A0
:1004600000F00EFE10BD000010B5032000F01AF9D8
:1004700005480221415E0A2904DD4088401F00B280
:100480000149488010BD0000100D002030B5034622
:100490000C4615461349488900F0F2F8181200F08E
:1004A000DCF8D8B200F0D9F80E49888900F0E8F8F5
:1004B000201200F0D2F8E0B200F0CFF800200521C1
:1004C0000907486008600749088900F007F900201B
:1004D000052109078860012088600860284600F02F
:1004E000BCF830BD100F0020FFB585B00E46174692
:1004F000102402962046E217520F1218D210E3176A
:100500005B0F1B18DB10DB000094E31A01D0012302
:1005100000E00023D2182146E30F5B185B105A431A
:10052000D2B2019238462038C7B2002556E00C2CD2
:1005300005D138012C494018405D049011E0102C81
:1005400005D1380128494018405D049009E0182C75
:1005500005D1380124494018405D049001E009B0FC
:10056000F0BD0020039033E080210498084000286B
:1005700006D01E48028831460598FFF787FF08E03D
:100580000898002805D11A48028831460598FFF7D7
:100590007DFF04984006000E0490701C86B215483A
:1005A0004088B04200DCDAE70298301AA0420BD152
:1005B000029E0598401C80B205900E48018805985F
:1005C000814200DCCBE706E00398401CC0B20390F8
:1005D00003980828C8DB00BF681CC5B20198854293
:1005E000A5DB00BFBBE70000502B0000EE0A002097
:1005F000F00A0020100F0020FFB581B004460D4620
:100600000A9E1027E0B200900398001980B2039070
:100610000498401980B2049016E00398844202DBEB
:10062000009CE81985B20498854200DB12E032781C
:10063000002329462046FFF757FF3846F90F0918CF
:10064000491009198CB2761C30787E2802DC30788B
:100650002028E2DA00BF05B0F0BD00B50246012057
:1006600005210907486000200860104600F036F8B0
:10067000002005210907886001208860086000BD0E
:1006800000B50246002005210907486008601046B1
:1006900000F024F800200521090788600120886007
:1006A000086000BD30B502460020002100230A4C3E
:1006B000216801249440204604460C402346002B28
:1006C00004D10C460443044D2C6003E00C468443E3
:1006D000014D2C6030BD00000010004005210907CD
:1006E0008861704770477047C206D20E0121914061
:1006F000014A11607047000000E100E0C206D20E1E
:1007000001219140014A11607047000000E100E0C2
:10071000002004E00021034A1154411CC8B20928FA
:10072000F8DB70471E0F002038B504460121009108
:1007300000201C494870012100912AE06846008889
:100740002040002803D001201749886002E00020E3
:1007500015498860012014494860052000F0D0FE4A
:10076000002011494860052000F0CAFE01200E4912
:10077000486002F067F8002806D00A4840786946C9
:100780000988084307494870684600884004010CFE
:10079000009168460088FF28D0DD102000F0B0FEF0
:1007A00038BD00001E0F00200050004010B5FFF7BC
:1007B000AFFF00F085F80F48007900020D49C978B5
:1007C00008430D49088000240FE060000B49095CD4
:1007D000491E01208840084909880840002802D1A4
:1007E000601CC0B210BD601CC4B2102CEDDB002038
:1007F000F8E700001E0F0020FC0A0020000B00207C
:1008000010B5002013490860102000F079FE012087
:10081000FFF78AFF4320FFF787FF0020FFF784FFE1
:100820000120FFF781FF0020FFF77EFF0020FFF788
:100830007BFF0020FFF778FF0020FFF775FF002007
:10084000FFF772FF012003490860102000F058FEF6
:1008500010BD00000050004010B500201349086092
:10086000102000F04DFE0120FFF75EFF4320FFF750
:100870005BFF0020FFF758FF0020FFF755FF5A20CD
:10088000FFF752FF5A20FFF74FFF5A20FFF74CFFA8
:100890005A20FFF749FF5A20FFF746FF012003497E
:1008A0000860102000F02CFE10BD00000050004039
:1008B000002002490860486088607047005000408E
:1008C0001CB50021019101210091002023490860FD
:1008D00023490878FFF728FF21494878FFF724FFCC
:1008E0000221019131E00120009022E001201B490A
:1008F0004860052000F004FE0020184948600520EB
:1009000000F0FEFD01201549486001F09BFF002822
:100910000AD0144968460079095C6846008801439A
:10092000104A684600791154684600884004010C5A
:10093000009168460088FF28D8DD102000F0E0FD17
:1009400068460079401CC1B20191684600790928C7
:10095000C9DB0120014908601CBD000000500040B7
:10096000FE0A00201E0F002010B500F00BF800F06A
:1009700009F800F007F8FFF743FF00F023F8FFF74E
:100980006BFF10BD10B500200D490860102000F06D
:10099000B7FD0120FFF7C8FE4220FFF7C5FE00208B
:1009A000FFF7C2FE0020FFF7BFFE0020FFF7BCFEEE
:1009B000012003490860102000F0A2FD10BD0000D6
:1009C0000050004010B50020114908600120FFF7D9
:1009D000ABFE4420FFF7A8FE0020FFF7A5FE012094
:1009E000FFF7A2FE0320FFF79FFE0020FFF79CFE0B
:1009F0000020FFF799FE0020FFF796FE0020FFF78A
:100A000093FE012002490860102000F079FD10BD1E
:100A10000050004070470000014800687047000027
:100A20000020004070470000014908617047000045
:100A300000E000E0014948617047000000E000E08C
:100A4000014988617047000000E000E010B5002017
:100A5000FFF7EAFF034840680121490608430149BE
:100A6000486010BD00ED00E010B50120FFF746FE24
:100A70000020FFF743FE0720FFF740FE0820FFF7A6
:100A80003DFE10BD30B5052354002343044C2360C4
:100A90000024034D6C602C46A060216130BD000035
:100AA0000030004010B5FFF7B7FF0446042C01D119
:100AB00000F0E6FA10BD000010B52E4800780428BA
:100AC00014DB00202B4908702B4800680D2805D145
:100AD0002A48C079012801D000F0D2FA26480068DF
:100AE0000E2843D10120264908703FE021480078B4
:100AF000401C204908702048006808280AD11F4877
:100B00000021415E0A2931DD0088401F00B21B49E7
:100B100008802BE01848006806280AD117480021F1
:100B2000415EF62922DA0088401D00B21349088090
:100B30001CE01148006805280AD110480221415ED6
:100B40000F2913DD4088401F00B20C4948800DE09A
:100B500009480068072809D108480221415EE129B7
:100B600004DA4088401D00B204494880044801F07E
:100B70003FFB10BDEC0A0020E80A0020100D002009
:100B8000ED0A00207047000010B50120800701F039
:100B90006BFE0120FFF786FD01A000F02DF810BDCF
:100BA000756172745F727820696E74206F6363750B
:100BB000722121210A00000008B50120800701F000
:100BC00056FE0220FFF76EFD04A0FF234133F02202
:100BD000002100900846FFF70FFD08BD5541525413
:100BE00054585F4952516E204F434355524544215A
:100BF00021210000704700000FB410B503A9044B79
:100C0000044A029800F026F810BC08BC04B018474B
:100C100065190000F40A002030B47446641E25787B
:100C2000641CAB4204D3635D5B00E31830BC18471F
:100C30001D46F8E702E008C8121F08C1002AFAD1D1
:100C400070477047002001E001C1121F002AFBD14C
:100C500070470000FFB58DB00446002506E025284A
:100C60000AD0109A0F999047641C6D1C20780028B8
:100C7000F5D1284611B0F0BD00270121484A009760
:100C800000E00743641C23780846203B984010424C
:100C9000F7D120782E2817D1042007436078641CF0
:100CA0002A280CD10E98641C02C800910E900BE00B
:100CB00000990A22514330394018641C0090207872
:100CC000014630390929F3D920780028D1D0642889
:100CD00008D0692806D075281ED0109A0F99904721
:100CE0006D1C5BE00A200E99019001C90E9100284D
:100CF00002DA40422D2102E0390504D52B216A4653
:100D00001172012103E0F90704D02021F7E70BAEAF
:100D10000B910DE00021FAE70A200E99019001C91C
:100D20000E91F7E70199FFF7F7F93031761E317030
:100D30000028F7D103A8801B20300190780701D547
:100D4000009801E0012000900199884201DD401ADD
:100D500000E000200027009006E002A8109AC05D85
:100D60000F9990476D1C7F1C0B988742F5DB04E0C0
:100D7000109A30200F9990476D1C0099481E0090E2
:100D80000029F5DC05E03078109A761C0F99904721
:100D90006D1C0199481E01900029F4DC641C65E774
:100DA00009280100FEB5054600245DE0E000314958
:100DB00040180079002856D0E000401840794006DD
:100DC000060E30203246E032D3B2E2000F46D2198E
:100DD00000905288D2B20192E200BA5AD1B2287879
:100DE000019A01F065FE30203246E132D3B2E200D2
:100DF000D21900905288D2B20192E200BA5A083257
:100E0000D1B22A78521CD0B2019A01F051FEF020E2
:100E10003146E131CBB2E100C9190090498808316F
:100E2000CAB2E100795AC9B201912978891CC8B2C5
:100E3000019901F03DFEF02000903046E030C3B251
:100E4000E000C01940880830C2B2E000385A0830CB
:100E5000C1B22878C01CC0B2019001F029FE2878E8
:100E6000001D287000BF641C0348007884429DDB8D
:100E7000FEBD0000700E00204F2B000038B5044668
:100E800033480079002862D03148407901282DD1BB
:100E900000202F4B00905B88083BDAB22C4B1B885C
:100EA000D9B220782C2301F003FE0020284B0090BB
:100EB0005B88DAB2264B1B88D9B223785B1CD8B288
:100EC0002D2301F0F5FD0020214B00905B88DAB264
:100ED0001F4B1B880833D9B223789B1CD8B22E2312
:100EE00001F0E6FD2078C01C207030E01848407901
:100EF00002282CD13020164B00905B88083BDAB2D8
:100F0000134B1B88D9B220782F2301F0D1FD30205C
:100F10000F4B00905B88DAB20D4B1B88D9B2237857
:100F20005B1CD8B26F2301F0C3FD3020084B00904A
:100F30005B88DAB2064B1B880833D9B223789B1C36
:100F4000D8B2EF2301F0B4FD2078C01C207038BD6A
:100F5000D60A00200021017170470000F8B505464F
:100F600000241AE00A2060430E4940180079002846
:100F700012D010200A2363430E469B1900905B8811
:100F8000DAB20A236343F35AD9B22878312301F045
:100F90008FFD2878401C2870641C03480078844228
:100FA000E0DBF8BD240B00204C2B0000002006E005
:100FB00000220A214143044BC9180A71401C03490D
:100FC00009788842F4DB7047240B00204C2B00008A
:100FD00070B505460E46002003E000218200B150A6
:100FE000401C1E28F9DB002412E00A20604340194F
:100FF000007900280BD00A22624352195288D1B2DC
:101000000A226243AA5AD0B2324601F021FC641C83
:10101000024800788442E8DB70BD00004C2B0000E1
:1010200030B50346002016E0C400A4182479002C33
:1010300010D1C500AD186C71C4001353C400A418BE
:1010400061800124C500AD182C710024C500AD18C5
:10105000AC7104E0401C034C2478A042E4DB00BFE8
:1010600030BD00004F2B000010B51C79002C06D1BC
:1010700001241C71188059805A7100249C7110BD84
:1010800081480079002825D07F488079002822D126
:1010900000BF1DE00A2141437C4A891809790029D3
:1010A00015D17949098808310AB20A214143774BA1
:1010B0005A527549498808390AB20A214143C91868
:1010C0004A8001220A214143C9180A7102E0401CEA
:1010D0000528DFDBD7E06C488079012844D1002067
:1010E0003FE00A214143694A89180979002937D12B
:1010F000411C0A225143654A8918097900292FD1D8
:1011000061490988091D0AB20A2141435F4B5A52BD
:101110005D49498808390AB20A214143C9184A8001
:1011200001220A214143C9180A71574909880C3123
:101130000AB2411C0A235943544B5A525249498816
:1011400008390AB2411C0A235943504BC9184A8036
:101150000122411C0A2359434C4BC9180A7102E071
:10116000401C0A28BDDB8EE0474880790228B1D1B7
:10117000002084E00A214143444A89180979002962
:101180007CD1411C0A225143404A8918097900291F
:1011900074D1811C0A2251433C4A891809790029DB
:1011A0006CD1C11C0A225143384A89180979002997
:1011B00064D135490988091F0AB20A214143334BDA
:1011C0005A523149498808390AB20A214143C9189B
:1011D0004A8001220A214143C9180A712A49098813
:1011E000091D0AB2411C0A235943284B5A52264969
:1011F000498808390AB2411C0A235943234BC918AC
:101200004A800122411C0A235943204BC9180A7104
:101210001D4909880C310AB2811C0A2359431B4B12
:101220005A521949498808390AB2811C0A2359437C
:10123000164BC9184A800122811C0A235943134BBB
:10124000C9180A711049098814310AB2C11C0A234D
:1012500059430E4B5A520C49498808390AB2C11CED
:101260000A235943094BC9184A800122C11C0A2389
:101270005943064BC9180A7104E0FFE7401C1428C3
:1012800000DA77E700BF7047100D0020240B002024
:10129000F0B589B0054600248BE00A206043494937
:1012A0004018007900287BD12888083001B20A2034
:1012B0006043444A11526888083801B20A206043EA
:1012C0008018418001210A206043801801710020AC
:1012D000285E08900220285E07903B480021415E6E
:1012E00006910221415E059100882988401A07B2C3
:1012F000354840886988401A00B20490002F01DA0E
:10130000794200E039460846FEF7EBFF0390049966
:10131000002902DA0499494200E004990846FEF7E0
:10132000E0FF029003990298FEF79DFF01900026CE
:1013300038E0B100254A50580199FEF78CFF002192
:101340000090FEF7D9FF2CD870002149095A0A20D5
:1013500060431C4A8018C18070001E49095A0A2047
:10136000604380180181002F0ADA0A206043114689
:101370004018C088404201B20A2060438018C180F2
:10138000049800280BDA0A2060430E4940180089AF
:10139000404201B20A2060430A4A8018018105E0F8
:1013A00006E0761C0C4800788642C2DB00BF05E0F0
:1013B000641C0A480078844200DA6EE700BF09B076
:1013C000F0BD0000640C0020100D0020242B000054
:1013D0000E2B0000FA2A0000F82A00004D2B000016
:1013E000FFB581B006460F4600245FE0142060433D
:1013F000324940180079002857D1FEF7B7FE05465C
:10140000C00F401940104000281AC1B21420604398
:101410002A4A801841740021142060438018817486
:101420001420604311460E52142060434018478038
:1014300001211420604380180171002114206043B1
:101440008018C1726846017B142060438018817146
:101450006846817B14206043801801726846417B96
:10146000142060438018C1716846C17B142060431A
:10147000801841726846017C142060438018817294
:10148000FEF774FE05460521FEF75CFE142060435E
:101490000A4A801801731420604311464018C1792C
:1014A000142060438018C18104E0641C0448007863
:1014B00084429BDB00BF05B0F0BD0000940D00200E
:1014C0004E2B000000B502460020FFF7ADFA104693
:1014D000FFF7B0FA0020FFF7B3FA0720FFF7A4FAEE
:1014E00030BF00BD10B503461C4603E00348FFF7BC
:1014F000E9FF641E002CF9D110BD000050C30000AC
:1015000010B503461C4603E03220FFF7DBFF641EE4
:10151000002CF9D110BD000070B506460D46002024
:1015200003E000218200A950401C1E28F9DB0024A2
:1015300014E00A2060430C494018007900280CD0C0
:101540000A2262430B46D2185288D1B20A22624361
:101550009A5AD0B22A4601F07BF9641C03480078FD
:101560008442E6DB70BD0000640C00204D2B0000BF
:1015700070B505460E46002003E000218200B15000
:10158000401C1E28F9DB00242DE014206043401984
:101590000079002826D01422624352195288D1B211
:1015A00014226243AA5AD0B2324601F051F91422F1
:1015B000624352195288D1B214226243AA5A0832A5
:1015C000D0B2324601F044F91422624352195288D3
:1015D000083AD1B214226243AA5A121DD0B232463E
:1015E00001F036F9641C024800788442CDDB70BDFE
:1015F0004E2B0000F8B5054600241AE00A2060438F
:101600000E4940180079002812D010200A236343A5
:101610000E469B1900905B88DAB20A236343F35AA3
:10162000D9B22878302301F043FA2878401C28707A
:10163000641C034800788442E0DBF8BD640C0020A1
:101640004D2B0000002006E000220A214143044BFC
:10165000C9180A71401C034909788842F4DB7047B5
:10166000640C00204D2B0000FEB5054600245CE113
:1016700014206043B0494018007900287ED000262D
:10168000142060434018407C002801D1202607E048
:1016900014206043A8494018407C012800D110263E
:1016A00014206043A4494018807C0300FFF7B4FA7B
:1016B00005044589B4F8F6004027142262439E4B86
:1016C000D21800965288D2B20292142262439A5AD9
:1016D000D1B228783B46029A01F0EAF97B1C14202B
:1016E00060439549401800964088C2B21420604378
:1016F000085A0830C0B202902878401CC0B201904D
:10170000029901F0D5F9BB1C142060438A494018A6
:10171000009640880838C2B214206043085A001D61
:10172000C0B202902878801CC0B20190029901F0EA
:10173000BFF92878C01C2870F4E0432714226243C4
:101740007D4BD21800965288D2B202921422624384
:101750009A5AD1B228783B46029A01F0A9F930464C
:1017600040210843009014206043734BC018408808
:10177000C2B214206043185A083000E0D4E0C1B26D
:101780002878401CC0B23B46029001F091F9781CC9
:101790000096029014206043674BC01840880838B8
:1017A000C2B214206043185A001DC1B22878801CB0
:1017B000C0B20190029B01F07BF92878C01C287010
:1017C000B0E04527142161435B4BC9180096498856
:1017D000CAB214216143595AC9B2029128783B46D2
:1017E00001F066F930464021084300901420604320
:1017F000514BC0184088C2B214206043185A0830B8
:10180000C1B22878401CC0B23B46029001F050F9AA
:101810002878801C287085E0462714216143464BB8
:10182000C91800964988CAB214216143595AC9B2ED
:10183000029128783B4601F03BF9304640210843AD
:101840000090142060433C4BC0184088C2B2142062
:101850006043185A0830C1B22878401CC0B23B46D9
:10186000029001F025F97B1C14216143324A89184A
:10187000009649880831C9B2029114216143515A36
:10188000091DC9B201912978891CC8B2029A01992F
:1018900001F00EF92878C01C287043E041E0FFE712
:1018A000482714206043244BC01800964088C2B2D9
:1018B00014206043185AC1B228783B46029001F0C8
:1018C000F7F83046402108430090142060431A4B3B
:1018D000C0184088C2B214206043185A0830C1B200
:1018E0002878401CC0B23B46029001F0E1F87B1C16
:1018F0001420604310494018009640880830C2B256
:1019000014206043085A001DC0B202902878801C41
:10191000C0B20190029901F0CBF82878C01C287061
:1019200000E000BF00BF00BF641C04480078844290
:1019300000DA9DE6FEBD0000940D00204E2B000055
:10194000002006E0002214214143044BC9180A710B
:10195000401C034909788842F4DB7047940D00204D
:101960004E2B000070B504460D460A2C03D10D2104
:10197000400700F07FFFE1B20120800700F07AFF0E
:10198000204670BDF0B585B005460E4617461C468C
:101990000A213846FEF7C0FB04910A213846FEF7BB
:1019A000BBFB0A210090FEF7B7FB03916421384688
:1019B000FEF7B2FB0A210090FEF7AEFB02917D21FB
:1019C000C9003846FEF7A8FB0A210090FEF7A4FBE9
:1019D000019130200090207832462946019B01F089
:1019E00067F830202A460832D1B200902278521C83
:1019F000D0B23246029B01F05BF830202A4610320A
:101A0000D1B200902278921CD0B23246039B01F0F2
:101A10004FF830202A461832D1B200902278D21CDA
:101A2000D0B23246049B01F043F82078001D2070AC
:101A300005B0F0BDF7B581B003461746002039E088
:101A40000A214143C9180979002932D00A244443A4
:101A50001C5B6405210E0A244443E4186488640571
:101A6000220E9500029C645901258D402C40950062
:101A70007D5901268E4035402C430094009C002C5B
:101A800008D10A244443E41825790A244443E4187D
:101A900025710DE000250A244443E4182571FD2535
:101AA0000A2444431D53EF250A244443E418658067
:101AB00000BF401C024909788842C1DBFFBD00001D
:101AC0004C2B00000FB4F8B5054600245FE014204D
:101AD000604340190079002858D014206043285AE8
:101AE0004005070E14206043401940884005060E4B
:101AF000B00007A908580121B9400840B10007AA61
:101B000051587A1C0123934019400843711E8900E3
:101B100007AA51587A1C01239340194008430090AA
:101B20000098002808D1142060434019017914203E
:101B300060434019017128E014226243521952880F
:101B4000D1B214226243AA5AD0B2154AFFF768FAFA
:101B500000211420604340190171FD2114206043CD
:101B60002952EF2114206043401941800D4800683C
:101B70000A300C49086008460068322805D10A4B33
:101B8000012278211420FFF76FFA00BF641C074878
:101B9000007884429BDBF8BC08BC04B01847000006
:101BA000700E0020E00A0020D60A00204E2B000014
:101BB000FFB584B00446E079012870D02088400544
:101BC000060E60884005050EA900059840580121C1
:101BD000B1400840AA0005998958721C012393401E
:101BE00019400843AA0005998958B21C0123934063
:101BF00019400843691C8A00059989580122B2409E
:101C000011400843691C8A0005998958721C0123F8
:101C100093401940084303900398002802D120798B
:101C200020710EE0524A5288D1B2514A1288D0B285
:101C3000504AFFF7F5F9FF202080EF206080002058
:101C40002071A900069840580121B1400840AA001F
:101C500006998958721C0123934019400843AA0031
:101C600006998958B21C0123934019400843691C06
:101C70008A00069989580122B24011400843691C24
:101C80008A0006998958721C012393401940084321
:101C900002900298002803D1207920710FE064E0BF
:101CA000334A5288D1B2324A1288D0B2314AFFF751
:101CB000B7F9FF202080EF20608000202071079876
:101CC00000884005000E0190079840884005070EE7
:101CD000B9000D9841580122019882401140BA0084
:101CE0000D9882580198401C012383401A401143EB
:101CF000BA000D9882580198801C012383401A4035
:101D00001143781C82000D9882580123019883406A
:101D10001A401143781C82000D9882580198401C8B
:101D2000012383401A400846104300900098002881
:101D30001AD0002107980171FF2107980180EF2137
:101D40000798418007984079012806D1A079022898
:101D500003DAA079401CA07106E0079840790228B8
:101D600002D16079401C607100BF08B0F0BD000076
:101D7000100D0020700E00209EB000F01FFDFFF738
:101D800015F9FFF7DDFDFFF75DFC6F48FFF7E2F89F
:101D9000002000900190029001231A46FF21B331E8
:101DA0000390480700F071FDFEF782FDFEF7DCFDB1
:101DB0000320FEF799FC0420FEF796FC0520FEF7B1
:101DC00093FC0620FEF790FC012200215F48FEF7FD
:101DD00059FEB7E05E4801685EA0FEF70DFFFEF712
:101DE000C5F904460A21FEF7ADF9142041431E311E
:101DF000CDB2FEF7BBF904460A21FEF7A3F948006D
:101E00000A30C6B2FEF7B2F904460321FEF79AF98A
:101E1000091D18A80174FEF7A9F904460321FEF76D
:101E200091F9491C18A88174FEF7A0F90446142101
:101E3000FEF788F94B4840881438401AC1B218A8F8
:101E400041740021C1740175017C0172417C4172B1
:101E5000817C8172C17CC172017D0173314628464B
:101E60001B9B1A9AFFF7BCFA00203F4908700B46EB
:101E70003E480A2102680320FFF784FD394A528850
:101E8000D1B2384A1288D0B2374A00F0F5F9364854
:101E9000FFF764F83448FFF7E7FB3348FFF7AAFB86
:101EA0003148FEF77FFF3048FEF7E8FF2E48047800
:101EB00009E00020FF23E622FB210090204600F0ED
:101EC000F7FD601CC4B2402CF3DB29492948FFF719
:101ED0004FFB29492948FFF71FFB29492948FFF7EC
:101EE00077F829491F4800F075FC2748164B224A0D
:101EF0001F4900901B48FFF75BFE6C2220490C3104
:101F00006846FEF745F91E480EC81A48FFF7DAFD85
:101F1000194A17491B48FFF78DFDFEF747FC0C498E
:101F20000860144800F034F800F052FD00F024FD81
:101F3000164800F0D7FC044800F006FD1420FFF717
:101F4000D1FA00BF46E70000D60A0020C0C62D0027
:101F5000E80A00202564200D0A5053325F4B455992
:101F60003A000000100D0020DE0A0020E00A0020E8
:101F7000F80D0020940D0020980C0020640C002027
:101F8000EC0B0020240B00201C0D0020700E002004
:101F900070B50546002421E1FEF7E8F80646142155
:101FA000FEF7D0F8904A0220105E1438411A14202F
:101FB000604340190222825E91421FDC01211420FD
:101FC000604340194172142060434019807C04280A
:101FD00004DB022114206043401941721420604345
:101FE0004019007B012809D1142161434819FFF7EA
:101FF0004FF90021142060434019017314206043FD
:1020000040190079002827D0142060434019C07A75
:1020100002287DD10021142060434019C172142090
:102020006043285E052812DB14206043285EFB28ED
:102030000DDC1420604340190221415E0A2906DBB1
:102040001420604340190221415EE62905DD00218C
:102050001420604340190171BFE01420604340190F
:10206000407A002843D11420604340198079042825
:1020700004D0052813D0062837D123E0142060436C
:10208000285E14216143685214206043401940883F
:10209000801D01B2142060434019418026E01420C5
:1020A0006043285A801E01B2142060432952142034
:1020B000604340194088C01C01B21420604340199D
:1020C000418013E014206043285A801C01B2142080
:1020D000604329521420604340194088C01C01B25B
:1020E000142060434019418000E000BF75E01420D7
:1020F00060434019407A01281BD114206043285EB8
:10210000142161436852142060434119022000E009
:1021100059E0085E14216143491948801420604346
:102120004019807C401CC1B2142060434019817466
:1021300053E0142060434019407A02284DD1142006
:1021400060434019007A012804D0022813D00328E4
:1021500037D123E014206043285E14216143685284
:102160001420604340194088801F01B2142060434E
:102170004019418026E014206043285A801E01B295
:102180001420604329521420604340194088C01E27
:1021900001B2142060434019418013E014206043D1
:1021A000285A801C01B21420604329521420604335
:1021B00040194088C01E01B214206043401941807C
:1021C00000E000BF09E0142060434019C07A401CC1
:1021D000C1B2142060434019C172641C03480078E6
:1021E000844200DAD8E670BD100D00204E2B0000AE
:1021F00010B504461F48C07900280ED12078012868
:1022000036D11C49C8710020087201204872002094
:1022100020700320FEF746FA2AE01648407A042888
:1022200006DC14484088401E00B21249488005E090
:1022300010484088401C00B20E4948800D48007A82
:10224000072810DB00200B4908720846407A07284F
:1022500003DB0020C87148720AE00648407A401C3F
:102260000449487204E00348007A401C014908729E
:1022700010BD0000100D002007B586B0089800784A
:102280000590FE48007900287ED0FC48407A030083
:10229000FEF7C2FC080559AFDDFEFDFCFBFA052088
:1022A0000490302000900698C0B203900598C0B208
:1022B00033230290079A039900F0FAFB3020009034
:1022C00006980830C0B203900598401CC0B2342371
:1022D0000290079A039900F0EBFB7020009006989B
:1022E0001030C0B203900598801CC0B23323029016
:1022F000079A039900F0DCFB302000900798083023
:10230000C0B203900698001DC0B202900598C01C90
:10231000C0B235230190039A029900F0C9FB302026
:10232000009007980830C0B2039006980C30C0B2F5
:1023300002900598001DC0B236230190039A0299BD
:1023400000F0B6FB30E205200490302000900698A3
:10235000C0B203900598C0B237230290079A039940
:1023600000F0A6FB3020009006980830C0B2039021
:102370000598401CC0B238230290079A039900F0D8
:1023800097FB7020009000E016E206981030C0B273
:1023900003900598801CC0B237230290079A0399D6
:1023A00000F086FB3020009007980830C0B2039000
:1023B0000698001DC0B202900598C01CC0B2392317
:1023C0000190039A029900F073FB30200090079867
:1023D0000830C0B2039006980C30C0B20290059845
:1023E000001DC0B239230190039A029900F060FBEE
:1023F000DAE103200490302000900698C0B20390E8
:102400000598C0B23A230290079A039900F050FB56
:102410003020009006980830C0B203900598401C08
:10242000C0B23B230290079A039900F041FB702051
:10243000009006981030C0B203900598801CC0B27E
:102440003A230290079A039900F032FBACE1042092
:102450000490302000900698C0B203900598C0B256
:102460003D230290079A039900F022FB3020009050
:1024700006980830C0B203900598401CC0B23E23B5
:102480000290079A039904E08DE138E109E1A8E0A0
:1024900024E000F00DFB7020009006981030C0B2D0
:1024A00003900598801CC0B23D230290079A0399BF
:1024B00000F0FEFA7020009007980838C0B2039030
:1024C00006980830C0B202900598C01CC0B23C23E8
:1024D0000190039A029900F0EBFA65E1072004905D
:1024E0003020009007981038C0B203900698001D65
:1024F000C0B202900598C0B23F230190039A02999E
:1025000000F0D6FA3020009007981038C0B203903F
:1025100006980C30C0B202900598401CC0B2F0235F
:102520000190039A029900F0C3FA302000900798B6
:102530000838C0B203900698001DC0B202900598FA
:10254000801CC0B2F1230190039A029900F0B0FA06
:102550003020009007980838C0B2039006980C30DD
:10256000C0B202900598C01CC0B2F2230190039A39
:10257000029900F09DFA302000900798C0B20390B5
:102580000698C0B202900598001DC0B2F3230190D6
:10259000039A029900F08CFA302000900798C0B29C
:1025A000039006980830C0B202900598401DC0B252
:1025B000F4230190039A029900F07AFA30200090F7
:1025C0000798C0B2039006981030C0B202900598E8
:1025D000801DC0B2F5230190039A029900F068FAB9
:1025E000E2E0062004903020009007980838C0B23E
:1025F00003900698001DC0B202900598C0B2F62361
:102600000190039A029900F053FA70200090079805
:102610000838C0B2039006980C30C0B202900598FA
:10262000401CC0B2F6230190039A029900F040FAD0
:10263000302000900798C0B203900698C0B2029074
:102640000598801CC0B2F7230190039A029900F00C
:102650002FFA302000900798C0B2039006980830F7
:10266000C0B202900598C01CC0B2F8230190039A32
:10267000029900F01DFA7020009001E0100D00207A
:102680000798C0B2039006981030C0B20290059827
:10269000001DC0B2F7230190039A029900F008FAD6
:1026A00082E003200490302000900698C0B203908E
:1026B0000598C0B23A230290079A039900F0F8F9FE
:1026C0003020009006980830C0B203900598401C56
:1026D000C0B23B230290079A039900F0E9F97020F9
:1026E000009006981030C0B203900598801CC0B2CC
:1026F0003A230290079A039900F0DAF954E0052092
:102700000490302000900698C0B203900598C0B2A3
:1027100033230290079A039900F0CAF93020009001
:1027200006980830C0B203900598401CC0B234230C
:102730000290079A039900F0BBF970200090069868
:102740001030C0B203900598801CC0B233230290B1
:10275000079A039900F0ACF93020009007980830F0
:10276000C0B203900698001DC0B202900598C01C2C
:10277000C0B235230190039A029900F099F93020F4
:10278000009007980830C0B2039006980C30C0B291
:1027900002900598001DC0B236230190039A029959
:1027A00000F086F900E000BF00BF089801780498A7
:1027B0000818C1B20898017009B000BD782004491A
:1027C0000880B4204880012008710F2048717047AC
:1027D000100D002030B504460D46002003E0002116
:1027E0008200A950401C1E28F9DB2079002828D03F
:1027F0006288D1B22288D0B22A4600F029F86288D5
:10280000D1B222880832D0B22A4600F021F862887C
:10281000D1B222881032D0B22A4600F019F862886C
:102820000832D1B22288121DD0B22A4600F010F828
:1028300062880832D1B222880C32D0B22A4600F027
:1028400007F830BD0148C0687047000000500040E4
:10285000F0B5C510CB100126AE4034469E00965907
:1028600026439F00D651F0BD0221C160704701216F
:10287000C160704705E04268D207D20F002A00D13C
:1028800000E0F8E700BF01607047F0B50446059D21
:102890000026002A01D001200643002B01D002208F
:1028A0000643002D01D0042006430698002801D0DD
:1028B000082006430798002801D0102006430898F6
:1028C000002801D0202006430020A0602161A660DE
:1028D00060680C273840002801D00120F0BD00209E
:1028E000FCE700000146002026E0C20052181279E1
:1028F000002A20D0C200521892790A2A07DAC200B0
:1029000052189279521CC3005B189A7113E000228E
:10291000C3005B189A71C20052185279521CC3004E
:102920005B185A71C20052185279042A03DB002244
:10293000C3005B181A71401C024A12789042D4DB23
:10294000704700004F2B00000179002912D08179D7
:1029500005290CDB4188491C09B2418000218171A5
:102960000221415EE62905DD0021017102E0817945
:10297000491C81717047000000201FE00A2141437B
:10298000114A89180979002917D00A214143891869
:102990004988C91E0AB20A2141430B4BC9184A8013
:1029A0000A2141431A46891802228A5E052A04DA5E
:1029B00000220A214143C9180A71401C03490978C1
:1029C0008842DBDB70470000240B00204C2B00000A
:1029D000002064E00A214143334A891849790329D8
:1029E00050D100220A2141432F4BC9184A710A21B4
:1029F00041431A468918097900294FD00A214143D9
:102A000089184A880A214143C918098951180AB20C
:102A10000A214143C9184A800A2141431A46525AA1
:102A20000A214143C918C98851180AB20A214143F1
:102A30005A520A2141431A46891802228A5EE62A1E
:102A400007DC0A2141431A46891802228A5E0A2AB3
:102A500006DA00220A214143134BC9180A711DE00E
:102A60000A214143104A515EFB2904DC0A214143FB
:102A7000515E052912DA00220A2141430A4BC91886
:102A80000A710BE00A214143074A89184979491C18
:102A9000CAB20A214143044BC9184A71401C034978
:102AA0000978884296DB7047640C00204D2B0000AB
:102AB00070B5049C8500064EAD19E9708500AD190E
:102AC000AA708500AD196B708500AD192C7070BDB2
:102AD000000001505A82677F73787C6E8160815359
:102AE0007C46733B67345A374C34403B374532534E
:102AF0003260376D40784C7F0A000100020002000E
:102B000002000300040004000400050005000400A6
:102B1000040004000400040003000200020001009D
:102B20000000000000000000EC51383EEC51B83EBF
:102B3000E17A143F3D0A573FEC51983FA470DD3FC6
:102B400000003040A470B54000004843140505144F
:102B50000000000000000000000000000000000075
:102B60000000000000001FCC000C0000000000006E
:102B70000000080030006000080030006000000025
:102B8000022003FC1E20022003FC1E200220000065
:102B900000000E1811043FFF10840C7800000000A4
:102BA0000F0010840F3800C00778188400780000E8
:102BB00000780F8410C411240E9800E400840008EB
:102BC0000800680070000000000000000000000025
:102BD00000000000000007E0181820044002000078
:102BE000000040022004181807E000000000000068
:102BF0000240024001800FF00180024002400000CC
:102C00000080008000800FF80080008000800000BD
:102C10000001000D000E0000000000000000000098
:102C20000000008000800080008000800080008024
:102C30000000000C000C000000000000000000007C
:102C40000000000600180060018006001800200047
:102C5000000007F0080810041004080807F000003E
:102C60000000080408041FFC000400040000000029
:102C700000000E0C10141024104411840E0C0000DF
:102C800000000C1810041104110412880C700000CC
:102C9000000000E00320042408241FFC002400009E
:102CA00000001F9810841104110410881070000097
:102CB000000007F008881104110418880070000053
:102CC00000001C00100010FC13001C00100000008D
:102CD00000000E3811441084108411440E38000096
:102CE00000000700088C10441044088807F000001A
:102CF000000000000000030C030C000000000000B6
:102D000000000000000101060000000000000000BB
:102D10000000008001400220041008081004000098
:102D200002200220022002200220022002200000B5
:102D30000000100408080410022001400080000078
:102D400000000E001200100C106C10800F0000002C
:102D500003E00C1813E4142417C4082807D000005B
:102D60000004003C03C41C40074000E4001C0004B5
:102D700010041FFC1104110411040E8800700000DF
:102D800003E00C1810041004100410081C100000BC
:102D900010041FFC100410041004080807F00000C1
:102DA00010041FFC1104110417C4100408180000BB
:102DB00010041FFC1104110017C0100008000000CF
:102DC00003E00C181004100410441C7800400000AC
:102DD00010041FFC10840080008010841FFC10046D
:102DE0000000100410041FFC100410040000000078
:102DF00000030001100110011FFE10001000000070
:102E000010041FFC110403801464181C100400003B
:102E100010041FFC1004000400040004000C000057
:102E200010041FFC1F0000FC1F001FFC100400000A
:102E300010041FFC0C04030000E010181FFC10001D
:102E400007F00808100410041004080807F0000038
:102E500010041FFC10841080108010800F000000F0
:102E600007F0081810241024101C080A07F20000AC
:102E700010041FFC1104110011C011300E0C0004CD
:102E800000000E1C11041084108410441C38000033
:102E90001800100010041FFC10041000180000009F
:102EA00010001FF810040004000410041FF81000A4
:102EB00010001E0011E0001C007013801C001000A8
:102EC0001FC0103C00E01F0000E0103C1FC00000CD
:102ED0001004180C163401C001C01634180C10046C
:102EE00010001C00130400FC13041C001000000060
:102EF0000804101C1064108413041C041018000033
:102F00000000000000007FFE40024002400200007E
:102F1000000030000C0003800060001C0003000073
:102F200000004002400240027FFE0000000000005E
:102F30000000000020004000400040002000000091
:102F40000001000100010001000100010001000179
:102F500000004000400020000000000000000000D1
:102F600000000098012401440144014400FC0004D5
:102F700010001FFC0088010401040088007000009C
:102F800000000070008801040104010400880000B2
:102F90000000007000880104010411081FFC0004F7
:102FA000000000F8014401440144014400C800004D
:102FB0000000010401040FFC1104110411001800A9
:102FC000000000D601290129012901C901060000DC
:102FD00010041FFC008401000100010400FC000437
:102FE00000000104190419FC0004000400000000A2
:102FF0000000000300010101190119FE000000009A
:1030000010041FFC0024004001B4010C0104000066
:103010000000100410041FFC000400040000000065
:10302000010401FC0104010001FC0104010000FC99
:10303000010401FC008401000100010400FC000403
:10304000000000F8010401040104010400F800007C
:10305000010101FF008501040104008800700000E7
:1030600000000070008801040104010501FF000157
:103070000104010401FC008401040100018000003E
:10308000000000CC01240124012401240198000047
:1030900000000100010007F8010401040000000025
:1030A000010001F8000400040004010801FC000410
:1030B000010001800170000C00100160018001001E
:1030C00001F0010C003001C00030010C01F00100E2
:1030D00000000104018C00740170018C01040000E7
:1030E000010101810171000E0018016001800100E1
:1030F00000000184010C013401440184010C000032
:10310000000000000000000001003EFC4002400200
:103110000000000000000000FFFF000000000000B1
:103120000000400240023EFC0100000000000000E0
:10313000000060008000800040004000200020006F
:103140006031000000000020240B0000B4030000E8
:1031500000360000240B002004080000440C00008E
:10316000212301801B03FF013AE00612C03A3F060B
:10317000250C07E030F906291D4BFFFE0629055BEB
:10318000FFFF12480CCC07E033FE03CC018033F084
:103190000611220C2936F9060D123F8001FC0609A2
:1031A000112A2BFFFF1E390629666906A924418AC8
:1031B00003043C01FFFE04114B7FF8044B1FE004A5
:1031C000992439043B3FF0042D01FFFF80044B3F5D
:1031D000FC022BFFFC6F3B3FFF0E29791A1F2829A9
:1031E000041A0F441904192C2AC004913B0130869B
:1031F0003B01800D89061A035569061C07FFFF3E37
:103200004906296D6906111A1FA169063A03544936
:10321000061A0F710942061A0771112D0607E060A0
:103220008919B6490619D839E4890629054CFFFFE2
:103230007F0739012A1F051008F81FFFFE7FFFF8DE
:103240001C1F8661A349061D06066060062119063B
:103250001DFF87E1FF068BE7E7062A0712112AFF09
:1032600005B90601AE041B03FFF0041B3FFFFE057A
:1032700019FFFFFF801A011E0A19C0770419FFFF0A
:10328000E01A071E0918970A390F1E1A1F1E0A3561
:10329000F81E0A3D3F1E0A19FC1E0A1BE71E7AE3B0
:1032A0001E1A3E02319301C09C7FFFC31EFA7F1E8F
:1032B0007AC71E1A7E1E7A301E6A801E4A7F101A36
:1032C0007E3E1B70021E420212C04B04021E19B940
:1032D000292B111202CB70031E2C87FFF81E114AF6
:1032E000041E12023B03801E3A801E148FFFF81A40
:1032F0001F1E230C1F12062A601E62061E07FE7F79
:10330000FF0F1E111A011E133FFCCA1E1E2AF41EB7
:103310001AF01E12FE4E183FFC01FC1E29653129D1
:10332000072A3F1E1303FC14300184120C6BE006C5
:103330001E42011973491E1A202C191E12043A0349
:1033400035196C491E1AE0631AF854591E61791E2A
:103350004AC01E1B06081E7AC01E19342A3C1E22B3
:1033600080130FF01AC01E9A081E19031AF8952927
:10337000431A1F1E3A0E1E720C3A0351591E1CE0CE
:1033800001801E171801C00FFFFC1A078B291E9A17
:10339000801E5A1C1E3AF81E22022A06EF297814B3
:1033A0003FC0031B3C101E1B800E651A03131C023A
:1033B00001F083491E5C7FC0071E12085230AA0626
:1033C0001E1380063A7C1E12185A60B54A801E19D8
:1033D000F014FF800F1378101B10031E190F618962
:1033E0001E112F0F8FF81004301E194BC91E130128
:1033F000FF151F03F820191E8B10011E3C03FFE070
:103400001E12FE1218391E195D511B07E01E1D0702
:10341000FFF07F1E9A031E19E6311C0FE0082359A6
:103420001E12FC123816F0200820071330062A104E
:103430001E8AC01E1307FC6A7C1E1A0C2921120E5C
:10344000191E3C27FFF81E2AF81E12601A601E1271
:103450001832782A0C1E4AEF1E130FF05AFC1E3B3E
:1034600020101E1A0889BA011E12401360061B2084
:10347000300B491E2B03CF1E12807C1FF0011E3A19
:10348000601E1A18022E078FFFF8FF1E1AE01E1387
:1034900060401A401E1AC0FD291E12104B070F1E55
:1034A0001B3FC0D41360C013400E5D61C0039E1E5D
:1034B0007A061E19D4491E3D4180071F1E12302D69
:1034C000040FFFF01E4B7F801E13C00E1A435131B4
:1034D0009A101E15FF8007FE13608013C00C124760
:1034E0009A0E1E24F1FFFF15FF800FFE166180204B
:1034F000C01C12C6241C0F808A301E1301FF191E27
:103500003A411E12CC3B38071E1B20101E4AF31EE8
:1035100010091FFF0FC18020801C1ADC1E3AC01E3C
:103520001A701E14FFFFFE1303FE1F3FFF3FC180F2
:10353000211E12B81B70031E12208B20F01E1236A3
:10354000130FC1291E12F02CE003E01E1361F029B5
:103550001E12FC19B1311A017A1A18072AC01E214D
:103560006B63D01E5AFC1E112A381E3A011E3BEF17
:10357000801E12F8430FF84A031E3B03801E2301EE
:10358000DE591E1809FFF001FF0713C0C31E1B7F81
:10359000E7C32808F8E007C7D80FFF1E1AF0CF19B5
:1035A000012ADF0539A51139081D900FFF07076AA9
:1035B000E01E3AEF1619572BFFF9251C0FFE030FDB
:1035C00019DE81C401E060291E021A8039680119E0
:1035D0001A3FB3011AAA0F77012FC40F011014016B
:1035E00042011202120312041205120612071208F7
:1035F0001209120A120B120C120D120E120F492D83
:040000050000006196
:00000001FF
