:020000040000FA
:10000000D81E002079000000850000008D0000004F
:10001000950000009D000000A50000000000000009
:10002000000000000000000000000000AD00000023
:10003000B500000000000000BD000000C500000089
:10004000D5000000CD000000DD000000E50000004C
:10005000ED000000F5000000FD00000005010000BB
:100060000D0100000348854600F0DAF9004800471A
:10007000E9140000D81E002026488046C14680476B
:100080002548004700B500F052FB00BD00B500F068
:100090000BFA00BD00B500F049FB00BD00B500F053
:1000A00001FA00BD00B500F089FC00BD00B500F00C
:1000B0001EFC00BD00B500F0F6F900BD00B500F073
:1000C00015FC00BD00B500F025FC00BD00B500F03A
:1000D0003FFC00BD00B500F053FC00BD00B500F0D2
:1000E00036FC00BD07B500F0E0F907BD07B500F02C
:1000F000E1F907BD07B500F0E2F907BD07B500F06B
:10010000E3F907BD07B500F021FC07BD07B503F013
:100110001DFC07BD310900006500000030B50B462D
:10012000014600202022012409E00D46D5409D42D1
:1001300005D31D469540491B254695404019154657
:10014000521E002DF1DC30BD70B50024254600287C
:1001500001DA01244042002901DA01254942FFF772
:10016000DDFFAC4200D04042002C00D0494270BDBF
:100170000549064A08685043054A80180860400847
:100180007047014908607047E01700206D4EC64176
:1001900039300000F8B502464A40D40F42004B0007
:1001A00052085B089A4202D20246084611464A00AB
:1001B00023D0C30D4A00DDB2120EAD1A202D35DA60
:1001C00049020126490AF6058A19002C00D052423C
:1001D00020214F1B1146B9402A411018C20D9A42E6
:1001E00021D0002C17D0012D08DCDA05801AD20F9F
:1001F0008019D207DBB200F0D9F8F8BDDA05801A11
:10020000012340001B06C01880185A428018CA0FEC
:100210001043490007E04908C2071143DA05801A74
:1002200080194008801800F0B9F8F8BD610001227B
:10023000511A001BF7E70122D2075140AAE7012219
:10024000D2075040A6E7024670B54A40D30FDB07FD
:1002500040002DD04A002AD0010E140E00021202D6
:100260000919400A520A8418E50104465443000A59
:10027000120A2E045043A4194219200CC543AA188F
:10028000120C0125AD03521C521912047F392404AB
:1002900000D0521C104301D44000491EC2B20C06CB
:1002A000C0092018401C4008802A02D003E000202A
:1002B00070BD40084000002900DA0020184370BDDE
:1002C00070B502464A40D50F40004A00ED0740088D
:1002D0005208002814D0002A12D0C40DD30D4102B8
:1002E0000120C0055202490A520AE41A09181218DC
:1002F0007D34914201D3641C00E04900002C01DAF6
:10030000002070BD0023914201D3891A03434008A5
:1003100049000028F7D100290AD0914202D10121D9
:10032000C90705E0914201D2012101E00121C94341
:10033000E005C018401900F031F870BDC217C10FB8
:10034000504010B54018CA079623002100F02EF83F
:1003500010BD10B500229623114600F027F810BDFD
:10036000410040020122400AD205090E80187F296F
:1003700001DA00207047962903DC9622511AC84002
:1003800070479639884070470122D207002800DB69
:10039000101A002900DB511A88427047002904DA3C
:1003A000401C490001D140084000704770B400244F
:1003B000050C05D11024000402D1002921D01124FC
:1003C000050E01D100020834050F01D10001241DE2
:1003D000850F01D18000A41C002801DB4000641CB3
:1003E000002908D020252E1B0D46F540A14000D045
:1003F00001212943084301061B1B000ADB1D02D50E
:10040000002070BC7047DB05181880180029F8DA46
:10041000401C4900F5D170BC400840007047000006
:10042000064C0125064E05E0E36807CC2B430C3C47
:1004300098471034B442F7D3FFF718FE504000003D
:100440007040000070B58D180478401CA207920F10
:1004500001D10278401C231106D10378401C03E02F
:1004600006780E70401C491C521EF9D1002B15D085
:1004700002780C268A1A3440401C0C2C03D0A401AC
:10048000121B9B1C08E004782402121B401CF8E796
:1004900014780C70491C521C5B1EF9D5A942D3D3A9
:1004A000002070BD70477047704710B5002000F005
:1004B0001DF910BD10B5012000F018F910BD10B5E0
:1004C000022000F013F910BD10B5032000F00EF962
:1004D00010BD000030B503460C4615461349488947
:1004E00000F0F2F8181200F0DCF8D8B200F0D9F8F9
:1004F0000E49888900F0E8F8201200F0D2F8E0B246
:1005000000F0CFF80020052109074860086007497E
:10051000088900F007F900200521090788600120FB
:1005200088600860284600F0BCF830BDBC1A002086
:10053000FFB585B00E461746102402962046E217F6
:10054000520F1218D210E3175B0F1B18DB10DB00E1
:100550000094E31A01D0012300E00023D2182146C1
:10056000E30F5B185B105A43D2B201923846203831
:10057000C7B2002556E00C2C05D138012C49401893
:10058000405D049011E0102C05D138012849401835
:10059000405D049009E0182C05D138012449401829
:1005A000405D049001E009B0F0BD0020039033E00D
:1005B000802104980840002806D01E480288314651
:1005C0000598FFF787FF08E00898002805D11A482A
:1005D000028831460598FFF77DFF04984006000E1B
:1005E0000490701C86B215484088B04200DCDAE7FF
:1005F0000298301AA0420BD1029E0598401C80B28E
:1006000005900E4801880598814200DCCBE706E0A2
:100610000398401CC0B2039003980828C8DB00BFB1
:10062000681CC5B201988542A5DB00BFBBE700008E
:100630000A3A0000FC160020FE160020BC1A00201A
:10064000FFB581B004460D460A9E1027E0B2009027
:100650000398001980B203900498401980B2049066
:1006600016E00398844202DB009CE81985B20498E6
:10067000854200DB12E03278002329462046FFF74E
:1006800057FF3846F90F0918491009198CB2761C22
:1006900030787E2802DC30782028E2DA00BF05B00E
:1006A000F0BD00B502460120052109074860002081
:1006B0000860104600F036F8002005210907886020
:1006C00001208860086000BD00B5024600200521B9
:1006D000090748600860104600F024F80020052152
:1006E0000907886001208860086000BD30B50246B7
:1006F0000020002100230A4C216801249440204658
:1007000004460C402346002B04D10C460443044D00
:100710002C6003E00C468443014D2C6030BD00008A
:100720000010004005210907886170477047704735
:10073000C206D20E01219140014A116070470000AB
:1007400000E100E0002004E00021034A1154411CB4
:10075000C8B20928F8DB7047CA1A002038B5044629
:100760000121009100201C494870012100912AE0DC
:10077000684600882040002803D00120174988607F
:1007800002E00020154988600120144948600520D6
:1007900000F07EF9002011494860052000F078F94A
:1007A00001200E49486001F039FF002806D00A48B0
:1007B00040786946098808430749487068460088B8
:1007C0004004010C009168460088FF28D0DD10200D
:1007D00000F05EF938BD0000CA1A00200050004049
:1007E00010B5FFF7AFFF00F02DF80F4800790002B9
:1007F0000D49C97808430D49088000240FE06000C6
:100800000B49095C491E01208840084909880840B5
:10081000002802D1601CC0B210BD601CC4B2102CF4
:10082000EDDB0020F8E70000CA1A002008170020BE
:100830000C1700200020024908604860886070475B
:10084000005000401CB500210191012100910020C1
:100850002349086023490878FFF780FF2149487839
:10086000FFF77CFF0221019131E00120009022E09E
:1008700001201B494860052000F00AF900201849B2
:100880004860052000F004F901201549486001F096
:10089000C5FE00280AD0144968460079095C6846FC
:1008A00000880143104A6846007911546846008860
:1008B0004004010C009168460088FF28D8DD102014
:1008C00000F0E6F868460079401CC1B20191684624
:1008D00000790928C9DB0120014908601CBD00001E
:1008E000005000400A170020CA1A002070477047C5
:1008F000014908617047000000E000E001494861DB
:100900007047000000E000E0014988617047000086
:1009100000E000E010B50020FFF7EAFF0348406860
:100920000121490608430149486010BD00ED00E07F
:1009300010B50120FFF7FCFE0020FFF7F9FE0720AD
:10094000FFF7F6FE0820FFF7F3FE10BD7047704773
:1009500010B50120800702F057FF0120FFF7C6FE07
:1009600001A000F02DF810BD756172745F727820DF
:10097000696E74206F636375722121210A00000083
:1009800008B50120800702F042FF0220FFF7AEFE0B
:1009900004A0FF234133F022002100900846FFF716
:1009A0004FFE08BD5541525454585F4952516E2074
:1009B0004F43435552454421212100007047000018
:1009C00010B5024A024900F022F810BD310D0000B6
:1009D0000017002030B47446641E2578641CAB42B6
:1009E00004D3635D5B00E31830BC18471D46F8E78D
:1009F00002E008C8121F08C1002AFAD170477047E8
:100A0000002001E001C1121F002AFBD17047F8B598
:100A100016460F460446002503E03946B047641CDD
:100A20006D1C20780028F8D12846F8BD30B5002488
:100A30000CE0002506E0FF222146284602F0C8FF10
:100A4000681CC5B2202DF6DB601CC4B21E2CF0DB86
:100A500030BD00B502460020FFF74AFF1046FFF701
:100A60004DFF0020FFF750FF0720FFF741FF30BF89
:100A700000BD000010B503461C4603E00348FFF725
:100A8000E8FF641E002CF9D110BD000050C3000027
:100A900010B503461C4603E03220FFF7DAFF641E60
:100AA000002CF9D110BD0000F0B589B005460C4608
:100AB00016461F460A213046FFF730FB08910A21EF
:100AC0003046FFF72BFB0A210390FFF727FB079126
:100AD00064213046FFF722FB0A210390FFF71EFB3B
:100AE00006917D21C9003046FFF718FB0A210390CB
:100AF000FFF714FB059129490598887306984874F7
:100B0000079808750898C87525493846FFF79BFB74
:100B10000390FFF725FCC0B204900A210498FFF768
:100B200013FBC8B208900A210498FFF70DFB0A21B5
:100B30000390FFF709FBC8B20790184927310798BF
:100B40008870C91C089888702878012823D12078DB
:100B5000142820DA002000902078410040180F4926
:100B6000401883782078410040180C49401842789A
:100B70002078410040180949085C039020780290D1
:100B8000039902F02DFF2078401C20700520FFF70C
:100B9000ADFD0020287009B0F0BD0000A2170020B4
:100BA0000000C842FFB505460E461746002004E087
:100BB000002283000399CA50401C1E28F8DB002441
:100BC00028E02001285C002823D022015219D28875
:100BD000D1B2220152199288D0B2039A02F008FED3
:100BE00022015219D288D1B22201521992880832B8
:100BF000D0B2039A02F0FCFD22015219D288083AC1
:100C0000D1B2220152199288121DD0B2039A02F079
:100C1000EFFD641C294800788442D2DB00242FE0D9
:100C20001C206043305C002829D01C2262439219AA
:100C30009288D1B21C22624392195288D0B2039A90
:100C400002F0D6FD1C22624392199288D1B21C2276
:100C50006243921952880832D0B2039A02F0C8FD5A
:100C60001C22624392199288083AD1B21C22624334
:100C700092195288121DD0B2039A02F0B9FD641C79
:100C80000F4800788442CBDB002412E00A20604346
:100C9000C019007900280BD00A226243D219528869
:100CA000D1B20A226243BA5AD0B2039A02F0A0FD2E
:100CB000641C044800788442E8DBFFBD053A00006C
:100CC000063A0000083A0000F8B505460E46002432
:100CD00017E00A20604340190079002810D0102046
:100CE0000A2363435B19022200909A5E0A2363433E
:100CF000E95E3078302302F073FE3078401C3070AB
:100D0000641C024800788442E3DBF8BD083A000026
:100D10000146002005E000230A22424352181371C5
:100D2000401C024A12789042F5DB7047083A0000F6
:100D300070B504460D460A2C03D10D21400702F080
:100D400069FDE1B20120800702F064FD204670BD1C
:100D5000F8B50646542400253078002802D0012832
:100D600004D101E0802503E0902501E0802500BF4B
:100D700000BF4027A02040232A46214600900020A3
:100D800002F02EFEA02041232A4621460831009081
:100D9000012002F025FEA02042232A460832211D10
:100DA0000090022002F01CFEF8BDF0B585B00546AB
:100DB0000E4617461C460A213846FFF7AFF9049144
:100DC0000A213846FFF7AAF90A210090FFF7A6F991
:100DD000039164213846FFF7A1F90A210090FFF73B
:100DE0009DF902917D21C9003846FFF797F90A2144
:100DF0000090FFF793F9019130200090207832465F
:100E00002946019B02F0ECFD302000902178481C1F
:100E1000324629460831029B02F0E2FD3020009064
:100E20002178881C324629461031039B02F0D8FDF8
:100E3000302000902178C81C324629461831049B86
:100E400002F0CEFD2078001D207005B0F0BD00003E
:100E5000F3B587B0079F08980690002520E000268C
:100E60001AE0BD4216DB38461230854212DA069887
:100E700086420FDB0698401D86420BDA0698301A30
:100E8000122148433D494018E91B425C314628463F
:100E900002F09EFD701CC6B21E2EE2DB681CC5B2BD
:100EA000202DDCDBB81DC4B206980830C0B2059016
:100EB000002517E0002611E0A5420DDB2046083092
:100EC000854209DA0598864206D1281B2C490A5C1E
:100ED0003146284602F07CFD701CC6B21E2EEBDBAC
:100EE000681CC5B2202DE5DB04940598801CC0B2B7
:100EF0000390002519E0002613E0049885420EDBDC
:100F00000498083085420ADA0398864207D104988B
:100F1000281A1C490A5C3146284602F059FD701C0B
:100F2000C6B21E2EE9DB681CC5B2202DE3DB201FF4
:100F3000C0B2029005980830C0B20190002519E0B7
:100F4000002613E0029885420EDB02980C308542A1
:100F50000ADA0198864207D10298281A0A490A5CDF
:100F60003146284602F034FD701CC6B21E2EE9DB65
:100F7000681CC5B2202DE3DB09B0F0BD2C170020A2
:100F8000921700209A17002086170020FFB583B023
:100F900005460E46174600244CE02001285C002838
:100FA00047D02001401980884005000E02902001A2
:100FB0004019C0884005000E019001988000395802
:100FC00001220298824008461040019989007A580F
:100FD0000299491C01238B401A4010430199491E74
:100FE00089007A580299491C01238B401A4010430A
:100FF0000090009800281BD0200140190621415E76
:10100000200140190423C35E1846069A01F0B0FA85
:10101000002021016854FD20210149198880EF201A
:1010200021014919C880344800680A3032490860F3
:1010300000BF641C314800788442AEDB002454E0D9
:101040001C206043305C00284ED01C206043801977
:1010500040884005000E02901C2060438019808863
:101060004005000E01900198800039580122029835
:10107000824008461040019989007A580299491C1B
:1010800001238B401A4010430199491E89007A5868
:101090000299491C01238B401A401043009000988C
:1010A000002820D01C20604380190421415E1C20B0
:1010B000604380190223C35E1846069A01F058FA6D
:1010C00000211C2060433154FD211C206043801905
:1010D0004180EF211C206043801981800648006810
:1010E0000A300549086000BF641C05480078844246
:1010F000A6DB07B0F0BD0000DC160020053A0000BA
:10110000063A0000F8B505460F4600243CE00C20E6
:101110006043285C002836D101210C20604329540B
:1011200005210C2060434019417000210C206043D0
:10113000401981700C20604340198780E1210C2008
:1011400060434019C18001210C20604340190172A5
:10115000FFF70EF80646C00F801940104000301A05
:10116000C1B20C20604340194172FFF701F80646F6
:10117000C00F801940104000301AC1B20C206043EB
:101180004019817204E0641C024800788442BEDB8E
:1011900000BFF8BD073A0000F8B505460F46002429
:1011A00013E10C206043285C00287DD00C206043B4
:1011B0004019807A002801D1002600E020260C206A
:1011C00060434019407A002802D001286DD19AE08E
:1011D0000C2363435B190096DB88DAB20C2363436C
:1011E0005B199B88D9B23878902302F0F9FB0C2365
:1011F00063435B190096DB88DAB20C2363435B1907
:101200009B880833D9B23B785B1CD8B2912302F09B
:10121000E7FB0C2363435B190096DB880833DAB2E3
:101220000C2363435B199B88D9B23B789B1CD8B2D3
:10123000922302F0D5FB0C2363435B190096DB88F5
:101240000833DAB20C2363435B199B880833D9B2A5
:101250003B78DB1CD8B2932302F0C2FB0C23634320
:101260005B190096DB881033DAB20C2363435B19F9
:101270009B88D9B23B781B1DD8B2942302F0B0FBF7
:101280000C2363435B190096DB881033DAB20C231E
:1012900063435B199B880833D9B23B785B1DD8B296
:1012A000952302F09DFB01E08EE08AE00C2363436E
:1012B0005B190096DB88DB1CDAB20C2363435B19F5
:1012C0009B88083BD9B23B789B1DD8B2962302F08D
:1012D00087FB3046402108430C2363435B19009091
:1012E000DB88DB1CDAB20C2363435B199B88103369
:1012F000D9B23B78DB1DD8B2962302F071FB387867
:10130000083038705EE00C2363435B190096DB887D
:10131000DAB20C2363435B199B88D9B23878B323C4
:1013200002F05EFB0C2363435B190096DB88083BED
:10133000DAB20C2363435B199B88D9B23B785B1C00
:10134000D8B2B12302F04CFB0C2363435B19009627
:10135000DB880833DAB20C2363435B199B88D9B26C
:101360003B789B1CD8B2B52302F03AFB0C236343B5
:101370005B190096DB88DAB20C2363435B199B8808
:10138000083BD9B23B78DB1CD8B2B22302F028FB71
:101390003046402108430C2363435B190090DB88EF
:1013A000DAB20C2363435B199B880833D9B23B78CC
:1013B0001B1DD8B2B22302F013FB3878401D3870E1
:1013C00000E000BF00BF00BF641C034800788442F7
:1013D00000DAE6E6F8BD0000073A000010B5014665
:1013E00000204CE00C2242438A5C002A46D00C22AA
:1013F000424352189278022A36D100230C224243EB
:10140000521893700C22424352180423D35E052BCA
:1014100015DB0C22424352180423D35EFB2B0EDC57
:101420000C224243531806229A5E08320A2A06DB2F
:101430000C22424352180623D35EE62B04DD002320
:101440000C2242438B5419E00C2242435218D38899
:101450000C2242435218082414571A1B13B20C22B0
:1014600042435218D38009E00C224243521892782A
:10147000521CD3B20C22424352189370401C024AB1
:1014800012789042AEDB10BD073A00000146002002
:1014900022E000230C224243521893800C22424344
:1014A0005218D3800C224243521813720C2242432A
:1014B0008B5405230C2242435218537000230C22F4
:1014C0004243521893700C224243521853720C221A
:1014D000424352189372401C024A12789042D8DB61
:1014E00070470000073A000086B014242825002029
:1014F0002A4621469023009002F072FA00202A46E4
:101500002146083191230090012002F069FA002061
:101510002A460832214692230090022002F060FA07
:1015200000202A46083221460831932300900320E8
:1015300002F056FA00202A461032214694230090E9
:10154000042002F04DFA00202A46103221460831CC
:1015500095230090052002F043FA0020EA1C009039
:1015600020460838C1B29623062002F039FA4020FE
:10157000EA1C2146103196230090072002F030FA31
:101580005026282720203A463146B32300900A20CF
:1015900002F026FA2020009038460838C2B23146C0
:1015A000B1230B2002F01CFA20203A4608323146C3
:1015B000B52300900C2002F013FA20203A46009048
:1015C00030460838C1B2B2230D2002F009FA60207B
:1015D0003A4631460831B22300900E2002F000FA5C
:1015E000002000900190029001231A46FF21B331A0
:1015F0000390480702F019F9FFF71CF9B6E2FE481C
:101600000078012823D10020FB490870FB480078AE
:1016100000281DD105900BE00020FF23E622FB21CE
:101620000090059802F0DCF90598401CC0B20590C6
:1016300005984028F0DBFFF7F9F90020F049087021
:1016400008210720FFF704FCED48FFF781FB8AE043
:10165000EA480078012862D10020EA490870EA4986
:101660000870EA490870EA490860EA490860EA49EE
:101670000860EA490870EA490860EA4800F0D2FDCB
:10168000E94800F001FEE94802F08EF8E84801F070
:1016900079FBE848FFF7FAFEE748FFF739FBE74830
:1016A00000F056FF002005900BE00020FF23E6220B
:1016B000FB210090059802F093F90598401CC0B2F8
:1016C000059005984028F0DBFFF7B0F90020059061
:1016D00018E0002004900FE00598430104981818C2
:1016E000D74B1A5C059881B2049880B2039002F03F
:1016F0006FF90498401C049004982028ECDB0598AE
:10170000401C059005982028E3DB0420CD49486063
:10171000002088600820C8600120086023E0B748E6
:10172000007802281FD1002005900BE00020FF2345
:10173000E622FB210090059802F052F90598401C22
:10174000C0B2059005984028F0DB0020BD49086034
:10175000FFF76CF90020BC490870BC490870BC490F
:101760000870BC490870A548007800283AD1A24802
:101770000078002836D1FFF733F8B74908600846EB
:10178000006805280CD19E480078002826DD9C487A
:101790000078401E9A4908700846FFF7D9FA1DE004
:1017A000AD48006807280CD195480078012815DA63
:1017B00093480078401C924908700846FFF7C8FA21
:1017C0000CE0A54800680D2808D18D480078002855
:1017D00004D1012088490870884908709620FFF7D5
:1017E00049F9C3E18548007801287DD18248007815
:1017F0000028FAD185480078002876D1FEF7B8FC99
:10180000C8210190FEF7A0FC0F3109B26846818122
:101810000C21415E83480022825E914203DD052057
:101820006946C87402E006206946C874FEF7A0FC49
:10183000C10F01900818401041000198401A6946F4
:10184000487478480223C35E0022825E02A977486A
:1018500001F058FB7B484069782814D17148022276
:10186000825E0021415E724800F0DEFEFEF780FCE1
:1018700032210090FEF768FC323108B20146019037
:101880006C48FFF73FFCFEF7ABFF734908605D480B
:101890000078401C5B49087008460078102817DB68
:1018A000002008706D48007910210840002808D1F8
:1018B0005C48C07900280BD15B495A4800F0F4FC21
:1018C00006E0654800680E2802D101204E490870E4
:1018D00003214C480078FEF737FC01293DD15E48D2
:1018E000006808280DD101E009E1C1E04D48002160
:1018F000415E192931DD0088401F00B24949088046
:101900002BE05548006806280AD146480021415E70
:10191000E72922DA0088401D00B2424908801CE015
:101920004D48006805280AD13E480221415E1E2923
:1019300013DD4088401F00B23A4948800DE0464818
:101940000068072809D137480221415ED22904DA0C
:101950004088401D00B2334948802B49314800F08F
:1019600053F9314800F066FD334A2E492F4801F003
:1019700029FD314A2B492E4801F060F82D48FFF728
:101980002DFD2D4801F07EFF2C4800F015FE344956
:10199000254800F011F9334B274A25492348FFF722
:1019A00001F9264B2E4A22492048FFF7EFFA1D483D
:1019B0000079002803D02348806900281BD11748EC
:1019C0000078F02817DB01200B49087002200B4932
:1019D0000870002001900BE00020FF23E622FB218D
:1019E0000090019801F0FCFF0198401CC0B20190EA
:1019F00001984028F0DB37E0FA160020F4160020AA
:101A0000D8160020D6160020D7160020FB1600207E
:101A1000DC160020E4160020E0160020F516002059
:101A2000E8160020D8190020E4170020D418002060
:101A300004190020201900202C1900205C1A002015
:101A4000D60E002000080250F9160020D9160020FA
:101A5000F6160020F8160020F0160020CA1A002002
:101A60005C180020601900200120414908707DE0C9
:101A70003F480078022879D100203E4908700B4683
:101A80003D480A2102680320FFF78FF939493B4896
:101A900000F0F4F837493A4800F0D2FB35493948AC
:101AA00001F0AEFA3349384800F050FE314937486A
:101AB000FFF772FB2F493648FFF706F92D493548E5
:101AC00000F0E0FC2B480078059011E00020FF2397
:101AD000E622FB2100902748007801F081FF25488D
:101AE0000078401C234908700598401CC0B205903E
:101AF00005984028EADB00201D49087036E026489A
:101B00000078022832D12548007800282ED12448B8
:101B10000068FEF71EFC059022480068FEF719FCDD
:101B200004900599FEF7CCFB1F490860084603683E
:101B30001C481E4902681E48FEF7B6FF1B48007885
:101B4000142813DBFEF74CFE1A49086008460068AB
:101B5000102808D100201049087001200F49087092
:101B60000020124908706420FEF784FF47E500005A
:101B7000FB160020D9160020DC160020D819002002
:101B8000E4170020D4180020041900202019002098
:101B90002C1900205C1A0020F4160020FA160020F0
:101BA000E4160020E0160020E8160020F8160020B9
:101BB000F9160020F016002070B505460E460020EC
:101BC00003E000218200B150401C1E28F9DB0024F4
:101BD00012E00A2060434019007900280BD00A2245
:101BE000624352195288D1B20A226243AA5AD0B231
:101BF000324601F0FDFD641C024800788442E8DBB7
:101C000070BD0000043A000070B504460D46E0794E
:101C100000280DD1287801282FD1E07100202072F2
:101C200001206072002028700320FEF75FFD24E091
:101C3000207A052802D0207A0A280BD1607A04285D
:101C400004DC6088C01E00B2608003E06088C01CB5
:101C500000B26080207A0A280CDB00202072607AB3
:101C6000072803DB0020E071607206E0607A401C08
:101C7000607202E0207A401C207270BD03B585B00E
:101C80000698007804900598007900287ED0059881
:101C9000407A0300FEF79EFE080563C0FCFAF9F8DF
:101CA000F7F6052003903020009002210598415E50
:101CB00002910021415E33230191029A049801F0C0
:101CC0008FFE3020009002210598415E0291002194
:101CD000415E084608303423019001460498401CB8
:101CE000029A01F07DFE7020009002210598415E6D
:101CF00002910021415E08461030332301900146D5
:101D00000498801C029A01F06BFE302000900221A2
:101D10000598415E08460830029000210598415E12
:101D2000081D3523019001460498C01C029A01F059
:101D300057FE3020009002210598415E0846083089
:101D4000029000210598415E08460C303623019030
:101D500001460498001D029A01F042FE58E2052057
:101D600003903020009002210598415E02910021ED
:101D7000415E37230191029A049801F031FE302030
:101D8000009002210598415E029100E048E20021A6
:101D9000415E084608303823019001460498401CF3
:101DA000029A01F01DFE7020009002210598415E0C
:101DB00002910021415E0846103037230190014610
:101DC0000498801C029A01F00BFE30200090022142
:101DD0000598415E08460830029000210598415E52
:101DE000081D3923019001460498C01C029A01F095
:101DF000F7FD3020009002200599085E083002901F
:101E00000020085E0C303923019001460498001D23
:101E1000029A01F0E5FDFBE10320039030200090E1
:101E200002200599085E029008460021415E3A238F
:101E30000191029A049801F0D3FD30200090022114
:101E40000598415E02910021415E084608303B231F
:101E5000019001460498401C029A01F0C1FD7020D7
:101E6000009002210598415E02910021415E0846E2
:101E700010303A23019001460498801C029A01F028
:101E8000AFFDC5E1C3E165E12DE1CDE04AE0FFE74B
:101E9000042003903020009002210598415E0291B9
:101EA0000021415E3D230191029A049801F098FDC2
:101EB0003020009002210598415E02910021415E90
:101EC000084608303E23019001460498401C029ABF
:101ED00001F086FD7020009002210598415E02917C
:101EE0000021415E084610303D23019001460498D0
:101EF000801C029A01F074FD702000900221059868
:101F0000415E08460838029000210598415E084667
:101F100008303C23019001460498C01C029A01F04D
:101F20005FFD75E1072003903020009002210598A5
:101F3000415E08461038029000210598415E081D58
:101F40003F2301900146029A049801F049FD302098
:101F5000009002210598415E084610380290002149
:101F60000598415E08460C30F02301900146049824
:101F7000401C029A01F034FD3020009002200599A7
:101F8000085E083802900020085E001DF1230190D1
:101F900001460498801C029A01F022FD3020009036
:101FA00002200599085E083802900020085E0C3077
:101FB000F223019001460498C01C029A01F010FD22
:101FC0003020009002210598415E02910021415E7F
:101FD000F32301910498001D029A01F001FD3020C5
:101FE000009002200599085E029008460021415E9B
:101FF00008460830F423019001460498401D029AD7
:1020000001F0EEFC3020009002200599085E02905D
:102010000020085E1030F523019001460498801DD1
:10202000029A01F0DDFCF3E00620039030200090DE
:1020300002210598415E0846083802900021059863
:10204000415E081DF62301900146029A049801F0B2
:10205000C7FC7020009002200599085E08380290A5
:102060000020085E0C30F623019001460498401CC5
:10207000029A01F0B5FC3020009002210598415EE3
:10208000029101460020085EF72301900146049862
:10209000801C029A01F0A4FC3020009002200599D7
:1020A000085E029008460021415E08460830F82389
:1020B000019001460498C01C029A01F091FC702026
:1020C000009002200599085E029008460021415EBA
:1020D00008461030F723019001460498001D029A2B
:1020E00001F07EFC94E00320039030200090022158
:1020F0000598415E029101460020085E3A23019056
:102100000146029A049801F06BFC302000900221F5
:102110000598415E02910021415E084608303B234C
:10212000019001460498401C029A01F059FC70206D
:10213000009002210598415E02910021415E08460F
:1021400010303A23019001460498801C029A01F055
:1021500047FC5DE0052003903020009002200599A7
:10216000085E02900020085E332301900146029A27
:10217000049801F035FC3020009002200599085E9B
:10218000029008460021415E084608303423019041
:1021900001460498401C029A01F022FC7020009035
:1021A00002200599085E02900020085E103033235B
:1021B000019001460498801C029A01F011FC302025
:1021C000009002200599085E083002900846002120
:1021D000415E081D3523019001460498C01C029AF7
:1021E00001F0FEFB3020009002210598415E084678
:1021F0000830029000200599085E0C3036230190CB
:1022000001460498001D029A01F0EAFB00E000BFBD
:1022100000BF0698017803980818C1B206980170AB
:1022200007B000BD78210180B421418001210171F6
:102230000021C171017241720121817141717047A8
:10224000F8B505460E46002417E00A206043401901
:102250000079002810D010200A2363435B19022262
:1022600000909A5E0A236343E95E3078312301F0DF
:10227000B7FB3078401C3070641C02480078844200
:10228000E3DBF8BD043A00000146002005E000232E
:102290000A22424352181371401C024A127890429B
:1022A000F5DB7047043A000010B50279002A20D00F
:1022B0008279002A1ED100BF19E00A2353435B181C
:1022C0001B79002B12D1038808331CB20A23534315
:1022D000CC524388083B1CB20A2353435B185C80F2
:1022E00001240A2353435B181C7102E0521C042A88
:1022F000E3DB9EE08279012A37D1002232E00A2313
:1023000053435B181B79002B2BD10A2353435B18D3
:102310009B7B002B25D103881B1D1CB20A23534332
:10232000CC524388083B1CB20A2353435B185C80A1
:1023300001240A2353435B181C7103880C331CB21D
:102340000A2353435B185C814388083B1CB20A2371
:1023500053435B189C8101240A2353435B189C73ED
:1023600002E0521C082ACADB63E08279022A60D1AB
:1023700000225BE00B79002B57D10A2353435B18F3
:102380009B7B002B51D10A2353435B181B7E002BF0
:102390004BD10A2353435B181E331B79002B44D1C6
:1023A00003881B1F1BB20B804388083B1BB24B806A
:1023B00001230B7103881B1D1CB20A2353435B18B6
:1023C0005C814388083B1CB20A2353435B189C8101
:1023D00001240A2353435B189C7303880C331CB2FB
:1023E0000A2353435B189C824388083B1CB20A2390
:1023F00053435B18DC8201240A2353435B181C7689
:10240000038814331CB20A2353435B18DC834388CC
:10241000083B1CB20A2353435B181C8401240A2383
:1024200053435B181E331C7102E0521C102AA1DBBF
:1024300000BF10BD014600201CE00A224243521892
:102440001279002A15D00A22424352185288D21E0D
:1024500013B20A224243521853800A2242435218AE
:102460000223D35E052B04DA00230A2242435218CA
:102470001371401C024A12789042DEDB7047000064
:10248000043A0000FEB505460E46002458E0E00080
:1024900040190079002852D0E000401940794006E8
:1024A000070E10203B46E0330090E0004019022266
:1024B000825EE000285E029030780190029901F07F
:1024C0008FFA10203A46E13202920090E20052194F
:1024D0000223D35EE2000193AA5E114608313278EE
:1024E000501C029B019A01F07BFAD0203B46E1335D
:1024F000E1004A1902210090515EC91D0291E100DC
:10250000695E01913178881C029A019901F068FA9C
:10251000D0203B46E0330090E00041190220085EE5
:10252000C21DE000285E083002903078C01C019087
:10253000029901F055FA3078001D307000BF641C1C
:10254000024800788442A2DBFEBD0000093A000088
:102550000146002004E00022C3005B181A71401CF1
:10256000024A12789042F6DB70470000093A0000F8
:1025700030B50346002016E0C400A4182479002CCE
:1025800010D1C500AD186C71C4001353C400A41859
:1025900061800124C500AD182C710024C500AD1860
:1025A000AC7104E0401C034C2478A042E4DB00BF83
:1025B00030BD0000093A00000146002026E0C200BC
:1025C00052181279002A20D0C200521892790A2A91
:1025D00007DAC20052189279521CC3005B189A7134
:1025E00013E00022C3005B189A71C200521852799E
:1025F000521CC3005B185A71C20052185279042A47
:1026000003DB0022C3005B181A71401C024A1278D7
:102610009042D4DB70470000093A00000148C068CE
:102620007047000000500040F7B5054616460024EC
:1026300082E01C206043285C00287CD101211C2002
:102640006043295400211C206043401941700F2130
:102650001C20604340194180FDF78AFD07461E217A
:10266000FDF772FD30463C38401A01B21C20604331
:102670004019818000211C20604340198171FDF7C1
:1026800077FD0746C00FC01940104000381A801C63
:1026900041B21C2060434019C171FDF769FD074636
:1026A000C00FC01940104000381A41B21C206043CE
:1026B00040190172FDF75CFD07461421FDF744FD4A
:1026C00001983238081801B21C206043401941813A
:1026D0001C206043401940893C3001B21C206043FB
:1026E000401981813046143801B21C2060434019E2
:1026F000C181FDF73DFD07461E21FDF725FD1C208C
:1027000060434019C0891430081801B21C2060438E
:10271000401901821C206043401980891E3801B293
:102720001C2060434019418200211C206043401955
:10273000817606E0FFE7641C03480078844200DAF3
:1027400077E700BFFEBD0000063A0000F8B5054679
:102750000E46002469E11C206043285C00287DD0DF
:102760001C2060434019807E0300FEF733F9050406
:102770004093CEFEFD0000BF60201C2363435B1925
:1027800000909B88DAB21C2363435B195B88D9B243
:102790003078592301F024F960201C2363435B192E
:1027A00000909B88DB1DDAB21C2363435B195B88B6
:1027B000D9B233785B1CD8B25A2301F011F96020EA
:1027C0001C2363435B1900909B88DB1CDAB21C233B
:1027D00063435B195B88083BD9B233789B1CD8B242
:1027E0005B2301F0FDF83078C01C30701BE1A020A5
:1027F0001C2363435B1900909B885B1CDAB21C238B
:1028000063435B195B885B1CD9B230785E2301F0AF
:10281000E7F8A0201C2363435B1900909B885B1C96
:10282000DAB21C2363435B195B880833D9B233786F
:102830005B1CD8B25F2301F0D3F8A0201C236343B4
:102840005B1900909B880833DAB21C2363435B1941
:102850005B88D9B233789B1CD8B200E0E4E05C23FB
:1028600001F0BEF8A0201C2363435B1900909B88F5
:102870000833DAB21C2363435B195B880833D9B28F
:102880003378DB1CD8B25D2301F0AAF83078001D44
:102890003070C8E020201C2363435B1900909B88A4
:1028A000DAB21C2363435B195B88D9B230784023CA
:1028B00001F096F820201C2363435B1900909B884D
:1028C000DAB21C2363435B195B880833D9B23378CF
:1028D0005B1CD8B2412301F083F820201C23634302
:1028E0005B1900909B88083BDAB21C2363435B1999
:1028F0005B881B1DD9B233789B1CD8B2422301F0F0
:102900006FF83078C01C30708DE0E0201C236343EA
:102910005B1900909B88DAB21C2363435B195B88C8
:10292000D9B230785F2301F05BF8E0201C236343C9
:102930005B1900909B88DAB21C2363435B195B88A8
:102940000833D9B233785B1CD8B25E2301F048F863
:10295000E0201C2363435B1900909B880833DAB2A4
:102960001C2363435B1901E05CE01FE05B88D9B284
:1029700033789B1CD8B25D2301F032F8E0201C2391
:1029800063435B1900909B880833DAB21C236343CE
:102990005B195B880833D9B23378DB1CD8B25C236F
:1029A00001F01EF83078001D30703CE000BF2020A0
:1029B0001C2363435B1900909B88DAB21C2363439A
:1029C0005B195B88D9B23078592301F009F82020CF
:1029D0001C2363435B1900909B88DB1DDAB21C2328
:1029E00063435B195B88D9B233785B1CD8B25A2336
:1029F00000F0F6FF20201C2363435B1900909B88A6
:102A0000DB1CDAB21C2363435B195B880833D9B241
:102A100033789B1CD8B25B2300F0E2FF3078C01CF7
:102A2000307000E000BF00BF641C0348007884429F
:102A300000DA90E6F8BD0000063A0000F8B5054659
:102A40000E46002495E11C206043285C00282AD013
:102A50001C2060434019407802287DD100211C20B1
:102A60006043401941701C20604340190221415EBF
:102A7000052914DB1C20604340190221415EFB291B
:102A80000DDC1C20604340190421415E0A2906DB4D
:102A90001C20604340190421415EE62904DD002129
:102AA0001C206043295463E11C2060434019807955
:102AB00000283AD11C20604340190221415E1C20AD
:102AC000604340190A22825E91420ADB01211C20E8
:102AD00060434019817100211C20604340194172FC
:102AE0001DE01C206043401941881C2060434019B0
:102AF00007228256881801B21C2060434019418089
:102B00001C206043401981881C2060434019082222
:102B10008256881801B21C20604340198180002130
:102B20001C2060434019817622E11C20604340193B
:102B300080790128B7D11C2060434019407A0300F6
:102B4000FDF748FF05043774A1DEFE0000211C20BC
:102B500060434019817600E000E11C206043401989
:102B60004088C01C01B21C20604340194180FDF721
:102B7000FFFA07460321FDF7E7FA1C2060434019DE
:102B80008088081801B21C206043401981801C20F5
:102B9000604340190221415E1C20604340190C2211
:102BA000825E914204DB01211C2060434019417286
:102BB000D3E001211C20604340198176FDF7D8FA4B
:102BC0000746C00FC01940104000381A801C1C2155
:102BD000614349194988401801B21C2060434019DB
:102BE0004180FDF7C5FA0746C00FC01940104000EC
:102BF000381A801C1C21614349198988401801B288
:102C00001C206043401981801C206043401904212E
:102C1000415E1C20604340190E22825E914204DB1B
:102C200002211C2060434019417296E002211C20C1
:102C30006043401981761C20604341190220085EE0
:102C40001C216143491948801C2060434019808839
:102C5000C01C01B21C206043401981801C206043CD
:102C600040190421415E1C20604340191022825EFD
:102C7000914207DB03211C20604340194172002070
:102C8000FDF734FD69E003211C2060434019817683
:102C9000FDF76EFA0746C00FC01940104000381A01
:102CA000801C1C21614349194988081A01B21C2063
:102CB000604340194180FDF75BFA0746C00FC01919
:102CC00040104000381A801C1C2161434919898832
:102CD000401801B21C206043401981801C206043D1
:102CE00040190221415E1C20604340191222825E7D
:102CF000914204DC04211C206043401941722CE005
:102D000004211C20604340198176FDF731FA074603
:102D1000C00FC01940104000381A801C1C216143AC
:102D200049194988081A01B21C20604340194180A2
:102D30001C20604340190221415E1C20604300E0DA
:102D40000AE040191422825E914204DC04211C2016
:102D500060434019417200E000BF09E01C2060435D
:102D600040194078401CC1B21C206043401941709A
:102D7000641C03480078844200DA64E6F8BD000071
:102D8000063A00000146002010E000231C224243C6
:102D9000521853801C224243521893801C224243F3
:102DA0008B541C22424352185370401C024A127822
:102DB0009042EADB70470000063A0000F0B58BB0A5
:102DC00005460E46174600248CE00A206043401951
:102DD000007900287CD1B088083001B20A20604315
:102DE0002952F088083801B20A2060434019418016
:102DF00001210A206043401901710420305E0A90CD
:102E00000620305E09900020385E08900220385E6F
:102E100007903888B188401A00B206907888F18807
:102E2000401A00B205900699002902DA0699494233
:102E300000E006990846FDF781FA049005990029FB
:102E400002DA0599494200E005990846FDF776FA4D
:102E5000039004990398FDF733FA02900020019043
:102E60003AE001998900234A50580299FDF7E3F9A5
:102E700000210090FDF788FA2BD8019840001E49E8
:102E8000095A0A2060434019C180019840001B493B
:102E9000095A0A206043401901810698002809DA7E
:102EA0000A2060434019C088404201B20A206043B2
:102EB0004019C1800598002809DA0A2060434019AA
:102EC0000089404201B20A2060434019018106E0B6
:102ED00007E00198401C019001980A28C1DB00BF5F
:102EE00005E0641C06480078844200DA6DE700BF04
:102EF0000BB0F0BD2840000012400000FE3F000073
:102F0000083A0000F8B505460E4600246FE020019F
:102F1000285C00286AD1012021014919487021014B
:102F20006854002021014919C8732101491988708A
:102F3000210149198872707A2101491948720120CA
:102F4000210149190872B0882101491988800F2090
:102F500021014919C880F07A21014919C87220015C
:102F60004019C07A04281ED1002021014919087394
:102F70000320210149194873FDF7FAF80746C00FED
:102F8000C01940104000381AC0B2009000980028C4
:102F900004D1022021014919887303E00320210193
:102FA0004919887321E020014019C07A05280CD105
:102FB000C01F2101491908730320210149194873D1
:102FC00002202101491988730FE020014019C07ABD
:102FD00006280AD102202101491908730320210182
:102FE0004919487321014919887304E0641C034896
:102FF000007884428BDB00BFF8BD0000053A00007A
:10300000FEB505460E460024D3E12001285C0028C9
:103010007ED0002720014019C07B0300FDF7DAFCB9
:103020000805407DA6E4FDFCFBFA40200290220149
:1030300052190097D288D2B2019222015219928875
:10304000D1B23078029B019A00F0CAFC0097029A34
:10305000531C22015219D288D2B201922201521974
:1030600092880832D1B23278521CD0B2019A00F064
:10307000B7FC00970298831C20014019C0880838CB
:10308000C2B2200140198088001DC1B23078801C76
:10309000C0B2019000F0A4FC3078C01C307085E113
:1030A00043200290210149190097C988CAB2210121
:1030B00049198988C9B201913078029B00F090FCCF
:1030C000384640210843009020014019C088C2B210
:1030D0002001401980880830C1B23078401CC0B24D
:1030E0000190029B00F07CFC00970298431C200199
:1030F0004019C0880838C2B2200140198088001DDC
:10310000C1B23078801CC0B2019000F069FC00E0D0
:103110004EE13078C01C307048E14520029021011A
:1031200049190097C988CAB2210149198988C9B2C9
:1031300001913078029B00F053FC3846402108434F
:10314000210149190090C988CAB221014919898809
:103150000831C9B201913178491CC8B2029B01996A
:1031600000F03EFC3078801C30701FE14621029157
:10317000220152190097D288D2B20192220152192B
:103180009288D1B23078029B019A00F029FC38462F
:1031900040210843210149190090C988CAB2210180
:1031A000491989880831C9B201913178491CC8B2DE
:1031B000029B019900F014FC009702994B1C21011D
:1031C0004919C9880831CAB2210149198988091DDC
:1031D000C9B201913178891CC8B2019900F000FC94
:1031E0003078C01C3070E1E048200290210149197C
:1031F0000097C988CAB2210149198988C9B20191C9
:103200003078029B00F0ECFB3846402108430090E8
:10321000200103E0C9E088E060E025E04019C088B3
:10322000C2B22001401980880830C1B23078401CF9
:10323000C0B20190029B00F0D3FB00970298431CA0
:1032400020014019C0880830C2B22001401980888E
:10325000001DC1B23078801CC0B2019000F0C0FBEC
:103260003078C01C3070A1E0210149190097C9884D
:10327000CAB2210149198988C9B2019130784B231A
:1032800000F0AEFB38464021084321014919009067
:10329000C988CAB22101491989880831C9B2019186
:1032A0003178491CC8B24A23019900F099FB2101E9
:1032B00049190097C9880839CAB221014919898872
:1032C000091DC9B201913178891CC8B24C230199FA
:1032D00000F086FB3078C01C307067E02201521984
:1032E0000097D288D2B20192220152199288D1B2AB
:1032F00030784D23019A00F073FB38464021084393
:10330000009020014019C0880838C2B2200140193D
:103310008088C1B23078401CC0B24E23019000F0CA
:103320005FFB3078801C307040E04A2002903846C5
:1033300040210843009020014019C088C2B22001FA
:1033400040198088C1B230785023019000F048FBCA
:10335000384640210843009020014019C088C2B27D
:103360002001401980880830C1B23078401CC0B2BA
:103370004F23019000F034FB384640210843009071
:1033800020014019C088C01FC2B2200140198088A6
:10339000001DC1B23078801CC0B25123019000F0F2
:1033A0001FFB3078C01C307000E000BF00BF00BFC2
:1033B000641C03480078844200DA26E6FEBD000063
:1033C000053A0000F7B582B005460E460024E1E15B
:1033D0002001285C002829D020014019807802288B
:1033E0007ED1002021014919887020014019042153
:1033F000415E052911DB200140190421415EFB29B2
:103400000BDC200140190621415E0A2905DB200161
:1034100040190621415EE62909DD0020210168549A
:1034200021014919888021014919C880B1E1200191
:103430004019807A00287DD1FCF79AFE07461421B6
:10344000FCF782FE0220305E1438401A210149192F
:1034500006228A5E90426EDC20014019007A012823
:1034600009D12001411932460498FFF7A7FC00203A
:1034700021014919087220014019407A002844D1DD
:10348000200141190420085E0021715E884216DA8D
:103490000020305E2101491904228A5E801A3C28EE
:1034A0000DDA0020305E2101491904228A5E801A5B
:1034B000002804DD06202101491988735FE02001FE
:1034C00041190420085E0021715E884218DD200148
:1034D00041190420085E0021715E401A322800E084
:1034E00050E10DDA200141190420085E0021715ECF
:1034F000401A002804DD05202101491988733EE0A7
:10350000042021014919887339E020014019C07A4B
:10351000042821D100202101491908730320210129
:1035200049194873FCF724FE0746C00FC019401024
:10353000400001E05DE043E0381AC0B2019001981C
:10354000002804D1022021014919887303E00320D7
:1035500021014919887312E020014019C07A052819
:1035600004D1022021014919887308E02001401983
:10357000C07A062803D1032021014919887320014C
:103580004019407A012808D1002021014919C87347
:103590000120210149198872FBE020014019807B3C
:1035A000042804D10220210149198872F1E0012088
:1035B000210149198872052021014919C873E8E0E1
:1035C000200140198088210149190C228A5680184F
:1035D00000B221014919888020014019C0882101C9
:1035E00049190D228A56801800B221014919C88054
:1035F000CFE020014019807A01284CD120014019E8
:10360000407A012823D1200141190420085E2101BC
:1036100049198880200141190620085E21014919B5
:10362000C88020014019C07B0428B5DA2001401968
:10363000C07B401C21014919C87320014019C07B7F
:103640000428A9D10220210149198872A1E0200192
:1036500041190420085E210149198880200141197F
:103660000620085E21014919C88020014019C07B4D
:1036700007280FDA20014019C07B401C210149199D
:10368000C87320014019C07B072803D10220210103
:10369000491988727DE020014019807A022878D18A
:1036A00020014019807B0300FDF794F9076A051596
:1036B000263747586A00200141190420085E21017D
:1036C0004919888020014019C088001F00B22101DB
:1036D0004919C88055E0200140198088801E00B239
:1036E00021014919888020014019C088C01E00B2FC
:1036F00021014919C88044E0200140198088801CBC
:1037000000B221014919888020014019C088C01EDB
:1037100000B221014919C88033E020014119042079
:10372000085E21014919888020014019C088401D88
:1037300000B221014919C88023E020014019808886
:10374000801E00B221014919888020014019C088DB
:10375000C01C00B221014919C88012E020014019A3
:103760008088801C00B221014919888020014019FD
:10377000C088C01C00B221014919C88001E008E0DE
:1037800000BF06E0200140198078401C2101491942
:103790008870641C03480078844200DA18E605B09B
:1037A000F0BD0000053A00000146002018E00022AC
:1037B00003015B189A8003015B18DA800301CA5485
:1037C000012203015B185A70002203015B189A70F2
:1037D00003015B181A72012203015B185A72401C24
:1037E000024A12789042E2DB70470000053A00007E
:1037F000F0B5C510CB100126AE4034469E00965958
:1038000026439F00D651F0BD0221C16070470121BF
:10381000C160704705E04268D207D20F002A00D18C
:1038200000E0F8E700BF01607047F0B50446059D71
:103830000026002A01D001200643002B01D00220DF
:103840000643002D01D0042006430698002801D02D
:10385000082006430798002801D010200643089846
:10386000002801D0202006430020A0602161A6602E
:1038700060680C273840002801D00120F0BD0020EE
:10388000FCE700000146002059E00A22424352189A
:103890005279042A48D100230A2242435218537114
:1038A0000A22424352181279002A47D00A22424380
:1038B000521853880A224243521812899A1813B296
:1038C0000A224243521853800A2242438B5A0A2248
:1038D00042435218D2889A1813B20A2242438B529A
:1038E0000A22424352180223D35EE62B06DC0A2248
:1038F000424352180223D35E0A2B05DA00230A2220
:1039000042435218137119E00A2242438A5EFB2A8D
:1039100004DC0A2242438A5E052A0FDA00230A22C7
:1039200042435218137109E00A2242435218527955
:10393000521CD3B20A22424352185371401C024A0D
:1039400012789042A1DB7047083A000010B5194880
:103950000078012817D118480078012829D10220C1
:10396000FCF7C4FE022014490870144800790028AE
:1039700003D01348806900281BD112480078401CEE
:103980001049087015E00B480078022811D10E4844
:103990000078401C0C490870084600780A2808D1B5
:1039A0000320FCF7A3FE0020074908700120074907
:1039B000087010BDF4160020FB160020D819002056
:1039C00000080250F5160020F6160020F916002017
:1039D00010B54B01014C1B191A5410BD00000250C8
:1039E00070B5049C8500064EAD19E9708500AD19CF
:1039F000AA708500AD196B708500AD192C7070BD73
:103A0000000001500C030101050C00000000000043
:103A100000000000000000000000000000000000A6
:103A20001FCC000C00000000000000000800300067
:103A300060000800300060000000022003FC1E202F
:103A4000022003FC1E200220000000000E181104BA
:103A50003FFF10840C78000000000F0010840F3826
:103A600000C0077818840078000000780F8410C424
:103A700011240E9800E4008400080800680070001B
:103A80000000000000000000000000000000000036
:103A900007E0181820044002000000004002200443
:103AA000181807E0000000000000024002400180FA
:103AB0000FF0018002400240000000800080008082
:103AC0000FF800800080008000000001000D000E53
:103AD00000000000000000000000000000800080E6
:103AE000008000800080008000800000000C000C3E
:103AF00000000000000000000000000000060018A8
:103B000000600180060018002000000007F008088F
:103B100010041004080807F000000000080408045E
:103B20001FFC000400040000000000000E0C101434
:103B30001024104411840E0C000000000C18100416
:103B40001104110412880C700000000000E0032032
:103B5000042408241FFC0024000000001F98108487
:103B600011041104108810700000000007F008888C
:103B70001104110418880070000000001C001000DF
:103B800010FC13001C001000000000000E3811444F
:103B90001084108411440E38000000000700088CC7
:103BA00010441044088807F00000000000000000E6
:103BB000030C030C000000000000000000000001E6
:103BC000010600000000000000000000008001402D
:103BD0000220041008081004000002200220022025
:103BE0000220022002200220000000001004080829
:103BF0000410022001400080000000000E001200AE
:103C0000100C106C10800F00000003E00C1813E47F
:103C1000142417C4082807D000000004003C03C483
:103C20001C40074000E4001C000410041FFC1104A9
:103C3000110411040E880070000003E00C18100439
:103C40001004100410081C10000010041FFC1004C5
:103C500010041004080807F0000010041FFC1104F1
:103C6000110417C410040818000010041FFC1104EC
:103C7000110017C010000800000003E00C18100429
:103C8000100410441C780040000010041FFC108435
:103C90000080008010841FFC100400001004100439
:103CA0001FFC1004100400000000000300011001BC
:103CB00010011FFE10001000000010041FFC110472
:103CC00003801464181C1004000010041FFC10046E
:103CD000000400040004000C000010041FFC1F007E
:103CE00000FC1F001FFC1004000010041FFC0C044B
:103CF000030000E010181FFC100007F00808100473
:103D000010041004080807F0000010041FFC1084C1
:103D10001080108010800F00000007F00818102499
:103D20001024101C080A07F2000010041FFC1104E4
:103D3000110011C011300E0C000400000E1C110403
:103D40001084108410441C38000018001000100467
:103D50001FFC100410001800000010001FF81004D1
:103D60000004000410041FF8100010001E0011E0F1
:103D7000001C007013801C0010001FC0103C00E0ED
:103D80001F0000E0103C1FC000001004180C163487
:103D900001C001C01634180C100410001C001304DC
:103DA00000FC13041C00100000000804101C106428
:103DB000108413041C041018000000000000000010
:103DC0007FFE4002400240020000000030000C0074
:103DD00003800060001C000300000000400240025D
:103DE00040027FFE000000000000000000002000F4
:103DF00040004000400020000000000100010001E0
:103E0000000100010001000100010000400040002D
:103E100020000000000000000000000000980124C5
:103E200001440144014400FC000410001FFC008810
:103E30000104010400880070000000000070008888
:103E400001040104010400880000000000700088E3
:103E50000104010411081FFC0004000000F80144E3
:103E600001440144014400C80000000001040104B1
:103E70000FFC1104110411001800000000D60129E4
:103E80000129012901C90106000010041FFC00845A
:103E900001000100010400FC0004000001041904F9
:103EA00019FC0004000400000000000000030001F1
:103EB0000101190119FE0000000010041FFC00247C
:103EC000004001B4010C01040000000010041004C3
:103ED0001FFC0004000400000000010401FC0104B8
:103EE000010001FC0104010000FC010401FC00844C
:103EF00001000100010400FC0004000000F80104BE
:103F000001040104010400F80000010101FF008523
:103F100001040104008800700000000000700088A7
:103F200001040104010501FF00010104010401FC79
:103F300000840104010001800000000000CC012485
:103F40000124012401240198000000000100010067
:103F500007F80104010400000000010001F800045A
:103F600000040004010801FC00040100018001704C
:103F7000000C001001600180010001F0010C003014
:103F800001C00030010C01F0010000000104018CAF
:103F900000740170018C01040000010101810171B4
:103FA000000E001801600180010000000184010C76
:103FB000013401440184010C0000000000000000F5
:103FC000000001003EFC4002400200000000000032
:103FD0000000FFFF0000000000000000400240025F
:103FE0003EFC0100000000000000000060008000B6
:103FF0008000400040002000200000000A00010076
:104000000200020002000300040004000400050096
:104010000500040004000400040004000300020082
:10402000020001000000000000000000EC51383EDA
:10403000EC51B83EE17A143F3D0A573FEC51983FAE
:10404000A470DD3F00003040A470B540000048433C
:104050007040000000000020E4170000440400004D
:1040600048490000E4170020F4060000000A0000A0
:10407000100900000180000003FF0132E006300457
:10408000C0003F060006100C07E0300006211D436B
:10409000FFFE06210553FFFF12400CCC07E033FE64
:1040A00003CC018033F0062005000C000042F1062D
:1040B0000005123F8001FC0601112A6004FFFFFC8D
:1040C00006216B6106A15A2101820304300401FF1D
:1040D000FE044004007FF804431FE004C2032830BC
:1040E00004003FF004200501FFFF8004433FFC0271
:1040F00023FFFC6F333FFF0E2179121F2821043369
:104100000FE004112C22C004620001330130862527
:1041100046B106154D62800616075D610621716184
:104120000613001FA161068303C00603440FF006B7
:104130001207714406000607E060E242C00635B28D
:10414000A2FC0645CA837FFF01221F24240CF81F0E
:10415000FFFE7FFFF8001F86614A31061005060644
:10416000606006130000062404FF87E19483E7E7FC
:104170000622071215A7D2000601AC01000419039C
:10418000FFF01E2A3F6001171E46FFDB011459ABEA
:1041900001FF3C0110773923011577194601199762
:1041A00002390F1E25ED0235F81E023D3F1E06198D
:1041B000FC67021BE71E72E33C123E02255D8D96F2
:1041C0000390047FFFC31EF27F1E72C71E127E1E65
:1041D00072301E62801E427F10127E3E1370021EDD
:1041E0002A02CB4005C00004021E65E5C00502009E
:1041F00070031E200487FFF81E4300041E300502D2
:104200000003801E32803C2E8F4E03111E2F0C1F88
:10421000440322601E5606DE1D6A03260F2C12017F
:104220001EC0053FFC001E1E22F41E1D87041C0735
:1042300001FE00183FFC4105311E42041E216C2284
:104240003F1E1C0703FC003001843E0563E0061E90
:104250005601E1411E12202C111E1E042B0521A126
:104260005301FF1E2D9F0412F890511E69AD511E7F
:1042700042C01E1306081E72C01E1D5905223C1E98
:104280003E80B00412C01E92081E11AB2EF8C1056C
:104290002DE004111E320E1E6E0C6003316F511E94
:1042A0001004E001801E1C051801C00F6F051E07D9
:1042B0002A05211E92801E521C1E32F81E3E027ECE
:1042C00004323F7810073FC003003C101E13800EDD
:1042D0006512031360050201F0041E50047FC0073D
:1042E0001E5E082A06A2061E157A327C3C2E18CCC9
:1042F000044DB905413C11F0100AFF800F00781001
:104300000010031E7939811E2008000F8FF8100459
:10431000301EE2801E15C110061F03F820001E8308
:1043200010011E300403FFE01E15C132001E115D96
:104330006E00A5051C060407FFF07F760792031E9A
:1043400049192C040FE0083B06411E200FFC0038E1
:1043500000F02008200700300600101E82C01E60FA
:104360000507FC007C1E120C29140400000E922B81
:10437000002791111E22F81E10046000601E100418
:104380001800781E220C1E42EF1E15C152FC1E336F
:1043900020101E1574B300011E1A400210040020E4
:1043A000300B411E2303CF5A1680DF72011E32608C
:1043B0001E1218021A07EB258615C119AD1004400C
:1043C00000401E12C0FD211E40051000070F1E15E3
:1043D000C1111E500AC000400E0061C0039E1E7233
:1043E000061E62071E30054180071F5A1C0430005C
:1043F000040903211E437F801E1005C00E00435197
:10440000113C92101E2808FF8007FE006080749007
:104410000447000E1E3EF14808180F800FFE006191
:104420008020C01C00C6001C0F4B82301E15C1111D
:104430001E32411E3005CC0038071E1320101E42CC
:10444000F31E100B1FFF0FC18020801C00DC1E32EA
:10445000C01E12701E1D070925C11D3D081004C194
:1044600080211E1EB81D04111E8005200020F01E94
:10447000200636000FC1001E1C05F000E0034303B8
:104480003C05200061F09F0519FC3D570612017A9A
:104490002E189104211E6005000063D01E52FC1EE0
:1044A00025DB2F01C07F0315BF32801E4C04F800AE
:1044B0000F4408411E3303801E600401DE001E18F5
:1044C00009FFF001FF0713C0C3401F7FE721094C1C
:1044D00008F8E007C7D80FFF17063DEC075EDFFAC4
:1044E000074EFE6B092C05FF900FFF710662E01E60
:1044F00032EF1E1DF40323FFF9E8CC040FFE03CBBB
:1045000006EC0401E060CB060E1A8025070D1A4365
:10451000070E193F8E062DEA060E1EC0C00723CFD8
:10452000CE0213CECF04910842CF0D61123125A1E6
:10453000088118514082CE0A41208106810E8112E5
:1045400061029128513C81906192C142A1889110F1
:104550009155A1128168E17CA1927148C502B1E830
:10456000817A0111DCF1B4E124C53AB10261079509
:104570003A051230A10AE194E151854EB6CEBCE570
:10458000107192D5C4C912C578E106E900C93A098B
:10459000123CC5040A17CF3AA59A0510FEC590C96A
:1045A000BAF55DB5C005104EE13CC900E13CC190D3
:1045B0000613CE7CDD4A03051142B9960610CEC61D
:1045C000C50005147A25EA0D3EC00BA53E0C091660
:1045D000FFFF22232425FFFF000410052631303180
:1045E000030E162700040C0916262E333433342EFE
:1045F0002700040C0916282E353635362E290004DE
:104600000C09162A2E373837382E2B000410052CAB
:104610002E322E030E142D00042005FF262E2020FE
:104620000C0512212E27FF00044004FF2831C00C86
:1046300004123129FF000443FF2A400C05122E2EDC
:104640002BFF00043004FF2E20800C0512393A3B6A
:10465000FF000443FF32400C05123C3D3EFF0004C6
:1046600043FF32400C05123F4041FF000461400C03
:104670000512424344FF000443FF32C00C051245BB
:104680004647FF000461400C051248494AFF0004F8
:1046900061800C05124B4C4DFF000461400C05126B
:1046A0004E4F1FFF000461E00C05122E2E2EFF005E
:1046B0000461E03221200D100004614021200D1220
:1046C0000004B004FF2E2E40ED000415E049004523
:1046D000E0FD000467FF26E00F1227FF00044804F6
:1046E000FFFF2C207A2DE2DD0004422AC00E162B9B
:1046F00000044A28200E162900044A26A00E162778
:10470000000433FF19010E4DFF00045D37103C0417
:10471000C0FFFFBB0B00051ACCFFFF3308CD6710AD
:104720000D8A000819E40C041A5051FF00080C050A
:104730001656818757000815E2B41160818787807B
:1047400054555253575051505255516ACC15CECFF3
:10475000515688898F8C8780878988898087888946
:1047600087570008100D5E87891D808B87818088A0
:10477000888E08AC0680878157FFB2078C15608051
:10478000808D8B8F80888F8989818B8F8F8C80889B
:10479000806300041009CFCE6188808B8F1D20A814
:1047A0000C1D87808B8C8F1D8F898762A813FF5EFD
:1047B0001F10048F8F890410078C8D8E1D8F8D40E4
:1047C0008D000411202006568180891D3A313EBC9F
:1047D000061D888E8962420330065E8087808D3A8E
:1047E000113E115FBC04815FFF34081007CE585E94
:1047F000878181C6213EEC058F895F592A0713FF07
:1048000061DC200489808D3EBC058D8862FFFC063A
:104810003D3A081142080A108F1D89898F881D5F53
:1048200059802142A00B5A5B5C5D5F59585E62FF64
:104830007A0D120008FECE3E070D1410090D8E00F1
:10484000080E1DCF0008B1120D8800081C06A8A292
:10485000A0A0205E1122AA011110128A082E2A1986
:104860000F0C04380A0A0A21083E3BA2109C040FD0
:104870000110C10C1F4201B1112D18111E059B1111
:104880001E07010F1C0609000A000BF3101E0D493C
:104890000F1E0F3F0E1C08D1D2D3FFD1DEDFC70F92
:1048A0001014EDEED3FFF8F9F9E0D4D5D6FFE1E22C
:1048B000E3E4FFEFF00A1006FAFBFCE4D708502B04
:1048C000E5E6E7E4FFF1F2D9F3FFFDFEC0C1D8D978
:1048D000DAFFE8E9EAEBFFF4F5F6F7FFC2C3C4D06C
:1048E000DBDCDDFFDBDCDCECFFFF0A5017DD17FF54
:1048F00002000203FF15FF16FF1810FF12FF13FF3F
:1049000014FF11084C3D20401230401340401B5012
:10491000401CBC4000C44000CC4000D440002050AB
:104920001230501340501D50501E60501FC8500090
:10493000D05000D850256EA0127EA0138EA0149ED9
:08494000A0154815000000005D
:040000050000006592
:00000001FF
