:020000040000FA
:10000000A02800207D000000890000009100000071
:1000100099000000A1000000A900000000000000FD
:10002000000000000000000000000000B10000001F
:10003000B900000000000000C1000000C90000007D
:10004000D9000000D1000000E1000000E90000003C
:10005000F1000000F90000000101000009010000AA
:1000600011010000190100000348854600F0DEF987
:100070000048004771200000A02800202848804642
:10008000C14680472748004700B500F05CFB00BD33
:1000900000B500F00FFA00BD00B500F053FB00BD45
:1000A00000B500F005FA00BD00B500F03FFD00BD51
:1000B00000B500F0D3FC00BD00B500F0FAF900BDBA
:1000C00000B500F01FFC00BD00B500F0DBFC00BD7A
:1000D00000B500F0F5FC00BD00B500F009FD00BD65
:1000E00000B500F0ECFC00BD07B500F0EBF907BD72
:1000F00007B500F0ECF907BD07B500F0EDF907BD55
:1001000007B500F0EEF907BD07B500F0D7FC07BD55
:1001100007B504F059FE07BD07B501F05FF807BD4C
:10012000A10A00006900000030B50B46014600201E
:100130002022012409E00D46D5409D4205D31D46ED
:100140009540491B2546954040191546521E002DE5
:10015000F1DC30BD70B500242546002801DA012409
:100160004042002901DA01254942FFF7DDFFAC4298
:1001700000D04042002C00D0494270BD0549064ADB
:1001800008685043054A80180860400870470149D4
:10019000086070471C2100206D4EC64139300000B8
:1001A000F8B502464A40D40F42004B0052085B08A3
:1001B0009A4202D20246084611464A0023D0C30D95
:1001C0004A00DDB2120EAD1A202D35DA49020126A1
:1001D000490AF6058A19002C00D0524220214F1BF3
:1001E0001146B9402A411018C20D9A4221D0002C64
:1001F00017D0012D08DCDA05801AD20F8019D2073A
:10020000DBB200F0D9F8F8BDDA05801A012340000E
:100210001B06C01880185A428018CA0F10434900A4
:1002200007E04908C2071143DA05801A801940081F
:10023000801800F0B9F8F8BD61000122511A001BC6
:10024000F7E70122D2075140AAE70122D207504026
:10025000A6E7024670B54A40D30FDB0740002DD019
:100260004A002AD0010E140E000212020919400A97
:10027000520A8418E50104465443000A120A2E0467
:100280005043A4194219200CC543AA18120C012589
:10029000AD03521C521912047F39240400D0521CA1
:1002A000104301D44000491EC2B20C06C0092018F8
:1002B000401C4008802A02D003E0002070BD4008A6
:1002C0004000002900DA0020184370BD70B50246D6
:1002D0004A40D50F40004A00ED0740085208002868
:1002E00014D0002A12D0C40DD30D41020120C00544
:1002F0005202490A520AE41A091812187D3491422E
:1003000001D3641C00E04900002C01DA002070BD1C
:100310000023914201D3891A034340084900002871
:10032000F7D100290AD0914202D10121C90705E085
:10033000914201D2012101E00121C943E005C01829
:10034000401900F031F870BDC217C10F504010B510
:100350004018CA079623002100F02EF810BD10B5F2
:1003600000229623114600F027F810BD41004002FC
:100370000122400AD205090E80187F2901DA0020E7
:100380007047962903DC9622511AC8407047963967
:10039000884070470122D207002800DB101A00298C
:1003A00000DB511A88427047002904DA401C4900DA
:1003B00001D140084000704770B40024050C05D1FD
:1003C0001024000402D1002921D01124050E01D1EE
:1003D00000020834050F01D10001241D850F01D151
:1003E0008000A41C002801DB4000641C002908D008
:1003F00020252E1B0D46F540A14000D001212943A8
:10040000084301061B1B000ADB1D02D5002070BC3F
:100410007047DB05181880180029F8DA401C4900DD
:10042000F5D170BC4008400070470000064C012523
:10043000064E05E0E36807CC2B430C3C984710348C
:10044000B442F7D3FFF714FEDC540000FC54000064
:1004500070B58D180478401CA207920F01D1027864
:10046000401C231106D10378401C03E006780E706F
:10047000401C491C521EF9D1002B15D002780C26C5
:100480008A1A3440401C0C2C03D0A401121B9B1C64
:1004900008E004782402121B401CF8E714780C7062
:1004A000491C521C5B1EF9D5A942D3D3002070BD54
:1004B000704770477047000001484069C0B27047FC
:1004C0000040004010B5002000F01CF910BD10B530
:1004D000012000F017F910BD10B5022000F012F94C
:1004E00010BD10B5032000F00DF910BD30B5034666
:1004F0000C4615461349488900F0F2F8181200F02E
:10050000DCF8D8B200F0D9F80E49888900F0E8F894
:10051000201200F0D2F8E0B200F0CFF80020052160
:100520000907486008600749088900F007F90020BA
:10053000052109078860012088600860284600F0CE
:10054000BCF830BD88240020FFB585B00E461746A4
:10055000102402962046E217520F1218D210E31709
:100560005B0F1B18DB10DB000094E31A01D00123A2
:1005700000E00023D2182146E30F5B185B105A43BA
:10058000D2B2019238462038C7B2002556E00C2C72
:1005900005D138012C494018405D049011E0102C21
:1005A00005D1380128494018405D049009E0182C15
:1005B00005D1380124494018405D049001E009B09C
:1005C000F0BD0020039033E080210498084000280B
:1005D00006D01E48028831460598FFF787FF08E0DD
:1005E0000898002805D11A48028831460598FFF777
:1005F0007DFF04984006000E0490701C86B21548DA
:100600004088B04200DCDAE70298301AA0420BD1F1
:10061000029E0598401C80B205900E4801880598FE
:10062000814200DCCBE706E00398401CC0B2039097
:1006300003980828C8DB00BF681CC5B20198854232
:10064000A5DB00BFBBE70000974E0000380000208C
:100650003A00002088240020FFB581B004460D46F2
:100660000A9E1027E0B200900398001980B2039010
:100670000498401980B2049016E00398844202DB8B
:10068000009CE81985B20498854200DB12E03278BC
:10069000002329462046FFF757FF3846F90F09186F
:1006A000491009198CB2761C30787E2802DC30782B
:1006B0002028E2DA00BF05B0F0BD00B502460120F7
:1006C00005210907486000200860104600F036F850
:1006D000002005210907886001208860086000BDAE
:1006E00000B5024600200521090748600860104651
:1006F00000F024F8002005210907886001208860A7
:10070000086000BD30B502460020002100230A4CDD
:10071000216801249440204604460C402346002BC7
:1007200004D10C460443044D2C6003E00C46844382
:10073000014D2C6030BD000000100040052109076C
:100740008861704770477047C206D20E0121914000
:10075000014A11607047000000E100E0002004E061
:100760000021034A1154411CC8B20928F8DB704724
:100770009624002038B504460121009100201C4930
:100780004870012100912AE0684600882040002836
:1007900003D001201749886002E0002015498860D5
:1007A000012014494860052000F07EFD0020114919
:1007B0004860052000F078FD01200E49486003F0F4
:1007C000A7F8002806D00A484078694609880843F7
:1007D00007494870684600884004010C009168464B
:1007E0000088FF28D0DD102000F05EFD38BD00003D
:1007F000962400200050004010B5FFF7AFFF00F036
:100800002DF80F48007900020D49C97808430D49B9
:10081000088000240FE060000B49095C491E01209C
:100820008840084909880840002802D1601CC0B2ED
:1008300010BD601CC4B2102CEDDB0020F8E70000F6
:100840009624002044000020480000200020024997
:100850000860486088607047005000401CB5002167
:100860000191012100910020234908602349087863
:10087000FFF780FF21494878FFF77CFF02210191B3
:1008800031E00120009022E001201B494860052052
:1008900000F00AFD002018494860052000F004FD22
:1008A00001201549486003F033F800280AD01449A4
:1008B00068460079095C684600880143104A68462A
:1008C00000791154684600884004010C0091684684
:1008D0000088FF28D8DD102000F0E6FC684600798B
:1008E000401CC1B20191684600790928C9DB01208A
:1008F000014908601CBD0000005000404600002077
:10090000962400207047000000B5002004490860CC
:10091000062000F075F801200149086000BD0000C4
:100920000040004010B504462404FFF7EDFF00F03E
:100930002DF800200A490860D82000F061F8210253
:10094000080E00F05DF82104080E00F059F8E0B23E
:1009500000F056F801200249086000F017F810BDB9
:100960000040004010B50024002007490860052021
:1009700000F046F8FF2000F043F804460120024949
:100980000860204610BD00000040004000B500BFD8
:10099000FFF7E8FFC007C00F0028F9D100BD000035
:1009A000F0B506460C461746FFF7AEFF00200F498C
:1009B0000860022000F024F82102080E00F020F860
:1009C0002104080E00F01CF8E0B200F019F8002530
:1009D00004E0705D00F014F8681C85B2BD42F8DBDD
:1009E000012002490860FFF7D1FFF0BD0040004040
:1009F000024948600121014A1160704700400040EF
:100A000010B50446002305E0581CC3B2C82B01DD15
:100A1000002010BDFFF750FD0028F5D0204600F063
:100A200013F8002305E0581CC3B2C82B01DD0020D9
:100A3000EFE7FFF741FD0028F5D002480069C0B29A
:100A4000E7E7000000400040034988600121024AB6
:100A5000D1600021D1607047004000407047000025
:100A6000014908617047000000E000E00149486169
:100A70007047000000E000E0014988617047000015
:100A800000E000E010B50020FFF7EAFF03484068EF
:100A90000121490608430149486010BD00ED00E00E
:100AA00010B50120FFF750FE0020FFF74DFE082093
:100AB000FFF74AFE0920FFF747FE10BD7047704759
:100AC00010B50120800704F0DDF80120FFF71AFEC1
:100AD00001A000F02DF810BD756172745F7278206E
:100AE000696E74206F636375722121210A00000012
:100AF00008B50120800704F0C8F80220FFF702FEC5
:100B000004A0FF234133F022002100900846FFF7A4
:100B1000A3FD08BD5541525454585F4952516E20AF
:100B20004F434355524544212121000070470000A6
:100B300010B5024A024900F022F810BDF915000074
:100B40003C00002030B47446641E2578641CAB421F
:100B500004D3635D5B00E31830BC18471D46F8E71B
:100B600002E008C8121F08C1002AFAD17047704776
:100B7000002001E001C1121F002AFBD17047F8B527
:100B800016460F460446002503E03946B047641C6C
:100B90006D1C20780028F8D12846F8BDF8B5054628
:100BA0000E4600241BE11A206043285C00287DD0FB
:100BB00020201A2363435B190090DB88DAB21A23E2
:100BC00063435B199B88D9B23078C02304F04EF997
:100BD00020201A2363435B190090DB88DB1DDAB207
:100BE0001A2363435B199B88D9B233785B1CD8B254
:100BF000C12304F03BF920201A2363435B190090C2
:100C0000DB880E33DAB21A2363435B199B88D9B2AF
:100C100033789B1CD8B2C22304F028F920201A2371
:100C200063435B190090DB881533DAB21A23634300
:100C30005B199B88D9B23378DB1CD8B2C32304F08C
:100C400015F920201A2363435B190090DB881C33BD
:100C5000DAB21A2363435B199B881B1FD9B233781E
:100C60001B1DD8B2C42304F001F920201A236343CA
:100C70005B190090DB881C33DAB21A2363435B19DB
:100C80009B881B1DD9B233785B1DD8B2C52304F0F5
:100C9000EDF860201A2363435B190090DB885B1D2D
:100CA000DAB21A2363435B199B8800E096E0DB1FEE
:100CB000D9B233789B1DD8B2C62304F0D7F82020D0
:100CC0001A2363435B190090DB885B1DDAB21A2399
:100CD00063435B199B88DB1DD9B23378DB1DD8B227
:100CE000C62304F0C3F820201A2363435B19009045
:100CF000DB880C33DAB21A2363435B199B88DB1F52
:100D0000D9B233780833D8B2C92304F0AFF8202021
:100D10001A2363435B190090DB880C33DAB21A2381
:100D200063435B199B88DB1DD9B233780933D8B292
:100D3000CA2304F09BF820201A2363435B19009018
:100D4000DB880A33DAB21A2363435B199B880E3BB4
:100D5000D9B233780A33D8B2C82304F087F86020B8
:100D60001A2363435B190090DB880A33DAB21A2333
:100D700063435B199B880E33D9B233780B33D8B2F7
:100D8000C82304F073F820201A2363435B190090F2
:100D9000DB880A33DAB21A2363435B199B88153B5D
:100DA000D9B233780C33D8B2C72304F05FF860208F
:100DB0001A2363435B190090DB880A33DAB21A23E3
:100DC00063435B199B881533D9B233780D33D8B29E
:100DD000C72304F04BF830780E303070641C0348A1
:100DE0000078844200DADEE6F8BD0000944E000090
:100DF00070B504460025AAE11A206843205C00284B
:100E00002FD01A2068430019807802287ED1002153
:100E10001A206843001981701A2068430019007A6B
:100E200000282ED11A20684300190621415E1A209D
:100E3000684300191022825E914213DC00211A20BF
:100E40006843001981721A20684300194172012118
:100E50001A20684300190172C04A2146C04803F0B5
:100E6000C5F973E11A2068430019C1881A20684344
:100E700000198089081801B21A2068430019C1803E
:100E800064E11A2068430019007A01287ED11A20F3
:100E900068430019407A00285AD11A206843001983
:100EA0008088801E01B21A20684300198180FFF7F4
:100EB00065F906460321FFF74DF9491E1A206843DC
:100EC0000019C088081801B21A2068430019C180AF
:100ED0001A20684300190421415E1A206843001952
:100EE0001222825E914209DA01211A206843001918
:100EF00041729A4A21469A4803F078F91A206843C9
:100F000000190421415E64290EDA00E014E11A2080
:100F1000684300190421415E612905DD8F4A21469D
:100F20008F4803F063F911E11A2068430019042186
:100F3000415E782995DA1A20684300190421415E40
:100F400075298EDD854A2146854803F04FF9FDE07D
:100F50001A2068430019407A01282CD11A206843CE
:100F600000198088801C01B21A2068430019818012
:100F70001A2068430019C088801E01B21A206843F5
:100F80000019C1801A206843001900E0B8E004216C
:100F9000415E1A20684300191422825E9142C2DD2C
:100FA00002211A206843001941726C4A21466C489C
:100FB00003F01CF9CAE01A2068430019407A02289D
:100FC0006DD11A20684300198088801C01B21A2054
:100FD000684300198180FFF7D1F806460321FFF727
:100FE000B9F8491E1A2068430019C088081801B2D0
:100FF0001A2068430019C1801A206843001904218F
:10100000415E1A20684300191822825E914209DD70
:1010100003211A20684300194172504A2146504862
:1010200003F0E4F81A20684300190421415E6E2998
:101030000CDA1A20684300190421415E6B2905DD92
:10104000464A2146464803F0D1F87FE01A2068431B
:1010500000190421415E802978DA1A2068430019BA
:101060000421415E7D2971DD3C4A21463C4803F064
:10107000BDF81A2068430019807A401CC1B21A20BA
:101080006843001981721A2068430019807A042885
:101090005CD102211A2068430019017256E01A201F
:1010A00068430019407A032850D11A206843001978
:1010B0008088801E01B21A206843001981801A209E
:1010C00068430019C088801C01B21A2068430019C7
:1010D000C1801A20684300190421415E1A20684328
:1010E00000191622825E914230DA1C4A21461C48C1
:1010F00003F07CF800211A2068430019417225E0B2
:101100001A2068430019007A02281FD11A20684368
:101110000019C088801E01B21A2068430019C180DE
:101120001A20684300190621415E0A290EDA0021BF
:101130001A206843215409E01A2068430019807876
:10114000401CC1B21A206843001981706D1C05480B
:101150000078854200DA4FE670BD000020210020B3
:1011600094220020944E0000014600201AE0002343
:101170001A224243521893801A2242435218D380B3
:101180001A2242438B5405231A22424352185370A9
:1011900000231A224243521893701A2242435218D3
:1011A0001372401C024A12789042E0DB7047000044
:1011B000944E000030B500240CE0002506E0FF222C
:1011C0002146284603F04AFE681CC5B2202DF6DBF6
:1011D000601CC4B21E2CF0DB30BD00007FB5FEF7F2
:1011E000CDFF0446C821FEF7B5FF0F3109B26846AE
:1011F0008180FEF7C3FF0446C00F00194010400075
:10120000201AC1B26846417214480223C35E00220C
:10121000825E6946124803F08DF8124800680A2879
:1012200015D100200F4908600320FFF76BFAFEF785
:10123000A5FF0446C00F001940104000201A642189
:10124000484345182946084800F020FD04E00548B9
:101250000068401C034908607FBD00002021002079
:10126000A2210020340000204A22002000B50246BE
:101270000020FFF7F5FB1046FFF7F8FB0020FFF713
:10128000FBFB0720FFF7ECFB30BF00BD10B50346AA
:101290001C4603E00348FFF7E9FF641E002CF9D168
:1012A00010BD000050C3000010B503461C4603E00B
:1012B0003220FFF7DBFF641E002CF9D110BD0000C7
:1012C000F0B589B005460C4616461F460A21304641
:1012D000FEF72AFF08910A213046FEF725FF0A2172
:1012E0000390FEF721FF079164213046FEF71CFFB3
:1012F0000A210390FEF718FF06917D21C9003046B0
:10130000FEF712FF0A210390FEF70EFF0591274911
:101310000598887306984874079808750898C875E2
:1013200023493846FEF795FF0390FFF71FF8C0B238
:1013300004900A210498FEF70DFFC8B208900A2114
:101340000498FEF707FF0A210390FEF703FFC8B2D7
:1013500007901649273107988870C91C089888702B
:101360002878012820D1207814281DDA0020009048
:101370002078410040180D494018837820784100BA
:1013800040180A494018427820784100401807491F
:10139000085C039020780290039903F067FD2078A1
:1013A000401C20700020287009B0F0BDDE00002035
:1013B0000000C842FFB506460F461546002004E06F
:1013C000002283000999CA50401C1E28F8DB002423
:1013D00028E02001305C002823D022019219D28815
:1013E000D1B2220192199288D0B2099A03F03EFC40
:1013F00022019219D288D1B2220192199288083220
:10140000D0B2099A03F032FC22019219D288083A2C
:10141000D1B2220192199288121DD0B2099A03F01A
:1014200025FC641C554800788442D2DB00242FE060
:101430001E206043385C002829D01E226243D21946
:101440009288D1B21E226243D2195288D0B2099A30
:1014500003F00CFC1E226243D2199288D1B21E22E4
:101460006243D21952880832D0B2099A03F0FEFBC7
:101470001E226243D2199288083AD1B21E226243D8
:10148000D2195288121DD0B2099A03F0EFFB641CE6
:101490003B4800788442CBDB00244FE01A206043B5
:1014A000285C002849D01A2262435219D2880E3291
:1014B000D1B21A22624352199288D0B2099A03F02B
:1014C000D5FB1A2262435219D2880C32D1B21A22A9
:1014D000624352199288D21FD0B2099A03F0C6FB18
:1014E0001A2262435219D2880C32D1B21A226243B4
:1014F00052199288D21DD0B2099A03F0B7FB1A2272
:1015000062435219D2880A32D1B21A226243521966
:1015100092880E3AD0B2099A03F0A8FB1A226243CD
:101520005219D2880A32D1B21A22624352199288D1
:101530000E32D0B2099A03F099FB641C114800786E
:101540008442ABDB002414E00A2060430399401876
:10155000007900280CD00A226243039BD2185288DB
:10156000D1B20A2262439A5AD0B2099A03F07EFBA2
:10157000641C054800788442E6DBFFBD914E000004
:10158000924E0000944E0000954E0000F8B50546BE
:101590000E46002418E00A20604340190079002814
:1015A00011D010200A2363435B1900905B88DAB2E4
:1015B0000A236343EB5AD9B23078302303F056FC48
:1015C0003078401C3070641C024800788442E2DBB2
:1015D000F8BD0000954E00000146002005E0002304
:1015E0000A22424352181371401C024A1278904258
:1015F000F5DB7047954E000070B504460D460A2C89
:1016000003D10D21400703F043FBE1B20120800725
:1016100003F03EFB204670BDF8B506465025002479
:101620003078002802D0012804D101E0802403E0B2
:10163000902401E0802400BF00BFA020E2B2E9B204
:1016400040230090002003F011FCA020E2B20090A3
:1016500028460830C1B24123012003F007FCA02036
:10166000009020460830C2B2281DC1B24223022099
:1016700003F0FCFBF8BDF0B585B005460E461746F5
:101680001C460A213846FEF74FFD04910A213846D0
:10169000FEF74AFD0A210090FEF746FD0391642102
:1016A0003846FEF741FD0A210090FEF73DFD02910C
:1016B0007D21C9003846FEF737FD0A210090FEF76C
:1016C00033FD019130200090207832462946019B5D
:1016D00003F0CCFB30202A460832D1B200902278A9
:1016E000521CD0B23246029B03F0C0FB30202A4687
:1016F0001032D1B200902278921CD0B23246039BB5
:1017000003F0B4FB30202A461832D1B20090227880
:10171000D21CD0B23246049B03F0A8FB2078001DF7
:10172000207005B0F0BD0000F3B587B0079F0898A2
:101730000690002520E000261AE0BD4216DB384660
:101740001230854212DA069886420FDB0698401D59
:1017500086420BDA0698301A12214843474940184E
:10176000E91B425C3146284603F078FB701CC6B288
:101770001E2EE2DB681CC5B2202DDCDBB81DC4B216
:1017800006980830C0B20590002517E0002611E049
:10179000A5420DDB20460830854209DA05988642CD
:1017A00006D1281B36490A5C3146284603F056FB11
:1017B000701CC6B21E2EEBDB681CC5B2202DE5DB0B
:1017C00004940598801CC0B20390002519E00026FF
:1017D00013E0049885420EDB0498083085420ADA4B
:1017E0000398864207D10498281A26490A5C314694
:1017F000284603F033FB701CC6B21E2EE9DB681CC2
:10180000C5B2202DE3DB201FC0B20290059808303E
:10181000C0B20190002519E0002613E0029885422D
:101820000EDB02980C3085420ADA0198864207D115
:101830000298281A14490A5C3146284603F00EFB28
:10184000701CC6B21E2EE9DB681CC5B2202DE3DB7E
:1018500000250EE0002609E0680180190B4B1A5C98
:10186000A9B2B0B2009003F0F9FA761C202EF3DB97
:101870006D1C202DEEDB09B0F0BD000068000020DB
:10188000CE000020D6000020C20000201A01002057
:10189000F7B582B005460E46002474E01A20604376
:1018A000285C00286ED01A206043401980884005CB
:1018B000070E1A2060434019C0884005000E0190B1
:1018C0000198801C800030580121B94008400199DE
:1018D000891C890071587A1E0123934019400843DE
:1018E0000199891C890071587A1C01239340194081
:1018F00008430199891C89007158BA1E012393403D
:10190000194008430199891C89007158BA1C0123A8
:1019100093401940084300900098002831D01A20C5
:10192000604340194078401EC1B21A2060434019FC
:1019300041701A2262435219D288143211B21A220B
:10194000624352199288083A10B2049A01F08AFF51
:101950001A20604340194078002812D100211A2033
:1019600060432954FD211A20604340198180EF21F2
:101970001A2060434019C18006480068C8300549F4
:10198000086000BF641C04480078844286DB05B010
:10199000F0BD000008000020944E0000F7B582B0B2
:1019A00005460E46002458E00C206043285C0028C1
:1019B00052D00C206043401980884005070E0C204F
:1019C00060434019C0884005000E01900198401CFA
:1019D000800030580121B94008400199491C890014
:1019E00071587A1C012393401940084300900098D5
:1019F000002830D00C20604340194078401EC1B20E
:101A00000C206043401941700C2262435219D28865
:101A1000083211B20C22624352190420105E049A5B
:101A200001F020FF0C20604340194078002812D1BB
:101A300000210C2060432954FD210C2060434019F3
:101A40008180EF210C2060434019C1800648006866
:101A5000C8300549086000BF641C0448007884420F
:101A6000A2DB05B0F0BD000008000020934E00008E
:101A7000F0B5024600202DE00A2343439B181B7952
:101A8000002B26D00A254543555B6D052C0E0A25F3
:101A90004543AD186D886D052B0E9D004D590126EF
:101AA000A64035402F46002F12D000250A26464377
:101AB000B6183571FD250A2646439553EF250A26AB
:101AC0004643B6187580064D2D686D1C044E356072
:101AD00000BF401C034B1B789842CDDBF0BD0000DB
:101AE00010000020904E0000FFB583B005460E4662
:101AF000174600244CE02001285C002847D0200134
:101B0000401980884005000E029020014019C088CD
:101B10004005000E0190019880003958012202987A
:101B2000824008461040019989007A580299491C60
:101B300001238B401A4010430199491E89007A58AD
:101B40000299491C01238B401A40104300900098D1
:101B500000281BD0200140190621415E20014019B8
:101B60000423C35E1846069A01F07CFE0020210182
:101B70006854FD20210149198880EF20210149196D
:101B8000C880344800680A303249086000BF641CCD
:101B9000314800788442AEDB002454E01E206043CC
:101BA000305C00284ED01E206043801940884005DC
:101BB000000E02901E206043801980884005000EB0
:101BC000019001988000395801220298824008460D
:101BD0001040019989007A580299491C01238B40D1
:101BE0001A4010430199491E89007A580299491CEC
:101BF00001238B401A40104300900098002820D009
:101C00001E20604380190421415E1E20604380191C
:101C10000223C35E1846069A01F024FE00211E200E
:101C200060433154FD211E20604380194180EF2123
:101C30001E20604380198180064800680A300549EB
:101C4000086000BF641C054800788442A6DB07B02A
:101C5000F0BD000008000020914E0000924E0000F0
:101C600070B500240DE0002508E063015B19064E05
:101C7000F25CA1B2A8B203F0F1F86D1C202DF4DBE8
:101C8000641C202CEFDB70BD1A090020F8B5054656
:101C90000F4600243CE00C206043285C002836D12D
:101CA00001210C206043295414210C206043401969
:101CB000417000210C206043401981700C2060436A
:101CC00040198780E1210C2060434019C180012127
:101CD0000C20604340190172FEF750FA0646C00F0F
:101CE000801940104000301AC1B20C2060434019E6
:101CF0004172FEF743FA0646C00F801940104000BB
:101D0000301AC1B20C2060434019817204E0641C97
:101D1000024800788442BEDB00BFF8BD934E00004D
:101D2000F8B505460F46002413E10C206043285CFB
:101D300000287DD00C2060434019807A002801D112
:101D4000002600E020260C2060434019407A00283D
:101D500002D001286DD19AE00C2363435B190096F1
:101D6000DB88DAB20C2363435B199B88D9B23878DD
:101D7000902303F07BF80C2363435B190096DB8808
:101D8000DAB20C2363435B199B880833D9B23B78E2
:101D90005B1CD8B2912303F069F80C2363435B19F1
:101DA0000096DB88DB1DDAB20C2363435B199B884A
:101DB000D9B23B789B1CD8B2922303F057F80C237E
:101DC00063435B190096DB88DB1DDAB20C236343A7
:101DD0005B199B880833D9B23B78DB1CD8B29323BC
:101DE00003F044F80C2363435B190096DB880E3341
:101DF000DAB20C2363435B199B88D9B23B781B1D75
:101E0000D8B2942303F032F80C2363435B19009695
:101E1000DB880E33DAB20C2363435B199B880833EB
:101E2000D9B23B785B1DD8B2952303F01FF801E0CF
:101E30008EE08AE00C2363435B190096DB881B1D50
:101E4000DAB20C2363435B199B88083BD9B23B7819
:101E50009B1DD8B2962303F009F830464021084371
:101E60000C2363435B190090DB881B1DDAB20C2343
:101E700063435B199B881033D9B23B78DB1DD8B222
:101E8000962302F0F3FF3878083038705EE00C23B8
:101E900063435B190096DB88DAB20C2363435B195A
:101EA0009B88D9B23878B32302F0E0FF0C23634358
:101EB0005B190096DB88DB1FDAB20C2363435B19E6
:101EC0009B88D9B23B785B1CD8B2B12302F0CEFF1D
:101ED0000C2363435B190096DB88DB1DDAB20C230D
:101EE00063435B199B88D9B23B789B1CD8B2B5235E
:101EF00002F0BCFF0C2363435B190096DB88DAB267
:101F00000C2363435B199B88083BD9B23B78DB1CED
:101F1000D8B2B22302F0AAFF3046402108430C2376
:101F200063435B190090DB88DAB20C2363435B19CF
:101F30009B880833D9B23B781B1DD8B2B22302F07C
:101F400095FF3878401D387000E000BF00BF00BF2B
:101F5000641C03480078844200DAE6E6F8BD00001D
:101F6000934E000010B5014600204CE00C22424385
:101F70008A5C002A46D00C22424352189278022AE8
:101F800036D100230C224243521893700C22424354
:101F900052180423D35E052B15DB0C224243521842
:101FA0000423D35EFB2B0EDC0C2242435318062283
:101FB0009A5E08320A2A06DB0C2242435218062394
:101FC000D35EE62B04DD00230C2242438B5419E040
:101FD0000C2242435218D3880C2242435218082440
:101FE00014571A1B13B20C2242435218D38009E033
:101FF0000C22424352189278521CD3B20C22424314
:1020000052189370401C024A12789042AEDB10BD09
:10201000934E00000146002022E000230C224243A0
:10202000521893800C2242435218D3800C22424310
:10203000521813720C2242438B5405230C22424344
:102040005218537000230C224243521893700C22F2
:102050004243521853720C22424352189372401C4E
:10206000024A12789042D8DB70470000934E00007D
:102070001FB5002000900190029001231A46FF2115
:10208000B3310390480702F00EFEFEF7DFFB642039
:10209000FEF7AEFC0020FEF745FC01200003FEF732
:1020A00041FC01204003FEF73DFC03200003FEF746
:1020B00039FC01208003FEF735FC05200003FEF704
:1020C00031FC03204003FEF72DFC07200003FEF740
:1020D00029FCFE48006800F0ABFBFD48006800F0FA
:1020E000DBFC79E3FB480078012823D10020F94983
:1020F0000870F948007800281DD1002409E000206C
:10210000FF23E622FB210090204602F0AFFE601C78
:10211000C4B2402CF3DBFFF74DF80020EF49087004
:1021200008210720FFF700FBEC48FFF775FA0020B5
:10213000EB4908706DE0E8480078012849D100209B
:10214000E8490870E8490870E8490870E8490870EB
:10215000E8490860E8490860E8490860E84908700B
:10216000E8490860E84801F064F9E84801F096F9A8
:10217000E74802F057FDE74802F01CF8E648FFF791
:1021800049FFE648FEF7F0FFE548FFF725FAE54886
:1021900001F058FB002409E00020FF23E622FB2188
:1021A0000090204602F062FE601CC4B2402CF3DBBB
:1021B000FFF700F8FFF754FD0320DB494860C848EB
:1021C0000078800388600820C860012008600862E9
:1021D0001FE0C148007802281BD10020D2490860C6
:1021E000002409E00020FF23E622FB210090204686
:1021F00002F03CFE601CC4B2402CF3DBFEF7DAFFB9
:102200000020CA490870CA490870CA490870CA49FA
:102210000870B148007800283AD1AE48007800280C
:1022200036D1FEF7E9FAC549086008460068052876
:102230000CD1AA480078002826DDA8480078401E66
:10224000A64908700846FFF7E7F91DE0BB4800689B
:1022500007280CD1A1480078012815DA9F4800789A
:10226000401C9E4908700846FFF7D6F90CE0B348B9
:1022700000680D2808D199480078002804D1012071
:1022800094490870944908709620FEF7FFFFA3E276
:1022900091480078012874D18E4800780028FAD13E
:1022A0009348007800286DD1FEF7A6FAA34908608C
:1022B0008C480078401C8B4908700846007810282C
:1022C0002BDB002008709E48007910210840002870
:1022D00008D18D48C07900281FD18C498A4801F067
:1022E000EDF81AE0954800680E2803D101207E49D8
:1022F000087012E09148006810280ED17B480078E1
:10230000002805D101208849C8617849087004E097
:1023100000208549C861754908700321714800781B
:10232000FDF718FF01293CD18448006808280AD12C
:1023300075480021415E192933DD0088401F00B235
:10234000714908802DE07D48006806280AD16E4852
:102350000021415EE72924DA0088401D00B26A4965
:1023600008801EE07548006805280CD166480221E7
:10237000415E1E2915DD4088401F00B26249488039
:102380000FE0F2E173E06D480068072809D15E486C
:102390000221415ED22904DA4088401D00B25A4928
:1023A00048805248007801281CD04F49564800F018
:1023B000E7FC564801F05AF9594A5349544802F08B
:1023C0003FFA574A5049534801F01EFC5248FFF764
:1023D000C9FD5248FEF70CFD514802F091FC5148EE
:1023E00001F064FA5048006908280ED14E4840694F
:1023F00078280AD8002005E00021C9438200514B0B
:102400009950401C1E28F7DB03E04E493F4800F07E
:102410008FFC4D48424B414A3E4900903C48FEF7F4
:10242000C9FF404B474A3B493948FFF75DFB3D4AEE
:1024300044493948FFF7B2FA3A4A42493748FFF768
:1024400027FA41493148FFF713FB2F48007900284C
:1024500009D12B480078F02805DB01201D490870C0
:1024600002201D490870012021490870B4E120486C
:10247000007802286AD100202D4908701B48007896
:1024800001281BD1202003466E22114600902848C7
:10249000007802F0EBFC26480078401C24490870C4
:1024A000202021236E227E2100902148007802F016
:1024B000DDFC1F480078401C1D4908701C4B0D486E
:1024C0000A2102680320FFF7D6F840E02C00002024
:1024D000280000202600002020000020040000200A
:1024E0003000002000000020010000200200002039
:1024F00027000020080000200C0000201000002011
:102500002100002014000020202100202A2100208A
:10251000A2210020D22100204A2200207A2200207D
:102520009422002060240020000802502500002092
:102530000300002022000020240000201C000020B6
:102540009624002070230020E823002038E0A349CF
:10255000A34800F04FFCA149A24800F079FF9F4931
:10256000A14801F007F99D49A04801F085FF9B496A
:102570009F4801F0D3F999499E48FFF7D1FB97494D
:102580009D48FEF70BFB95499C48FEF7FFFF9348DB
:1025900004780FE00020FF23E622FB2100908F4803
:1025A000007802F063FC8D480078401C8B4908706D
:1025B000601CC4B2402CEDDB0020914908700BE197
:1025C0008F4800780328FAD18E480078401C8D4946
:1025D000087008460078022866D1002453E00020E5
:1025E0007E4908700B4688480A2102680320FFF7DD
:1025F00042F87A498348007801F060F877497848D2
:1026000000F0F8FB754805780FE00020FF23E62274
:10261000FB2100907148007802F028FC6F48007898
:10262000401C6E490870681CC5B2402DEDDBFF20D0
:102630002D30FEF72BFE0020684908700B467248CB
:102640000A2102680320FFF716F86449644800F085
:10265000D1FB624805780FE00020FF23E622FB2132
:1026600000905E48007802F001FC5C480078401C55
:102670005A490870681CC5B2402DEDDBFF202D3093
:10268000FEF704FE641C062CA9DB00205F490860ED
:102690005B49087001205E49087002205D4908709E
:1026A00000204F49087197E0002453E000204B4977
:1026B00008700B4654480A2102680320FEF7DBFF2E
:1026C00046495048007800F0F9FF4449444800F07A
:1026D00091FB424805780FE00020FF23E622FB2112
:1026E00000903E48007802F0C1FB3C480078401C56
:1026F0003A490870681CC5B2402DEDDBFF20F5306B
:10270000FEF7C4FD0020354908700B463E480A21FB
:1027100002680320FEF7AFFF3049314800F06AFB42
:102720002E4805780FE00020FF23E622FB210090D1
:102730002A48007802F09AFB28480078401C274974
:102740000870681CC5B2402DEDDBFF202D30FEF770
:102750009DFD641C062CA9DB00202949087001207E
:102760002B4908702B49087036E02A480078022867
:1027700032D12748007800282ED127480068FDF77D
:10278000EEFD044625480068FDF7E9FD05462146B3
:10279000FDF79CFD22490860084603681F4821494F
:1027A00002682148FEF78CFD1E480078142813DBD0
:1027B000FEF722F81D49086008460068102808D175
:1027C00000201449087001201149087000201549A3
:1027D00008706420FEF75AFD84E400000300002026
:1027E000202100202A21002060240020A221002096
:1027F000D22100204A2200207A22002094220020A8
:1028000027000020300000200800002000080250AF
:1028100026000020200000200C00002010000020D6
:102820001400002024000020250000201C000020AF
:1028300010B50446FF22013221468B48FEF7B0F85E
:10284000FF220132A1188948FEF7AAF8FF220132BF
:10285000E11DFF31FA318648FEF7A2F8FF2201326E
:102860000320000221188348FEF79AF8FF22013264
:10287000900021187C48FEF793F8FF2201320520D2
:10288000000221187948FEF78BF8FF22013203205D
:10289000400221187648FEF783F8FF220132072014
:1028A000000221187348FEF77BF8FF220132D000A6
:1028B00021186D48FEF774F8FF220132092000024A
:1028C00021186A48FEF76CF8FF2201320520400209
:1028D00021186748FEF764F8FF2201320B2000023E
:1028E00021186448FEF75CF8FF22013203208002C1
:1028F00021185D48FEF754F8FF2201320D20000236
:1029000021185A48FEF74CF8FF22013207204002F6
:1029100021185748FEF744F8FF2201320F20000229
:1029200021185448FEF73CF8FF220132100121180B
:102930005148FEF735F8FF2201321120000221181C
:102940004E48FEF72DF8FF220132092040022118DF
:102950004B48FEF725F8FF22013213200002211810
:102960004848FEF71DF8FF22013205208002211899
:102970003D48FEF715F8FF2201321520000221180C
:102980003A48FEF70DF8FF2201320B2040022118D1
:102990003748FEF705F8FF22013217200002211800
:1029A0003448FDF7FDFFFF2201320320C002211849
:1029B0003148FDF7F5FFFF220132192000022118EE
:1029C0002E48FDF7EDFFFF2201320D2040022118B5
:1029D0002B48FDF7E5FFFF2201321B2000022118E2
:1029E0002848FDF7DDFFFF22013207208002211871
:1029F0001D48FDF7D5FFFF2201321D2000022118DE
:102A00001A48FDF7CDFFFF2201320F2040022118A6
:102A10001748FDF7C5FFFF2201321F2000022118D1
:102A20001448FDF7BDFFFF2201325001211816485E
:102A3000FDF7B6FFFF2201322120000221181348C2
:102A4000FDF7AEFFFF22013211204002211810488D
:102A5000FDF7A6FFFF2201322320000221180D48B6
:102A6000FDF79EFF10BD00001A0500201A06002089
:102A70001A0700201A0800201A0D00201A0E002044
:102A80001A0F00201A1000201A0900201A0A00202C
:102A90001A0B00201A0C002010B50446FF22013248
:102AA00021468B48FDF77CFFFF220132A11889489F
:102AB000FDF776FFFF220132E11DFF31FA31864832
:102AC000FDF76EFFFF220132032000022118834828
:102AD000FDF766FFFF220132900021187C48FDF7C8
:102AE0005FFFFF2201320520000221187948FDF71F
:102AF00057FFFF2201320320400221187648FDF7DC
:102B00004FFFFF2201320720000221187348FDF712
:102B100047FFFF220132D00021187148FDF740FF26
:102B2000FF2201320920000221186E48FDF738FF0C
:102B3000FF2201320520400221186B48FDF730FFCB
:102B4000FF2201320B20000221186848FDF728FF00
:102B5000FF2201320320800221186548FDF720FF83
:102B6000FF2201320D20000221186248FDF718FFF4
:102B7000FF2201320720400221185F48FDF710FFB5
:102B8000FF2201320F20000221185C48FDF708FFE8
:102B9000FF220132100121185948FDF701FFFF22E1
:102BA00001321120000221185648FDF7F9FEFF22DC
:102BB00001320920400221185348FDF7F1FEFF229F
:102BC00001321320000221185048FDF7E9FEFF22D0
:102BD00001320520800221184948FDF7E1FEFF225D
:102BE00001321520000221184648FDF7D9FEFF22C8
:102BF00001320B20400221184348FDF7D1FEFF228D
:102C000001321720000221184048FDF7C9FEFF22BB
:102C100001320320C00221183D48FDF7C1FEFF220A
:102C200001321920000221183A48FDF7B9FEFF22AF
:102C300001320D20400221183748FDF7B1FEFF2276
:102C400001321B20000221183448FDF7A9FEFF22A3
:102C500001320720800221181D48FDF7A1FEFF2246
:102C600001321D20000221181A48FDF799FEFF22AB
:102C700001320F20400221181748FDF791FEFF2274
:102C800001321F20000221181448FDF789FEFF229F
:102C90000132500121182248FDF782FEFF22013245
:102CA0002120000221181F48FDF77AFEFF22013281
:102CB0001120400221181C48FDF772FEFF2201324C
:102CC0002320000221181948FDF76AFE10BD0000FC
:102CD0001A0500201A0600201A0700201A080020F2
:102CE0001A1100201A1200201A1300201A140020B2
:102CF0001A1500201A1600201A1700201A18002092
:102D00001A1900201A1A00201A1B00201A1C002071
:102D10001A1D00201A1E00201A1F00201A20002051
:102D20001A0900201A0A00201A0B00201A0C002091
:102D300070B505460E46002003E000218200B15028
:102D4000401C1E28F9DB002412E00A2060434019D1
:102D5000007900280BD00A22624352195288D1B25E
:102D60000A226243AA5AD0B2324601F07FFF641CA5
:102D7000024800788442E8DB70BD0000904E0000FD
:102D800070B504460D46E07900280DD12878012859
:102D90002FD1E07100202072012060720020287085
:102DA0000320FDF7AFFC24E0207A052802D0207A2A
:102DB0000A280BD1607A042804DC6088C01E00B2A7
:102DC000608003E06088C01C00B26080207A0A281E
:102DD0000CDB00202072607A072803DB0020E07102
:102DE000607206E0607A401C607202E0207A401C4B
:102DF000207270BD03B587B00898007806900798D8
:102E00000079002870D00798407A0300FDF79AFEF9
:102E100008056DD4FDFCFBFAF9F80520059030207B
:102E2000009007984088C0B2049007980088C0B20C
:102E300003900698C0B233230290049A039902F0DB
:102E400015F83020009007984088C0B20490079889
:102E500000880830C0B203900698401CC0B23423EA
:102E60000290049A039902F001F8702000900798EC
:102E70004088C0B20490079800881030C0B2039018
:102E80000698801CC0B233230290049A039901F083
:102E9000EDFF3020009007984088C01DC0B204901C
:102EA00007980088001DC0B203900698C01CC0B2ED
:102EB00035230290049A039901F0D8FF3020009046
:102EC00007984088C01DC0B20490079800880C3055
:102ED000C0B203900698001DC0B236230290049A37
:102EE000039901F0C3FF9AE2A1E20520059030208A
:102EF000009007984088C0B2049007980088C0B23C
:102F000003900698C0B237230290049A039901F007
:102F1000ADFF3020009007984088C0B20490079819
:102F200000880830C0B203900698401CC0B2382315
:102F30000290049A039901F099FF7020009007987D
:102F40004088C0B20490079800881030C0B2039047
:102F50000698801CC0B237230290049A039901F0AE
:102F600085FF3020009007984088C01DC0B20490B3
:102F700007980088001DC0B203900698C01CC0B21C
:102F800039230290049A039901F070FF30200090D9
:102F900007984088C01DC0B20490079800880C3084
:102FA000C0B203900698001DC0B239230290049A63
:102FB000039901F05BFF32E203200590302000907E
:102FC00007984088C0B2049007980088C0B2039068
:102FD0000698C0B23A230290049A039901F046FF82
:102FE0003020009007984088C0B20490079800886D
:102FF0000830C0B203900698401CC0B23B2305E0E5
:103000000CE2A4E166E1FEE06CE019E00290049AB3
:10301000039901F02BFF7020009007984088C0B200
:103020000490079800881030C0B203900698801C66
:10303000C0B23A230290049A039901F017FFEEE11F
:10304000042005903020009007984088C0B204907A
:1030500007980088C0B203900698C0B23D23029042
:10306000049A039901F002FF3020009007984088ED
:10307000C0B20490079800880830C0B20390069848
:10308000401CC0B23E230290049A039901F0EEFE68
:103090007020009007984088C0B20490079800887C
:1030A0001030C0B203900698801CC0B23D2302903D
:1030B000049A039901F0DAFE702000900798408886
:1030C000C01FC0B20490079800880830C0B20390B7
:1030D0000698C01CC0B23C230290049A039901F0E8
:1030E000C5FE9CE10720059030200090079840889D
:1030F0000F38C0B2049007980088001DC0B203903A
:103100000698C0B23F230290049A039901F0AEFEE4
:1031100030200090079840880F38C0B2049007987C
:1031200000880C30C0B203900698401CC0B2F02357
:103130000290049A039901F099FE302000900798BC
:103140004088C01FC0B2049007980088001DC0B21C
:1031500003900698801CC0B2F1230290049A039950
:1031600001F084FE3020009007984088C01FC0B254
:103170000490079800880C30C0B203900698C01CD9
:10318000C0B2F2230290049A039901F06FFE30203E
:10319000009007984088C0B2049007980088C0B299
:1031A00003900698001DC0B2F3230290049A03997D
:1031B00001F05CFE3020009007984088C0B2049077
:1031C000079800880830C0B203900698401DC0B22E
:1031D000F4230290049A039901F048FE30200090F5
:1031E00007984088C0B20490079800881030C0B299
:1031F00003900698801DC0B2F5230290049A0399AB
:1032000001F034FE0BE10620059030200090079875
:103210004088C01FC0B2049007980088001DC0B24B
:1032200003900698C0B2F6230290049A039901F025
:103230001DFE7020009007984088C01FC0B2049007
:10324000079800880C30C0B203900698401CC0B2AA
:10325000F6230290049A039901F008FE30200090B2
:1032600007984088C0B2049007980088C0B20390C5
:103270000698801CC0B2F7230290049A039901F0CB
:10328000F5FD3020009007984088C0B20490079860
:1032900000880830C0B203900698C01CC0B2F82362
:1032A0000290049A039901F0E1FD702000900798C4
:1032B0004088C0B20490079800881030C0B20390D4
:1032C0000698001DC0B2F7230290049A039901F0FA
:1032D000CDFDA4E0032005903020009007984088A1
:1032E000C0B2049007980088C0B203900698C0B29C
:1032F0003A230290049A039901F0B8FD302000901F
:1033000007984088C0B20490079800880830C0B27F
:1033100003900698401CC0B23B230290049A039984
:1033200001F0A4FD7020009007984088C0B204907E
:10333000079800881030C0B203900698801CC0B275
:103340003A230290049A039901F090FD67E005206A
:1033500005903020009007984088C0B204900798EC
:103360000088C0B203900698C0B233230290049A3A
:10337000039901F07BFD3020009007984088C0B28F
:103380000490079800880830C0B203900698401C4B
:10339000C0B234230290049A039901F067FD7020B3
:1033A000009007984088C0B20490079800881030B9
:1033B000C0B203900698801CC0B233230290049AD6
:1033C000039901F053FD3020009007984088C01DFC
:1033D000C0B2049007980088001DC0B20390069800
:1033E000C01CC0B235230290049A039901F03EFD3F
:1033F0003020009007984088C01DC0B20490079804
:1034000000880C30C0B203900698001DC0B236236D
:103410000290049A039901F029FD00E000BF00BF6B
:103420000898017805980818C1B20898017009B089
:1034300000BD78210180B42141800121017100216A
:10344000C1710172417201218171417170470000A7
:10345000F8B505460E46002418E00A2060434019DE
:103460000079002811D010200A2363435B190090D3
:103470005B88DAB20A236343EB5AD9B2307831233E
:1034800001F0F4FC3078401C3070641C0248007875
:103490008442E2DBF8BD0000904E000001460020AF
:1034A00005E000230A22424352181371401C024ACD
:1034B00012789042F5DB7047904E000010B502790B
:1034C000002A25D08279002A23D100BF1EE00A23DA
:1034D00053435B181B79002B17D1038808331CB2A8
:1034E0000A235343CC524388083B1CB20A2353435C
:1034F0005B185C8001240A2353435B181C715A4BF0
:103500001B685B1C584C236002E0521C042ADEDB63
:10351000A8E08279012A3CD1002237E00A235343F4
:103520005B181B79002B30D10A2353435B189B7B1C
:10353000002B2AD103881B1D1CB20A235343CC52F3
:103540004388083B1CB20A2353435B185C80012468
:103550000A2353435B181C7103880C331CB20A23E3
:1035600053435B185C814388083B1CB20A235343D6
:103570005B189C8101240A2353435B189C733A4BCC
:103580001B689B1C384C236002E0521C082AC5DBD8
:1035900068E08279022A65D1002260E00B79002B75
:1035A0005CD10A2353435B189B7B002B56D10A2323
:1035B00053435B181B7E002B50D10A2353435B18E7
:1035C0001E331B79002B49D103881B1F1BB20B80B4
:1035D0004388083B1BB24B8001230B7103881B1DE2
:1035E0001CB20A2353435B185C814388083B1CB21E
:1035F0000A2353435B189C8101240A2353435B181D
:103600009C7303880C331CB20A2353435B189C82BF
:103610004388083B1CB20A2353435B18DC82012415
:103620000A2353435B181C76038814331CB20A2305
:1036300053435B18DC834388083B1CB20A23534383
:103640005B181C8401240A2353435B181E331C712E
:10365000054B1B681B1D044C236002E0521C102A02
:103660009CDB00BF10BD00000C00002001460020C4
:103670001CE00A22424352181279002A15D00A226D
:10368000424352185288121F13B20A224243521860
:1036900053800A22424352180223D35E052B04DAD8
:1036A00000230A22424352181371401C024A127826
:1036B0009042DEDB70470000904E0000F8B50746F0
:1036C0000C467825642620202946009020780C237B
:1036D000324601F0CBFB2078401C20702020294688
:1036E0001031009020780D23324601F0BFFB207886
:1036F000401C20702020324610322B46083BD9B2A5
:10370000009020783B4601F0B1FB2078401C2070EF
:1037100020203246103229460831009020780E23AE
:1037200001F0A4FB2078401C20702020324610328B
:1037300029461831009020780F2301F097FB20785C
:10374000401C207020203218294600902078102339
:1037500001F08CFB2078401C207020203218294674
:10376000103100902078112301F080FB2078401C5C
:103770002070F8BDFEB505460E4600245AE0E00074
:1037800040190079002854D0E000401940794006E3
:10379000070E10203946E031CBB2E1004919009004
:1037A0004988CAB2E100695AC9B20191307801F082
:1037B0005DFB10203B46E133DBB201930090E30058
:1037C0005B195B88DAB2E300EB5A0833D9B233787D
:1037D0005B1CD8B2019B01F049FBD0203946E13196
:1037E000CBB2E100491900904988C91DCAB2E10075
:1037F000695AC9B201913178891CC8B2019901F0A6
:1038000035FBD02000903846E030C3B2E0004019CC
:103810004088C01DC2B2E000285A0830C1B23078DA
:10382000C01CC0B2019001F021FB3078001D307047
:1038300000BF641C024800788442A0DBFEBD00008B
:10384000964E00000146002004E00022C3005B18F1
:103850001A71401C024A12789042F6DB7047000051
:10386000964E000030B50346002016E0C400A418B0
:103870002479002C10D1C500AD186C71C40013530D
:10388000C400A41861800124C500AD182C71002467
:10389000C500AD18AC7104E0401C034C2478A04274
:1038A000E4DB00BF30BD0000964E00000146002062
:1038B00026E0C20052181279002A20D0C200521805
:1038C0009279052A07DAC20052189279521CC30075
:1038D0005B189A7113E00022C3005B189A71C20052
:1038E00052185279521CC3005B185A71C200521808
:1038F0005279042A03DB0022C3005B181A71401CB2
:10390000024A12789042D4DB70470000964E0000C5
:103910000148C0687047000000500040F8B50546F7
:103920000E46002467E11E206043285C00287DD0FD
:103930001E2060434019007F0300FDF703F90504D2
:103940003F92CDFEFD0060201E2363435B19009073
:103950009B88DAB21E2363435B195B88D9B2307847
:10396000592301F083FA60201E2363435B19009002
:103970009B88DB1DDAB21E2363435B195B88D9B2D7
:1039800033785B1CD8B25A2301F070FA60201E23F2
:1039900063435B1900909B88DB1CDAB21E236343F0
:1039A0005B195B88083BD9B233789B1CD8B25B2388
:1039B00001F05CFA3078C01C30701AE1A0201E23A0
:1039C00063435B1900909B885B1CDAB21E23634340
:1039D0005B195B885B1CD9B230785E2301F046FA34
:1039E000A0201E2363435B1900909B885B1CDAB206
:1039F0001E2363435B195B880833D9B233785B1CA1
:103A0000D8B25F2301F032FAA0201E2363435B1972
:103A100000909B880833DAB21E2363435B195B88EE
:103A2000D9B233789B1CD8B25C2300E0E2E001F00D
:103A30001DFAA0201E2363435B1900909B88083366
:103A4000DAB21E2363435B195B880833D9B233783B
:103A5000DB1CD8B25D2301F009FA3078001D30700C
:103A6000C7E020201E2363435B1900909B88DAB2D5
:103A70001E2363435B195B88D9B23078402301F081
:103A8000F5F920201E2363435B1900909B88DAB26E
:103A90001E2363435B195B880833D9B233785B1C00
:103AA000D8B2412301F0E2F920201E2363435B19C1
:103AB00000909B88083BDAB21E2363435B195B8846
:103AC0001B1DD9B233789B1CD8B2422301F0CEF92A
:103AD0003078C01C30708CE0E0201E2363435B19FB
:103AE00000909B88DAB21E2363435B195B88D9B2CE
:103AF00030785F2301F0BAF9E0201E2363435B199D
:103B000000909B88DAB21E2363435B195B880833FD
:103B1000D9B233785B1CD8B25E2301F0A7F9E0205C
:103B20001E2363435B1900909B880833DAB21E237F
:103B300063435B195B8801E05AE01EE0D9B2337839
:103B40009B1CD8B25D2301F091F9E0201E23634352
:103B50005B1900909B880833DAB21E2363435B191C
:103B60005B880833D9B23378DB1CD8B25C2301F010
:103B70007DF93078001D30703BE020201E23634328
:103B80005B1900909B88DAB21E2363435B195B8844
:103B9000D9B23078592301F069F920201E236343FC
:103BA0005B1900909B88DB1DDAB21E2363435B190F
:103BB0005B88D9B233785B1CD8B25A2301F056F92E
:103BC00020201E2363435B1900909B88DB1CDAB224
:103BD0001E2363435B195B880833D9B233789B1C7F
:103BE000D8B25B2301F042F93078C01C307000E09D
:103BF00000BF00BF641C03480078844200DA92E6EC
:103C0000F8BD0000924E0000F8B505460E460024AF
:103C1000C8E21E206043285C00282AD01E20604392
:103C20004019407802287DD100211E2060434019B0
:103C300041701E20604340190221415E052914DBBA
:103C40001E20604340190221415EFB290DDC1E202D
:103C5000604340190421415E0A2906DB1E206043AF
:103C600040190421415EE62904DD00211E20604345
:103C7000295496E21E2060434019C07900285AD189
:103C80001E20604340198079002816D11E20604311
:103C900040190221415E1E20604340190C22825EC1
:103CA00091420ADB01211E2060434019C1710021AD
:103CB0001E2060434019817273E21E206043401948
:103CC0008079012816D11E20604340190221415EEF
:103CD0001E20604340190C22825E91420ADC0121C1
:103CE0001E2060434019C17100211E20604340190D
:103CF000817256E21E206043401941881E206043B5
:103D0000401908228256881801B21E2060434019CB
:103D100041801E206043401981881E206043401965
:103D2000092200E033E28256881801B21E20604367
:103D30004019818035E21E2060434019C079012876
:103D400097D11E20604340198079002878D11E2029
:103D500060434019807A0300FCF7F4FE05043573D4
:103D6000A0DDFE0000211E206043401901771E20C7
:103D7000604340194088C01C01B21E2060434019B6
:103D80004180FCF7FBF907460321FCF7E3F91E200D
:103D9000604340198088081801B21E206043401912
:103DA00081801E20604340190221415E1E20604335
:103DB00040190E22825E914204DB01211E206043E5
:103DC00040198172D4E001211E206043401901771F
:103DD000FCF7D4F90746C00FC01940104000381A4C
:103DE000801C1E21614349194988401801B21E20D8
:103DF000604340194180FCF7C1F90746C00FC01964
:103E000040104000381A801C1E21614349198988DE
:103E1000401801B21E206043401981801E2060437B
:103E200040190421415E1E20604340191022825E29
:103E3000914204DB02211E2060434019817297E009
:103E400097E002211E206043401901771E20604345
:103E500041190220085E1E216143491948801E2035
:103E6000604340198088C01C01B21E206043401985
:103E700081801E20604340190421415E1E20604362
:103E800040191222825E914207DB03211E2060430B
:103E9000401981720020FCF735FC69E003211E20E7
:103EA000604340190177FCF769F90746C00FC01954
:103EB00040104000381A801C1E216143491949886E
:103EC000081A01B21E20604340194180FCF756F9E0
:103ED0000746C00FC01940104000381A801C1E2130
:103EE000614349198988401801B21E206043401976
:103EF00081801E20604340190221415E1E206043E4
:103F000040191422825E914204DC04211E20604389
:103F1000401981722CE004211E2060434019017772
:103F2000FCF72CF90746C00FC01940104000381AA2
:103F3000801C1E21614349194988081A01B21E20BC
:103F40006043401941801E20604340190221415EB8
:103F50001E206043401900E009E01622825E914273
:103F600004DC04211E2060434019817200E000BF80
:103F700017E11E2060434019807A0300FCF7E2FD40
:103F8000050435729CD9FE0004211E2060434019AF
:103F900001771E20604340194088C01E01B21E20D8
:103FA000604340194180FCF7E9F807460321FCF71C
:103FB000D1F81E20604340198088081801B21E20E5
:103FC0006043401981801E20604340190221415EF8
:103FD0001E20604340190E22825E914204DC0121C2
:103FE0001E20604340198172D0E003211E206043EF
:103FF00040190177FCF7C2F80746C00FC0194010FE
:104000004000381A801C1E21614349194988081A4A
:1040100001B21E20604340194180FCF7AFF807460B
:10402000C00FC01940104000381A801C1E21614387
:1040300049198988401801B21E20604340198180C7
:104040001E20604340190421415E1E206043401938
:104050001022825E914204DC02211E20604340193E
:10406000817293E002211E206043401901771E20D7
:10407000604341190220085E1E21614349194880AE
:104080001E20604340198088C01C01B21E2060437E
:10409000401981801E20604340190421415E1E208A
:1040A000604340191222825E914204DB03211E20EC
:1040B00060434019817269E001211E20604340196C
:1040C0000177FCF75BF80746C00FC01940104000AD
:1040D000381A801C1E21614349194988401801B2D1
:1040E0001E20604340194180FCF748F80746C00F86
:1040F000C01940104000381A801C1E216143491924
:104100008988401801B21E206043401981801E201A
:10411000604340190221415E1E2060434019142271
:10412000825E914204DB04211E20604340198172AB
:104130002CE000211E20604340190177FCF71EF897
:104140000746C00FC01940104000381A801C1E21BD
:10415000614349194988401801B21E206043401943
:1041600041801E20604340190221415E1E206043B1
:1041700040191622825E914206DB00E005E0042130
:104180001E2060434019817200E000BF09E01E203C
:10419000604340194078401CC1B21E206043401962
:1041A0004170641C02480078844200DA31E5F8BDB1
:1041B000924E00000146002010E000231E224243E0
:1041C000521853801E224243521893801E224243AB
:1041D0008B541E22424352185370401C024A1278DC
:1041E0009042EADB70470000924E0000F0B58BB0C1
:1041F00005460E46174600248CE00A20604340190D
:10420000007900287CD1B088083001B20A206043D0
:104210002952F088083801B20A20604340194180D1
:1042200001210A206043401901710420305E0A9088
:104230000620305E09900020385E08900220385E2B
:1042400007903888B188401A00B206907888F188C3
:10425000401A00B205900699002902DA06994942EF
:1042600000E006990846FCF76FF8049005990029CC
:1042700002DA0599494200E005990846FCF764F81E
:10428000039004990398FCF721F802900020019014
:104290003AE001998900234A50580299FBF7D1FF6F
:1042A00000210090FCF776F82BD8019840001E49B9
:1042B000095A0A2060434019C180019840001B49F7
:1042C000095A0A206043401901810698002809DA3A
:1042D0000A2060434019C088404201B20A2060436E
:1042E0004019C1800598002809DA0A206043401966
:1042F0000089404201B20A2060434019018106E072
:1043000007E00198401C019001980A28C1DB00BF1A
:1043100005E0641C06480078844200DA6DE700BFBF
:104320000BB0F0BDB45400009E5400008A5400004D
:10433000954E0000F8B505460E46002492E0200197
:10434000285C00287BD101202101491948702101F6
:104350006854002021014919C87321014919887046
:10436000210149198872707A210149194872012086
:10437000210149190872B0882101491988800F204C
:1043800021014919C880200140190421415E0529F5
:104390000ADD200140190421415E552904DA062076
:1043A00021014919C87214E0200140190421415E1D
:1043B000AB290ADD200140190421415EFB2904DA02
:1043C000052021014919C87203E00420210149197F
:1043D000C87220014019C07A04281ED10020210192
:1043E000491908730320210149194873FBF7C6FED8
:1043F0000746C00FC01940104000381AC0B20090E4
:104400000098002804D1022021014919887303E093
:10441000032021014919887322E020014019C07A44
:1044200005280DD1C01F210149190873032021015E
:1044300049194873022021014919887310E010E0DE
:1044400020014019C07A06280AD102202101491909
:104450000873032021014919487321014919887300
:1044600005E0641C03480078844200DA67E700BF77
:10447000F8BD0000914E0000FEB505460E46002432
:10448000D5E12001285C00287ED000270020029082
:1044900020014019C07B0300FCF754FB0805407D58
:1044A000A6E4FDFCFBFA402002902201521900977D
:1044B000D288D2B20192220152199288D1B23078B8
:1044C000029B019A00F0D2FC0097029A531C220131
:1044D0005219D288D2B2019222015219928808321E
:1044E000D1B23278521CD0B2019A00F0BFFC0097D2
:1044F0000298831C20014019C0880838C2B22001EC
:1045000040198088001DC1B23078801CC0B2019073
:1045100000F0ACFC3078C01C307085E14320029084
:10452000210149190097C988CAB22101491989880E
:10453000C9B201913078029B00F098FC38464021C6
:104540000843009020014019C088C2B220014019E0
:1045500080880830C1B23078401CC0B20190029B04
:1045600000F084FC00970298431C20014019C08889
:104570000838C2B2200140198088001DC1B23078CD
:10458000801CC0B2019000E050E100F06FFC307878
:10459000C01C307048E14520029021014919009764
:1045A000C988CAB2210149198988C9B201913078F4
:1045B000029B00F05BFC3846402108432101491969
:1045C0000090C988CAB22101491989880831C9B245
:1045D00001913178491CC8B2029B019900F046FC58
:1045E0003078801C30701FE1462002902201521961
:1045F0000097D288D2B20192220152199288D1B288
:104600003078029B019A00F031FC38464021084383
:10461000210149190090C988CAB221014919898824
:104620000831C9B201913178491CC8B2029B019985
:1046300000F01CFC009702994B1C21014919C98804
:104640000831CAB2210149198988091DC9B20191ED
:104650003178891CC8B2019900F008FC3078C01C80
:104660003070E1E048200290210149190097C98883
:10467000CAB2210149198988C9B201913078029BD7
:1046800000F0F4FB3846402108430090200103E08D
:10469000C9E088E060E025E04019C088C2B220018E
:1046A000401980880830C1B23078401CC0B20190F7
:1046B000029B00F0DBFB00970298431C200140198D
:1046C000C0880830C2B2200140198088001DC1B2E4
:1046D0003078801CC0B2019000F0C8FB3078C01C5C
:1046E0003070A1E0210149190097C988CAB221019F
:1046F00049198988C9B2019130784B2300F0B6FB83
:10470000384640210843210149190090C988CAB29E
:104710002101491989880831C9B201913178491CB0
:10472000C8B24A23019900F0A1FB21014919009761
:10473000C9880839CAB2210149198988091DC9B235
:1047400001913178891CC8B24C23019900F08EFB8D
:104750003078C01C307067E0220152190097D2886F
:10476000D2B20192220152199288D1B230784D23EF
:10477000019A00F07BFB384640210843009020015D
:104780004019C0880838C2B2200140198088C1B2DF
:104790003078401CC0B24E23019000F067FB3078A7
:1047A000801C307040E04A20029038464021084387
:1047B000009020014019C088C2B2200140198088B1
:1047C000C1B230785023019000F050FB38464021B0
:1047D0000843009020014019C088C2B2200140194E
:1047E00080880830C1B23078401CC0B24F2301909D
:1047F00000F03CFB3846402108430090200140195E
:10480000C088C01FC2B2200140198088001DC1B2FB
:104810003078801CC0B25123019000F027FB307823
:10482000C01C307000E000BF00BF00BF641C034824
:104830000078844200DA24E6FEBD0000914E0000BC
:10484000F7B582B005460E460024E1E12001285C60
:10485000002829D020014019807802287ED100202C
:10486000210149198870200140190421415E052960
:1048700011DB200140190421415EFB290BDC2001E2
:1048800040190621415E0A2905DB20014019062155
:10489000415EE62909DD0020210168542101491902
:1048A000888021014919C880B1E120014019807A2E
:1048B00000287DD1FBF762FC07461421FBF74AFC78
:1048C0000220305E1438401A2101491906228A5EFE
:1048D00090426EDC20014019007A012809D12001A4
:1048E000411932460498FFF781FC00202101491943
:1048F000087220014019407A002844D12001411952
:104900000420085E0021715E884216DA0020305EC5
:104910002101491904228A5E801A3C280DDA002000
:10492000305E2101491904228A5E801A002804DDC4
:1049300006202101491988735FE0200141190420F4
:10494000085E0021715E884218DD200141190420B3
:10495000085E0021715E401A322800E050E10DDA55
:10496000200141190420085E0021715E401A0028D0
:1049700004DD05202101491988733EE0042021014E
:104980004919887339E020014019C07A042821D1DF
:104990000020210149190873032021014919487396
:1049A000FBF7ECFB0746C00FC0194010400001E0C8
:1049B0005DE043E0381AC0B201900198002804D1AC
:1049C000022021014919887303E0032021014919BC
:1049D000887312E020014019C07A052804D1022012
:1049E00021014919887308E020014019C07A06287E
:1049F00003D1032021014919887320014019407A0D
:104A0000012808D1002021014919C8730120210182
:104A100049198872FBE020014019807B042804D1E9
:104A20000220210149198872F1E001202101491970
:104A30008872052021014919C873E8E02001401956
:104A40008088210149190C228A56801800B2210160
:104A50004919888020014019C088210149190D2277
:104A60008A56801800B221014919C880CFE0200180
:104A70004019807A01284CD120014019407A012840
:104A800023D1200141190420085E210149198880A1
:104A9000200141190620085E21014919C880200122
:104AA0004019C07B0428B5DA20014019C07B401CA6
:104AB00021014919C87320014019C07B0428A9D1DC
:104AC0000220210149198872A1E020014119042026
:104AD000085E210149198880200141190620085EDD
:104AE00021014919C88020014019C07B07280FDA2D
:104AF00020014019C07B401C21014919C8732001C5
:104B00004019C07B072803D102202101491988726E
:104B10007DE020014019807A022878D120014019D7
:104B2000807B0300FCF70EF8076A05152637475807
:104B30006A00200141190420085E2101491988807A
:104B400020014019C088001F00B221014919C88006
:104B500055E0200140198088801E00B221014919CA
:104B6000888020014019C088C01E00B22101491967
:104B7000C88044E0200140198088801C00B22101D7
:104B80004919888020014019C088C01E00B2210147
:104B90004919C88033E0200141190420085E210131
:104BA0004919888020014019C088401D00B22101A8
:104BB0004919C88023E0200140198088801E00B276
:104BC00021014919888020014019C088C01C00B209
:104BD00021014919C88012E0200140198088801CF9
:104BE00000B221014919888020014019C088C01CE9
:104BF00000B221014919C88001E008E000BF06E0C9
:104C0000200140198078401C210149198870641CDA
:104C100003480078844200DA18E605B0F0BD0000D1
:104C2000914E00000146002018E0002203015B18AD
:104C30009A8003015B18DA800301CA540122030140
:104C40005B185A70002203015B189A7003015B180D
:104C50001A72012203015B185A72401C024A127830
:104C60009042E2DB70470000914E0000F0B5C510A5
:104C7000CB100126AE4034469E00965926439F0035
:104C8000D651F0BD0221C16070470121C16070475B
:104C900005E04268D207D20F002A00D100E0F8E711
:104CA00000BF01607047F0B50446059D0026002A4C
:104CB00001D001200643002B01D002200643002D25
:104CC00001D0042006430698002801D0082006439E
:104CD0000798002801D0102006430898002801D02A
:104CE000202006430020A0602161A66060680C2798
:104CF0003840002801D00120F0BD0020FCE7000072
:104D00000146002059E00A22424352185279042AEF
:104D100048D100230A224243521853710A224243C7
:104D200052181279002A47D00A2242435218538857
:104D30000A224243521812899A1813B20A22424395
:104D4000521853800A2242438B5A0A224243521875
:104D5000D2889A1813B20A2242438B520A22424343
:104D600052180223D35EE62B06DC0A224243521875
:104D70000223D35E0A2B05DA00230A22424352188B
:104D8000137119E00A2242438A5EFB2A04DC0A22DC
:104D900042438A5E052A0FDA00230A224243521850
:104DA000137109E00A22424352185279521CD3B2BD
:104DB0000A22424352185371401C024A1278904210
:104DC000A1DB7047954E00001D480078012823D1D3
:104DD0001C480078012831D11B48006909280AD1F4
:104DE00019488069002806D1032016490870002060
:104DF0001549086002E00220124908701348007942
:104E0000002803D010488069002817D11048007886
:104E1000401C0F49087011E00948007802280DD1A4
:104E20000C480078401C0B490870084600780A2896
:104E300004D1002008700120074908707047000065
:104E40002000002027000020000802502021002020
:104E500021000020220000202500002010B54B0179
:104E6000014C1B191A5410BD0000025070B5049C6F
:104E70008500064EAD19E9708500AD19AA70850050
:104E8000AD196B708500AD192C7070BD000001501C
:104E90000C030404010A05000000000000000000EB
:104EA000000000000000000000000000001FCC0017
:104EB0000C00000000000000000800300060000846
:104EC00000300060000000022003FC1E20022003CE
:104ED000FC1E200220000000000E1811043FFF10ED
:104EE000840C78000000000F0010840F3800C00709
:104EF0007818840078000000780F8410C411240E04
:104F00009800E400840008080068007000000000B9
:104F10000000000000000000000000000007E01892
:104F20001820044002000000004002200418180766
:104F3000E00000000000000240024001800FF0018C
:104F4000800240024000000080008000800FF800D6
:104F5000800080008000000001000D000E000000B5
:104F600000000000000000000000800080008000C1
:104F7000800080008000800000000C000C00000019
:104F800000000000000000000000060018006001A2
:104F900080060018002000000007F0080810041028
:104FA00004080807F000000000080408041FFC00C3
:104FB0000400040000000000000E0C101410241067
:104FC0004411840E0C000000000C18100411041190
:104FD0000412880C700000000000E0032004240884
:104FE000241FFC0024000000001F981084110411ED
:104FF00004108810700000000007F00888110411E8
:105000000418880070000000001C00100010FC1341
:10501000001C001000000000000E38114410841025
:105020008411440E38000000000700088C10441062
:1050300044088807F00000000000000000030C0393
:105040000C0000000000000000000000010106004C
:105050000000000000000000000080014002200469
:105060001008081004000002200220022002200282
:105070002002200220000000001004080804100292
:105080002001400080000000000E001200100C10F3
:105090006C10800F00000003E00C1813E4142417B8
:1050A000C4082807D000000004003C03C41C4007CB
:1050B0004000E4001C000410041FFC110411041142
:1050C000040E880070000003E00C18100410041097
:1050D0000410081C10000010041FFC100410041021
:1050E00004080807F0000010041FFC110411041745
:1050F000C410040818000010041FFC11041100174C
:10510000C010000800000003E00C18100410041088
:10511000441C780040000010041FFC108400800034
:105120008010841FFC10040000100410041FFC10E9
:105130000410040000000000030001100110011F12
:10514000FE10001000000010041FFC110403801466
:1051500064181C1004000010041FFC10040004005C
:10516000040004000C000010041FFC1F0000FC1FC2
:10517000001FFC1004000010041FFC0C04030000BE
:10518000E010181FFC100007F008081004100410AD
:1051900004080807F0000010041FFC1084108010A1
:1051A0008010800F00000007F00818102410241051
:1051B0001C080A07F2000010041FFC110411001162
:1051C000C011300E0C000400000E1C1104108410DD
:1051D0008410441C3800001800100010041FFC103C
:1051E0000410001800000010001FF8100400040054
:1051F0000410041FF8100010001E0011E0001C0035
:105200007013801C0010001FC0103C00E01F000045
:10521000E0103C1FC000001004180C163401C0013F
:10522000C01634180C100410001C00130400FC13EA
:10523000041C00100000000804101C1064108413EB
:10524000041C04101800000000000000007FFE4055
:1052500002400240020000000030000C0003800009
:1052600060001C0003000000004002400240027F7A
:10527000FE00000000000000000000200040004090
:1052800000400020000000000100010001000100BA
:10529000010001000100010000400040002000006A
:1052A00000000000000000000000980124014401FB
:1052B00044014400FC000410001FFC0088010401AC
:1052C00004008800700000000000700088010401E4
:1052D000040104008800000000007000880104013F
:1052E0000411081FFC0004000000F80144014401FF
:1052F00044014400C800000000010401040FFC1137
:1053000004110411001800000000D6012901290130
:105310002901C90106000010041FFC0084010001DE
:1053200000010400FC000400000104190419FC0041
:105330000400040000000000000003000101011946
:105340000119FE0000000010041FFC0024004001B1
:10535000B4010C010400000000100410041FFC0044
:1053600004000400000000010401FC01040100012C
:10537000FC0104010000FC010401FC0084010001A7
:1053800000010400FC0004000000F8010401040115
:1053900004010400F80000010101FF00850104017F
:1053A0000400880070000000000070008801040103
:1053B00004010501FF00010104010401FC00840156
:1053C00004010001800000000000CC012401240140
:1053D0002401240198000000000100010007F801E9
:1053E00004010400000000010001F80004000400B2
:1053F00004010801FC0004010001800170000C00A0
:105400001001600180010001F0010C003001C000BA
:1054100030010C01F0010000000104018C00740156
:1054200070018C01040000010101810171000E0076
:105430001801600180010000000184010C013401A9
:10544000440184010C000000000000000000000185
:10545000003EFC400240020000000000000000FF8F
:10546000FF0000000000000000400240023EFC017E
:10547000000000000000000000600080008000408C
:1054800000400020002000000A000100020002008D
:1054900002000300040004000400050005000400ED
:1054A00004000400040004000300020002000100E4
:1054B0000000000000000000EC51383EEC51B83E06
:1054C000E17A143F3D0A573FEC51983FA470DD3F0D
:1054D00000003040A470B54000004843FC54000078
:1054E0000000002020210000500400009462000011
:1054F0002021002080070000700B00000220000126
:1055000040053B0000010A92401680040F01100D77
:1055100010400142010002000300040005000600E3
:105520000700080009000A000B000C000D000E0027
:105530000F001000D1D2D3FFD1DEDFE0FFFFEDEE90
:10554000D3FFF8F9F9E0D4D5D6FFE1E2E3E4FFEFC9
:10555000F00A1006FAFBFCE4D708502BE5E6E7E476
:10556000FFF1F2D9F3FFFDFEC0C1D8D9DAFFE8E9B7
:10557000EAEBFFF4F5F6F7FFC2C3C4D0DBDCDDFFD6
:10558000DBDCDCECFFFF0A5017DD17FF0200020333
:10559000FF15FF16FF1810FF12FF13FF14FF11086D
:1055A000003E4220401230401340401B50401CBC83
:1055B0004000C44000CC4000D44000205012305085
:1055C0001340501D50501E60501FC85000D0500056
:1055D000D850256EA0127EA0138EA0149EA015FF99
:1055E0000130040A0B0109D0080CFF0DFF0EFF0F5C
:1055F0001E4556C10A018E010510B9C1C50510C767
:10560000C1E50510D5C5050510E3C5250510F10553
:1056100071056958053645023D1140097B024C076A
:1056200017FF01090805610302A8FF01EDC704D2B5
:105630005501811A01132F200400CFCE0213CECFC3
:1056400004910842CF0D61123125A1088118514003
:1056500082CE0A41208106810E8112610291285179
:105660003C81906192C142A18891109155A1128113
:1056700068E17CA1927148C502B1E8817A0111DC30
:10568000F1B4E124C53AB1026107953A051230A19F
:105690000AE194E151854EB6CEBCE5107192D5C4B5
:1056A000C912C578E106E900C93A09123CC5040AE5
:1056B00017CF3AA59A0510FEC590C9BAF55DB5C0D9
:1056C00005104EE13CC900E13CC1900613CE7CDDE3
:1056D0004A03051142B9960610CEC6C50005147AD4
:1056E00025EA023D0001A53E0C0916FFFF222324F6
:1056F00025FFFF0004100526313031030E16270068
:10570000040C0916262E333433342E2700040C09DA
:1057100016282E353635362E2900040C09162A2E69
:10572000373837382E2B000410052C2E322E030E5E
:10573000142D00042005FF262E20200C0512212EFA
:1057400027FF00044004FF2831C00C04123129FF58
:10575000000443FF2A400C05122E2E2BFF000430BC
:1057600004FF2E20800C0512393A3BFF000443FF52
:1057700032400C05123C3D3EFF000443FF32400C1A
:1057800005123F4041FF000461400C0512424344B2
:10579000FF000443FF32C00C0512454647FF0004DA
:1057A00061400C051248494AFF000461800C051253
:1057B0004B4C4DFF000461400C05124E4F1FFF0083
:1057C0000461E00C05122E2E2EFF000461E0322150
:1057D000200D100004614021200D120004B004FFD0
:1057E0002E2E40ED000415E0490045E0FD00046761
:1057F000FF26E00F1227FF00044804FFFF2C207A49
:105800002DE2DD0004422AC00E162B00044A282097
:105810000E162900044A26A00E1627000433FF198D
:10582000010E4DFF00045D580B2C05C0FFFF30D268
:105830000700051ACCFFFF3308BE0035080D8A00AB
:105840000819E40C041A5051FF00080C0516568183
:105850008757000815E2B41160818787805455523C
:1058600053575051505255516ACC15CECF5156888E
:10587000898F8C8780878988898087888987570066
:1058800008100D5E87891D808B87818088888E082F
:10589000AC0680878157FFB2078C156080808D8BA6
:1058A0008F80888F8989818B8F8F8C80888063001F
:1058B000041009CFCE6188808B8F1D20A80C1D8716
:1058C000808B8C8F1D8F898762A813FF5E1F100449
:1058D0008F8F890410078C8D8E1D8F8D408D000455
:1058E00011202006568180891D3A313EBC061D8854
:1058F0008E8962420330065E8087808D3A113E11A8
:105900005FBC04815FFF34081007CE585E87818139
:10591000C6213EEC058F895F592A0713FF61DC2001
:105920000489808D3EBC058D8862FFFC063D3A08E7
:105930001142080A108F1D89898F881D5F598021A7
:1059400042A00B5A5B5C5D5F59585E62FF7A0D1294
:105950000008FECE3E070D1410090D8E00080E1D26
:10596000CF0008B1120D8800081C06A8A2A0A02034
:10597000090422AA011110128A082E2AC5100C044B
:10598000170A0A0A00082B81806A29B0193A2004F4
:105990008080810830088781888E8B8C80102B80D6
:1059A000872C29B019EE3004872E800820088889BA
:1059B000818D8E2E8010396C22892E12873C100525
:1059C0008F89808B4A213810058B8088873F296C0E
:1059D000338D882E110618048D888BBC1C048F8C87
:1059E0002E29031E8F8C0318068087707689E81194
:1059F0006C100587888E81311F8B8CC403113E3952
:105A0000C2119810088A68808D89812E73200589BB
:105A10008188898019C052881F1D840340172E81F8
:105A20007176878987817770887772757680878F9E
:105A30008789891DD62142101381808A86707680DD
:105A4000888A8471858485847076770E428DD6210C
:105A500021131A84E820042E70710610062E2E8160
:105A6000808104400570768781D810058F8984195C
:105A700018200481848A0620042E2E8023122E945E
:105A80005288D81288312113111D2530314121202F
:105A900021402689142156111F11441122411F143F
:105AA000042E8A690E24048D8D881411723174219C
:105AB0007A3142310C21D4451852807452804221EF
:105AC00084118221D435184138111641C031112179
:105AD0000211C626715C413831BD31E110056D6A95
