:020000040000FA
:10000000F80E00207500000081000000890000004B
:100010009100000099000000A10000000000000015
:10002000000000000000000000000000A900000027
:10003000B100000000000000B9000000C100000095
:10004000D1000000C9000000D9000000E10000005C
:10005000E9000000F1000000F900000001010000CB
:100060000348854600F054F800480047C1050000E9
:10007000F80E002024488046C146804723480047A8
:1000800000B500F0F2F900BD00B500F080F800BD49
:1000900000B500F0E9F900BD00B500F076F800BD4C
:1000A00000B500F053FA00BD00B500F0EAF900BD5C
:1000B00000B500F06BF800BD00B500F0E1F900BD3F
:1000C00000B500F0E5F900BD00B500F009FA00BD8B
:1000D00000B500F01DFA00BD00B500F0FFF900BD4D
:1000E00007B500F055F807BD07B500F061F807BD8A
:1000F00007B500F06DF807BD07B500F079F807BD4A
:1001000007B500F0DFF907BDAD0400006100000095
:10011000064C0125064E05E0E36807CC2B430C3C5A
:1001200098471034B442F7D3FFF79EFFA80C0000A5
:10013000C80C000070B58C180578401C6B075B0F6D
:1001400001D10378401C2A1106D10278401C03E03B
:1001500006780E70401C491C5B1EF9D12B0705D494
:100160000023521E0DD40B70491CFAE70378401C83
:10017000CB1A921C03E01D780D70491C5B1C521EAB
:10018000F9D5A142D8D3002070BD704770477047A1
:1001900010B5002000F048F904480078C82804DAB7
:1001A00002480078401D0149087010BDD60A0020A1
:1001B00010B5012000F038F9044800781E2804DD4D
:1001C00002480078401F0149087010BDD60A00207F
:1001D00010B5022000F028F904484078C82804DA55
:1001E00002484078401D0149487010BDD60A0020E1
:1001F00010B5032000F018F9044840781E2804DDEB
:1002000002484078401F0149487010BDD60A0020BE
:1002100030B503460C4615461349488900F0F2F8FC
:10022000181200F0DCF8D8B200F0D9F80E4988892D
:1002300000F0E8F8201200F0D2F8E0B200F0CFF8B9
:10024000002005210907486008600749088900F077
:1002500007F90020052109078860012088600860EF
:10026000284600F0BCF830BDE40A0020FFB585B098
:100270000E461746102402962046E217520F121817
:10028000D210E3175B0F1B18DB10DB000094E31A9E
:1002900001D0012300E00023D2182146E30F5B18B0
:1002A0005B105A43D2B2019238462038C7B20025BB
:1002B00056E00C2C05D138012C494018405D0490C3
:1002C00011E0102C05D1380128494018405D0490F8
:1002D00009E0182C05D1380124494018405D0490EC
:1002E00001E009B0F0BD0020039033E080210498C4
:1002F0000840002806D01E48028831460598FFF7BE
:1003000087FF08E00898002805D11A48028831467E
:100310000598FFF77DFF04984006000E0490701CBE
:1003200086B215484088B04200DCDAE70298301AFD
:10033000A0420BD1029E0598401C80B205900E4849
:1003400001880598814200DCCBE706E00398401C59
:10035000C0B2039003980828C8DB00BF681CC5B270
:1003600001988542A5DB00BFBBE70000B80600008E
:10037000D80A0020DA0A0020E40A0020FFB581B084
:1003800004460D460A9E1027E0B20090039800191B
:1003900080B203900498401980B2049016E003984C
:1003A000844202DB009CE81985B20498854200DB98
:1003B00012E03278002329462046FFF757FF3846DF
:1003C000F90F0918491009198CB2761C30787E286B
:1003D00002DC30782028E2DA00BF05B0F0BD00B5BD
:1003E00002460120052109074860002008601046E8
:1003F00000F036F800200521090788600120886098
:10040000086000BD00B502460020052109074860CC
:100410000860104600F024F80020052109078860D4
:1004200001208860086000BD30B502460020002130
:1004300000230A4C216801249440204604460C40C5
:100440002346002B04D10C460443044D2C6003E0EA
:100450000C468443014D2C6030BD0000001000406C
:10046000052109078861704770477047C206D20EA0
:1004700001219140014A11607047000000E100E055
:1004800070477047014908617047000000E000E0D4
:1004900010B50020FFF7F6FF034840680121490628
:1004A00008430149486010BD00ED00E010B501208F
:1004B000FFF7DCFF0020FFF7D9FF0720FFF7D6FF8B
:1004C00010BD000010B5044A5178107800F09AF879
:1004D0000720FFF7A9FF10BDD60A002070470000D3
:1004E00010B50120800700F0C4F80120FFF79CFF41
:1004F00001A000F02DF810BD756172745F72782054
:10050000696E74206F636375722121210A000000F7
:1005100008B50120800700F0AFF80220FFF784FF44
:1005200004A0FF234133F022002100900846FFF78A
:1005300025FF08BD5541525454585F4952516E2011
:100540004F4343555245442121210000704700008C
:1005500010B5024A024900F014F810BDA1050000D0
:10056000DC0A002002E008C8121F08C1002AFAD1E4
:1005700070477047002001E001C1121F002AFBD123
:100580007047F8B516460F460446002503E0394685
:10059000B047641C6D1C20780028F8D12846F8BDAF
:1005A00070B504460D460A2C03D10D21400700F01A
:1005B00066F8E1B20120800700F061F8204670BDC6
:1005C00008B578200E490870B42048700020022336
:1005D000502244210090012000F05CF800201223FA
:1005E000C82264210090052000F054F81020012357
:1005F000142211460090002000F04CF8002008BDA5
:10060000D60A002038B504460D4610200A232A4693
:1006100021460090002000F03DF810200090204678
:100620000830C1B20B232A46012000F033F85020D5
:10063000009020461030C1B20A232A46022000F062
:1006400029F81020009028460830C2B2201DC1B2FF
:100650000C23032000F01EF81020009028460830DC
:10066000C2B220460C30C1B20D23042000F012F8B3
:1006700038BD0221C16070470121C160704705E0AB
:100680004268D207D20F002A00D100E0F8E700BF8D
:100690000160704770B5049C8500064EAD19E97085
:1006A0008500AD19AA708500AD196B708500AD1974
:1006B0002C7070BD00000150000000000000000020
:1006C00000000000000000000000000000001FCC3F
:1006D000000C000000000000000008003000600076
:1006E0000800300060000000022003FC1E200220F1
:1006F00003FC1E200220000000000E1811043FFF22
:1007000010840C78000000000F0010840F3800C027
:10071000077818840078000000780F8410C4112432
:100720000E9800E4008400080800680070000000D3
:10073000000000000000000000000000000007E0D2
:10074000181820044002000000004002200418187D
:1007500007E00000000000000240024001800FF0AE
:1007600001800240024000000080008000800FF8FD
:1007700000800080008000000001000D000E0000DD
:1007800000000000000000000000008000800080E9
:1007900000800080008000800000000C000C000041
:1007A00000000000000000000000000600180060CB
:1007B0000180060018002000000007F0080810045F
:1007C0001004080807F000000000080408041FFCDB
:1007D000000400040000000000000E0C101410249F
:1007E000104411840E0C000000000C1810041104B9
:1007F000110412880C700000000000E003200424A3
:1008000008241FFC0024000000001F98108411041D
:100810001104108810700000000007F0088811040F
:10082000110418880070000000001C00100010FC6B
:1008300013001C001000000000000E38114410844A
:10084000108411440E38000000000700088C10448A
:100850001044088807F00000000000000000030CAE
:10086000030C000000000000000000000001010671
:100870000000000000000000000000800140022095
:1008800004100808100400000220022002200220A8
:1008900002200220022000000000100408080410BA
:1008A000022001400080000000000E001200100C29
:1008B000106C10800F00000003E00C1813E41424E7
:1008C00017C4082807D000000004003C03C41C40E3
:1008D000074000E4001C000410041FFC1104110474
:1008E00011040E880070000003E00C1810041004BE
:1008F000100410081C10000010041FFC1004100449
:100900001004080807F0000010041FFC1104110473
:1009100017C410040818000010041FFC1104110073
:1009200017C010000800000003E00C1810041004A9
:1009300010441C780040000010041FFC108400804C
:10094000008010841FFC10040000100410041FFC21
:100950001004100400000000000300011001100149
:100960001FFE10001000000010041FFC1104038083
:100970001464181C1004000010041FFC1004000470
:1009800000040004000C000010041FFC1F0000FC09
:100990001F001FFC1004000010041FFC0C040300C7
:1009A00000E010181FFC100007F0080810041004E5
:1009B0001004080807F0000010041FFC10841080C9
:1009C000108010800F00000007F008181024102479
:1009D000101C080A07F2000010041FFC110411008B
:1009E00011C011300E0C000400000E1C1104108404
:1009F000108410441C3800001800100010041FFC64
:100A0000100410001800000010001FF8100400046B
:100A1000000410041FF8100010001E0011E0001C5C
:100A2000007013801C0010001FC0103C00E01F006D
:100A300000E0103C1FC000001004180C163401C068
:100A400001C01634180C100410001C00130400FC24
:100A500013041C00100000000804101C1064108413
:100A600013041C04101800000000000000007FFEAA
:100A70004002400240020000000030000C000380F1
:100A80000060001C00030000000040024002400221
:100A90007FFE000000000000000000002000400079
:100AA00040004000200000000001000100010001A2
:100AB0000001000100010001000040004000200092
:100AC0000000000000000000000000980124014424
:100AD0000144014400FC000410001FFC00880104D4
:100AE000010400880070000000000070008801040C
:100AF0000104010400880000000000700088010467
:100B0000010411081FFC0004000000F80144014426
:100B10000144014400C800000000010401040FFC6E
:100B20001104110411001800000000D60129012948
:100B3000012901C90106000010041FFC0084010006
:100B40000100010400FC000400000104190419FC68
:100B50000004000400000000000000030001010187
:100B6000190119FE0000000010041FFC00240040C1
:100B700001B4010C010400000000100410041FFC6B
:100B80000004000400000000010401FC0104010055
:100B900001FC0104010000FC010401FC00840100CF
:100BA0000100010400FC0004000000F8010401043D
:100BB0000104010400F80000010101FF00850104A7
:100BC000010400880070000000000070008801042B
:100BD0000104010501FF00010104010401FC00847E
:100BE0000104010001800000000000CC0124012468
:100BF000012401240198000000000100010007F811
:100C00000104010400000000010001F800040004D8
:100C10000004010801FC0004010001800170000CC7
:100C2000001001600180010001F0010C003001C0E2
:100C30000030010C01F0010000000104018C00747F
:100C40000170018C01040000010101810171000E9D
:100C5000001801600180010000000184010C0134D2
:100C600001440184010C00000000000000000000AD
:100C700001003EFC400240020000000000000000B5
:100C8000FFFF0000000000000000400240023EFCA8
:100C900001000000000000000000600080008000F3
:100CA0004000400020002000C80C00000000002090
:100CB000E40A00003401000048110000E40A0020AA
:100CC0001404000074050000212301801B03FF01B0
:100CD0003AE00612C03A3F06250C07E030F9062933
:100CE0001D4BFFFE0629055BFFFF12480CCC07E0F9
:100CF00033FE03CC018033F00611220C2936F906AD
:100D00000D123F8001FC0609112A2BFFFF1E390638
:100D100029666906A924418A03043C01FFFE0411E7
:100D20004B7FF8044B1FE004992439043B3FF00447
:100D30002D01FFFF80044B3FFC022BFFFC6F3B3F6C
:100D4000FF0E29791A1F2829041A0F441904192C97
:100D50002AC004913B0130863B01800D89061A03AD
:100D60005569061C07FFFF3E4906296D6906111AE1
:100D70001FA169063A035449061A0F710942061A5F
:100D80000771112D0607E0608919B6490619D8398F
:100D9000E4890629054CFFFF7F0739012A1F05104A
:100DA00008F81FFFFE7FFFF81C1F8661A349061D80
:100DB00006066060062119061DFF87E1FF068BE726
:100DC000E7062A0712112AFF05B90601AE041B0324
:100DD000FFF0041B3FFFFE0519FFFFFF801A011EF5
:100DE0000A19C0770419FFFFE01A071E0918970AAD
:100DF000390F1E1A1F1E0A35F81E0A3D3F1E0A191A
:100E0000FC1E0A1BE71E7AE31E1A3E02319301C044
:100E10009C7FFFC31EFA7F1E7AC71E1A7E1E7A3081
:100E20001E6A801E4A7F101A7E3E1B70021E4202FE
:100E300012C04B04021E19B9292B111202CB7003E8
:100E40001E2C87FFF81E114A041E12023B03801E4F
:100E50003A801E148FFFF81A1F1E230C1F12062A39
:100E6000601E62061E07FE7FFF0F1E111A011E1371
:100E70003FFCCA1E1E2AF41E1AF01E12FE4E183F18
:100E8000FC01FC1E29653129072A3F1E1303FC14AF
:100E9000300184120C6BE0061E42011973491E1AC0
:100EA000202C191E12043A0335196C491E1AE063EE
:100EB0001AF854591E61791E4AC01E1B06081E7A74
:100EC000C01E19342A3C1E2280130FF01AC01E9A2D
:100ED000081E19031AF89529431A1F1E3A0E1E728E
:100EE0000C3A0351591E1CE001801E171801C00F57
:100EF000FFFC1A078B291E9A801E5A1C1E3AF81EE8
:100F000022022A06EF2978143FC0031B3C101E1B47
:100F1000800E651A03131C0201F083491E5C7FC01A
:100F2000071E12085230AA061E1380063A7C1E12B3
:100F3000185A60B54A801E19F014FF800F137810FC
:100F40001B10031E190F61891E112F0F8FF810043B
:100F5000301E194BC91E1301FF151F03F820191E5F
:100F60008B10011E3C03FFE01E12FE1218391E19E1
:100F70005D511B07E01E1D07FFF07F1E9A031E191F
:100F8000E6311C0FE00823591E12FC123816F0201F
:100F90000820071330062A101E8AC01E1307FC6A99
:100FA0007C1E1A0C2921120E191E3C27FFF81E2A3E
:100FB000F81E12601A601E121832782A0C1E4AEFB0
:100FC0001E130FF05AFC1E3B20101E1A0889BA018E
:100FD0001E12401360061B20300B491E2B03CF1E30
:100FE00012807C1FF0011E3A601E1A18022E078F15
:100FF000FFF8FF1E1AE01E1360401A401E1AC0FDC3
:10100000291E12104B070F1E1B3FC0D41360C013C4
:10101000400E5D61C0039E1E7A061E19D4491E3D16
:101020004180071F1E12302D040FFFF01E4B7F80E2
:101030001E13C00E1A4351319A101E15FF8007FE71
:1010400013608013C00C12479A0E1E24F1FFFF1587
:10105000FF800FFE16618020C01C12C6241C0F806A
:101060008A301E1301FF191E3A411E12CC3B38076D
:101070001E1B20101E4AF31E10091FFF0FC18020E7
:10108000801C1ADC1E3AC01E1A701E14FFFFFE13CD
:1010900003FE1F3FFF3FC180211E12B81B70031EBD
:1010A00012208B20F01E1236130FC1291E12F02CB5
:1010B000E003E01E1361F0291E12FC19B1311A0180
:1010C0007A1A18072AC01E216B63D01E5AFC1E1103
:1010D0002A381E3A011E3BEF801E12F8430FF84AD1
:1010E000031E3B03801E2301DE591E1809FFF00179
:1010F000FF0713C0C31E1B7FE7C32808F8E007C71C
:10110000D80FFF1E1AF0CF19012ADF0539A51139B2
:10111000081D900FFF07076AE01E3AEF1619572BBC
:10112000FFF9251C0FFE030F19DE81C401E06029C1
:101130001E021A80396801191A3FB3011AAA0F77E3
:081140000918268301100000CC
:040000050000006196
:00000001FF
