:020000040000FA
:100000008813002079000000850000008D000000AA
:10001000950000009D000000A50000000000000009
:10002000000000000000000000000000AD00000023
:10003000B500000000000000BD000000C500000089
:10004000D5000000CD000000DD000000E50000004C
:10005000ED000000F5000000FD00000005010000BB
:100060000D0100000348854600F0ECF90048004708
:10007000512900008813002026488046C146804749
:100080002548004700B501F013F900BD00B500F0A8
:1000900018FA00BD00B501F00AF900BD00B500F086
:1000A0000EFA00BD00B501F04BFA00BD00B501F03D
:1000B000E0F900BD00B500F003FA00BD00B501F0A5
:1000C000D7F900BD00B501F0E7F900BD00B501F0BA
:1000D00001FA00BD00B501F015FA00BD00B501F050
:1000E000F8F900BD07B500F0EDF907BD07B500F060
:1000F000FBF907BD07B500F009FA07BD07B500F029
:100100000DFA07BD07B501F0E3F907BD07B503F028
:10011000FBFC07BDB51400006500000030B50B46C0
:10012000014600202022012409E00D46D5409D42D1
:1001300005D31D469540491B254695404019154657
:10014000521E002DF1DC30BD70B50024254600287C
:1001500001DA01244042002901DA01254942FFF772
:10016000DDFFAC4200D04042002C00D0494270BDBF
:100170000549064A08685043054A80180860400847
:100180007047014908607047E40B00206D4EC6417E
:100190003930000003460B439B0703D009E008C930
:1001A000121F08C0042AFAD203E00B780370401C27
:1001B000491C521EF9D27047F8B502464A40D40F86
:1001C00042004B0052085B089A4202D2024608469F
:1001D00011464A0023D0C30D4A00DDB2120EAD1AFB
:1001E000202D35DA49020126490AF6058A19002C24
:1001F00000D0524220214F1B1146B9402A4110180D
:10020000C20D9A4221D0002C17D0012D08DCDA054E
:10021000801AD20F8019D207DBB200F0D9F8F8BDEE
:10022000DA05801A012340001B06C01880185A42C4
:100230008018CA0F1043490007E04908C20711435C
:10024000DA05801A80194008801800F0B9F8F8BD66
:1002500061000122511A001BF7E70122D207514029
:10026000AAE70122D2075040A6E7024670B54A40ED
:10027000D30FDB0740002DD04A002AD0010E140E08
:10028000000212020919400A520A8418E5010446C4
:100290005443000A120A2E045043A4194219200C98
:1002A000C543AA18120C0125AD03521C52191204A1
:1002B0007F39240400D0521C104301D44000491E51
:1002C000C2B20C06C0092018401C4008802A02D087
:1002D00003E0002070BD40084000002900DA002043
:1002E000184370BD70B502464A40D50F40004A0021
:1002F000ED0740085208002814D0002A12D0C40D7F
:10030000D30D41020120C0055202490A520AE41AE3
:10031000091812187D34914201D3641C00E0490091
:10032000002C01DA002070BD0023914201D3891A0C
:100330000343400849000028F7D100290AD0914220
:1003400002D10121C90705E0914201D2012101E05A
:100350000121C943E005C018401900F031F870BD13
:10036000C217C10F504010B54018CA07962300218C
:1003700000F02EF810BD10B500229623114600F0B3
:1003800027F810BD410040020122400AD205090EA3
:1003900080187F2901DA00207047962903DC962215
:1003A000511AC84070479639884070470122D207D9
:1003B000002800DB101A002900DB511A8842704720
:1003C000002904DA401C490001D140084000704770
:1003D00070B40024050C05D11024000402D10029BA
:1003E00021D01124050E01D100020834050F01D1DE
:1003F0000001241D850F01D18000A41C002801DB11
:100400004000641C002908D020252E1B0D46F54015
:10041000A14000D001212943084301061B1B000A0B
:10042000DB1D02D5002070BC7047DB051818801852
:100430000029F8DA401C4900F5D170BC40084000A2
:1004400070470000064C0125064E05E0E36807CC26
:100450002B430C3C98471034B442F7D3FFF706FE09
:10046000184200003842000070B58C180578401C16
:100470006B075B0F01D10378401C2A1106D102786B
:10048000401C03E006780E70401C491C5B1EF9D12D
:100490002B0705D40023521E0DD40B70491CFAE71C
:1004A0000378401CCB1A921C03E01D780D70491C88
:1004B0005B1C521EF9D5A142D8D3002070BD7047F5
:1004C0007047704710B5002000F046F9054800213C
:1004D000415E0A2904DD0088401F00B201490880FE
:1004E00010BD0000840D002010B5012000F034F98B
:1004F00005480021415EF62904DA0088401D00B25B
:100500000149088010BD0000840D002010B50220B4
:1005100000F022F901F000FA10BD000010B5032030
:1005200000F01AF905480221415E0A2904DD4088DD
:10053000401F00B20149488010BD0000840D00201A
:1005400030B503460C4615461349488900F0F2F8C9
:10055000181200F0DCF8D8B200F0D9F80E498889FA
:1005600000F0E8F8201200F0D2F8E0B200F0CFF886
:10057000002005210907486008600749088900F044
:1005800092FE00200521090788600120886008602C
:10059000284600F0BCF830BD6C0F0020FFB585B0D8
:1005A0000E461746102402962046E217520F1218E4
:1005B000D210E3175B0F1B18DB10DB000094E31A6B
:1005C00001D0012300E00023D2182146E30F5B187D
:1005D0005B105A43D2B2019238462038C7B2002588
:1005E00056E00C2C05D138012C494018405D049090
:1005F00011E0102C05D1380128494018405D0490C5
:1006000009E0182C05D1380124494018405D0490B8
:1006100001E009B0F0BD0020039033E08021049890
:100620000840002806D01E48028831460598FFF78A
:1006300087FF08E00898002805D11A48028831464B
:100640000598FFF77DFF04984006000E0490701C8B
:1006500086B215484088B04200DCDAE70298301ACA
:10066000A0420BD1029E0598401C80B205900E4816
:1006700001880598814200DCCBE706E00398401C26
:10068000C0B2039003980828C8DB00BF681CC5B23D
:1006900001988542A5DB00BFBBE70000253C0000B8
:1006A000B40B0020B60B00206C0F0020FFB581B00A
:1006B00004460D460A9E1027E0B2009003980019E8
:1006C00080B203900498401980B2049016E0039819
:1006D000844202DB009CE81985B20498854200DB65
:1006E00012E03278002329462046FFF757FF3846AC
:1006F000F90F0918491009198CB2761C30787E2838
:1007000002DC30782028E2DA00BF05B0F0BD00B589
:1007100002460120052109074860002008601046B4
:1007200000F0C1FD002005210907886001208860D4
:10073000086000BD00B50246002005210907486099
:100740000860104600F0AFFD002005210907886011
:1007500001208860086000BD30B5024600200021FD
:1007600000230A4C216801249440204604460C4092
:100770002346002B04D10C460443044D2C6003E0B7
:100780000C468443014D2C6030BD00000010004039
:1007900003B587B0FE48806BC0B20690FC48006B82
:1007A000C0B20590FA48406BC0B2049006980300AE
:1007B00000F0D2FE0906A6FDFCFBFAF9F8F7F600F8
:1007C000A02000900498C0B203900598C0B2029097
:1007D0000798007894230190039A029903F0D2F9C4
:1007E000A02000900498C0B2039005980830C0B2D1
:1007F000029007980078401CC0B295230190039A9C
:10080000029903F0BFF9A02000900498C01DC0B267
:1008100003900598C0B2029007980078801CC0B27F
:1008200092230190039A029903F0ACF9A020009062
:100830000498C01DC0B2039005980830C0B2029061
:1008400007980078C01CC0B293230190039A0299C4
:1008500003F098F9A020009004980E30C0B20390E5
:100860000598C0B2029007980078001DC0B290238E
:100870000190039A029903F085F9A0200090049852
:100880000E30C0B2039005980830C0B202900798AD
:100890000078401DC0B291230190039A029903F0A1
:1008A00071F9A020009004980A30C0B20390059816
:1008B0000838C0B2029007980078801DC0B2962315
:1008C0000190039A029903F05DF9E02000900498EA
:1008D0000A30C0B2039005981030C0B20290079859
:1008E0000078C01DC0B296230190039A029903F0CC
:1008F00049F9079800780830C1B20798017019E2E9
:10090000A02000900498C0B203900598C0B2029055
:1009100007980078A1230190039A029903F032F915
:10092000A02000900498801DC0B203900598801DFF
:10093000C0B2029007980078401CC0B2A02301907A
:10094000039A029903F01EF9A02000900498801FDA
:10095000C0B203900598801FC0B20290079800783B
:10096000801CC0B2A2230190039A029903F00AF9F5
:10097000A02000900498C01DC0B203900598801E6E
:10098000C0B2029007980078C01CC0B29E230190AC
:10099000039A029903F0F6F8A0200090049807E06B
:1009A000D7E336E3CEE22DE2C5E124E1B8E017E07B
:1009B000801EC0B203900598C01DC0B20290079877
:1009C0000078001DC0B29F230190039A029903F0A2
:1009D000D9F8079800780830C1B2079801708EE7FF
:1009E000202000900498C0B203900598C0B20290F5
:1009F000079800789B230190039A029903F0C2F8AC
:100A0000202000900498C0B2039005980830C0B22E
:100A1000029007980078401CC0B299230190039A75
:100A2000029903F0AFF8202000900498C0B2039020
:100A300005981030C0B2029007980078801CC0B2B0
:100A400097230190039A029903F09CF820200090CC
:100A50000498C01DC0B203900598C0B202900798D8
:100A60000078C01CC0B29C230190039A029903F045
:100A700089F8202000900498C01DC0B2039005980A
:100A80000830C0B2029007980078001DC0B29A23C7
:100A90000190039A029903F075F8202000900498C1
:100AA000C01DC0B2039005981030C0B202900798E4
:100AB0000078401DC0B298230190039A029903F078
:100AC00061F8602000900498C01FC0B203900598A0
:100AD0000A30C0B2029007980078801DC0B29D23F2
:100AE0000190039A029903F04DF8E02000900498D9
:100AF0000F30C0B2039005980A30C0B20290079838
:100B00000078C01DC0B29D230190039A029903F0A2
:100B100039F8079800780830C1B207980170B8E337
:100B2000202000900498C0B203900598C0B20290B3
:100B300007980078A1230190039A029903F022F804
:100B4000202000900498801FC0B203900598801D5B
:100B5000C0B2029007980078401CC0B2A023019058
:100B6000039A029903F00EF8202000900498801D4B
:100B7000C0B203900598801FC0B202900798007819
:100B8000801CC0B2A2230190039A029902E00000E7
:100B90000000035002F0F6FF202000900498C01FD0
:100BA000C0B203900598801EC0B2029007980078EA
:100BB000C01CC0B29E230190039A029902F0E2FF8A
:100BC000202000900498401CC0B203900598C01DDE
:100BD000C0B2029007980078001DC0B29F23019018
:100BE000039A029902F0CEFF07980078401DC1B227
:100BF000079801704DE3202000900498C0B2039044
:100C00000598C0B202900798007894230190039A47
:100C1000029902F0B7FF202000900498C0B2039020
:100C200005980830C0B2029007980078401CC0B206
:100C300095230190039A029902F0A4FF20200090CE
:100C40000498C01FC0B203900598C0B202900798E4
:100C50000078801CC0B292230190039A029902F09E
:100C600091FF202000900498C01FC0B20390059807
:100C70000830C0B2029007980078C01CC0B293231D
:100C80000190039A029902F07DFF202000900498C1
:100C90000E38C0B203900598C0B202900798007851
:100CA000001DC0B290230190039A029902F06AFFDE
:100CB0002020009004980E38C0B2039005980830A8
:100CC000C0B2029007980078401DC0B291230190F5
:100CD000039A029902F056FF2020009004980A38E7
:100CE000C0B2039005980838C0B202900798007807
:100CF000801DC0B296230190039A029902F042FF30
:100D00006020009004980A38C0B203900598103013
:100D1000C0B2029007980078C01DC0B2962301901F
:100D2000039A029902F02EFF079800780830C1B2AA
:100D300007980170ADE2602000900498C0B2039063
:100D40000598C0B2029007980078A1230190039AF9
:100D5000029902F017FF602000900498801FC0B233
:100D600003900598801FC0B2029007980078401C3D
:100D7000C0B2A0230190039A029902F003FF602001
:100D800000900498801DC0B203900598801DC0B2E9
:100D9000029007980078801CC0B2A2230190039AA9
:100DA000029902F0EFFE602000900498C01FC0B2CC
:100DB00003900598801CC0B2029007980078C01C70
:100DC000C0B29E230190039A029902F0DBFE6020DC
:100DD00000900498401CC0B203900598C01FC0B298
:100DE000029007980078001DC0B29F230190039ADB
:100DF000029902F0C7FE07980078401DC1B207981B
:100E0000017046E2602000900498C0B203900598FB
:100E1000C0B20290079800789B230190039A029930
:100E200002F0B0FE602000900498C0B203900598D4
:100E30000838C0B2029007980078401CC0B29923CD
:100E40000190039A029902F09DFE602000900498A0
:100E5000C0B2039005981038C0B20290079800788D
:100E6000801CC0B297230190039A029902F08AFE77
:100E7000602000900498C01DC0B203900598C0B2D5
:100E8000029007980078C01CC0B29C230190039A7E
:100E9000029902F077FE602000900498C01DC0B255
:100EA000039005980838C0B2029007980078001D9A
:100EB000C0B29A230190039A029902F063FE602067
:100EC00000900498C01DC0B2039005981038C0B2BD
:100ED000029007980078401DC0B298230190039AB1
:100EE000029902F04FFE202000900498C01FC0B26B
:100EF000039005980A38C0B2029007980078801DC8
:100F0000C0B29D230190039A029902F03BFEA020FB
:100F1000009004980F30C0B2039005980A38C0B210
:100F2000029007980078C01DC0B29D230190039ADB
:100F3000029902F027FE079800780830C1B207989E
:100F40000170A6E1E02000900498C0B203900598DB
:100F5000C0B2029007980078A1230190039A0299E9
:100F600002F010FEE02000900498801DC0B20390B3
:100F70000598801FC0B2029007980078401CC0B24C
:100F8000A0230190039A029902F0FCFDE02000905A
:100F90000498801FC0B203900598801DC0B20290D3
:100FA00007980078801CC0B2A2230190039A02998E
:100FB00002F0E8FDE02000900498C01DC0B203904C
:100FC0000598801CC0B2029007980078C01CC0B27F
:100FD0009E230190039A029902F0D4FDE020009034
:100FE0000498401EC0B203900598C01FC0B2029082
:100FF00007980078001DC0B29F230190039A0299C0
:1010000002F0C0FD07980078401DC1B2079801703A
:101010003FE1A02000900498C0B203900598C0B2B0
:1010200002900798007894230190039A029902F0A5
:10103000A9FDA02000900498C0B203900598083044
:10104000C0B2029007980078401CC0B2952301906E
:10105000039A029902F096FDA02000900498C01D0A
:10106000C0B203900598C0B2029007980078801C27
:10107000C0B292230190039A029902F083FDA0204E
:1010800000900498C01DC0B2039005980830C0B20B
:10109000029007980078C01CC0B293230190039A75
:1010A000029902F06FFDA020009004980E30C0B2AB
:1010B00003900598C0B2029007980078001DC0B256
:1010C00090230190039A029902F05CFDA020009009
:1010D00004980E30C0B2039005980830C0B2029058
:1010E00007980078401DC0B291230190039A02999D
:1010F00002F048FDA020009004980A30C0B203908E
:1011000005980838C0B2029007980078801DC0B2D8
:1011100096230190039A029902F034FDE02000909A
:1011200004980A30C0B2039005981030C0B2029003
:1011300007980078C01DC0B296230190039A0299C7
:1011400002F020FD079800780830C1B207980170BE
:101150009FE0A02000900498C0B203900598C0B210
:1011600002900798007894230190039A029902F064
:1011700009FDA02000900498C0B2039005980830A3
:10118000C0B2029007980078401CC0B2952301902D
:10119000039A029902F0F6FCA02000900498C01D6A
:1011A000C0B203900598C0B2029007980078801CE6
:1011B000C0B292230190039A029902F0E3FCA020AE
:1011C00000900498C01DC0B2039005980830C0B2CA
:1011D000029007980078C01CC0B293230190039A34
:1011E000029902F0CFFCA020009004980E30C0B20B
:1011F00003900598C0B2029007980078001DC0B215
:1012000090230190039A029902F0BCFCA020009068
:1012100004980E30C0B2039005980830C0B2029016
:1012200007980078401DC0B291230190039A02995B
:1012300002F0A8FCA020009004980A30C0B20390ED
:1012400005980838C0B2029007980078801DC0B297
:1012500096230190039A029902F094FCE0200090FA
:1012600004980A30C0B2039005981030C0B20290C2
:1012700007980078C01DC0B296230190039A029986
:1012800002F080FC079800780830C1B2079801701E
:1012900000BF00BF09B000BD10B5044614213220C4
:1012A00000F086F910BD0521090788617047704775
:1012B00070470000C206D20E01219140014A116020
:1012C0007047000000E100E0002004E00021034A34
:1012D0001154411CC8B20928F8DB70477A0F00206E
:1012E00038B504460121009100201C4948700121B5
:1012F00000912AE0684600882040002803D00120A1
:101300001749886002E000201549886001201449CF
:101310004860052000F046FD002011494860052086
:1013200000F040FD01200E49486002F0B7FA0028A5
:1013300006D00A484078694609880843074948703A
:10134000684600884004010C009168460088FF2828
:10135000D0DD102000F026FD38BD00007A0F0020FF
:101360000050004010B5FFF7AFFF00F02DF80F4818
:10137000007900020D49C97808430D49088000240E
:101380000FE060000B49095C491E012088400849B4
:1013900009880840002802D1601CC0B210BD601C42
:1013A000C4B2102CEDDB0020F8E700007A0F00201B
:1013B000C00B0020C40B00200020024908604860D8
:1013C00088607047005000401CB500210191012148
:1013D000009100202349086023490878FFF780FF27
:1013E00021494878FFF77CFF0221019131E001207B
:1013F000009022E001201B494860052000F0D2FC4B
:10140000002018494860052000F0CCFC0120154957
:10141000486002F043FA00280AD01449684600796F
:10142000095C684600880143104A684600791154F7
:10143000684600884004010C009168460088FF2837
:10144000D8DD102000F0AEFC68460079401CC1B227
:101450000191684600790928C9DB0120014908602B
:101460001CBD000000500040C20B00207A0F00207D
:1014700070477047014908617047000000E000E0D4
:10148000014948617047000000E000E001498861BF
:101490007047000000E000E010B50020FFF7EAFF11
:1014A000034840680121490608430149486010BDCE
:1014B00000ED00E010B50120FFF7FCFE0020FFF773
:1014C000F9FE0720FFF7F6FE0820FFF7F3FE10BD38
:1014D0007047704710B50120800702F0F1F9012034
:1014E000FFF73AF901A000F02DF810BD7561727494
:1014F0005F727820696E74206F6363757221212199
:101500000A00000008B50120800702F0DCF9022083
:10151000FFF722F904A0FF234133F02200210090BD
:101520000846FFF7C3F808BD5541525454585F4967
:1015300052516E204F434355524544212121000012
:101540007047000010B5024A024900F022F810BDB1
:101550004D230000B80B002030B47446641E25787B
:10156000641CAB4204D3635D5B00E31830BC1847D6
:101570001D46F8E702E008C8121F08C1002AFAD188
:1015800070477047002001E001C1121F002AFBD103
:101590007047F8B516460F460446002503E0394665
:1015A000B047641C6D1C20780028F8D12846F8BD8F
:1015B00000220C4B1A609A605A601A46D060116182
:1015C00003225A610A4632329A611432DA612832B1
:1015D0001A6214325A62024614329A625032DA6245
:1015E00070470000000003500120034908600020FC
:1015F0008860086070470000000003500120024925
:10160000486000204860704700000350FEB5054662
:1016100000245DE0E000314940180079002856D0F0
:10162000E000401840794006060E10203246E032B5
:10163000D3B2E2000F46D21900905288D2B2019282
:10164000E200BA5AD1B22878019A02F09BFA10202F
:101650003246E132D3B2E200D21900905288D2B2BF
:101660000192E200BA5A0832D1B22A78521CD0B2A2
:10167000019A02F087FAD0203146E131CBB2E10085
:10168000C91900904988C91DCAB2E100795AC9B286
:1016900001912978891CC8B2019902F073FAD0200F
:1016A00000903046E030C3B2E000C0194088C01D51
:1016B000C2B2E000385A0830C1B22878C01CC0B2AB
:1016C000019002F05FFA2878001D287000BF641CAA
:1016D0000348007884429DDBFEBD00000C0F002013
:1016E000243C00000146002004E00022C3005B18F7
:1016F0001A71401C024A12789042F6DB70470000D3
:10170000243C000038B5044633480079002862D0F4
:101710003148407901282DD100202F4B00905B8863
:10172000DB1FDAB22C4B1B88D9B220782C2302F0B5
:1017300029FA0020284B00905B88DAB2264B1B88E0
:10174000D9B223785B1CD8B22D2302F01BFA0020FB
:10175000214B00905B88DAB21F4B1B880833D9B24B
:1017600023789B1CD8B22E2302F00CFA2078C01CE0
:10177000207030E01848407902282CD13020164BD8
:1017800000905B88DB1FDAB2134B1B88D9B220783C
:101790002F2302F0F7F930200F4B00905B88DAB26C
:1017A0000D4B1B88D9B223785B1CD8B26F2302F093
:1017B000E9F93020084B00905B88DAB2064B1B88B1
:1017C0000833D9B223789B1CD8B2EF2302F0DAF9A0
:1017D0002078C01C207038BD8A0B002000210171C8
:1017E00070470000F8B5054600241AE00A2060435F
:1017F0000E4940180079002812D010200A236343B4
:101800000E469B1900905B88DAB20A236343F35AB1
:10181000D9B22878312302F0B5F92878401C287015
:10182000641C034800788442E0DBF8BDE80B00202C
:10183000203C0000002006E000220A214143044B26
:10184000C9180A71401C034909788842F4DB7047C3
:10185000E80B0020203C000070B505460E46002035
:1018600003E000218200B150401C1E28F9DB002457
:1018700012E00A2060434019007900280BD00A22A8
:10188000624352195288D1B20A226243AA5AD0B294
:10189000324602F009F8641C024800788442E8DB12
:1018A00070BD0000203C000030B500240CE0002595
:1018B00006E0FF222146284602F05CF9681CC5B20A
:1018C000202DF6DB601CC4B21E2CF0DB30BD000006
:1018D00030B50346002016E0C400A4182479002C7B
:1018E00010D1C500AD186C71C4001353C400A41806
:1018F00061800124C500AD182C710024C500AD180D
:10190000AC7104E0401C034C2478A042E4DB00BF2F
:1019100030BD0000243C00008948007900282AD00E
:1019200087488079002827D100BF22E00A2141435F
:10193000844A8918097900291AD18149098808310E
:101940000AB20A2141437F4B5A527D4949880839DE
:101950000AB20A214143C9184A8001220A2141439F
:10196000C9180A7178490968491C774A116002E070
:10197000401C0528DADBE2E071488079012849D172
:10198000002044E00A2141436E4A89180979002960
:101990003CD1411C0A2251436A4A8918097900291D
:1019A00034D167490988091D0AB20A214143654BB0
:1019B0005A526349498808390AB20A214143C91871
:1019C0004A8001220A214143C9180A715C490988E9
:1019D0000C310AB2411C0A2359435A4B5A525849F6
:1019E000498808390AB2411C0A235943554BC91882
:1019F0004A800122411C0A235943524BC9180A71DB
:101A000051490968891C504A116002E0401C0A28AB
:101A1000B8DB94E04A4880790228ACD100208AE003
:101A20000A214143474A8918097900297ED1411C7E
:101A30000A225143434A8918097900297AD1811C25
:101A40000A2251433F4A89180979002972D1C11CE1
:101A50000A2251433B4A8918097900296AD1384939
:101A60000988091F0AB20A214143364B5A523449A8
:101A7000498808390AB20A214143C9184A8001221B
:101A80000A214143C9180A712D490988091D0AB262
:101A9000411C0A2359432B4B5A522949498808397A
:101AA0000AB2411C0A235943264BC9184A80012215
:101AB000411C0A235943234BC9180A71204909883C
:101AC0000C310AB2811C0A2359431E4B5A521C493D
:101AD000498808390AB2811C0A235943194BC9188D
:101AE0004A800122811C0A235943164BC9180A71E6
:101AF0001349098814310AB2C11C0A235943114BF6
:101B00005A520F49498808390AB2C11C0A2359435D
:101B10000C4BC9184A800122C11C0A235943094BA6
:101B2000C9180A7108490968091D00E002E0064A5F
:101B3000116003E0401C142800DA71E700BF704711
:101B4000840D0020E80B00209C0B0020F0B589B02C
:101B5000054600248BE00A2060434949401800797B
:101B600000287BD12888083001B20A206043444A0B
:101B700011526888083801B20A20604380184180F9
:101B800001210A206043801801710020285E08901E
:101B90000220285E07903B480021415E0691022109
:101BA000415E059100882988401A07B2354840886F
:101BB0006988401A00B20490002F01DA794200E0EF
:101BC00039460846FEF7CCFB03900499002902DA57
:101BD0000499494200E004990846FEF7C1FB0290CF
:101BE00003990298FEF77EFB0190002638E0B100D1
:101BF000254A50580199FEF730FB00210090FEF76E
:101C0000D5FB2CD870002149095A0A2060431C4A90
:101C10008018C18070001E49095A0A20604380184C
:101C20000181002F0ADA0A20604311464018C0885B
:101C3000404201B20A2060438018C1800498002805
:101C40000BDA0A2060430E4940180089404201B275
:101C50000A2060430A4A8018018105E006E0761CEC
:101C60000C4800788642C2DB00BF05E0641C0A48CD
:101C70000078844200DA6EE700BF09B0F0BD0000D2
:101C8000D80C0020840D0020F83B0000E23B00004F
:101C9000CE3B0000CC3B0000213C000010B50146CB
:101CA00000204CE014224243284BD2181279002A1B
:101CB00044D10B8814224243244CA3524B88142253
:101CC0004243121953804B7C14224243121953741D
:101CD0000123142242431219137100231422424398
:101CE0001219D37214224243121993740B7B1422DB
:101CF0004243121913738B791422424312199371C0
:101D00000B7A1422424312191372CB7914224243E4
:101D10001219D371142242432346D218D3791422C4
:101D200042431219D38100231422424312195372E1
:101D30008B7A142242431219937204E0401C044A25
:101D400012789042AEDB00BF10BD0000080E0020EC
:101D5000223C000010B50348C06B002801D1FFF7FA
:101D60004DFC10BD0000035000B502460020FFF7F7
:101D700081FB1046FFF784FB0020FFF787FB07205D
:101D8000FFF778FB30BF00BD10B503461C4603E0EB
:101D90000348FFF7E9FF641E002CF9D110BD0000D5
:101DA00050C3000010B503461C4603E03220FFF785
:101DB000DBFF641E002CF9D110BD0000F0B589B026
:101DC00005460C4616461F460A213046FEF7A6F980
:101DD00008910A213046FEF7A1F90A210390FEF787
:101DE0009DF9079164213046FEF798F90A21039086
:101DF000FEF794F906917D21C9003046FEF78EF971
:101E00000A210390FEF78AF90591294905988873FC
:101E100006984874079808750898C8752549384683
:101E2000FEF723FA0390FEF7ADFAC0B204900A2140
:101E30000498FEF789F9C8B208900A210498FEF7C1
:101E400083F90A210390FEF77FF9C8B20790184979
:101E5000273107988870C91C08988870287801284D
:101E600023D12078142820DA202000902078410007
:101E700040180F49401883782078410040180C49D9
:101E8000401842782078410040180949085C0390C6
:101E900020780290039901F075FE2078401C207094
:101EA0000520FEF759FC0020287009B0F0BD0000A5
:101EB0004C0B00200000C84270B506460D460020BD
:101EC00003E000218200A950401C1E28F9DB0024F9
:101ED00014E00A2060430C494018007900280CD017
:101EE0000A2262430B46D2185288D1B20A226243B8
:101EF0009A5AD0B22A4601F0D7FC641C03480078F5
:101F00008442E6DB70BD0000D80C0020213C0000BC
:101F1000F0B505460F461646002003E0002182007A
:101F2000B150401C1E28F9DB00242DE01420604332
:101F300040190079002826D0142262435219528891
:101F4000D1B214226243AA5AD0B2324601F0ACFC9C
:101F50001422624352195288D1B214226243AA5AFF
:101F60000832D0B2324601F09FFC1422624352196B
:101F70005288083AD1B214226243AA5A121DD0B232
:101F8000324601F091FC641C134800788442CDDB9A
:101F90001248C06B00281DD0104A526BD1B20F4AB4
:101FA000126BD0B2324601F07FFC0C4A526BD1B2B8
:101FB0000A4A126B0832D0B2324601F075FC074A69
:101FC000526B083AD1B2054A126B121DD0B232469A
:101FD00001F06AFCF0BD0000223C0000000003504C
:101FE000F8B5054600241AE00A2060430E4940185F
:101FF0000079002812D010200A2363430E469B1953
:1020000000905B88DAB20A236343F35AD9B2287886
:10201000302301F0B7FD2878401C2870641C034869
:1020200000788442E0DBF8BDD80C0020213C0000A1
:10203000002006E000220A214143044BC9180A711E
:10204000401C034909788842F4DB7047D80C002013
:10205000213C0000FEB5054600245BE114206043EE
:10206000AF494018007900287ED000261420604334
:102070004018407C002800D107E014206043A849A4
:102080004018407C012800D1202614206043A44938
:102090004018807C0300FFF75FFA05044589B4F817
:1020A000F6004027142262439D4BD21800965288B6
:1020B000D2B20292142262439A5AD1B228783B4695
:1020C000029A01F05FFD7B1C142060439449401884
:1020D00000964088C2B214206043085A0830C0B24B
:1020E00002902878401CC0B20190029901F04AFD8C
:1020F000BB1C142060438A49401800964088083869
:10210000C2B214206043085A001DC0B20290287861
:10211000801CC0B20190029901F034FD2878C01CE7
:102120002870F4E04327142262437D4BD2180096B6
:102130005288D2B20292142262439A5AD1B22878BB
:102140003B46029A01F01EFD3046402108430090B4
:1021500014206043724BC0184088C2B21420604300
:10216000185A0830C1B200E0D3E02878401CC0B251
:102170003B46029001F006FD781C00960290142068
:102180006043674BC01840880838C2B214206043CF
:10219000185A001DC1B22878801CC0B20190029B61
:1021A00001F0F0FC2878C01C2870B0E0452714210D
:1021B00061435B4BC91800964988CAB21421614338
:1021C000595AC9B2029128783B4601F0DBFC3046EF
:1021D00040210843009014206043514BC0184088B0
:1021E000C2B214206043185A0830C1B22878401C8B
:1021F000C0B23B46029001F0C5FC2878801C2870D4
:1022000085E0462714216143454BC918009649884B
:10221000CAB214216143595AC9B2029128783B4687
:1022200001F0B0FC30464021084300901420604388
:102230003B4BC0184088C2B214206043185A083083
:10224000C1B22878401CC0B23B46029001F09AFC13
:102250007B1C14216143324A891800964988083151
:10226000C9B2029114216143515A091DC9B20191A9
:102270002978891CC8B2029A019901F083FC287858
:10228000C01C287043E041E0FFE74827142060436A
:10229000234BC01800964088C2B214206043185ADD
:1022A000C1B228783B46029001F06CFC30464021D8
:1022B0000843009014206043194BC0184088C2B2F4
:1022C00014206043185A0830C1B22878401CC0B2AC
:1022D0003B46029001F056FC7B1C142060431049E1
:1022E0004018009640880830C2B214206043085A53
:1022F000001DC0B202902878801CC0B201900299E3
:1023000001F040FC2878C01C287000E000BF00BF2E
:1023100000BF641C03480078844200DA9EE6FEBDDC
:10232000080E0020223C0000002006E000221421BC
:102330004143044BC9180A71401C0349097888427B
:10234000F4DB7047080E0020223C000070B5044604
:102350000D460A2C03D10D21400701F0B7FAE1B276
:102360000120800701F0B2FA204670BDF8B506469C
:10237000542500243078002802D0012804D101E03F
:10238000802403E0902401E0802400BF00BF4027A8
:10239000A020E2B2E9B240230090002001F0F2FB5D
:1023A000A020E2B2009028460830C1B241230120AB
:1023B00001F0E8FBA020009020460830C2B2281DA2
:1023C000C1B24223022001F0DDFBF8BDF0B585B0BB
:1023D00005460E4617461C460A213846FDF79EFE66
:1023E00004910A213846FDF799FE0A210090FDF775
:1023F00095FE039164213846FDF790FE0A21009076
:10240000FDF78CFE02917D21C9003846FDF786FE5E
:102410000A210090FDF782FE019130200090207883
:1024200032462946019B01F0ADFB30202A46083296
:10243000D1B200902278521CD0B23246029B01F0F9
:10244000A1FB30202A461032D1B200902278921C93
:10245000D0B23246039B01F095FB30202A46183259
:10246000D1B200902278D21CD0B23246049B01F047
:1024700089FB2078001D207005B0F0BDF3B587B052
:10248000079F08980690002520E000261AE0BD422C
:1024900016DB38461230854212DA069886420FDB88
:1024A0000698401D86420BDA0698301A12214843DE
:1024B0003D494018E91B425C3146284601F05AFB71
:1024C000701CC6B21E2EE2DB681CC5B2202DDCDB00
:1024D000B81DC4B206980830C0B20590002517E0B8
:1024E000002611E0A5420DDB20460830854209DABE
:1024F0000598864206D1281B2C490A5C314628469D
:1025000001F038FB701CC6B21E2EEBDB681CC5B296
:10251000202DE5DB04940598801CC0B203900025B3
:1025200019E0002613E0049885420EDB0498083079
:1025300085420ADA0398864207D10498281A1C4972
:102540000A5C3146284601F015FB701CC6B21E2EEF
:10255000E9DB681CC5B2202DE3DB201FC0B202906E
:1025600005980830C0B20190002519E0002613E05C
:10257000029885420EDB02980C3085420ADA0198F7
:10258000864207D10298281A0A490A5C3146284631
:1025900001F0F0FA701CC6B21E2EE9DB681CC5B251
:1025A000202DE3DB09B0F0BDD60A00203C0B002053
:1025B000440B0020300B0020F7B581B003461746CE
:1025C00000203EE00A214143C9180979002937D08B
:1025D0000A2444431C5B6405210E0A244443E41886
:1025E00064886405220E9500029C645901258D4083
:1025F0002C4095007D5901268E4035402C43009497
:10260000009C002C08D10A244443E41825790A24AC
:102610004443E418257112E000250A244443E418D9
:102620002571FD250A2444431D53EF250A24444304
:10263000E4186580054C2468641C044D2C6000BFC0
:10264000401C034909788842BCDBFFBD980B002081
:10265000203C00000FB4F8B50546002455E01420D6
:1026600060434019007900284ED014206043285A56
:102670004005070E14206043401940884005060EAF
:10268000B00008A908580121B9400840B10008AAC3
:1026900051587A1C0123934019400843711E890048
:1026A00008AA51587A1C012393401940084300900E
:1026B0000098002808D114206043401901791420A3
:1026C0006043401901711EE014226243521952887E
:1026D000D1B214226243AA5AD0B2304AFFF7F8F8B6
:1026E00000211420604340190171FD211420604332
:1026F0002952EF2114206043401941802848006886
:102700000A302749086000BF641C264800788442CC
:10271000A5DB2548C06B00283CD0002022498860FA
:102720000846006B4005060E0846406B4005040E47
:10273000A00008A908580121B1400840A10008AA3A
:102740005158721C0123934019400843611E8900AF
:1027500008AA5158721C0123934019400843A10054
:1027600008AA5158B21C0123934019400843074658
:10277000002F02D10C4988600BE001200A498860D3
:102780000A46526BD1B2084A126BD0B2034AFFF725
:102790009FF800BFF8BC08BC04B018470C0F00201D
:1027A000940B0020223C000000000350FFB584B0D1
:1027B0000546E87901287DD028884005060E6888FE
:1027C0004005040EA100059840580121B140084081
:1027D000A20005998958721C0123934019400843AF
:1027E000A20005998958B21C01239340194008435F
:1027F000611C8A00059989580122B24011400843A2
:10280000611C8A0005998958721C01239340194064
:1028100008430390A100069840580121B1400840A8
:10282000A20006998958721C01239340194008435D
:10283000A20006998958B21C01239340194008430D
:10284000611C8A00069989580122B2401140084350
:10285000611C8A0006998958721C01239340194013
:10286000084302900298002805D10398002802D15D
:10287000287928710EE0344A5288D1B2324A12883F
:10288000D0B2324AFFF724F8FF202880EF2068807A
:1028900000202871079800884005000E01900798D5
:1028A00040884005070EB9000D9841580122019853
:1028B000824000E046E01140BA000D98825801982D
:1028C000401C012383401A401143BA000D988258DE
:1028D0000198801C012383401A401143781C820018
:1028E0000D9882580123019883401A401143781CA7
:1028F00082000D9882580198401C012383401A40A1
:10290000084610430090009800281AD0002107982C
:102910000171FF2107980180EF21079841800798F6
:102920004079012806D1A879022803DAA879401C49
:10293000A87106E007984079022802D16879401C06
:10294000687100BF08B0F0BD840D00200C0F00209E
:10295000A2B0002000900190029001231A46FF21AE
:10296000B3310390480700F0BCFFFEF725FD0020BF
:10297000F8490870012400BF00BFAAE2012C7ED1F3
:102980000024F448007800281AD1002509E000202E
:10299000FF23E622FB210090284601F0F3F8681C93
:1029A000C5B2402DF3DBFEF77FFF0020EA49087037
:1029B00008210720FFF762FDE748FFF7D7FC5EE03C
:1029C000E448007801283DD10020E4490870E4493A
:1029D0000870E4490870E4490860E4490860E44983
:1029E0000860E449086000F0FDFEFEF723FFFFF7F2
:1029F0009BFCE148FEF750FCFFF71AFBDF48FEF7AF
:102A000071FEDF48FEF7EAFE002509E00020FF2303
:102A1000E622FB210090284601F0B4F8681CC5B2FC
:102A2000402DF3DB2022D7A11AA8FDF7B3FB202508
:102A300005E01AA9284600F01FFF681C85B2402D4A
:102A4000F7DB1CE0C3480078022818D1002509E014
:102A50000020FF23E622FB210090284601F092F897
:102A6000681CC5B2402DF3DBFEF71EFF0020CD49E8
:102A70000870CD490870CD490870CD490870B54837
:102A80000078002847D1002C45D1FEF76BFCC949DE
:102A900008600846006805280CD1AF480078002877
:102AA00035DDAD480078401EAB4908700846FFF799
:102AB0005DFC2CE0BF48006807280CD1A6480078D0
:102AC000012824DAA4480078401CA349087008466D
:102AD000FFF74CFC1BE0B74800680D2817D19E4853
:102AE0000078002813D1012401209A49087000259C
:102AF00009E00020FF23E622FB210090284601F098
:102B000041F8681CC5B2402DF3DBFEF7CDFEC820AE
:102B1000FFF73AF9DDE18F48007801287ED1002CDB
:102B2000FCD190480078002879D1FDF721FB0546BB
:102B30000A21FDF709FB142041431E31CEB2FDF7F7
:102B400017FB05460A21FDF7FFFA48000A30C7B215
:102B500010A88686C786FDF70BFB0546C00F4019F7
:102B600040104000281AC1B220A84171FDF700FBB7
:102B700005460321FDF7E8FA091D18A8817620A86B
:102B8000407900280BD120A90870FDF7F1FA05461D
:102B90000321FDF7D9FA091D1DA801720BE00120E0
:102BA00020A90870FDF7E4FA05460321FDF7CCFAE9
:102BB000491C1DA80172804840881438C1B21DA864
:102BC000C171FFF76BF8FFF7C5F87C4A6A497C488A
:102BD000FFF79EF97B497C48FFF76EF97B497C48FB
:102BE000FEF73AFE7B49744800F00EFE7948644BCC
:102BF000744A724900907048FFF7D8FD70227349FB
:102C000008316846FDF7C6FA70485B490CC86C4845
:102C1000FFF720FD6B4A69496D4801E021E1DDE0E5
:102C2000FFF7CAFCFEF79EFB624908604B4800783C
:102C3000401C4A49087008460078102813DB002021
:102C400008705C4800680D2806D15B48C0790028F0
:102C500009D1FEF761FE06E0564800680E2802D151
:102C600001203F49087003213C480078FDF76CFAC9
:102C700001293AD14F48006808280AD14E4800215E
:102C8000415E192931DD0088401F00B24A490880A1
:102C90002BE04848006806280AD147480021415ED9
:102CA000E72922DA0088401D00B2434908801CE071
:102CB0004048006805280AD13F480221415E1E298C
:102CC00013DD4088401F00B23B4948800DE0394881
:102CD0000068072809D138480221415ED22904DA68
:102CE0004088401D00B2344948801D4800F08CFAED
:102CF000334800F007F9204800F080FA00F094FE15
:102D000000F066FE1D4800F019FE1D4800F048FE68
:102D100029480079002818D12F480078F02814DBC2
:102D2000012402200B49087000202B49087000255F
:102D300009E00020FF23E622FB210090284600F056
:102D400021FF681CC5B2402DF3DB01200549087046
:102D5000BFE00000AC0B0020920B0020880B00208D
:102D6000890B0020B20B0020940B00209C0B00204C
:102D7000980B0020A00B0020E40E00200C0F002078
:102D80008A0B0020CECFCECFCECFCECFCECFCECFE0
:102D9000CECFCECFCECFCECFCECFCECFCECFCECF4B
:102DA000CECFCECFB10B0020930B0020AE0B002076
:102DB000B00B0020A80B0020840D00206C0E00201A
:102DC000080E00200C0D0020D80C0020600C002004
:102DD000E80B0020900D0020AD0B00203D4800784E
:102DE000022876D100203C4908700B463B480A2156
:102DF00002680320FFF7EAFA394A5288D1B2384A0A
:102E00001288D0B2344A00F04BFA3348FEF7EAFC9D
:102E10003148FEF7FBFB3048FFF71CF931492E48DB
:102E2000FDF7B6FC2C48FFF7DBF82B48FEF76AFCF1
:102E3000294805780FE00020FF23E622FB210090BF
:102E40002548007800F09EFE23480078401C224967
:102E50000870681CC5B2402DEDDB00201D490870CC
:102E600037E021480078022833D1002C31D10120ED
:102E7000FDF772FC1D480068FDF77DFA05461C4809
:102E80000068FDF778FA06462946FDF72BFA19493E
:102E90000860084603681648174902681748FEF795
:102EA0008DFF15480078142813DB0520FDF754FC2E
:102EB000FEF758FA1249086008460068102805D144
:102EC00000200949087001240B4908706420FEF7AE
:102ED0005BFF53E5B20B0020930B0020940B002006
:102EE000840D0020E40E0020AC0B00209C0B002081
:102EF000980B0020A00B0020B00B0020B10B00208D
:102F0000A80B002070B5054600246CE11420604336
:102F100040190079002827D0142060434019C07A56
:102F200002287DD10021142060434019C172142071
:102F30006043285E052812DB14206043285EFB28CE
:102F40000DDC1420604340190221415E0A2906DB92
:102F50001420604340190221415EE62905DD00216D
:102F600014206043401901713CE114206043401972
:102F7000407A00286CD1FDF7FBF806461421FDF7D6
:102F8000E3F89C4A0220105E1438411A1420604372
:102F900040190222825E914214DC01211420604318
:102FA00040194172142060434019007B012809D167
:102FB000142161434819FEF7C9FD00211420604324
:102FC000401901731420604340198079042804D00B
:102FD000052813D0062839D125E014206043285E47
:102FE0001421614368521420604340194088401DF9
:102FF00001B2142060434019418028E0142060434E
:10300000285A801E01B214206043295214206043C4
:1030100040194088C01C01B214206043401900E0F0
:10302000D6E0418013E014206043285A801C01B28E
:103030001420604329521420604340194088C01C6A
:1030400001B2142060434019418000E000BFC9E094
:10305000142060434019407A012836D1142060437F
:103060004019407C01282AD114206043285E142195
:10307000614368521420604341190220085E142104
:10308000614349194880142060434019807C04281A
:10309000DDDA142060434019807C401CC1B214204A
:1030A000604340198174142060434019807C0428D7
:1030B000CDD10221142060434019417292E00221D7
:1030C00014206043401941728CE014206043401981
:1030D000407A022879D1142060434019007A030015
:1030E000FEF73AFA07740516293C4D607400142067
:1030F0006043285E142161436852142060434019E4
:103100004088001F01B214206043401941805EE0F6
:1031100014206043285A801E01B2142060432952B3
:103120001420604340194088C01E01B2142060433F
:10313000401941804BE014206043285A801C01B2A2
:103140001420604329521420604340194088C01E57
:1031500001B2142060434019418038E014206043DC
:10316000285E14216143685214206043401940884E
:10317000401D01B2142060434019418027E0142013
:103180006043285A801E01B2142060432952142043
:10319000604340194088C01C01B2142060434019AC
:1031A000418014E014206043285A801C01B214208E
:1031B000604329521420604340194088C01C01B26A
:1031C000142060434019418001E00BE000BF09E09A
:1031D000142060434019C07A401CC1B214206043DF
:1031E0004019C172641C04480078844200DA8DE6FC
:1031F00070BD0000840D0020223C000010B5044684
:10320000FEF7F2F910BD000010B504462348C0795E
:1032100000280ED1207801283ED12049C871002015
:10322000087201204872002020700320FDF794FAF4
:1032300032E01A48007A052803D01848007A0A2894
:1032400010D11648407A042806DC14484088401EF5
:1032500000B21249488005E010484088401C00B286
:103260000E4948800D48007A0A2810DB00200B49DF
:1032700008720846407A072803DB0020C8714872AC
:103280000AE00648407A401C0449487204E00348BA
:10329000007A401C0149087210BD0000840D002016
:1032A00007B586B0089800780590FE480079002898
:1032B0007ED0FC48407A0300FEF74EF9080559AF6E
:1032C000DDFEFDFCFBFA05200490302000900698FE
:1032D000C0B203900598C0B233230290079A0399B5
:1032E00000F050FC3020009006980830C0B20390E7
:1032F0000598401CC0B234230290079A039900F04D
:1033000041FC7020009006981030C0B203900598E0
:10331000801CC0B233230290079A039900F032FC5C
:103320003020009007980830C0B203900698001D26
:10333000C0B202900598C01CC0B235230190039A18
:10334000029900F01FFC3020009007980830C0B2AE
:10335000039006980C30C0B202900598001DC0B2D0
:1033600036230190039A029900F00CFC30E205200C
:103370000490302000900698C0B203900598C0B227
:1033800037230290079A039900F0FCFB302000904D
:1033900006980830C0B203900598401CC0B238238C
:1033A0000290079A039900F0EDFB7020009000E076
:1033B00016E206981030C0B203900598801CC0B287
:1033C00037230290079A039900F0DCFB302000902D
:1033D00007980830C0B203900698001DC0B2029052
:1033E0000598C01CC0B239230190039A029900F0DD
:1033F000C9FB3020009007980830C0B203900698AF
:103400000C30C0B202900598001DC0B23923019063
:10341000039A029900F0B6FBDAE103200490302011
:1034200000900698C0B203900598C0B23A2302906B
:10343000079A039900F0A6FB302000900698083008
:10344000C0B203900598401CC0B23B230290079A7B
:10345000039900F097FB7020009006981030C0B2DE
:1034600003900598801CC0B23A230290079A0399F2
:1034700000F088FBACE10420049030200090069816
:10348000C0B203900598C0B23D230290079A0399F9
:1034900000F078FB3020009006980830C0B203900E
:1034A0000598401CC0B23E230290079A039904E09D
:1034B0008DE138E109E1A8E024E000F063FB702031
:1034C000009006981030C0B203900598801CC0B2DE
:1034D0003D230290079A039900F054FB702000905E
:1034E00007980838C0B2039006980830C0B202901E
:1034F0000598C01CC0B23C230190039A029900F0C9
:1035000041FB65E1072004903020009007981038B7
:10351000C0B203900698001DC0B202900598C0B2D8
:103520003F230190039A029900F02CFB3020009079
:1035300007981038C0B2039006980C30C0B20290C1
:103540000598401CC0B2F0230190039A029900F044
:1035500019FB3020009007980838C0B203900698F5
:10356000001DC0B202900598801CC0B2F1230190EA
:10357000039A029900F006FB302000900798083863
:10358000C0B2039006980C30C0B202900598C01CDF
:10359000C0B2F2230190039A029900F0F3FA3020AE
:1035A00000900798C0B203900698C0B202900598A8
:1035B000001DC0B2F3230190039A029900F0E2FAD1
:1035C000302000900798C0B2039006980830C0B22F
:1035D00002900598401DC0B2F4230190039A02990D
:1035E00000F0D0FA302000900798C0B203900698FF
:1035F0001030C0B202900598801DC0B2F523019032
:10360000039A029900F0BEFAE2E00620049030200E
:10361000009007980838C0B203900698001DC0B209
:1036200002900598C0B2F6230190039A029900F027
:10363000A9FA7020009007980838C0B20390069845
:103640000C30C0B202900598401CC0B2F623019025
:10365000039A029900F096FA302000900798C0B2C1
:1036600003900698C0B202900598801CC0B2F72360
:103670000190039A029900F085FA30200090079893
:10368000C0B2039006980830C0B202900598C01CE2
:10369000C0B2F8230190039A029900F073FA7020E7
:1036A000009001E0840D00200798C0B203900698B6
:1036B0001030C0B202900598001DC0B2F7230190EF
:1036C000039A029900F05EFA82E003200490302011
:1036D00000900698C0B203900598C0B23A230290B9
:1036E000079A039900F04EFA3020009006980830AF
:1036F000C0B203900598401CC0B23B230290079AC9
:10370000039900F03FFA7020009006981030C0B284
:1037100003900598801CC0B23A230290079A03993F
:1037200000F030FA54E00520049030200090069814
:10373000C0B203900598C0B233230290079A039950
:1037400000F020FA3020009006980830C0B20390B4
:103750000598401CC0B234230290079A039900F0E8
:1037600011FA7020009006981030C0B203900598AE
:10377000801CC0B233230290079A039900F002FA2A
:103780003020009007980830C0B203900698001DC2
:10379000C0B202900598C01CC0B235230190039AB4
:1037A000029900F0EFF93020009007980830C0B27D
:1037B000039006980C30C0B202900598001DC0B26C
:1037C00036230190039A029900F0DCF900E000BF73
:1037D00000BF0898017804980818C1B208980170D1
:1037E00009B000BD782007490880B4204880012036
:1037F00008710020C87108724872012088714871F0
:1038000070470000840D002030B504460D460020AE
:1038100003E000218200A950401C1E28F9DB20791A
:10382000002828D06288D1B22288D0B22A4600F07F
:103830003BF86288D1B222880832D0B22A4600F022
:1038400033F86288D1B222881032D0B22A4600F012
:103850002BF862880832D1B22288121DD0B22A46D3
:1038600000F022F862880832D1B222880C32D0B23D
:103870002A4600F019F830BD30B50246002000BFDE
:1038800006E00B5C5401044D64192354431C98B2A8
:103890002028F6DB30BD0000000002500148C0685F
:1038A0007047000000500040F0B5C510CB10012655
:1038B000AE4034469E00965926439F00D651F0BD37
:1038C0000221C16070470121C160704705E0426874
:1038D000D207D20F002A00D100E0F8E700BF016054
:1038E0007047F0B50446059D0026002A01D001204E
:1038F0000643002B01D002200643002D01D00420F6
:1039000006430698002801D008200643079800289F
:1039100001D0102006430898002801D0202006433B
:103920000020A0602161A66060680C273840002854
:1039300001D00120F0BD0020FCE70000014600207E
:1039400026E0C20052181279002A20D0C200521874
:1039500092790A2A07DAC20052189279521CC300DF
:103960005B189A7113E00022C3005B189A71C200C1
:1039700052185279521CC3005B185A71C200521877
:103980005279042A03DB0022C3005B181A71401C21
:10399000024A12789042D4DB70470000243C0000B9
:1039A0000179002912D0817905290CDB4188491C55
:1039B00009B24180002181710221415EE62905DDC5
:1039C0000021017102E08179491C8171704700007A
:1039D00000201FE00A214143114A89180979002972
:1039E00017D00A21414389184988C91E0AB20A2101
:1039F00041430B4BC9184A800A2141431A46891892
:103A000002228A5E052A04DA00220A214143C918EB
:103A10000A71401C034909788842DBDB70470000CB
:103A2000E80B0020203C0000002064E00A21414314
:103A3000334A89184979032950D100220A21414388
:103A40002F4BC9184A710A2141431A46891809792E
:103A500000294FD00A21414389184A880A2141434D
:103A6000C918098951180AB20A214143C9184A8064
:103A70000A2141431A46525A0A214143C918C988AA
:103A800051180AB20A2141435A520A2141431A46A7
:103A9000891802228A5EE62A07DC0A2141431A4677
:103AA000891802228A5E0A2A06DA00220A21414384
:103AB000134BC9180A711DE00A214143104A515E97
:103AC000FB2904DC0A214143515E052912DA002258
:103AD0000A2141430A4BC9180A710BE00A214143EC
:103AE000074A89184979491CCAB20A214143044B43
:103AF000C9184A71401C03490978884296DB70470F
:103B0000D80C0020213C000010B515480078012891
:103B10000FD114480078012821D10220FCF71CFEA7
:103B200002201049087010480078401C0E490870A7
:103B300015E00B480078022811D10C480078401C91
:103B40000A490870084600780A2808D10320FCF7C3
:103B500003FE00200549087001200549087010BDCA
:103B6000AC0B0020B20B0020AD0B0020AE0B0020F0
:103B7000B10B002010B54B01014C1B191A5410BD9C
:103B80000000025070B5049C8500064EAD19E97026
:103B90008500AD19AA708500AD196B708500AD194F
:103BA0002C7070BD000001505A82677F73787C6E64
:103BB000816081537C46733B67345A374C34403BB9
:103BC000374532533260376D40784C7F0A00010030
:103BD00002000200020003000400040004000500CB
:103BE00005000400040004000400040003000200B7
:103BF000020001000000000000000000EC51383E0F
:103C0000EC51B83EE17A143F3D0A573FEC51983FE2
:103C1000A470DD3F00003040A470B5400000484370
:103C20000C0505020C000000000000000000000070
:103C300000000000000000000000001FCC000C008D
:103C400000000000000000080030006000080030A4
:103C50000060000000022003FC1E20022003FC1E66
:103C6000200220000000000E1811043FFF10840CF9
:103C700078000000000F0010840F3800C00778188B
:103C8000840078000000780F8410C411240E98007E
:103C9000E4008400080800680070000000000000D4
:103CA000000000000000000000000007E0181820DD
:103CB0000440020000000040022004181807E00041
:103CC00000000000000240024001800FF00180026D
:103CD00040024000000080008000800FF80080005B
:103CE00080008000000001000D000E0000000000B8
:103CF00000000000000000008000800080008000C4
:103D000080008000800000000C000C00000000001B
:103D1000000000000000000006001800600180069E
:103D20000018002000000007F00808100410040824
:103D30000807F000000000080408041FFC0004004D
:103D4000040000000000000E0C1014102410441198
:103D5000840E0C000000000C181004110411041251
:103D6000880C700000000000E00320042408241FD9
:103D7000FC0024000000001F98108411041104109E
:103D80008810700000000007F00888110411041862
:103D9000880070000000001C00100010FC13001CC4
:103DA000001000000000000E38114410841084112F
:103DB000440E38000000000700088C10441044082E
:103DC0008807F00000000000000000030C030C0056
:103DD00000000000000000000000010106000000DB
:103DE00000000000000000008001400220041008D4
:103DF00008100400000220022002200220022002FB
:103E00002002200000000010040808041002200115
:103E1000400080000000000E001200100C106C101A
:103E2000800F00000003E00C1813E4142417C408EA
:103E30002807D000000004003C03C41C40074000D9
:103E4000E4001C000410041FFC1104110411040EF2
:103E5000880070000003E00C181004100410041017
:103E6000081C10000010041FFC10041004100408AB
:103E70000807F0000010041FFC1104110417C410FF
:103E8000040818000010041FFC1104110017C010D2
:103E9000000800000003E00C181004100410441C7B
:103EA000780040000010041FFC1084008000801087
:103EB000841FFC10040000100410041FFC100410E8
:103EC000040000000000030001100110011FFE109B
:103ED000001000000010041FFC110403801464187B
:103EE0001C1004000010041FFC1004000400040057
:103EF00004000C000010041FFC1F0000FC1F001F2A
:103F0000FC1004000010041FFC0C04030000E0106F
:103F1000181FFC100007F008081004100410040813
:103F20000807F0000010041FFC108410801080109F
:103F3000800F00000007F0081810241024101C083F
:103F40000A07F2000010041FFC1104110011C01137
:103F5000300E0C000400000E1C110410841084109C
:103F6000441C3800001800100010041FFC1004103E
:103F7000001800000010001FF810040004000410D6
:103F8000041FF8100010001E0011E0001C00701348
:103F9000801C0010001FC0103C00E01F0000E0105B
:103FA0003C1FC000001004180C163401C001C016DC
:103FB00034180C100410001C00130400FC13041C23
:103FC00000100000000804101C1064108413041C6E
:103FD00004101800000000000000007FFE400240B6
:103FE0000240020000000030000C0003800060006E
:103FF0001C0003000000004002400240027FFE005F
:1040000000000000000000000020004000400040D0
:10401000002000000000010001000100010001007B
:1040200001000100010000400040002000000000ED
:104030000000000000000000980124014401440138
:104040004400FC000410001FFC008801040104006F
:104050008800700000000000700088010401040165
:1040600004008800000000007000880104010411B1
:10407000081FFC0004000000F80144014401440151
:104080004400C800000000010401040FFC110411E9
:104090000411001800000000D6012901290129019E
:1040A000C90106000010041FFC008401000100018A
:1040B0000400FC000400000104190419FC000400C1
:1040C00004000000000000000300010101190119B3
:1040D000FE0000000010041FFC0024004001B40199
:1040E0000C010400000000100410041FFC00040078
:1040F0000400000000010401FC0104010001FC01B6
:1041000004010000FC010401FC0084010001000125
:104110000400FC0004000000F80104010401040193
:104120000400F80000010101FF0085010401040002
:104130008800700000000000700088010401040184
:104140000501FF00010104010401FC0084010401D8
:104150000001800000000000CC01240124012401A2
:10416000240198000000000100010007F80104018B
:104170000400000000010001F80004000400040134
:104180000801FC0004010001800170000C00100116
:10419000600180010001F0010C003001C00030011D
:1041A0000C01F0010000000104018C007401700199
:1041B0008C01040000010101810171000E00180151
:1041C000600180010000000184010C013401440100
:1041D00084010C0000000000000000000001003E0F
:1041E000FC400240020000000000000000FFFF0051
:1041F00000000000000000400240023EFC01000000
:1042000000000000000000600080008000400040CE
:1042100000200020000000003842000000000020C4
:10422000E80B0000680400008C470000E80B002049
:10423000A007000084150000212301801B03FF015B
:104240003AE00612C03A3F06250C07E030F906298D
:104250001D4BFFFE0629055BFFFF12480CCC07E053
:1042600033FE03CC018033F00611220C2936F90607
:104270000D123F8001FC0609112A2BFFFF1E390693
:1042800029666906A924418A03043C01FFFE041142
:104290004B7FF8044B1FE004992439043B3FF004A2
:1042A0002D01FFFF80044B3FFC022BFFFC6F3B3FC7
:1042B000FF0E29791A1F2829041A0F441904192CF2
:1042C0002AC004913B0130863B01800D89061A0308
:1042D0005569061C07FFFF3E4906296D6906111A3C
:1042E0001FA169063A035449061A0F710942061ABA
:1042F0000771112D0607E0608919B6490619D839EA
:10430000E4890629054CFFFF7F0739012A1F0510A4
:1043100008F81FFFFE7FFFF81C1F8661A349061DDA
:1043200006066060062119061DFF87E1FF068BE780
:10433000E7062A0712112AFF05B90601AE041B037E
:10434000FFF0041B3FFFFE0519FFFFFF801A011E4F
:104350000A19C0770419FFFFE01A071E0918970A07
:10436000390F1E1A1F1E0A35F81E0A3D3F1E0A1974
:10437000FC1E0A1BE71E7AE31E1A3E02319301C09F
:104380009C7FFFC31EFA7F1E7AC71E1A7E1E7A30DC
:104390001E6A801E4A7F101A7E3E1B70021E420259
:1043A00012C04B04021E19B9292B111202CB700343
:1043B0001E2C87FFF81E114A041E12023B03801EAA
:1043C0003A801E148FFFF81A1F1E230C1F12062A94
:1043D000601E62061E07FE7FFF0F1E111A011E13CC
:1043E0003FFCCA1E1E2AF41E1AF01E12FE4E183F73
:1043F000FC01FC1E29653129072A3F1E1303FC140A
:10440000300184120C6BE0061E42011973491E1A1A
:10441000202C191E12043A0335196C491E1AE06348
:104420001AF854591E61791E4AC01E1B06081E7ACE
:10443000C01E19342A3C1E2280130FF01AC01E9A87
:10444000081E19031AF89529431A1F1E3A0E1E72E8
:104450000C3A0351591E1CE001801E171801C00FB1
:10446000FFFC1A078B291E9A801E5A1C1E3AF81E42
:1044700022022A06EF2978143FC0031B3C101E1BA2
:10448000800E651A03131C0201F083491E5C7FC075
:10449000071E12085230AA061E1380063A7C1E120E
:1044A000185A60B54A801E19F014FF800F13781057
:1044B0001B10031E190F61891E112F0F8FF8100496
:1044C000301E194BC91E1301FF151F03F820191EBA
:1044D0008B10011E3C03FFE01E12FE1218391E193C
:1044E0005D511B07E01E1D07FFF07F1E9A031E197A
:1044F000E6311C0FE00823591E12FC123816F0207A
:104500000820071330062A101E8AC01E1307FC6AF3
:104510007C1E1A0C2921120E191E3C27FFF81E2A98
:10452000F81E12601A601E121832782A0C1E4AEF0A
:104530001E130FF05AFC1E3B20101E1A0889BA01E8
:104540001E12401360061B20300B491E2B03CF1E8A
:1045500012807C1FF0011E3A601E1A18022E078F6F
:10456000FFF8FF1E1AE01E1360401A401E1AC0FD1D
:10457000291E12104B070F1E1B3FC0D41360C0131F
:10458000400E5D61C0039E1E7A061E19D4491E3D71
:104590004180071F1E12302D040FFFF01E4B7F803D
:1045A0001E13C00E1A4351319A101E15FF8007FECC
:1045B00013608013C00C12479A0E1E24F1FFFF15E2
:1045C000FF800FFE16618020C01C12C6241C0F80C5
:1045D0008A301E1301FF191E3A411E12CC3B3807C8
:1045E0001E1B20101E4AF31E10091FFF0FC1802042
:1045F000801C1ADC1E3AC01E1A701E14FFFFFE1328
:1046000003FE1F3FFF3FC180211E12B81B70031E17
:1046100012208B20F01E1236130FC1291E12F02C0F
:10462000E003E01E1361F0291E12FC19B1311A01DA
:104630007A1A18072AC01E216B63D01E5AFC1E115D
:104640002A381E3A011E3BEF801E12F8430FF84A2B
:10465000031E3B03801E2301DE591E1809FFF001D3
:10466000FF0713C0C31E1B7FE7C32808F8E007C776
:10467000D80FFF1E1AF0CF19012ADF0539A511390D
:10468000081D900FFF07076AE01E3AEF1619572B17
:10469000FFF9251C0FFE030F19DE81C401E060291C
:1046A0001E021A80396801191A3FB3011AAA0F773E
:1046B0000116181ED1D2D3FFD1DEDFE0FFFFEDEEF1
:1046C000D3FFF8F9F9E0D4D5D6FFE1E2E3E4FFEF58
:1046D000F00A1EFAFBFCE4D708182AE5E6E7E4FF37
:1046E000F1F2D9F3FFFDFEC0C1D8D9DAFFE8E9EA5B
:1046F000EBFFF4F5F6F7FFC2C3C4D0DBDCDDFFDB74
:10470000DCDCECFF06390A15DD17FF025812020344
:10471000FF15FF16FF1810FF12FF13FF14FF1108FB
:10472000100F20401230401340401B50401CBC4032
:1047300013C44013CC4013D44010122050123050F8
:104740001340501D50501E60501FC85013D05000D1
:104750001027D850256EA0127EA0138EA0149EA004
:1047600015523BA40F011014014201120212031250
:104770000412051206120712081209120A120B126D
:0C4780000C120D120E120F492B0000004D
:040000050000006592
:00000001FF
