:020000040000FA
:10000000F02A00207D00000089000000910000001F
:1000100099000000A1000000A900000000000000FD
:10002000000000000000000000000000B10000001F
:10003000B900000000000000C1000000C90000007D
:10004000D9000000D1000000E1000000E90000003C
:10005000F1000000F90000000101000009010000AA
:1000600011010000190100000348854600F0DEF987
:100070000048004729220000F02A00202848804636
:10008000C14680472748004700B500F05CFB00BD33
:1000900000B500F00FFA00BD00B500F053FB00BD45
:1000A00000B500F005FA00BD00B500F03FFD00BD51
:1000B00000B500F0D3FC00BD00B500F0FAF900BDBA
:1000C00000B500F01FFC00BD00B500F0DBFC00BD7A
:1000D00000B500F0F5FC00BD00B500F009FD00BD65
:1000E00000B500F0ECFC00BD07B500F0EBF907BD72
:1000F00007B500F0ECF907BD07B500F0EDF907BD55
:1001000007B500F0EEF907BD07B500F0D7FC07BD55
:1001100007B505F043FB07BD07B501F0CBF807BDF8
:10012000A10A00006900000030B50B46014600201E
:100130002022012409E00D46D5409D4205D31D46ED
:100140009540491B2546954040191546521E002DE5
:10015000F1DC30BD70B500242546002801DA012409
:100160004042002901DA01254942FFF7DDFFAC4298
:1001700000D04042002C00D0494270BD0549064ADB
:1001800008685043054A80180860400870470149D4
:1001900008607047082300206D4EC64139300000CA
:1001A000F8B502464A40D40F42004B0052085B08A3
:1001B0009A4202D20246084611464A0023D0C30D95
:1001C0004A00DDB2120EAD1A202D35DA49020126A1
:1001D000490AF6058A19002C00D0524220214F1BF3
:1001E0001146B9402A411018C20D9A4221D0002C64
:1001F00017D0012D08DCDA05801AD20F8019D2073A
:10020000DBB200F0D9F8F8BDDA05801A012340000E
:100210001B06C01880185A428018CA0F10434900A4
:1002200007E04908C2071143DA05801A801940081F
:10023000801800F0B9F8F8BD61000122511A001BC6
:10024000F7E70122D2075140AAE70122D207504026
:10025000A6E7024670B54A40D30FDB0740002DD019
:100260004A002AD0010E140E000212020919400A97
:10027000520A8418E50104465443000A120A2E0467
:100280005043A4194219200CC543AA18120C012589
:10029000AD03521C521912047F39240400D0521CA1
:1002A000104301D44000491EC2B20C06C0092018F8
:1002B000401C4008802A02D003E0002070BD4008A6
:1002C0004000002900DA0020184370BD70B50246D6
:1002D0004A40D50F40004A00ED0740085208002868
:1002E00014D0002A12D0C40DD30D41020120C00544
:1002F0005202490A520AE41A091812187D3491422E
:1003000001D3641C00E04900002C01DA002070BD1C
:100310000023914201D3891A034340084900002871
:10032000F7D100290AD0914202D10121C90705E085
:10033000914201D2012101E00121C943E005C01829
:10034000401900F031F870BDC217C10F504010B510
:100350004018CA079623002100F02EF810BD10B5F2
:1003600000229623114600F027F810BD41004002FC
:100370000122400AD205090E80187F2901DA0020E7
:100380007047962903DC9622511AC8407047963967
:10039000884070470122D207002800DB101A00298C
:1003A00000DB511A88427047002904DA401C4900DA
:1003B00001D140084000704770B40024050C05D1FD
:1003C0001024000402D1002921D01124050E01D1EE
:1003D00000020834050F01D10001241D850F01D151
:1003E0008000A41C002801DB4000641C002908D008
:1003F00020252E1B0D46F540A14000D001212943A8
:10040000084301061B1B000ADB1D02D5002070BC3F
:100410007047DB05181880180029F8DA401C4900DD
:10042000F5D170BC4008400070470000064C012523
:10043000064E05E0E36807CC2B430C3C984710348C
:10044000B442F7D3FFF714FEB05E0000D05E0000A8
:1004500070B58D180478401CA207920F01D1027864
:10046000401C231106D10378401C03E006780E706F
:10047000401C491C521EF9D1002B15D002780C26C5
:100480008A1A3440401C0C2C03D0A401121B9B1C64
:1004900008E004782402121B401CF8E714780C7062
:1004A000491C521C5B1EF9D5A942D3D3002070BD54
:1004B000704770477047000001484069C0B27047FC
:1004C0000040004010B5002000F01CF910BD10B530
:1004D000012000F017F910BD10B5022000F012F94C
:1004E00010BD10B5032000F00DF910BD30B5034666
:1004F0000C4615461349488900F0F2F8181200F02E
:10050000DCF8D8B200F0D9F80E49888900F0E8F894
:10051000201200F0D2F8E0B200F0CFF80020052160
:100520000907486008600749088900F007F90020BA
:10053000052109078860012088600860284600F0CE
:10054000BCF830BDD4260020FFB585B00E46174656
:10055000102402962046E217520F1218D210E31709
:100560005B0F1B18DB10DB000094E31A01D00123A2
:1005700000E00023D2182146E30F5B185B105A43BA
:10058000D2B2019238462038C7B2002556E00C2C72
:1005900005D138012C494018405D049011E0102C21
:1005A00005D1380128494018405D049009E0182C15
:1005B00005D1380124494018405D049001E009B09C
:1005C000F0BD0020039033E080210498084000280B
:1005D00006D01E48028831460598FFF787FF08E0DD
:1005E0000898002805D11A48028831460598FFF777
:1005F0007DFF04984006000E0490701C86B21548DA
:100600004088B04200DCDAE70298301AA0420BD1F1
:10061000029E0598401C80B205900E4801880598FE
:10062000814200DCCBE706E00398401CC0B2039097
:1006300003980828C8DB00BF681CC5B20198854232
:10064000A5DB00BFBBE700006B58000024020020C0
:1006500026020020D4260020FFB581B004460D46B6
:100660000A9E1027E0B200900398001980B2039010
:100670000498401980B2049016E00398844202DB8B
:10068000009CE81985B20498854200DB12E03278BC
:10069000002329462046FFF757FF3846F90F09186F
:1006A000491009198CB2761C30787E2802DC30782B
:1006B0002028E2DA00BF05B0F0BD00B502460120F7
:1006C00005210907486000200860104600F036F850
:1006D000002005210907886001208860086000BDAE
:1006E00000B5024600200521090748600860104651
:1006F00000F024F8002005210907886001208860A7
:10070000086000BD30B502460020002100230A4CDD
:10071000216801249440204604460C402346002BC7
:1007200004D10C460443044D2C6003E00C46844382
:10073000014D2C6030BD000000100040052109076C
:100740008861704770477047C206D20E0121914000
:10075000014A11607047000000E100E0002004E061
:100760000021034A1154411CC8B20928F8DB704724
:10077000E226002038B504460121009100201C49E2
:100780004870012100912AE0684600882040002836
:1007900003D001201749886002E0002015498860D5
:1007A000012014494860052000F008FE002011498E
:1007B0004860052000F002FE01200E49486003F069
:1007C000DBFA002806D00A484078694609880843C1
:1007D00007494870684600884004010C009168464B
:1007E0000088FF28D0DD102000F0E8FD38BD0000B3
:1007F000E22600200050004010B5FFF7AFFF00F0E8
:100800002DF80F48007900020D49C97808430D49B9
:10081000088000240FE060000B49095C491E01209C
:100820008840084909880840002802D1601CC0B2ED
:1008300010BD601CC4B2102CEDDB0020F8E70000F6
:10084000E22600203002002034020020002002496D
:100850000860486088607047005000401CB5002167
:100860000191012100910020234908602349087863
:10087000FFF780FF21494878FFF77CFF02210191B3
:1008800031E00120009022E001201B494860052052
:1008900000F094FD002018494860052000F08EFD0E
:1008A00001201549486003F067FA00280AD014496E
:1008B00068460079095C684600880143104A68462A
:1008C00000791154684600884004010C0091684684
:1008D0000088FF28D8DD102000F070FD6846007900
:1008E000401CC1B20191684600790928C9DB01208A
:1008F000014908601CBD0000005000403202002089
:10090000E22600207047000000B50020044908607E
:10091000062000F075F801200149086000BD0000C4
:100920000040004010B504462404FFF7EDFF00F03E
:100930002DF800200A490860D82000F061F8210253
:10094000080E00F05DF82104080E00F059F8E0B23E
:1009500000F056F801200249086000F017F810BDB9
:100960000040004010B50024002007490860052021
:1009700000F046F8FF2000F043F804460120024949
:100980000860204610BD00000040004000B500BFD8
:10099000FFF7E8FFC007C00F0028F9D100BD000035
:1009A000F0B506460C461746FFF7AEFF00200F498C
:1009B0000860022000F024F82102080E00F020F860
:1009C0002104080E00F01CF8E0B200F019F8002530
:1009D00004E0705D00F014F8681C85B2BD42F8DBDD
:1009E000012002490860FFF7D1FFF0BD0040004040
:1009F000024948600121014A1160704700400040EF
:100A000010B50446002305E0581CC3B2C82B01DD15
:100A1000002010BDFFF750FD0028F5D0204600F063
:100A200013F8002305E0581CC3B2C82B01DD0020D9
:100A3000EFE7FFF741FD0028F5D002480069C0B29A
:100A4000E7E7000000400040034988600121024AB6
:100A5000D1600021D1607047004000407047000025
:100A6000014908617047000000E000E00149486169
:100A70007047000000E000E0014988617047000015
:100A800000E000E010B50020FFF7EAFF03484068EF
:100A90000121490608430149486010BD00ED00E00E
:100AA00010B50120FFF750FE0020FFF74DFE082093
:100AB000FFF74AFE0920FFF747FE10BD7047704759
:100AC00010B50120800704F0C7FD0120FFF71AFED2
:100AD00001A000F02DF810BD756172745F7278206E
:100AE000696E74206F636375722121210A00000012
:100AF00008B50120800704F0B2FD0220FFF702FED6
:100B000004A0FF234133F022002100900846FFF7A4
:100B1000A3FD08BD5541525454585F4952516E20AF
:100B20004F434355524544212121000070470000A6
:100B300010B5024A024900F022F810BD0D1700005E
:100B40002802002030B47446641E2578641CAB4231
:100B500004D3635D5B00E31830BC18471D46F8E71B
:100B600002E008C8121F08C1002AFAD17047704776
:100B7000002001E001C1121F002AFBD17047F8B527
:100B800016460F460446002503E03946B047641C6C
:100B90006D1C20780028F8D12846F8BD70B50546B0
:100BA000002459E01A206043285C002853D1012119
:100BB0001A20604329541E211A20604340194170B5
:100BC00000211A20604340198170FFF7D7FA642191
:100BD00048430646C00F801940104000301A643068
:100BE00001B21A20604340198180B4211A20604369
:100BF0004019C18000211A206043401901721A2057
:100C00006043401941721A20604340198172891E65
:100C10001A206043401981811E211A206043401927
:100C2000C1815A211A2060434019018228211A20CB
:100C30006043401941823C211A206043401981825F
:100C4000A0211A2060434019C182B4211A206043B8
:100C50004019018304E0641C024800788442A1DB4F
:100C600000BF70BD6858000010B504462046FFF76D
:100C700095FF10BDF8B505460E4600241BE11A206D
:100C80006043285C00287DD020201A2363435B1931
:100C90000090DB88DAB21A2363435B199B88D9B2D0
:100CA0003078C02304F0CCFD20201A2363435B1965
:100CB0000090DB88DB1DDAB21A2363435B199B8843
:100CC000D9B233785B1CD8B2C12304F0B9FD20201F
:100CD0001A2363435B190090DB880E33DAB21A23C0
:100CE00063435B199B88D9B233789B1CD8B2C2236B
:100CF00004F0A6FD20201A2363435B190090DB88D3
:100D00001533DAB21A2363435B199B88D9B233785F
:100D1000DB1CD8B2C32304F093FD20201A236343C5
:100D20005B190090DB881C33DAB21A2363435B192A
:100D30009B881B1FD9B233781B1DD8B2C42304F083
:100D40007FFD20201A2363435B190090DB881C334E
:100D5000DAB21A2363435B199B881B1DD9B233781F
:100D60005B1DD8B2C52304F06BFD60201A236343DA
:100D70005B190090DB885B1DDAB21A2363435B19B1
:100D80009B8800E096E0DB1FD9B233789B1DD8B278
:100D9000C62304F055FD20201A2363435B190090FD
:100DA000DB885B1DDAB21A2363435B199B88DB1D6A
:100DB000D9B23378DB1DD8B2C62304F041FD202020
:100DC0001A2363435B190090DB880C33DAB21A23D1
:100DD00063435B199B88DB1FD9B233780833D8B2E1
:100DE000C92304F02DFD20201A2363435B190090D2
:100DF000DB880C33DAB21A2363435B199B88DB1D53
:100E0000D9B233780933D8B2CA2304F019FD2020AF
:100E10001A2363435B190090DB880A33DAB21A2382
:100E200063435B199B880E3BD9B233780A33D8B23F
:100E3000C82304F005FD60201A2363435B1900906A
:100E4000DB880A33DAB21A2363435B199B880E33BB
:100E5000D9B233780B33D8B2C82304F0F1FC202088
:100E60001A2363435B190090DB880A33DAB21A2332
:100E700063435B199B88153BD9B233780C33D8B2E6
:100E8000C72304F0DDFC60201A2363435B19009044
:100E9000DB880A33DAB21A2363435B199B88153364
:100EA000D9B233780D33D8B2C72304F0C9FC3078F7
:100EB0000E303070641C03480078844200DADEE6AD
:100EC000F8BD00006858000070B504460025AAE18E
:100ED0001A206843205C00282FD01A20684300198C
:100EE000807802287ED100211A2068430019817081
:100EF0001A2068430019007A00282ED11A2068436E
:100F000000190621415E1A20684300191022825EF2
:100F1000914213DC00211A206843001981721A20C3
:100F200068430019417201211A20684300190172B7
:100F3000C04A2146C04803F039FD73E11A206843D6
:100F40000019C1881A20684300198089081801B265
:100F50001A2068430019C18064E11A20684300190F
:100F6000007A01287ED11A2068430019407A0028AF
:100F70005AD11A20684300198088801E01B21A20B5
:100F8000684300198180FFF7F9F806460321FFF74F
:100F9000E1F8491E1A2068430019C088081801B2F8
:100FA0001A2068430019C1801A20684300190421DF
:100FB000415E1A20684300191222825E914209DACA
:100FC00001211A206843001941729A4A21469A4821
:100FD00003F0ECFC1A20684300190421415E6429E7
:100FE0000EDA00E014E11A20684300190421415E82
:100FF000612905DD8F4A21468F4803F0D7FC11E1B6
:101000001A20684300190421415E782995DA1A20D4
:10101000684300190421415E75298EDD854A214609
:10102000854803F0C3FCFDE01A2068430019407AAC
:1010300001282CD11A20684300198088801C01B235
:101040001A206843001981801A2068430019C0885B
:10105000801E01B21A2068430019C1801A2068431B
:10106000001900E0B8E00421415E1A20684300192D
:101070001422825E9142C2DD02211A2068430019C7
:1010800041726C4A21466C4803F090FCCAE01A2079
:1010900068430019407A02286DD11A20684300196C
:1010A0008088801C01B21A20684300198180FFF7F4
:1010B00065F806460321FFF74DF8491E1A206843DC
:1010C0000019C088081801B21A2068430019C180AD
:1010D0001A20684300190421415E1A206843001950
:1010E0001822825E914209DD03211A20684300190B
:1010F0004172504A2146504803F058FC1A20684378
:1011000000190421415E6E290CDA1A206843001987
:101110000421415E6B2905DD464A2146464803F01D
:1011200045FC7FE01A20684300190421415E8029B4
:1011300078DA1A20684300190421415E7D2971DDA7
:101140003C4A21463C4803F031FC1A206843001910
:10115000807A401CC1B21A206843001981721A209B
:1011600068430019807A04285CD102211A20684360
:101170000019017256E01A2068430019407A0328CA
:1011800050D11A20684300198088801E01B21A20AD
:101190006843001981801A2068430019C088801CA8
:1011A00001B21A2068430019C1801A20684300194F
:1011B0000421415E1A20684300191622825E914282
:1011C00030DA1C4A21461C4803F0F0FB00211A20AB
:1011D00068430019417225E01A2068430019007A1B
:1011E00002281FD11A2068430019C088801E01B24E
:1011F0001A2068430019C1801A206843001906218B
:10120000415E0A290EDA00211A206843215409E0C0
:101210001A20684300198078401CC1B21A20684324
:10122000001981706D1C05480078854200DA4FE690
:1012300070BD00000C230020E0240020685800004E
:10124000014600201AE000231A22424352189380DC
:101250001A2242435218D3801A2242438B54052348
:101260001A2242435218537000231A224243521842
:1012700093701A22424352181372401C024A127889
:101280009042E0DB704700006858000030B5002451
:101290000CE0002506E0FF222146284604F0C8FAAB
:1012A000681CC5B2202DF6DB601CC4B21E2CF0DB1E
:1012B00030BD000010B52B48006880002A4908584E
:1012C0000300FFF73FFC0D47080C1014181C2029E1
:1012D000323B3F434700254803F09EFC3BE0234858
:1012E00003F0C4FC37E0214803F0DEFC33E01F4884
:1012F00003F01BFD2FE01D4803F049FD2BE01B48C8
:1013000003F09AFD27E01A480222825E0021415E26
:10131000184802F045FE1EE015480222825E0021B8
:10132000415E144802F059FE15E011480222825E27
:101330000021415E0F4802F071FE0CE00E4802F001
:1013400097FE08E00C4802F0A9FE04E00B48FFF706
:101350008BFC00E000BF00BF02480068401C014950
:10136000086010BD40000020440000208E230020B3
:101370000C230020EE230020A2240020C6240020FD
:1013800000B502460020FFF76BFB1046FFF76EFB2F
:101390000020FFF771FB0720FFF762FB30BF00BDA5
:1013A00010B503461C4603E00348FFF7E9FF641E3F
:1013B000002CF9D110BD000050C3000010B5034649
:1013C0001C4603E03220FFF7DBFF641E002CF9D13E
:1013D00010BD0000F0B589B005460C4616461F4604
:1013E0000A213046FEF7A0FE08910A213046FEF79A
:1013F0009BFE0A210390FEF797FE07916421304679
:10140000FEF792FE0A210390FEF78EFE06917D21E3
:10141000C9003046FEF788FE0A210390FEF784FEDD
:1014200005912749059888730698487407980875A8
:101430000898C87523493846FEF70BFF0390FEF75E
:1014400095FFC0B204900A210498FEF783FEC8B24B
:1014500008900A210498FEF77DFE0A210390FEF70A
:1014600079FEC8B207901649273107988870C91CC1
:10147000089888702878012820D1207814281DDA4F
:10148000002000902078410040180D4940188378D2
:101490002078410040180A494018427820784100DD
:1014A00040180749085C039020780290039904F0E3
:1014B000C7F92078401C20700020287009B0F0BDCA
:1014C000CA0200200000C842FFB506460F46154676
:1014D000002004E0002283000999CA50401C1E2805
:1014E000F8DB002428E02001305C002823D0220112
:1014F0009219D288D1B2220192199288D0B2099A57
:1015000004F09EF822019219D288D1B222019219D8
:1015100092880832D0B2099A04F092F82201921906
:10152000D288083AD1B2220192199288121DD0B203
:10153000099A04F085F8641C554800788442D2DB8F
:1015400000242FE01E206043385C002829D01E2292
:101550006243D2199288D1B21E226243D2195288B4
:10156000D0B2099A04F06CF81E226243D219928814
:10157000D1B21E226243D21952880832D0B2099ADF
:1015800004F05EF81E226243D2199288083AD1B262
:101590001E226243D2195288121DD0B2099A04F059
:1015A0004FF8641C3B4800788442CBDB00244FE0BA
:1015B0001A206043285C002849D01A22624352193D
:1015C000D2880E32D1B21A22624352199288D0B216
:1015D000099A04F035F81A2262435219D2880C3263
:1015E000D1B21A22624352199288D21FD0B2099AFC
:1015F00004F026F81A2262435219D2880C32D1B272
:101600001A22624352199288D21DD0B2099A04F06C
:1016100017F81A2262435219D2880A32D1B21A221A
:101620006243521992880E3AD0B2099A04F008F82F
:101630001A2262435219D2880A32D1B21A22624364
:10164000521992880E32D0B2099A03F0F9FF641C45
:10165000114800788442ABDB002414E00A20604388
:1016600003994018007900280CD00A226243039B9A
:10167000D2185288D1B20A2262439A5AD0B2099A39
:1016800003F0DEFF641C054800788442E6DBFFBD02
:10169000655800006658000068580000695800004E
:1016A000F8B505460E46002418E00A2060434019AC
:1016B0000079002811D010200A2363435B190090A1
:1016C0005B88DAB20A236343EB5AD9B2307830230D
:1016D00004F0B6F83078401C3070641C0248007882
:1016E0008442E2DBF8BD000069580000014600209A
:1016F00005E000230A22424352181371401C024A9B
:1017000012789042F5DB70476958000070B50446C6
:101710000D460A2C03D10D21400703F0A3FFE1B2CF
:101720000120800703F09EFF204670BDF8B50646F5
:10173000502500243078002802D0012804D101E08F
:10174000802403E0902401E0802400BF00BF8820B3
:10175000E2B2E9B240230090002004F071F8882042
:10176000E2B2009028460830C1B24123012004F0C3
:1017700067F88820009020460830C2B2281DC1B208
:101780004223022004F05CF8F8BDF0B585B00546B0
:101790000E4617461C460A213846FEF7C5FC049142
:1017A0000A213846FEF7C0FC0A210090FEF7BCFC77
:1017B000039164213846FEF7B7FC0A210090FEF73A
:1017C000B3FC02917D21C9003846FEF7ADFC0A2129
:1017D0000090FEF7A9FC019130200090207832465D
:1017E0002946019B04F02CF830202A460832D1B259
:1017F00000902278521CD0B23246029B04F020F8AE
:1018000030202A461032D1B200902278921CD0B2F9
:101810003246039B04F014F830202A461832D1B225
:1018200000902278D21CD0B23246049B04F008F813
:101830002078001D207005B0F0BD0000F3B587B022
:10184000079F08980690002520E000261AE0BD4278
:1018500016DB38461230854212DA069886420FDBD4
:101860000698401D86420BDA0698301A122148432A
:1018700047494018E91B425C3146284603F0D8FF2F
:10188000701CC6B21E2EE2DB681CC5B2202DDCDB4C
:10189000B81DC4B206980830C0B20590002517E004
:1018A000002611E0A5420DDB20460830854209DA0A
:1018B0000598864206D1281B36490A5C31462846DF
:1018C00003F0B6FF701CC6B21E2EEBDB681CC5B25F
:1018D000202DE5DB04940598801CC0B20390002500
:1018E00019E0002613E0049885420EDB04980830C6
:1018F00085420ADA0398864207D10498281A2649B5
:101900000A5C3146284603F093FF701CC6B21E2EB7
:10191000E9DB681CC5B2202DE3DB201FC0B20290BA
:1019200005980830C0B20190002519E0002613E0A8
:10193000029885420EDB02980C3085420ADA019843
:10194000864207D10298281A14490A5C3146284673
:1019500003F06EFF701CC6B21E2EE9DB681CC5B218
:10196000202DE3DB00250EE0002609E06801801948
:101970000B4B1A5CA9B2B0B2009003F059FF761C71
:10198000202EF3DB6D1C202DEEDB09B0F0BD000036
:1019900054020020BA020020C2020020AE02002041
:1019A00006030020F7B582B005460E46002474E019
:1019B0001A206043285C00286ED01A20604340192A
:1019C00080884005070E1A2060434019C0884005F2
:1019D000000E01900198801C800030580121B94010
:1019E00008400199891C890071587A1E012393408F
:1019F000194008430199891C890071587A1C0123F8
:101A00009340194008430199891C89007158BA1EF6
:101A100001239340194008430199891C890071589A
:101A2000BA1C0123934019400843009000980028F5
:101A300031D01A20604340194078401EC1B21A20AC
:101A40006043401941701A2262435219D2881432FD
:101A500011B21A22624352199288083A10B2049ABB
:101A600002F034F91A20604340194078002812D15E
:101A700000211A2060432954FD211A206043401997
:101A80008180EF211A2060434019C1800648006818
:101A9000C8300549086000BF641C044800788442CF
:101AA00086DB05B0F0BD000008000020685800008B
:101AB000F7B582B005460E46002458E00C2060437E
:101AC000285C002852D00C206043401980884005D3
:101AD000070E0C2060434019C0884005000E01909D
:101AE0000198401C800030580121B94008400199FC
:101AF000491C890071587A1C0123934019400843FE
:101B000000900098002830D00C20604340194078A5
:101B1000401EC1B20C206043401941700C22624348
:101B20005219D288083211B20C2262435219042091
:101B3000105E049A02F0CAF80C2060434019407805
:101B4000002812D100210C2060432954FD210C20D3
:101B5000604340198180EF210C2060434019C1800F
:101B600006480068C8300549086000BF641C044886
:101B700000788442A2DB05B0F0BD00000800002020
:101B800067580000F0B5024600202DE00A234343C9
:101B90009B181B79002B26D00A254543555B6D0504
:101BA0002C0E0A254543AD186D886D052B0E9D0042
:101BB0004D590126A64035402F46002F12D0002552
:101BC0000A264643B6183571FD250A264643955325
:101BD000EF250A264643B6187580064D2D686D1C04
:101BE000044E356000BF401C034B1B789842CDDB90
:101BF000F0BD00001000002064580000FFB583B065
:101C000005460E46174600244CE02001285C0028BB
:101C100047D02001401980884005000E0290200125
:101C20004019C0884005000E019001988000395885
:101C300001220298824008461040019989007A5892
:101C40000299491C01238B401A4010430199491EF7
:101C500089007A580299491C01238B401A4010438D
:101C60000090009800281BD0200140190621415EF9
:101C7000200140190423C35E1846069A02F026F894
:101C8000002021016854FD20210149198880EF209E
:101C900021014919C880344800680A303249086077
:101CA00000BF641C314800788442AEDB002454E05D
:101CB0001E206043305C00284ED01E2060438019F7
:101CC00040884005000E02901E20604380198088E5
:101CD0004005000E019001988000395801220298B9
:101CE000824008461040019989007A580299491C9F
:101CF00001238B401A4010430199491E89007A58EC
:101D00000299491C01238B401A401043009000980F
:101D1000002820D01E20604380190421415E1E202F
:101D2000604380190223C35E1846069A01F0CEFF75
:101D300000211E2060433154FD211E206043801984
:101D40004180EF211E206043801981800648006891
:101D50000A300549086000BF641C054800788442C9
:101D6000A6DB07B0F0BD00000800002065580000A9
:101D700066580000F7B582B004460F46E0790128A6
:101D80003CD020884005060E60884005050EA8005E
:101D900038580121B1400840A9007958721C01232C
:101DA000934019400843A9007958B21C012393407D
:101DB00019400843691C890079580122B24011403A
:101DC0000843691C89007958721C0123934019400B
:101DD000084301900198002802D1207920710CE07D
:101DE0000221615E0020205E049A01F06FFFFF2057
:101DF0002080EF2060800020207100BF05B0F0BD82
:101E000070B500240DE0002508E063015B19064E63
:101E1000F25CA1B2A8B203F00BFD6D1C202DF4DB27
:101E2000641C202CEFDB70BD060B0020F8B50546C6
:101E30000F46002448E00C206043285C002842D173
:101E400001210C206043295414210C2060434019C7
:101E5000417000210C206043401981700C206043C8
:101E600040198780FEF78AF9142148430646C00FBF
:101E7000801940104000301AE121081A01B20C20EC
:101E800060434019C18001210C2060434019017258
:101E9000FEF774F90646C00F801940104000301A52
:101EA000C1B20C20604340194172FEF767F9064643
:101EB000C00F801940104000301AC1B20C2060439E
:101EC0004019817204E0641C024800788442B2DB4D
:101ED00000BFF8BD67580000F8B505460F4600245E
:101EE00013E10C206043285C00287DD00C20604367
:101EF0004019807A002801D1002600E020260C201D
:101F000060434019407A002802D001286DD19AE040
:101F10000C2363435B190096DB88DAB20C2363431E
:101F20005B199B88D9B23878902303F089FC0C2385
:101F300063435B190096DB88DAB20C2363435B19B9
:101F40009B880833D9B23B785B1CD8B2912303F04D
:101F500077FC0C2363435B190096DB88DB1DDAB248
:101F60000C2363435B199B88D9B23B789B1CD8B286
:101F7000922303F065FC0C2363435B190096DB8816
:101F8000DB1DDAB20C2363435B199B880833D9B29B
:101F90003B78DB1CD8B2932303F052FC0C23634341
:101FA0005B190096DB880E33DAB20C2363435B19AE
:101FB0009B88D9B23B781B1DD8B2942303F040FC18
:101FC0000C2363435B190096DB880E33DAB20C23D3
:101FD00063435B199B880833D9B23B785B1DD8B249
:101FE000952303F02DFC01E08EE08AE00C2363438F
:101FF0005B190096DB881B1DDAB20C2363435B1967
:102000009B88083BD9B23B789B1DD8B2962303F03E
:1020100017FC3046402108430C2363435B190090B2
:10202000DB881B1DDAB20C2363435B199B881033DA
:10203000D9B23B78DB1DD8B2962303F001FC387887
:10204000083038705EE00C2363435B190096DB8830
:10205000DAB20C2363435B199B88D9B23878B32377
:1020600003F0EEFB0C2363435B190096DB88DB1F58
:10207000DAB20C2363435B199B88D9B23B785B1CB3
:10208000D8B2B12303F0DCFB0C2363435B19009649
:10209000DB88DB1DDAB20C2363435B199B88D9B262
:1020A0003B789B1CD8B2B52303F0CAFB0C236343D7
:1020B0005B190096DB88DAB20C2363435B199B88BB
:1020C000083BD9B23B78DB1CD8B2B22303F0B8FB93
:1020D0003046402108430C2363435B190090DB88A2
:1020E000DAB20C2363435B199B880833D9B23B787F
:1020F0001B1DD8B2B22303F0A3FB3878401D387003
:1021000000E000BF00BF00BF641C034800788442A9
:1021100000DAE6E6F8BD00006758000010B5014699
:1021200000204CE00C2242438A5C002A46D00C225C
:10213000424352189278022A36D100230C2242439D
:10214000521893700C22424352180423D35E052B7D
:1021500015DB0C22424352180423D35EFB2B0EDC0A
:102160000C224243531806229A5E08320A2A06DBE2
:102170000C22424352180623D35EE62B04DD0023D3
:102180000C2242438B5419E00C2242435218D3884C
:102190000C2242435218082414571A1B13B20C2263
:1021A00042435218D38009E00C22424352189278DD
:1021B000521CD3B20C22424352189370401C024A64
:1021C00012789042AEDB10BD675800000146002037
:1021D00022E000230C224243521893800C224243F7
:1021E0005218D3800C224243521813720C224243DD
:1021F0008B5405230C2242435218537000230C22A7
:102200004243521893700C224243521853720C22CC
:10221000424352189372401C024A12789042D8DB13
:1022200070470000675800001FB500200090019023
:10223000029001231A46FF21B3310390480703F0AF
:102240001CFAFEF703FB6420FEF7D2FB0020FEF72A
:1022500069FB01200003FEF765FB01204003FEF748
:1022600061FB03200003FEF75DFB01208003FEF706
:1022700059FB05200003FEF755FB03204003FEF742
:1022800051FB07200003FEF74DFBFE48006800F0FD
:10229000D9FCFD48006800F009FECDE2FB4800785B
:1022A000012823D10020F9490870F9480078002856
:1022B0001DD10120F7494862002409E00020FF23D6
:1022C000E622FB210090204603F0BAFA601CC4B25B
:1022D000402CF3DBFEF7DAFF08210720FFF7AEFA08
:1022E000ED48FFF723FA0020EC4908701DE1E848AB
:1022F000007801284BD10020E9490870E9490870AD
:10230000E9490870E9490870E9490860E949086045
:10231000E9490860E9490870E9490860E94801F0BD
:10232000BDFAE94801F0EEFAE84803F065F9E8483B
:1023300002F020FBE748FFF749FFE748FEF780FF80
:10234000E648FFF7D3F9E64801F0B0FC002409E0C5
:102350000020FF23E622FB210090204603F070FAC4
:10236000601CC4B2402CF3DBFEF790FFFFF748FD82
:102370000420C8494860C948007880038860082064
:10238000C86001200860086200204862CDE0C048B3
:10239000007802281FD10020BE490860002409E00F
:1023A0000020FF23E622FB210090204603F048FA9C
:1023B000601CC4B2402CF3DBFEF768FF0120B54976
:1023C00048620020C7490870C7490870C7490870AB
:1023D000C7490870A9E0AE480078032886D10020DC
:1023E000AC490860002709E00020FF23E622FB211A
:1023F0000090384603F024FA781CC7B2402FF3DB74
:10240000FEF744FFBB480078BB49087078242025BC
:102410003E2608202A46214633230090002003F060
:102420000FFA08202A46211834230090012003F0D7
:1024300007FA48202A462146103133230090022013
:1024400003F0FEF90820EA1D211D3523009003202A
:1024500003F0F6F90820EA1D21460C3136230090DE
:10246000042003F0EDF92820AA1921463323009017
:10247000052003F0E5F92820AA1921460831342364
:102480000090062003F0DCF96820AA1921461031DB
:1024900033230090072003F0D3F928200090A819D7
:1024A000C21D211D3523082003F0CAF92820009001
:1024B000A819C21D21460C313623092003F0C0F9AA
:1024C000302000907000421921463323322003F05F
:1024D000B7F93020009070004219214608313423AA
:1024E000332003F0ADF970200090700042192146AE
:1024F00010313323342003F0A3F930200090700012
:102500004019C01DC2B2211D3523184603F098F9A9
:102510003020009070004019C01DC2B221460C311D
:102520003623184603F08CF900BF5948007800287C
:1025300044D156480078002840D1FEF75DF96F4934
:1025400008600846006805280CD153480078002828
:1025500030DD51480078401E4F4908700846FFF7AB
:10256000E5F827E06548006807280CD14A4800785C
:1025700001281FDA48480078401C4749087008467F
:10258000FFF7D4F816E05D4800680D2812D14248E4
:102590000078002805D101203C4908703C490870AA
:1025A00008E03D480078012804D13849087003202C
:1025B000374908709620FEF7F3FE34E3344800787C
:1025C00001285DD1314800780028FAD137480078D9
:1025D000002856D12F4800692E49C968884201D386
:1025E0002C484069FEF708F9454908602C480078F6
:1025F000401C2B4908700846007810282BDB00206F
:1026000008704048007910210840002808D12D4862
:10261000C07900281FD12C492A4801F083F91AE01B
:10262000374800680E2803D101201E49087012E0C7
:102630003348006810280ED11B480078002805D1C7
:1026400001201449C8611849087004E000201149AC
:10265000C86115490870032111480078FDF77AFD1B
:1026600001297FD12648006808284FD1154800214C
:10267000415E192976DD0088401F00B2114943E010
:1026800017E2DAE0280000202400002022000020C9
:102690001C00002000080250040000202C00002034
:1026A0000000002001000020020000202300002084
:1026B000080000200C000020100000201D00002059
:1026C000140000200C230020162300208E2300205D
:1026D000EE230020A2240020C6240020E0240020B5
:1026E000AC26002021000020030000201E00002056
:1026F000200000202D0000202E00002030000020AF
:1027000034000020E226002008802BE0FE4800680C
:1027100006280AD1FD480021415EE72922DA008817
:10272000401D00B2F94908801CE0F7480068052800
:102730000AD1F6480221415E1E2913DD4088401F60
:1027400000B2F24948800DE0EF480068072809D13F
:10275000EE480221415ED22904DA4088401D00B2D1
:10276000EA494880EA48007801281CD0E949E7484E
:1027700000F010FDE84801F0ADF9E84AE349E84807
:1027800002F048FDE54AE149E64801F01DFEE64851
:10279000FFF7C4FCE548FEF797FBE04802F09AFF1C
:1027A000E34801F0B7FAE348006908280ED1E14890
:1027B000406978280AD8002005E00021C94382003A
:1027C000DD4B9950401C1E28F7DB03E0DA49D24864
:1027D00000F0B8FCD948D14BD44AD2490090D04837
:1027E000FEF772FED24AD549C848FFF7C3FAD04B6C
:1027F000D14ACC49CA48FFF701FACD4ACE49CA4866
:10280000FFF756F9CA4ACC49C848FFF7CBF8CB497D
:10281000C148FFF7B7F9BD480079002809D1C84879
:102820000078F02805DB0120C64908700220C6495F
:1028300008700120C5490870F5E1C44800780228F5
:1028400062D10020C2490870B148007801281BD12C
:10285000202003466E2211460090BD48007802F009
:10286000EFFFBB480078401CB949087020202123A5
:102870006E227E210090B648007802F0E1FFB44855
:102880000078401CB2490870B14BB2480A21026876
:102890000320FEF77AFFAE499C4800F0B5FCAC4936
:1028A0009D4801F009F8AA49A14801F097F9A84903
:1028B0009B4802F0CBFAA6499A4801F00FFCA449C4
:1028C0009948FFF709FBA2499848FEF7D3F9A049B8
:1028D0009248FEF7E5FE9E4804780FE00020FF23B3
:1028E000E622FB2100909A48007802F0A9FF984860
:1028F0000078401C96490870601CC4B2402CEDDB87
:102900000020924908708EE190480078032893D106
:1029100091480078401C90490870084600780228C9
:1029200066D1002453E00020894908700B4689488D
:102930000A2102680320FEF728FF854986480078AF
:1029400001F0F0F88249714800F05EFC804805789B
:102950000FE00020FF23E622FB2100907C48007856
:1029600002F06EFF7A480078401C79490870681CB4
:10297000C5B2402DEDDBFF202D30FEF711FD00200C
:10298000734908700B4673480A2102680320FEF75A
:10299000FCFE6F495D4800F037FC6D4805780FE09C
:1029A0000020FF23E622FB2100906948007802F016
:1029B00047FF67480078401C65490870681CC5B22D
:1029C000402DEDDBFF202D30FEF7EAFC641C062CC9
:1029D000A9DB0020574908605C490870012059496B
:1029E00008700220584908700020484908711AE10F
:1029F000002453E00020564908700B4655480A2130
:102A000002680320FEF7C1FE51495348007801F0E7
:102A100089F84F493D4800F0F7FB4D4805780FE035
:102A20000020FF23E622FB2100904948007802F0B5
:102A300007FF47480078401C45490870681CC5B22C
:102A4000402DEDDBFF20F530FEF7AAFC00204049C9
:102A500008700B463F480A2102680320FEF795FEE6
:102A60003B492A4800F0D0FB394805780FE00020A8
:102A7000FF23E622FB2100903548007802F0E0FEBB
:102A800033480078401C32490870681CC5B2402D9C
:102A9000EDDBFF202D30FEF783FC641C062CA9DB48
:102AA00000202A490870012026490870264908702C
:102AB000B9E02548007802286AD122480078002829
:102AC00066D126480068FDF74AFC044624480068A1
:102AD000FDF745FC05462146FDF7F8FB2149086056
:102AE000084603681E48204902682048FEF772FC29
:102AF0001D48007814284ADBFDF77EFE1C4908605B
:102B000008460068102835E0340000200C2300201F
:102B1000020000200100002016230020E0240020F5
:102B20008E230020EE230020A2240020C6240020B3
:102B3000AC26002000080250BC25002034260020CE
:102B40001D000020220000201C0000202300002087
:102B500003000020080000202C0000200C000020B2
:102B60001000002014000020200000202100002080
:102B70003800002008D100202C49087001202C4981
:102B8000087000202B4908706420FEF709FC4AE019
:102B900026480078032846D125480078002842D1ED
:102BA000782420253E260090234800787043401961
:102BB000C2B220460838C1B225230F2002F040FEE1
:102BC000FDF71AFE1D49086008460068052809D16E
:102BD00019480078002821DD17480078401E164962
:102BE00008701BE015480068072809D112480078D2
:102BF000022813DA10480078401C0F4908700DE0D5
:102C00000E480068102809D10B4800780C4908705C
:102C1000012007490870002004490870FF202D306A
:102C2000FEF7BEFB00BFFFF739FB00001C000020D1
:102C300022000020200000202E0000203C00002068
:102C40002D00002010B50446FF22013221468B489A
:102C5000FDF7A6FEFF220132A1188948FDF7A0FE6C
:102C6000FF220132E11DFF31FA318648FDF798FE5F
:102C7000FF2201320320000221188348FDF790FE55
:102C8000FF220132900021187C48FDF789FEFF22C7
:102C900001320520000221187948FDF781FEFF224C
:102CA00001320320400221187648FDF779FEFF2209
:102CB00001320720000221187348FDF771FEFF2240
:102CC0000132D00021186D48FDF76AFEFF22013263
:102CD0000920000221186A48FDF762FEFF22013236
:102CE0000520400221186748FDF75AFEFF220132F5
:102CF0000B20000221186448FDF752FEFF2201322A
:102D00000320800221185D48FDF74AFEFF220132B0
:102D10000D20000221185A48FDF742FEFF22013221
:102D20000720400221185748FDF73AFEFF220132E2
:102D30000F20000221185448FDF732FEFF22013215
:102D4000100121185148FDF72BFEFF2201321120FE
:102D5000000221184E48FDF723FEFF220132092010
:102D6000400221184B48FDF71BFEFF2201321320C1
:102D7000000221184848FDF713FEFF22013205200A
:102D8000800221183D48FDF70BFEFF22013215207D
:102D9000000221183A48FDF703FEFF2201320B2002
:102DA000400221183748FDF7FBFDFF2201321720B2
:102DB000000221183448FDF7F3FDFF220132032001
:102DC000C00221183148FDF7EBFDFF220132192026
:102DD000000221182E48FDF7E3FDFF2201320D20ED
:102DE000400221182B48FDF7DBFDFF2201321B209A
:102DF000000221182848FDF7D3FDFF2201320720E9
:102E0000800221181D48FDF7CBFDFF2201321D2055
:102E1000000221181A48FDF7C3FDFF2201320F20DE
:102E2000400221181748FDF7BBFDFF2201321F2089
:102E3000000221181448FDF7B3FDFF2201325001B2
:102E400021181648FDF7ACFDFF22013221200002B7
:102E500021181348FDF7A4FDFF2201321120400282
:102E600021181048FDF79CFDFF22013223200002AB
:102E700021180D48FDF794FD10BD00000607002045
:102E80000608002006090020060A0020060F002080
:102E9000061000200611002006120020060B00205C
:102EA000060C0020060D0020060E002010B504467A
:102EB000FF22013221468B48FDF772FDFF220132CD
:102EC000A1188948FDF76CFDFF220132E11DFF3199
:102ED000FA318648FDF764FDFF220132032000022B
:102EE00021188348FDF75CFDFF2201329000211874
:102EF0007C48FDF755FDFF22013205200002211814
:102F00007948FDF74DFDFF220132032040022118D0
:102F10007648FDF745FDFF22013207200002211807
:102F20007348FDF73DFDFF220132D00021187148A2
:102F3000FDF736FDFF2201320920000221186E48FC
:102F4000FDF72EFDFF2201320520400221186B48BB
:102F5000FDF726FDFF2201320B20000221186848F0
:102F6000FDF71EFDFF220132032080022118654873
:102F7000FDF716FDFF2201320D20000221186248E4
:102F8000FDF70EFDFF2201320720400221185F48A5
:102F9000FDF706FDFF2201320F20000221185C48D8
:102FA000FDF7FEFCFF220132100121185948FDF700
:102FB000F7FCFF2201321120000221185648FDF7CC
:102FC000EFFCFF2201320920400221185348FDF78F
:102FD000E7FCFF2201321320000221185048FDF7C0
:102FE000DFFCFF2201320520800221184948FDF74D
:102FF000D7FCFF2201321520000221184648FDF7B8
:10300000CFFCFF2201320B20400221184348FDF77C
:10301000C7FCFF2201321720000221184048FDF7AB
:10302000BFFCFF2201320320C00221183D48FDF7FA
:10303000B7FCFF2201321920000221183A48FDF79F
:10304000AFFCFF2201320D20400221183748FDF766
:10305000A7FCFF2201321B20000221183448FDF793
:103060009FFCFF2201320720800221181D48FDF736
:1030700097FCFF2201321D20000221181A48FDF79B
:103080008FFCFF2201320F20400221181748FDF764
:1030900087FCFF2201321F20000221181448FDF78F
:1030A0007FFCFF220132500121182248FDF778FCF5
:1030B000FF2201322120000221181F48FDF770FC79
:1030C000FF2201321120400221181C48FDF768FC44
:1030D000FF2201322320000221181948FDF760FC6D
:1030E00010BD000006070020060800200609002089
:1030F000060A0020061300200614002006150020F2
:1031000006160020061700200618002006190020C9
:10311000061A0020061B0020061C0020061D0020A9
:10312000061E0020061F0020062000200621002089
:1031300006220020060B0020060C0020060D0020B1
:10314000060E002070B505460E46002003E0002163
:103150008200B150401C1E28F9DB002412E00A2036
:1031600060434019007900280BD00A2262435219AB
:103170005288D1B20A226243AA5AD0B2324602F031
:103180005FFA641C024800788442E8DB70BD0000EE
:103190006458000070B504460D46E07900280DD152
:1031A000287801282FD1E071002020720120607260
:1031B000002028700320FDF7A5FA24E0207A0528D6
:1031C00002D0207A0A280BD1607A042804DC6088B7
:1031D000C01E00B2608003E06088C01C00B2608046
:1031E000207A0A280CDB00202072607A072803DB93
:1031F0000020E071607206E0607A401C607202E0BC
:10320000207A401C207270BD03B587B00898007802
:10321000069000200490FE480078002802D1082083
:1032200004900CE0FA480078012802D1282004908C
:1032300005E0F7480078022801D130200490079873
:103240000079002872D00798407A0300FDF77AFCD5
:1032500008056FD8FDFCFBFAF9F8052005900498E5
:10326000009007984088C0B2039007980088C0B2C9
:1032700002900698C0B233230190039A029902F09B
:10328000DFFA0498009007984088C0B2039007982E
:1032900000880830C0B202900698401CC0B23423A7
:1032A0000190039A029902F0CBFA40210498084356
:1032B000009007984088C0B20390079800881030AB
:1032C000C0B202900698801CC0B233230190039ACA
:1032D000029902F0B5FA0498009007984088C01D42
:1032E000C0B2039007980088001DC0B202900698F3
:1032F000C01CC0B235230190039A029902F0A0FAD3
:103300000498009007984088C01DC0B203900798A9
:1033100000880C30C0B202900698001DC0B236235F
:103320000190039A029902F08BFAADE2B4E2052013
:1033300005900498009007984088C0B203900798C1
:103340000088C0B202900698C0B237230190039A59
:10335000029902F075FA0498009007984088C0B26C
:103360000390079800880830C0B202900698401C6D
:10337000C0B238230190039A029902F061FA402109
:1033800004980843009007984088C0B203900798BB
:1033900000881030C0B202900698801CC0B237235B
:1033A0000190039A029902F04BFA04980090079852
:1033B0004088C01DC0B2039007980088001DC0B2AD
:1033C00002900698C01CC0B239230190039A02995A
:1033D00002F036FA0498009007984088C01DC0B2E9
:1033E0000390079800880C30C0B202900698001D28
:1033F000C0B239230190039A029902F021FA43E204
:10340000032005900498009007984088C0B203906C
:1034100007980088C0B202900698C0B23A23019083
:10342000039A029902F00CFA0498009007984088D9
:10343000C0B20390079800880830C0B2029005E03F
:1034400021E2B7E177E10BE176E01FE00698401C4E
:10345000C0B23B230190039A029902F0F1F9402196
:1034600004980843009007984088C0B203900798DA
:1034700000881030C0B202900698801CC0B23A2377
:103480000190039A029902F0DBF9FDE10420059016
:103490000498009007984088C0B20390079800886D
:1034A000C0B202900698C0B23D230190039A0299DF
:1034B00002F0C6F90498009007984088C0B20390C3
:1034C000079800880830C0B202900698401CC0B22D
:1034D0003E230190039A029902F0B2F94021049828
:1034E0000843009007984088C0B20390079800886E
:1034F0001030C0B202900698801CC0B23D230190EB
:10350000039A029902F09CF9402104980843009024
:1035100007984088C01FC0B2039007980088083001
:10352000C0B202900698C01CC0B23C230190039A1E
:10353000029902F085F9A7E1072005900498009010
:10354000079840880F38C0B2039007980088001D84
:10355000C0B202900698C0B23F230190039A02992C
:1035600002F06EF904980090079840880F38C0B2B6
:103570000390079800880C30C0B202900698401C57
:10358000C0B2F0230190039A029902F059F904980D
:10359000009007984088C01FC0B203900798008829
:1035A000001DC0B202900698801CC0B2F1230190A9
:1035B000039A029902F044F9049800900798408811
:1035C000C01FC0B20390079800880C30C0B20290B0
:1035D0000698C01CC0B2F2230190039A029902F02F
:1035E0002FF90498009007984088C0B2039007987C
:1035F0000088C0B202900698001DC0B2F32301906B
:10360000039A029902F01CF904980090079801E0CF
:103610002D0000204088C0B2039007980088083031
:10362000C0B202900698401DC0B2F4230190039AE4
:10363000029902F005F90498009007984088C0B2FA
:103640000390079800881030C0B202900698801D41
:10365000C0B2F5230190039A029902F0F1F813E148
:10366000062005900498009007984088C01FC0B2BB
:10367000039007980088001DC0B202900698C0B25F
:10368000F6230190039A029902F0DAF84021049897
:103690000843009007984088C01FC0B20390079865
:1036A00000880C30C0B202900698401CC0B2F623CD
:1036B0000190039A029902F0C3F8049800900798C9
:1036C0004088C0B2039007980088C0B20290069864
:1036D000801CC0B2F7230190039A029902F0B0F85F
:1036E0000498009007984088C0B20390079800881B
:1036F0000830C0B202900698C01CC0B2F8230190F6
:10370000039A029902F09CF8402104980843009023
:1037100007984088C0B20390079800881030C0B264
:1037200002900698001DC0B2F7230190039A0299F7
:1037300002F086F8A8E0032005900498009007980E
:103740004088C0B2039007980088C0B202900698E3
:10375000C0B23A230190039A029902F071F80498DA
:10376000009007984088C0B20390079800880830FE
:10377000C0B202900698401CC0B23B230190039A4D
:10378000029902F05DF840210498084300900798E0
:103790004088C0B20390079800881030C0B20290F1
:1037A0000698801CC0B23A230190039A029902F055
:1037B00047F869E005200590049800900798408834
:1037C000C0B2039007980088C0B202900698C0B2B9
:1037D00033230190039A029902F032F80498009082
:1037E00007984088C0B20390079800880830C0B29C
:1037F00002900698401CC0B234230190039A0299AB
:1038000002F01EF840210498084300900798408871
:10381000C0B20390079800881030C0B2029006989A
:10382000801CC0B233230190039A029902F008F879
:103830000498009007984088C01DC0B20390079874
:103840000088001DC0B202900698C01CC0B235238B
:103850000190039A029901F0F3FF049800900798F1
:103860004088C01DC0B20390079800880C30C0B2D9
:1038700002900698001DC0B236230190039A029967
:1038800001F0DEFF00E000BF00BF08980178059856
:103890000818C1B20898017009B000BD78210180F4
:1038A000B4214180012101710021C1710172417275
:1038B0000121817141717047F8B505460E4600241B
:1038C00018E00A20604340190079002811D0102028
:1038D0000A2363435B1900905B88DAB20A236343CF
:1038E000EB5AD9B23078312301F0AAFF3078401C6E
:1038F0003070641C024800788442E2DBF8BD0000AE
:10390000645800000146002005E000230A224243DB
:1039100052181371401C024A12789042F5DB70472E
:103920006458000010B50279002A25D08279002A57
:1039300023D100BF1EE00A2353435B181B79002BE1
:1039400017D1038808331CB20A235343CC5243884F
:10395000083B1CB20A2353435B185C8001240A23F2
:1039600053435B181C715A4B1B685B1C584C2360FB
:1039700002E0521C042ADEDBA8E08279012A3CD155
:10398000002237E00A2353435B181B79002B30D108
:103990000A2353435B189B7B002B2AD103881B1DF2
:1039A0001CB20A235343CC524388083B1CB20A235F
:1039B00053435B185C8001240A2353435B181C713A
:1039C00003880C331CB20A2353435B185C81438881
:1039D000083B1CB20A2353435B189C8101240A2331
:1039E00053435B189C733A4B1B689B1C384C2360F9
:1039F00002E0521C082AC5DB68E08279022A65D100
:103A0000002260E00B79002B5CD10A2353435B1842
:103A10009B7B002B56D10A2353435B181B7E002B44
:103A200050D10A2353435B181E331B79002B49D115
:103A300003881B1F1BB20B804388083B1BB24B80C3
:103A400001230B7103881B1D1CB20A2353435B180F
:103A50005C814388083B1CB20A2353435B189C815A
:103A600001240A2353435B189C7303880C331CB254
:103A70000A2353435B189C824388083B1CB20A23E9
:103A800053435B18DC8201240A2353435B181C76E2
:103A9000038814331CB20A2353435B18DC83438826
:103AA000083B1CB20A2353435B181C8401240A23DD
:103AB00053435B181E331C71054B1B681B1D044CC4
:103AC000236002E0521C102A9CDB00BF10BD0000E6
:103AD0000C000020014600201CE00A22424352183C
:103AE0001279002A15D00A22424352185288521FD6
:103AF00013B20A224243521853800A2242435218F8
:103B00000223D35E052B04DA00230A224243521813
:103B10001371401C024A12789042DEDB70470000AD
:103B200064580000F8B507460C4678256426202026
:103B30002946009020780C23324601F081FE20783F
:103B4000401C2070202029461031009020780D2341
:103B5000324601F075FE2078401C2070202032464D
:103B600010322B46083BD9B2009020783B4601F03A
:103B700067FE2078401C20702020324610322946F3
:103B80000831009020780E2301F05AFE2078401C66
:103B900020702020324610322946183100902078BB
:103BA0000F2301F04DFE2078401C20702020321899
:103BB000294600902078102301F042FE2078401C16
:103BC00020702020321829461031009020781123CF
:103BD00001F036FE2078401C2070F8BDFEB5054689
:103BE0000E4600245AE0E00040190079002854D025
:103BF000E000401940794006070E10203946E031B8
:103C0000CBB2E100491900904988CAB2E100695A73
:103C1000C9B20191307801F013FE10203B46E13328
:103C2000DBB201930090E3005B195B88DAB2E3003A
:103C3000EB5A0833D9B233785B1CD8B2019B01F040
:103C4000FFFDD0203946E131CBB2E10049190090A7
:103C50004988C91DCAB2E100695AC9B201913178D7
:103C6000891CC8B2019901F0EBFDD02000903846C4
:103C7000E030C3B2E00040194088C01DC2B2E0008D
:103C8000285A0830C1B23078C01CC0B2019001F08F
:103C9000D7FD3078001D307000BF641C02480078EA
:103CA0008442A0DBFEBD00006A58000001460020EF
:103CB00004E00022C3005B181A71401C024A12780B
:103CC0009042F6DB704700006A58000030B50346AA
:103CD000002016E0C400A4182479002C10D1C500DF
:103CE000AD186C71C4001353C400A4186180012482
:103CF000C500AD182C710024C500AD18AC7104E0EE
:103D0000401C034C2478A042E4DB00BF30BD00001F
:103D10006A5800000146002026E0C20052181279BD
:103D2000002A20D0C20052189279052A07DAC20070
:103D300052189279521CC3005B189A7113E000224A
:103D4000C3005B189A71C20052185279521CC3000A
:103D50005B185A71C20052185279042A03DB002200
:103D6000C3005B181A71401C024A12789042D4DBDF
:103D7000704700006A5800000148C06870470000A2
:103D800000500040FFB581B005461E460024FDE00E
:103D90001E206043285C00287ED101211E20604344
:103DA000295400211E20604340194170FCF7E6F9B8
:103DB00007460321FCF7CEF91420414330463C3836
:103DC000401A01B21E2060434019818000211E204C
:103DD00060434019C171FCF7D1F90746C00FC01903
:103DE00040104000381A41B21E2060434019417211
:103DF0001E2161434919029888711E2060434019B1
:103E0000807900286ED10F211E2060434019418027
:103E100000211E20604340190177FCF7AFF90746E7
:103E2000C00FC01940104000381A801C41B21E203B
:103E3000604340190172FCF7A1F90A214843074683
:103E4000C00FC01940104000391A039832380818C2
:103E500001B21E20604340198181FCF78FF91421C3
:103E600048430746C00FC01940104000391A1E20B1
:103E70006043401980891E30081801B21E2060433B
:103E80004019C181FCF77AF9142148430746C00F55
:103E9000C0194010400000E077E0391A304614386D
:103EA000401A01B21E20604340190182FCF766F9F6
:103EB00007461E21FCF74EF91E2060434019008A78
:103EC0001430081801B21E206043401941821E20A0
:103ED00060434019C0891E3801B21E20604340195A
:103EE000818251E0F1211E2060434019418004216C
:103EF0001E20604340190177FCF740F94742F80F54
:103F0000C01940104000381A801E41B21E20604384
:103F100040190172FCF732F907461421FCF71AF92F
:103F200003983230081801B21E2060434019818185
:103F30001E206043401980893C3801B21E20604336
:103F40004019C1813046143801B21E206043401927
:103F50000182FCF713F907461E21FCF7FBF81E202F
:103F600060434019008A1430081801B21E206043D3
:103F7000401941821E2060434019C0891E3001B2A1
:103F80001E2060434019818205E0641C03480078CC
:103F9000844200DAFCE600BF05B0F0BD66580000C0
:103FA000F8B507460E461446FCF7E8F80546C00F7C
:103FB000401940104000281AC0B2009023463246F3
:103FC00038460099FFF7DEFE2046143003B2324631
:103FD00038460099FFF7D6FEF8BDF7B582B00D461A
:103FE0001646FCF7CBF80446C00F001940104000FD
:103FF000201AC7B2012F01D0012000E0002001905B
:1040000033462A4639460298FFF7BCFE33462A4615
:1040100001990298FFF7B6FE05B0F0BDFEB5074660
:104020000D461646324629463846FFF7D6FFFCF7BE
:10403000A5F80446C00F001940104000201AC0B275
:104040000190FCF79BF80446C00F00194010400097
:10405000201AC0B2009033462A4638460199FFF72D
:1040600091FE33462A4638460099FFF78BFEFEBD87
:10407000F8B50546FCF782F80446C00F0019401059
:104080004000201AC6B20027002E01D1302700E0E0
:10409000D02739462846FDF7C9FEF8BDF8B50646D3
:1040A000FCF76CF80446C00F001940104000201ABD
:1040B000C5B20027002D01D1302700E0D0273946B6
:1040C0003046FDF7B3FE012D01D1302700E0D027A7
:1040D00039463046FDF7AAFEF8BD0000F8B50546A2
:1040E0000E46002467E11E206043285C00287DD036
:1040F0001E2060434019007F0300FCF723FD0504E8
:104100003F92CDFEFD0060201E2363435B190090AB
:104110009B88DAB21E2363435B195B88D9B230787F
:10412000592301F08DFB60201E2363435B1900902F
:104130009B88DB1DDAB21E2363435B195B88D9B20F
:1041400033785B1CD8B25A2301F07AFB60201E231F
:1041500063435B1900909B88DB1CDAB21E23634328
:104160005B195B88083BD9B233789B1CD8B25B23C0
:1041700001F066FB3078C01C30701AE1A0201E23CD
:1041800063435B1900909B885B1CDAB21E23634378
:104190005B195B885B1CD9B230785E2301F050FB61
:1041A000A0201E2363435B1900909B885B1CDAB23E
:1041B0001E2363435B195B880833D9B233785B1CD9
:1041C000D8B25F2301F03CFBA0201E2363435B19A0
:1041D00000909B880833DAB21E2363435B195B8827
:1041E000D9B233789B1CD8B25C2300E0E2E001F046
:1041F00027FBA0201E2363435B1900909B88083394
:10420000DAB21E2363435B195B880833D9B2337873
:10421000DB1CD8B25D2301F013FB3078001D307039
:10422000C7E020201E2363435B1900909B88DAB20D
:104230001E2363435B195B88D9B23078402301F0B9
:10424000FFFA20201E2363435B1900909B88DAB29B
:104250001E2363435B195B880833D9B233785B1C38
:10426000D8B2412301F0ECFA20201E2363435B19EE
:1042700000909B88083BDAB21E2363435B195B887E
:104280001B1DD9B233789B1CD8B2422301F0D8FA57
:104290003078C01C30708CE0E0201E2363435B1933
:1042A00000909B88DAB21E2363435B195B88D9B206
:1042B00030785F2301F0C4FAE0201E2363435B19CA
:1042C00000909B88DAB21E2363435B195B88083336
:1042D000D9B233785B1CD8B25E2301F0B1FAE0208A
:1042E0001E2363435B1900909B880833DAB21E23B8
:1042F00063435B195B8801E05AE01EE0D9B2337872
:104300009B1CD8B25D2301F09BFAE0201E2363437F
:104310005B1900909B880833DAB21E2363435B1954
:104320005B880833D9B23378DB1CD8B25C2301F048
:1043300087FA3078001D30703BE020201E23634355
:104340005B1900909B88DAB21E2363435B195B887C
:10435000D9B23078592301F073FA20201E23634329
:104360005B1900909B88DB1DDAB21E2363435B1947
:104370005B88D9B233785B1CD8B25A2301F060FA5B
:1043800020201E2363435B1900909B88DB1CDAB25C
:104390001E2363435B195B880833D9B233789B1CB7
:1043A000D8B25B2301F04CFA3078C01C307000E0CA
:1043B00000BF00BF641C03480078844200DA92E624
:1043C000F8BD000066580000F8B505460E4600240A
:1043D000C8E21E206043285C00282AD01E206043CB
:1043E0004019407802287DD100211E2060434019E9
:1043F00041701E20604340190221415E052914DBF3
:104400001E20604340190221415EFB290DDC1E2065
:10441000604340190421415E0A2906DB1E206043E7
:1044200040190421415EE62904DD00211E2060437D
:10443000295496E21E2060434019C07900285AD1C1
:104440001E20604340198079002816D11E20604349
:1044500040190221415E1E20604340190C22825EF9
:1044600091420ADB01211E2060434019C1710021E5
:104470001E2060434019817273E21E206043401980
:104480008079012816D11E20604340190221415E27
:104490001E20604340190C22825E91420ADC0121F9
:1044A0001E2060434019C17100211E206043401945
:1044B000817256E21E206043401941881E206043ED
:1044C000401908228256881801B21E206043401904
:1044D00041801E206043401981881E20604340199E
:1044E000092200E033E28256881801B21E206043A0
:1044F0004019818035E21E2060434019C0790128AF
:1045000097D11E20604340198079002878D11E2061
:1045100060434019807A0300FCF714FB05043573EF
:10452000A0DDFE0000211E206043401901771E20FF
:10453000604340194088C01C01B21E2060434019EE
:104540004180FBF71BFE07460321FBF703FE1E20FD
:10455000604340198088081801B21E20604340194A
:1045600081801E20604340190221415E1E2060436D
:1045700040190E22825E914204DB01211E2060431D
:1045800040198172D4E001211E2060434019017757
:10459000FBF7F4FD0746C00FC01940104000381A61
:1045A000801C1E21614349194988401801B21E2010
:1045B000604340194180FBF7E1FD0746C00FC01979
:1045C00040104000381A801C1E2161434919898817
:1045D000401801B21E206043401981801E206043B4
:1045E00040190421415E1E20604340191022825E62
:1045F000914204DB02211E2060434019817297E042
:1046000097E002211E206043401901771E2060437D
:1046100041190220085E1E216143491948801E206D
:10462000604340198088C01C01B21E2060434019BD
:1046300081801E20604340190421415E1E2060439A
:1046400040191222825E914207DB03211E20604343
:10465000401981720020FCF755F869E003211E2003
:10466000604340190177FBF789FD0746C00FC01969
:1046700040104000381A801C1E21614349194988A6
:10468000081A01B21E20604340194180FBF776FDF5
:104690000746C00FC01940104000381A801C1E2168
:1046A000614349198988401801B21E2060434019AE
:1046B00081801E20604340190221415E1E2060431C
:1046C00040191422825E914204DC04211E206043C2
:1046D000401981722CE004211E20604340190177AB
:1046E000FBF74CFD0746C00FC01940104000381AB8
:1046F000801C1E21614349194988081A01B21E20F5
:104700006043401941801E20604340190221415EF0
:104710001E206043401900E009E01622825E9142AB
:1047200004DC04211E2060434019817200E000BFB8
:1047300017E11E2060434019807A0300FCF702FA5B
:10474000050435729CD9FE0004211E2060434019E7
:1047500001771E20604340194088C01E01B21E2010
:10476000604340194180FBF709FD07460321FBF731
:10477000F1FC1E20604340198088081801B21E20F9
:104780006043401981801E20604340190221415E30
:104790001E20604340190E22825E914204DC0121FA
:1047A0001E20604340198172D0E003211E20604327
:1047B00040190177FBF7E2FC0746C00FC019401013
:1047C0004000381A801C1E21614349194988081A83
:1047D00001B21E20604340194180FBF7CFFC074621
:1047E000C00FC01940104000381A801C1E216143C0
:1047F00049198988401801B21E2060434019818000
:104800001E20604340190421415E1E206043401970
:104810001022825E914204DC02211E206043401976
:10482000817293E002211E206043401901771E200F
:10483000604341190220085E1E21614349194880E6
:104840001E20604340198088C01C01B21E206043B6
:10485000401981801E20604340190421415E1E20C2
:10486000604340191222825E914204DB03211E2024
:1048700060434019817269E001211E2060434019A4
:104880000177FBF77BFC0746C00FC01940104000C2
:10489000381A801C1E21614349194988401801B209
:1048A0001E20604340194180FBF768FC0746C00F9B
:1048B000C01940104000381A801C1E21614349195C
:1048C0008988401801B21E206043401981801E2053
:1048D000604340190221415E1E20604340191422AA
:1048E000825E914204DB04211E20604340198172E4
:1048F0002CE000211E20604340190177FBF73EFCAD
:104900000746C00FC01940104000381A801C1E21F5
:10491000614349194988401801B21E20604340197B
:1049200041801E20604340190221415E1E206043E9
:1049300040191622825E914206DB00E005E0042168
:104940001E2060434019817200E000BF09E01E2074
:10495000604340194078401CC1B21E20604340199A
:104960004170641C02480078844200DA31E5F8BDE9
:10497000665800000146002010E000231E2242433A
:10498000521853801E224243521893801E224243E3
:104990008B541E22424352185370401C024A127814
:1049A0009042EADB7047000066580000F0B58BB01B
:1049B00005460E46174600248CE00A206043401945
:1049C000007900287CD1B088083001B20A20604309
:1049D0002952F088083801B20A206043401941800A
:1049E00001210A206043401901710420305E0A90C1
:1049F0000620305E09900020385E08900220385E64
:104A000007903888B188401A00B206907888F188FB
:104A1000401A00B205900699002902DA0699494227
:104A200000E006990846FBF78FFC049005990029E1
:104A300002DA0599494200E005990846FBF784FC33
:104A4000039004990398FBF741FC02900020019029
:104A50003AE001998900234A50580299FBF7F1FB8B
:104A600000210090FBF796FC2BD8019840001E49CE
:104A7000095A0A2060434019C180019840001B492F
:104A8000095A0A206043401901810698002809DA72
:104A90000A2060434019C088404201B20A206043A6
:104AA0004019C1800598002809DA0A20604340199E
:104AB0000089404201B20A2060434019018106E0AA
:104AC00007E00198401C019001980A28C1DB00BF53
:104AD00005E0641C06480078844200DA6DE700BFF8
:104AE0000BB0F0BD885E0000725E00005E5E0000EC
:104AF00069580000F8B505460E46002482E0200102
:104B0000285C00287DD1012021014919487021012C
:104B10006854002021014919C8732101491988707E
:104B2000210149198872FBF729FB0746C00FC019FC
:104B300040104000381A2101491948720120210112
:104B400049190872B088210149198880FBF716FBC2
:104B50000746C00FC01940104000381A0A214843C8
:104B60000F3000B221014919C880F07A210149199A
:104B7000C87220014019C07A04281ED100202101EA
:104B8000491908730320210149194873FBF7F6FA04
:104B90000746C00FC01940104000381AC0B200903C
:104BA0000098002804D1022021014919887303E0EC
:104BB000032021014919887321E020014019C07A9E
:104BC00005280CD1C01F21014919087303202101B8
:104BD0004919487302202101491988730FE0200107
:104BE0004019C07A06280AD1022021014919087308
:104BF000032021014919487321014919887306E0EE
:104C0000FFE7641C03480078844200DA77E700BFBE
:104C1000F8BD00006558000070B50546FBF7AEFA18
:104C20000646AA21FBF796FA491D08B2A080042087
:104C3000205E052806DD0420205E552802DA0620C5
:104C4000E0720CE00420205EAB2806DD0420205E2C
:104C5000FB2802DA0520E07201E00420E072002364
:104C60001A4621462846FFF745FF70BDE0B50646C7
:104C7000FBF784FA0746AA21FBF76CFA19310DB24B
:104C8000A5800420E07200231A4621463046FFF733
:104C900031FF2846143000B2A08000231A46214676
:104CA0003046FFF727FFE0BD70B50546FBF766FA13
:104CB0000646AA21FBF74EFA491D08B2A08004203F
:104CC000205E052806DD0420205E552802DA062035
:104CD000E0720CE00420205EAB2806DD0420205E9C
:104CE000FB2802DA0520E07201E00420E0720023D4
:104CF0001A4621462846FFF7FDFEA088FF21013114
:104D0000081A00B2A080E07A062802D10520E072DD
:104D100004E0E07A052801D10620E07200231A465B
:104D200021462846FFF7E6FE70BDE0B50646FBF7D4
:104D300025FA0746AA21FBF70DFA19310DB2A58015
:104D40000420E07200231A4621463046FFF7D2FEC7
:104D50002846143000B2A08000231A46214630466F
:104D6000FFF7C8FE2846283000B2A08000231A466C
:104D700021463046FFF7BEFE28463C3000B2A080F8
:104D800000231A4621463046FFF7B4FEE0BD70B559
:104D90000546FBF7F3F90646AA21FBF7DBF9491DA7
:104DA00008B2A0800420205E052806DD0420205ED5
:104DB000552802DA0620E0720CE00420205EAB28C1
:104DC00006DD0420205EFB2802DA0520E07201E007
:104DD0000420E07200231A4621462846FFF78AFE87
:104DE000A088143000B2A08000231A46214628462D
:104DF000FFF780FEA088FF210131081A00B2A080D1
:104E0000E07A062802D10520E07204E0E07A052865
:104E100001D10620E07200231A4621462846FFF7FA
:104E200069FEA088143000B2A08000231A462146F3
:104E30002846FFF75FFE70BD10B504462046FFF719
:104E400074FF2046FFF712FF10BD0000FEB50546B7
:104E50000E460024D5E12001285C00287ED00027E2
:104E60000020029020014019C07B0300FBF76AFE7E
:104E70000805407DA6E4FDFCFBFA402002902201DB
:104E800052190097D288D2B2019222015219928807
:104E9000D1B23078029B019A00F0D2FC0097029ABE
:104EA000531C22015219D288D2B201922201521906
:104EB00092880832D1B23278521CD0B2019A00F0F6
:104EC000BFFC00970298831C20014019C088083855
:104ED000C2B2200140198088001DC1B23078801C08
:104EE000C0B2019000F0ACFC3078C01C307085E19D
:104EF00043200290210149190097C988CAB22101B3
:104F000049198988C9B201913078029B00F098FC58
:104F1000384640210843009020014019C088C2B2A1
:104F20002001401980880830C1B23078401CC0B2DE
:104F30000190029B00F084FC00970298431C200122
:104F40004019C0880838C2B2200140198088001D6D
:104F5000C1B23078801CC0B2019000E050E100F096
:104F60006FFC3078C01C307048E145200290210170
:104F700049190097C988CAB2210149198988C9B25B
:104F800001913078029B00F05BFC384640210843D9
:104F9000210149190090C988CAB22101491989889B
:104FA0000831C9B201913178491CC8B2029B0199FC
:104FB00000F046FC3078801C30701FE146200290E3
:104FC000220152190097D288D2B2019222015219BD
:104FD0009288D1B23078029B019A00F031FC3846B9
:104FE00040210843210149190090C988CAB2210112
:104FF000491989880831C9B201913178491CC8B270
:10500000029B019900F01CFC009702994B1C2101A6
:105010004919C9880831CAB2210149198988091D6D
:10502000C9B201913178891CC8B2019900F008FC1D
:105030003078C01C3070E1E048200290210149190D
:105040000097C988CAB2210149198988C9B201915A
:105050003078029B00F0F4FB384640210843009072
:10506000200103E0C9E088E060E025E04019C08845
:10507000C2B22001401980880830C1B23078401C8B
:10508000C0B20190029B00F0DBFB00970298431C2A
:1050900020014019C0880830C2B220014019808820
:1050A000001DC1B23078801CC0B2019000F0C8FB76
:1050B0003078C01C3070A1E0210149190097C988DF
:1050C000CAB2210149198988C9B2019130784B23AC
:1050D00000F0B6FB384640210843210149190090F1
:1050E000C988CAB22101491989880831C9B2019118
:1050F0003178491CC8B24A23019900F0A1FB210173
:1051000049190097C9880839CAB221014919898803
:10511000091DC9B201913178891CC8B24C2301998B
:1051200000F08EFB3078C01C307067E0220152190D
:105130000097D288D2B20192220152199288D1B23C
:1051400030784D23019A00F07BFB3846402108431C
:10515000009020014019C0880838C2B220014019CF
:105160008088C1B23078401CC0B24E23019000F05C
:1051700067FB3078801C307040E04A20029038464F
:1051800040210843009020014019C088C2B220018C
:1051900040198088C1B230785023019000F050FB54
:1051A000384640210843009020014019C088C2B20F
:1051B0002001401980880830C1B23078401CC0B24C
:1051C0004F23019000F03CFB3846402108430090FB
:1051D00020014019C088C01FC2B220014019808838
:1051E000001DC1B23078801CC0B25123019000F084
:1051F00027FB3078C01C307000E000BF00BF00BF4C
:10520000641C03480078844200DA24E6FEBD0000F6
:1052100065580000F7B582B005460E460024E1E16E
:105220002001285C002829D020014019807802281C
:105230006FD10020210149198870200140190421F3
:10524000415E052911DB200140190421415EFB2943
:105250000BDC200140190621415E0A2905DB2001F3
:1052600040190621415EE62909DD0020210168542C
:1052700021014919888021014919C880B1E1200123
:105280004019807A00287DD1FAF778FF142148432D
:1052900007460321FAF75EFF0220305E2838401AE5
:1052A0002101491906228A5E90426CDC20014019D6
:1052B000007A012809D12001411932460498FFF7EC
:1052C00075FB002021014919087220014019407A1C
:1052D000002843D1200141190420085E0021715E9D
:1052E000884217DA0020305E2101491904228A5EC3
:1052F000801A3C280EDA0020305E21014919042270
:105300008A5E801A002805DD06202101491988736C
:105310005EE05FE1200141190420085E0021715E1A
:10532000884216DD200141190420085E0021715ECB
:10533000401A32280DDA200141190420085E0021AC
:10534000715E401A002804DD052021014919887387
:105350003EE0042021014919887339E020014019F9
:10536000C07A042821D100202101491908730320A3
:10537000210149194873FAF701FF0746C00FC01908
:10538000401001E05EE044E04000381AC0B20190F5
:105390000198002804D1022021014919887303E0F3
:1053A000032021014919887312E020014019C07AB5
:1053B000052804D1022021014919887308E0200141
:1053C0004019C07A062803D10320210149198873A6
:1053D00020014019407A012808D1002021014919F3
:1053E000C8730120210149198872FAE0200140198F
:1053F000807B042804D10220210149198872F0E041
:105400000120210149198872052021014919C87319
:10541000E7E0200140198088210149190C228A56B1
:10542000801800B221014919888020014019C088E4
:10543000210149190D228A56801800B2210149190B
:10544000C880CEE020014019807A01284CD120018B
:105450004019407A012823D1200141190420085E17
:10546000210149198880200141190620085E210187
:105470004919C88020014019C07B0428B5DA2001F1
:105480004019C07B401C21014919C87320014019F3
:10549000C07B0428A9D10220210149198872A0E00B
:1054A000200141190420085E21014919888020014A
:1054B00041190620085E21014919C88020014019C0
:1054C000C07B07280FDA20014019C07B401C210156
:1054D0004919C87320014019C07B072803D1022055
:1054E0002101491988727CE020014019807A022844
:1054F00077D120014019807B0300FBF723FB07696C
:105500000515263747586900200141190420085E17
:1055100021014919888020014019C088001F00B26C
:1055200021014919C88054E0200140198088801E5B
:1055300000B221014919888020014019C088C01E8D
:1055400000B221014919C88043E020014019808838
:10555000801C00B221014919888020014019C088AF
:10556000C01E00B221014919C88032E02001411952
:105570000420085E21014919888020014019C08853
:10558000401D00B221014919C88022E020014019C4
:105590008088801E00B221014919888020014019AD
:1055A000C088C01C00B221014919C88011E0200147
:1055B00040198088801C00B221014919888020018F
:1055C0004019C088C01C00B221014919C88000E000
:1055D00000BF06E0200140198078401C21014919D4
:1055E0008870641C03480078844200DA18E605B02D
:1055F000F0BD0000655800000146002018E00022C0
:1056000003015B189A8003015B18DA800301CA5416
:10561000012203015B185A70002203015B189A7083
:1056200003015B181A72012203015B185A72401CB5
:10563000024A12789042E2DB704700006558000091
:10564000F0B5C510CB100126AE4034469E009659E9
:1056500026439F00D651F0BD0221C1607047012151
:10566000C160704705E04268D207D20F002A00D11E
:1056700000E0F8E700BF01607047F0B50446059D03
:105680000026002A01D001200643002B01D0022071
:105690000643002D01D0042006430698002801D0BF
:1056A000082006430798002801D0102006430898D8
:1056B000002801D0202006430020A0602161A660C0
:1056C00060680C273840002801D00120F0BD002080
:1056D000FCE700000146002059E00A22424352182C
:1056E0005279042A48D100230A22424352185371A6
:1056F0000A22424352181279002A47D00A22424312
:10570000521853880A224243521812899A1813B227
:105710000A224243521853800A2242438B5A0A22D9
:1057200042435218D2889A1813B20A2242438B522B
:105730000A22424352180223D35EE62B06DC0A22D9
:10574000424352180223D35E0A2B05DA00230A22B1
:1057500042435218137119E00A2242438A5EFB2A1F
:1057600004DC0A2242438A5E052A0FDA00230A2259
:1057700042435218137109E00A22424352185279E7
:10578000521CD3B20A22424352185371401C024A9F
:1057900012789042A1DB7047695800001D480078DC
:1057A000012823D11C480078012831D11B48006909
:1057B00009280AD119488069002806D10320164912
:1057C000087000201549086002E0022012490870A4
:1057D00013480079002803D010488069002817D1A9
:1057E00010480078401C0F49087011E00948007803
:1057F00002280DD10C480078401C0B49087008465F
:1058000000780A2804D10020087001200749087098
:10581000704700001C0000202300002000080250F8
:105820000C2300201D0000201E000020210000206D
:1058300010B54B01014C1B191A5410BD0000025049
:1058400070B5049C8500064EAD19E9708500AD1950
:10585000AA708500AD196B708500AD192C7070BDF4
:10586000000001500C060603010A050000000000BC
:105870000000000000000000000000000000000028
:10588000001FCC000C0000000000000000080030E9
:105890000060000800300060000000022003FC1ED1
:1058A00020022003FC1E200220000000000E181120
:1058B000043FFF10840C78000000000F0010840FDC
:1058C0003800C0077818840078000000780F841032
:1058D000C411240E9800E4008400080800680070D9
:1058E00000000000000000000000000000000000B8
:1058F0000007E018182004400200000000400220C9
:1059000004181807E00000000000000240024001F7
:10591000800FF00180024002400000008000800003
:10592000800FF800800080008000000001000D0062
:105930000E000000000000000000000000008000D9
:1059400080008000800080008000800000000C004B
:105950000C00000000000000000000000000060035
:105960001800600180060018002000000007F00801
:105970000810041004080807F000000000080408DC
:10598000041FFC000400040000000000000E0C10C6
:10599000141024104411840E0C000000000C181088
:1059A000041104110412880C700000000000E003D0
:1059B00020042408241FFC0024000000001F98106D
:1059C0008411041104108810700000000007F00812
:1059D000881104110418880070000000001C0010D9
:1059E0000010FC13001C001000000000000E381115
:1059F000441084108411440E380000000007000891
:105A00008C10441044088807F000000000000000DB
:105A100000030C030C000000000000000000000068
:105A200001010600000000000000000000008001ED
:105A30004002200410080810040000022002200286
:105A40002002200220022002200000000010040892
:105A5000080410022001400080000000000E001227
:105A600000100C106C10800F00000003E00C1813E5
:105A7000E4142417C4082807D000000004003C03E5
:105A8000C41C40074000E4001C000410041FFC116B
:105A900004110411040E880070000003E00C1810BB
:105AA000041004100410081C10000010041FFC1047
:105AB0000410041004080807F0000010041FFC1173
:105AC00004110417C410040818000010041FFC116E
:105AD00004110017C010000800000003E00C1810AB
