:020000040000FA
:10000000F82C00207D000000890000009100000015
:1000100099000000A1000000A900000000000000FD
:10002000000000000000000000000000B10000001F
:10003000B900000000000000C1000000C90000007D
:10004000D9000000D1000000E1000000E90000003C
:10005000F1000000F90000000101000009010000AA
:1000600011010000190100000348854600F0D4F991
:1000700000480047211A0000F82C0020284880463C
:10008000C14680472748004700B500F0EEFA00BDA2
:1000900000B500F005FA00BD00B500F0E5FA00BDBE
:1000A00000B500F0FBF900BD00B500F09DFC00BDFF
:1000B00000B500F031FC00BD00B500F0F0F900BD66
:1000C00000B500F08BFB00BD00B500F02DFC00BDBD
:1000D00000B500F053FC00BD00B500F067FC00BDAA
:1000E00000B500F04AFC00BD07B500F0E1F907BD1E
:1000F00007B500F0E2F907BD07B500F0E3F907BD69
:1001000007B500F0E4F907BD07B500F035FC07BD01
:1001100007B503F05BFE07BD07B500F0A7FE07BDFE
:10012000450900006900000030B50B46014600207B
:100130002022012409E00D46D5409D4205D31D46ED
:100140009540491B2546954040191546521E002DE5
:10015000F1DC30BD70B500242546002801DA012409
:100160004042002901DA01254942FFF7DDFFAC4298
:1001700000D04042002C00D0494270BD0549064ADB
:1001800008685043054A80180860400870470149D4
:1001900008607047EC2400206D4EC64139300000E5
:1001A000F8B502464A40D40F42004B0052085B08A3
:1001B0009A4202D20246084611464A0023D0C30D95
:1001C0004A00DDB2120EAD1A202D35DA49020126A1
:1001D000490AF6058A19002C00D0524220214F1BF3
:1001E0001146B9402A411018C20D9A4221D0002C64
:1001F00017D0012D08DCDA05801AD20F8019D2073A
:10020000DBB200F0CFF8F8BDDA05801A0123400018
:100210001B06C01880185A428018CA0F10434900A4
:1002200007E04908C2071143DA05801A801940081F
:10023000801800F0AFF8F8BD61000122511A001BD0
:10024000F7E70122D2075140AAE70122D207504026
:10025000A6E7024670B54A40D30FDB0740002DD019
:100260004A002AD0010E140E000212020919400A97
:10027000520A8418E50104465443000A120A2E0467
:100280005043A4194219200CC543AA18120C012589
:10029000AD03521C521912047F39240400D0521CA1
:1002A000104301D44000491EC2B20C06C0092018F8
:1002B000401C4008802A02D003E0002070BD4008A6
:1002C0004000002900DA0020184370BD70B50246D6
:1002D0004A40D50F40004A00ED0740085208002868
:1002E00014D0002A12D0C40DD30D41020120C00544
:1002F0005202490A520AE41A091812187D3491422E
:1003000001D3641C00E04900002C01DA002070BD1C
:100310000023914201D3891A034340084900002871
:10032000F7D100290AD0914202D10121C90705E085
:10033000914201D2012101E00121C943E005C01829
:10034000401900F027F870BDC217C10F504010B51A
:100350004018CA079623002100F024F810BD10B5FC
:1003600000229623114600F01DF810BD4100400206
:100370000122400AD205090E80187F2901DA0020E7
:100380007047962903DC9622511AC8407047963967
:1003900088407047002904DA401C490001D1400818
:1003A0004000704770B40024050C05D110240004EF
:1003B00002D1002921D01124050E01D100020834F8
:1003C000050F01D10001241D850F01D18000A41C5F
:1003D000002801DB4000641C002908D020252E1BCA
:1003E0000D46F540A14000D00121294308430106F4
:1003F0001B1B000ADB1D02D5002070BC7047DB050B
:10040000181880180029F8DA401C4900F5D170BC92
:100410004008400070470000064C0125064E05E0EC
:10042000E36807CC2B430C3C98471034B442F7D315
:10043000FFF71EFEB8440000D844000070B58D18C8
:100440000478401CA207920F01D10278401C2311AE
:1004500006D10378401C03E006780E70401C491C4E
:10046000521EF9D1002B15D002780C268A1A34407E
:10047000401C0C2C03D0A401121B9B1C08E0047828
:100480002402121B401CF8E714780C70491C521C03
:100490005B1EF9D5A942D3D3002070BD70477047C9
:1004A0007047000001484069C0B2704700400040FA
:1004B00010B5002000F0CAF810BD10B5012000F002
:1004C000C5F810BD10B5022000F0C0F810BD10B581
:1004D000032000F0BBF810BDF0B5124C07461546DE
:1004E0000E46608900F0A7F8380A00F099F8F8B2D3
:1004F00000F096F8A08900F09EF8300A00F090F81D
:10050000F0B200F08DF80023052109074B600B6065
:10051000208988618B60012088600860284600F08F
:100520007FF8F0BDDC280020FFB583B010200090DC
:100530000220C000203A0290D0B20C460191002661
:10054000059038E000980C2803D0102801D0182816
:1005500034D1059801011A480818855D002728063E
:1005600002D51848028804E00698002805D11548ED
:10057000428821460398FFF7AFFF6806050E124830
:10058000641C4088A4B2A04218D90198211A00988E
:1005900081420AD10398019C401C80B203900A4812
:1005A00001880398814209D903E07F1CFFB2082F1C
:1005B000D5D3761CF6B202988642C3D307B0F0BDFD
:1005C000773E000000040020DC280020FFB582B048
:1005D0000446C0B20B9E0190101980B20D460490E3
:1005E000581980B2102705907808009011E00498FF
:1005F000844202D3E819019C85B2059885420DD248
:10060000002329462046FFF78FFF0098001984B287
:10061000761C3278104620385E28E8D906B0F0BD46
:100620000122052109074A6000230B6088618B6065
:100630008A600A6070470022052109074A600A6043
:1006400088618A60012088600860704710B5054B9A
:1006500001211A688140114201D10A4300E08A4316
:100660001A6010BD0010004070477047C106C90EE7
:1006700001208840014908607047000000E100E067
:100680000020044A01461154401CC0B20928FAD384
:1006900070470000EA280020F8B5012569460746A2
:1006A0000D801448002646700D80134C1BE008880E
:1006B000384201D0A56000E0A6606560052000F02A
:1006C0004DFC6660052000F049FC6560E06800288C
:1006D00005D008486A46417812881143417069463E
:1006E0000888400008800888FF28E0D9102000F022
:1006F00035FCF8BDEA2800200050004070B5FFF737
:10070000BFFF00F027F80D480D4C0179C0780B02AF
:1007100003430B48241D4380002001254100625CF7
:100720002946521E9140194202D1401CC0B270BDF0
:10073000401CC0B21028F1D3002070BDEA28002070
:100740000804002002480021016041608160704778
:1007500000500040FEB5002669460E7001258D80D0
:100760001B4C26601B4F3878FFF796FF7878FFF711
:1007700093FF022069460870174F23E08D8017E031
:100780006560052000F0EAFB6660052000F0E6FBEE
:100790006560E068002807D0694608788988385C79
:1007A00008436946097878546946888840008880FB
:1007B0008888FF28E4D9102000F0D0FB694608782B
:1007C000401C087008780928D8D32560FEBD0000B9
:1007D0000050004008040020EA2800207047000074
:1007E00000B5044B00201860062000F069F80120D5
:1007F000186000BD0040004010B50404FFF7F0FF92
:1008000000F028F80A4B00201860D82000F058F8B3
:100810002002000E00F054F82004000E00F050F802
:10082000E0B200F04DF80120186000F013F810BDA0
:100830000040004000B5064B00201860052000F085
:100840003FF8FF2000F03CF80121196000BD0000D6
:100850000040004000B5FFF7EDFFC007FBD100BD31
:10086000F0B514460F460546FFF7BAFF0F4E0020BD
:100870003060022000F024F83802000E00F020F86A
:100880003804000E00F01CF8F8B200F019F800234C
:1008900004E0E85C00F014F85B1C9BB2A342F8D3C0
:1008A00001203060FFF7D6FFF0BD0000004000409F
:1008B0000249486001200860704700000040004085
:1008C00000B50246002103E0491CC9B2C8290CD872
:1008D000FFF7E8FD0028F7D0104600F013F80021DC
:1008E00005E0491CC9B2C82901D9002000BDFFF7A5
:1008F000D9FD0028F5D002480069C0B200BD000053
:1009000000400040034988600120C8600020C860A2
:100910007047000000400040704700000149086136
:100920007047000000E000E010B50020FFF7F6FF80
:1009300003484168012252061143416010BD000086
:1009400000ED00E010B50B49094808600020C043E5
:10095000FFF78CFE0120FFF789FE0020FFF786FEDF
:100960000820FFF783FE0920FFF780FE10BD00007E
:1009700080F0FA02FC0300207047704710B5012098
:10098000800703F0BEF90120FFF760FE01A000F030
:100990002DF810BD756172745F727820696E7420D5
:1009A0006F636375722121210A00000008B50120E0
:1009B000800703F0A9F90220FFF748FE04A0FF23F7
:1009C000002100904133F0220846FFF7FFFD08BDEB
:1009D0005541525454585F4952516E204F4343552C
:1009E00052454421212100007047000010B5024A01
:1009F000024900F021F810BD41120000040400205B
:100A000030B47446641E2578641CAB4200D21D4687
:100A1000635D5B00E31830BC184702E008C8121F92
:100A200008C1002AFAD170477047002001E001C1D7
:100A3000121F002AFBD17047F8B516460F46044630
:100A4000002503E03946B047641C6D1C207800285F
:100A5000F8D12846F8BD000070B5194A0021137876
:100A600005E01A224A43825C002A03D0491C9942BD
:100A7000F7DB70BD01221A23594342541E250C187E
:100A800065700026A670FFF779FB64214843C10F0B
:100A9000091849084900401A6430A080B420E08059
:100AA00026726672A672B11EA181E5815A21218249
:100AB000282161823C21A182A021E182208370BD96
:100AC000743E000010B5FFF7C7FF10BDF3B581B04D
:100AD0000D460027C1E038461A2148430199095CB8
:100AE00000297DD02026019900964418E088C2B2E2
:100AF000A088C023C1B2287803F0AEF90096E08840
:100B0000C01DC2B2A088C123C1B22878401CC0B2A7
:100B100003F0A2F90096E0880E30C2B2A088C2238A
:100B2000C1B22878801CC0B203F096F90096E08824
:100B30001530C2B2A088C323C1B22878C01CC0B28D
:100B400003F08AF90096E0881C30C2B2A088C42362
:100B5000001FC1B22878001DC0B203F07DF90096D5
:100B6000E0881C30C2B2A088C523001DC1B228781D
:100B7000401DC0B203F070F960200090E088401D75
:100B8000C2B2A088C623C01FC1B22878801DC0B2DF
:100B900003F062F90096E088401DC2B2A088C62327
:100BA000C01DC1B22878C01DC0B203F055F900962F
:100BB000E0880C30C2B2A088C923C01FC1B2287817
:100BC0000830C0B203F048F90096E0880C30C2B299
:100BD000A088C01DC1B228780930C0B2CA2300E085
:100BE0003AE003F039F90096E0880A30C2B2A088F2
:100BF000C8230E38C1B228780A30C0B203F02CF9ED
:100C000060200090E0880A30C2B2A088C8230E306D
:100C1000C1B228780B30C0B203F01EF90096E0880C
:100C20000A30C2B2A088C7231538C1B228780C3068
:100C3000C0B203F011F960200090E0880A30C2B21F
:100C4000A088C7231530C1B228780D30C0B203F098
:100C500003F928780E3028707F1C034800788742FB
:100C600000DA38E7FEBD0000743E0000F8B500254C
:100C700006462F460DE028461A214843315C0029DC
:100C800006D08419A178022908D0A078401CA07051
:100C90006D1C5E4800788542EDDBF8BDA770217AB7
:100CA00000290ED0217A01291BD0217A0229EFD107
:100CB000E188891EE1800621615E0A29E8DA37545D
:100CC000E6E70620205E1021615E884204DCA77200
:100CD0006772012020727DE0E088A1894018E080E1
:100CE000D6E7607A00281BD0607A012842D0607A6B
:100CF00002284ED0607A0328CAD1A088801EA08026
:100D0000E088801CE0800420205E1621615E88421D
:100D1000BEDA3F4A31463F4802F0D8FB6772B7E778
:100D2000A088801EA080FFF729FA0321FFF712FA9E
:100D3000E088491E0818E0800420205E1221615ED0
:100D4000884206DA01206072314A3146314802F0A9
:100D5000BDFB0420205E642803DA0420205E6128A5
:100D600038DC0420205E782892DA0420205E752882
:100D700030DC8DE7A088801CA080E088801EE080A9
:100D80000420205E1421615E884281DD02206072B1
:100D900020E0A088801CA080FFF7F0F90321FFF776
:100DA000D9F9E088491E0818E0800420205E182147
:100DB000615E884206DD03206072154A314615489F
:100DC00002F084FB0420205E6E2809DA0420205EF5
:100DD0006B2805DD0E4A31460E4802F077FB57E7D7
:100DE0000420205E80289ADA0420205E7D2896DD8B
:100DF000074A3146074802F069FBA07A401CA072FE
:100E0000A07A04288BD10220207241E7743E0000B2
:100E1000F02400206027002070B50022134605252D
:100E2000074E09E01A24544321188B80CB800355C8
:100E30004D708B700B72521C31788A42F2DB70BDA0
:100E4000743E000030B5084C002100204B01FF2209
:100E50001D182D192A70401CC0B22028F7D3491C38
:100E6000C9B21E29F1D330BD0000025010B5284C84
:100E70002068211D8000095826480B00FFF7C0FD9F
:100E80000D43080C1014181C202830383C40430037
:100E9000214802F0D3FB36E01F4802F0F5FB32E0B8
:100EA0001D4802F00CFC2EE01B4802F045FC2AE035
:100EB000194802F06EFC26E0174802F0B9FC22E067
:100EC0000222825E0021415E144802F025F81AE0F9
:100ED0000222825E0021415E104802F037F812E0E3
:100EE0000222825E0021415E0C4802F04CF80AE0CA
:100EF0000B4802F06BF806E0094802F07AF802E0CD
:100F00000848FFF7DFFD2068401C206010BD00008E
:100F100038000020F0240020722500203226002016
:100F20002227002046270020044900220A61486148
:100F30008A610720086130BF7047000000E000E0D0
:100F400010B50346044C03E02046FFF7EDFF5B1E9F
:100F5000002BF9D110BD000050C3000000B50346BE
:100F600003E03220FFF7E0FF5B1E002BF9D100BD4C
:100F7000FFB583B00D460A210598FFF7D5F801911A
:100F80000A21FFF7D1F8009164210598FFF7CCF80A
:100F90000A21FFF7C9F80F467D21C9000598FFF720
:100FA000C3F80A21FFF7C0F80E4630490598FFF74D
:100FB000BBF80A21FFF7B8F80C462D490598FFF752
:100FC000B3F80A21FFF7B0F82A480172C472867399
:100FD0004774009901750199C1750A210698FFF7B8
:100FE000A3F80F460A21FFF79FF8009164210698A5
:100FF000FFF79AF80A21FFF797F80E467D21C900FE
:101000000698FFF791F80A21FFF78EF8194C203463
:101010002170E6700099A171677217490C98FFF76B
:1010200018F9FFF7A3F9C0B20A21FFF77DF80E46C1
:101030000A21FFF779F86175267603980078012870
:1010400012D1287818280FD241000A4E00244118E6
:101050008A19009493785278715C02F0FDFE28782A
:10106000401C28700398047007B0F0BD10270000E2
:10107000A0860100A20400200000C842FFB5074678
:1010800000201D4601468300099A401CD1501E28AD
:10109000F9DB00261DE03001395C002918D0C419A5
:1010A000E088C1B2A088099AC0B202F021FEE088AF
:1010B000C1B2A088099A0830C0B202F019FEE088D7
:1010C0000838C1B2A088099A001DC0B202F010FE13
:1010D000761C3F4800788642DDDB00263D4F21E04C
:1010E00030461E2148430199095C002919D0019915
:1010F0004418A088C1B26088099AC0B202F0F8FD15
:10110000A088C1B26088099A0830C0B202F0F0FD30
:10111000A0880838C1B26088099A001DC0B202F0E8
:10112000E7FD761C38788642DADB00262A4F35E068
:1011300030461A2148430299095C00292DD00299B2
:101140004418E0880E30C1B2A088099AC0B202F0FB
:10115000CFFDE0880C30C1B2A088099AC01FC0B290
:1011600002F0C6FDE0880C30C1B2A088099AC01D0B
:10117000C0B202F0BDFDE0880A30C1B2A088099A71
:101180000E38C0B202F0B4FDE0880A30C1B2A088C7
:10119000099A0E30C0B202F0ABFD761C3878864258
:1011A000C6DB00240D4E0FE020460A2148430246CC
:1011B00040190179002906D04088C1B2A85A099A7D
:1011C000C0B202F095FD641C30788442ECDBFFBDB8
:1011D000713E0000723E0000743E0000753E00004B
:1011E000F8B500240D460646102712E00A21614397
:1011F00088190279002A0BD000974088C2B2705A31
:101200003023C1B2287802F027FE2878401C2870CD
:10121000641C024800788442E8DBF8BD753E00009B
:1012200010B500210A46054C04E00A234B431B1865
:101230001A71491C23789942F7DB10BD753E0000F6
:1012400070B50125AD0704460A2803D10D212846B3
:1012500002F05DFDE1B2284602F059FD204670BD66
:1012600038B500785021002801D0012801D0802411
:1012700000E090248825402322460020009502F0BB
:10128000EBFD5821412322460120009502F0E4FDA8
:101290000834E2B2542142230220009502F0DCFD22
:1012A00038BD0000FFB5054685B01C4616460A212C
:1012B0001046FEF739FF01910A21FEF735FF029132
:1012C00064213046FEF730FF0A21FEF72DFF03911F
:1012D0007D21C9003046FEF727FF0A21FEF724FFD3
:1012E000049129493046FEF71FFF0A21FEF71CFF33
:1012F0000F4626493046FEF717FF0A21FEF714FF76
:1013000030260B46009620782946069A02F0A4FD66
:1013100028460830C1B2009620783B46401CC0B237
:10132000069A02F099FD28461030C1B20096207846
:10133000049B801CC0B2069A02F08EFD284618302D
:10134000C1B200962078039BC01CC0B2069A02F07E
:1013500083FD28462030C1B200962078029B001DF4
:10136000C0B2069A02F078FD009620782835401D1C
:10137000E9B2C0B2019B069A02F06EFD2078801D92
:10138000207009B0F0BD000010270000A086010009
:10139000FEB50746123000250290481D0E4601900A
:1013A0000024E81B0090BD4212D3029885420FD260
:1013B000B4420DD3019884420AD2A01B12214843A3
:1013C0004349411800980A5C2146284602F03CFD3A
:1013D000641CE4B21E2CE6D36D1CEDB2202DDFD3CD
:1013E000BF1DFDB20836002428460830F6B2019031
:1013F0000027601B0090AC420CD30198844209D2B4
:10140000B74207D13249009810390A5C3946204664
:1014100002F01AFD7F1CFFB21E2FECD3641CE4B255
:10142000202CE5D3B01CC0B202900024284608301E
:1014300001900027601B0090AC420DD301988442BC
:101440000AD20298874207D12149009808390A5CDC
:101450003946204602F0F8FC7F1CFFB21E2FEBD36A
:10146000641CE4B2202CE4D308362D1FF0B2EFB296
:101470000190002438460C3000900025E61BBC4249
:101480000CD30098844209D20198854206D11048B5
:1014900029465A30825D204602F0D6FC6D1CEDB222
:1014A0001E2DECD3641CE4B2202CE6D3094F00259A
:1014B00000246E0130193A5CA9B2A0B202F0C4FC5B
:1014C000641C202CF6DB6D1C202DF1DBFEBD000022
:1014D0003C040020EA040020F7B5002542E01A2071
:1014E0002E4646430098805D00283AD00098341874
:1014F000A088E188C0104905090E8C4601210B46E1
:101500008340421E0F4697403B43421C0F46974084
:101510003B43821E0F469740801C81403B430B4358
:1015200061460198890008188068034219D06078E4
:10153000401E6070E088143001B2A088029A08381A
:1015400000B201F017FC607800280AD10098002151
:101550008155FD20A080EF20E08005480168C8315A
:1015600001606D1C034800788542B8DBFEBD0000B9
:1015700010000020743E0000F7B5074600252FE05C
:101580000C202E464643B85D002828D0F419A088C8
:10159000E188C01049050123090E1A468240401C0B
:1015A000834001988900081840681A43024216D007
:1015B0006078401E6070E088083001B20420205E30
:1015C000029A01F0D7FB6078002808D1B855FD20B9
:1015D000A080EF20E08005490868323008606D1C6B
:1015E000034800788542CBDBFEBD000010000020E0
:1015F000733E0000F0B500221CE00A2314465C4351
:1016000023181D79002D14D0055B5E88ED1076053A
:10161000360EB6008E590127AF403E4209D0002554
:101620001D71FD250553EF245C80054B1C68641C6F
:101630001C60521C034B1B789A42DEDBF0BD00009D
:1016400030000020703E0000FFB581B0164607460E
:10165000002539E028010090385C002833D000983C
:10166000C419A088E188C01049050123090E1A4653
:101670008240401C83408800315880198038C06FF8
:101680001A430A40184002431DD00621615E04201F
:10169000205E049A01F06EFB009800213954FD2071
:1016A000A080EF20E0802C4908680A3008608F2075
:1016B00002F0E8FA002002F0EBFA952002F0EEFAD0
:1016C000982002F0F1FA6D1C244800788542C1DBB5
:1016D00000253BE01E202F4647430298C05D0028AE
:1016E00033D002983C186088A188C01049050123B6
:1016F000090E1A468240401C8340880031588019E8
:101700008038C06F1A430A40184002431DD004219C
:10171000615E0220205E049A01F02CFB02990020F9
:10172000C855FD206080EF20A0800B4801680F3174
:1017300001608F2002F0A6FA002002F0A9FA95209D
:1017400002F0ACFA982002F0AFFA6D1C0448007861
:101750008542BFDB05B0F0BD10000020713E0000E7
:10176000723E0000F8B5084F002500246E013019C4
:101770003A5CA9B2A0B202F067FB641C202CF6DB35
:101780006D1C202DF1DBF8BDEA0C002070B5194B63
:1017900000221C7805E00C235343C35C002B03D0CC
:1017A000521CA242F7DB70BD01250C235A4385541D
:1017B0001423141863700020A070A180FEF7DEFCD3
:1017C00014214843C10F0918A943401AE121081AFE
:1017D000E0802572FEF7D2FCC10F0918A943401A18
:1017E0006072FEF7CBFCC10F0918A943401AA07222
:1017F00070BD0000733E0000F3B581B00D460027B8
:10180000BAE038460C2148430199095C002973D09D
:1018100001994418A07A002806D02026607A002872
:1018200004D0012868D168E00026F7E70096E08838
:10183000C2B2A0889023C1B2287802F00DFB0096B6
:10184000E088C2B2A08891230830C1B22878401C39
:10185000C0B202F001FB0096E088C01DC2B2A088B1
:101860009223C1B22878801CC0B202F0F5FA00962B
:10187000E088C01DC2B2A08893230830C1B2287886
:10188000C01CC0B202F0E8FA0096E0880E30C2B286
:10189000A0889423C1B22878001DC0B202F0DCFAFF
:1018A0000096E0880E30C2B2A08895230830C1B2FD
:1018B0002878401DC0B202F0CFFA0096E088001DE3
:1018C000C2B2A08896230838C1B22878801DC0B261
:1018D00002F0C2FA402006430096E088001DC2B222
:1018E000A08896231030C1B22878C01DC0B202F083
:1018F000B3FA287808303DE03DE00096E088C2B2B7
:10190000A088B323C1B2287802F0A6FA0096E08836
:10191000C01FC2B2A088B123C1B22878401CC0B297
:1019200002F09AFA0096E088C01DC2B2A088B523E2
:10193000C1B22878801CC0B202F08EFA0096E0880E
:10194000C2B2A088B2230838C1B22878C01CC0B285
:1019500002F082FA402006430096E088C2B2A088D6
:10196000B2230830C1B22878001DC0B202F074FA68
:101970002878401D28707F1C02480078874200DAD2
:101980003FE7FEBD733E000070B500221446174DC0
:101990000DE00C2113464B43C15C002906D01918F9
:1019A0008E78022E07D08B785B1C8B70521C2978A6
:1019B0008A42EEDB70BD8C7004268E5F052E0CDB38
:1019C00004268E5FFB2E08DC06268E5F08360A2E64
:1019D00003DB06268E5FE62E01DDC454E6E7CB88E6
:1019E00008268E579B1BCB80E0E70000733E00006B
:1019F00030B50022094D0DE00C240023544321187A
:101A00008B80CB800B72035505244C708B704B720E
:101A10008B72521C29788A42EEDB30BD733E000087
:101A20001FB50020FF210090019002900123B331E7
:101A300003901A46480702F06FF9FEF783FE642010
:101A4000FEF736FF002002F017F90F2002F04AF9E6
:101A50000020FEF7D1FE01200003FEF7CDFE01209D
:101A60004003FEF7C9FE03200003FEF7C5FE012078
:101A70008003FEF7C1FE05200003FEF7BDFE032034
:101A80004003FEF7B9FE07200003FEF7B5FEFE4E49
:101A9000B06900F099FB706900F0B0FC0124707926
:101AA00000280AD0002777717078002806D0012816
:101AB00023D002285FD0032875D0FDE0F3484462AC
:101AC0000025FF23E622FB212846009702F0C4F9F7
:101AD0006D1CEDB2402DF4D3FFF7B4F908210720B7
:101AE000FFF756FCE8480D30FFF7BAFBF771376196
:101AF000F762E74837630760DEE0B772F772377363
:101B0000B771B773E348776300F092FFE1480A309A
:101B100000F0BCFFDF48823002F098F8DE4801F0A8
:101B2000C1FCDD48F030FFF763FFDC48FFF774F9D4
:101B3000DA481A30FFF774FBD94801F00BF9002599
:101B4000FF23E622FB212846009702F085F96D1C51
:101B5000EDB2402DF4D3FFF775F9FFF703FECB4844
:101B600002214160F179890381600821C16004602C
:101B700004624762A0E0C54807600025FF23E62213
:101B8000FB212846009702F067F96D1CEDB2402D4D
:101B9000F4D3FFF757F9BD48446237713770B77017
:101BA000F77089E0FFE7B94807600025FF23E622C8
:101BB000FB212846009702F04FF96D1CEDB2402D35
:101BC000F4D3FFF73FF9307A707278202027082588
:101BD0000146019033233A460095002002F03CF97B
:101BE00034233A4680210120009502F035F948203F
:101BF000009033233A468821022002F02DF927274E
:101C000035233A467C210320009502F025F936233E
:101C10003A4684210420009502F01EF928255E270B
:101C200033233A4600950520019902F015F9342333
:101C30003A4680210620009502F00EF968200090B7
:101C400033233A468821072002F006F96527352319
:101C50003A467C210820009502F0FEF836233A46E9
:101C600084210920009502F0F7F830259C273323C2
:101C70003A4600953220019902F0EEF834233A46B4
:101C800080213320009502F0E7F870200090332384
:101C90003A468821342002F0DFF8A32735233A465C
:101CA0007C211846009502F0D7F836233A46842165
:101CB0001846009502F0D0F87078717902460A4310
:101CC0001ED001284CD002287ED0032800D0E6E6A2
:101CD0000029FCD100250095707A3E214843203030
:101CE000C2B2702125230F2002F0B6F8FEF706FDE0
:101CF000B062052869D0072868D0102867D051E263
:101D0000FEF7FCFCF061052804D007280AD00D2856
:101D100015D023E05C480D30017800291ED00178F1
:101D2000491E06E058480D300178002916D1017887
:101D3000491C017054480D30FFF792FA0EE05248EA
:101D40000D300178002903D00078012803D005E088
:101D50007471747002E0747103207070962023E235
:101D60000029B4D1B07900281CD002286FD00328F4
:101D7000ADD1F079401CC0B2F071022868D00025C6
:101D800000203070404B0A2103203269FFF78AFAA5
:101D90003D49F07900F038FF3B493E4800F0B6FC81
:101DA00037789CE1394D2869E968884200D3686931
:101DB000FEF7A4FC3062B17A491CC9B2B17218298D
:101DC00020D30021B17203E0B9E1DCE1E0E1E5E11B
:101DD000344A1279D20609D42E48C079002811D18C
:101DE0002C492C480A3100F061FE0BE00E2802D08D
:101DF000102802D006E0F47204E0307B002808D0FE
:101E0000E96131730321B07AFEF78EF9012903D01D
:101E10002FE0EC613473F5E7306A082806D0062815
:101E20000CD0052815D007281BD022E01948002126
:101E3000415E19291DDD0188491F06E01548002172
:101E4000415EE72915DA0188491D018011E08FE024
:101E5000E4E010480221415E1E290ADD4188491F45
:101E600006E00C480221415ED22902DA4188491D70
:101E70004180307B002832D1034906480B3100F005
:101E800013FC04480A300FE0000000200008025054
:101E900038000020F02400203226002046270020B1
:101EA000B4280020EA28002000F094FEC149C04A6E
:101EB0000846823001F0D0FDBD4ABE49BE4801F05F
:101EC0009BF9BB483E38FFF75FFDB9481A38FEF76B
:101ED000CDFEB74801F048FFB84800F065FF28691B
:101EE00008280CD16869782809D80020B04A411E1A
:101EF00064328300401CD1501E28FADB05E0AC4957
:101F0000AC4864310A3000F0ABFBAC48AA497838E1
:101F1000024600900846A64BF63AC038FFF7AEF8E6
:101F2000A64BA5491A460846F03AC038FFF78CFB85
:101F3000A24A1146F0390846A238FFF71DFB9F4A16
:101F40001146F03908467E38FFF7C6FA9B49994892
:101F500078390A30FFF74EFB96480079002805D102
:101F6000B07BF02802D3747102207070B47196E5D2
:101F700000253570317B2846002913D020276E229A
:101F80003B461146009701F067FF30782123401C43
:101F9000C0B230706E227E21009701F05DFF307874
:101FA000401C3070864B0A2103203269FFF77AF912
:101FB0008349804800F0AAFB7E4881490A3000F03E
:101FC00045FD7F497D4800F06FFE7A487C498230AC
:101FD00001F036FC7A49784801F026F874487849CF
:101FE0003E38FFF709FC724875491A38FEF76EFD56
:101FF00073496F48FFF7F4F837780BE00095FF233B
:10200000E622FB21307801F027FF3078401C7F1C4E
:102010003070FFB2402FF1D3B57140E500250020AC
:102020003070674B0A2103203269FFF73BF964499E
:10203000F07900F0E9FD62495E4800F067FB37780F
:102040000CE000200090FF23E622FB21307801F015
:1020500003FF3078401C7F1C3070FFB2402FF0D35C
:10206000FF202D30FEF76CFF00203070544B0A210A
:1020700003203269FFF716F951494E4800F046FB3C
:1020800037780CE000200090FF23E622FB21307817
:1020900001F0E2FE3078401C7F1C3070FFB2402F10
:1020A000F0D3FF202D30FEF74BFF6D1C062DB6DB65
:1020B000444900200860B0717471022171703D497B
:1020C0000871ECE400200090FF23E622FB21307829
:1020D00001F0C2FE3078401C7F1C3070FFB2402FF0
:1020E000F0D3FF20F530FEF72BFF00203070344B8B
:1020F0000A2103203269FFF7D5F831492D4800F055
:1021000005FB37780CE000200090FF23E622FB213E
:10211000307801F0A1FE3078401C7F1C3070FFB297
:10212000402FF0D3FF202D30FEF70AFF6D1C062D47
:1021300000DA25E60020B07174717470AFE40029F4
:10214000BFD1F06AFEF70BF90546306B0746FEF784
:1021500006F92946FEF7BAF8706319490090C91CC0
:102160003B46481C3269FEF703FFF0781828A8D3D5
:10217000FEF7C4FA7062102803D1002070707471E9
:10218000F070642010E0707A00280BD0401E03E04D
:10219000707A022806D2401C707203E0707A3072A6
:1021A00074717570FF202D30FEF7CAFE77E40000D1
:1021B00060270020F024002032260020B4280020D0
:1021C0000000002000080250F0B5FF25044601354C
:1021D000014685B02A467D48FEF742FB7C482A46E8
:1021E00061190290FEF73CFBE11DFF3179482A4658
:1021F000FA310190FEF734FB0320000221187648E3
:102200002A460090FEF72CFBA80021182A466F48AA
:10221000FEF726FB0520000221182A460298FEF749
:102220001FFB0320400221182A460198FEF718FBE5
:102230000720000221182A460098FEF711FBE8004B
:1022400021182A466148FEF70BFB092000022118DD
:102250002A460298FEF704FB0520400221182A4670
:102260000198FEF7FDFA0B20000221182A4600987B
:10227000FEF7F6FA0320800221182A465348FEF79B
:10228000EFFA0D20000221182A460298FEF7E8FA1C
:102290000720400221182A460198FEF7E1FA0F2094
:1022A000000221182A460098FEF7DAFA28012118C0
:1022B0002A464A48FEF7D4FA11200002211848485D
:1022C0002A460390FEF7CCFA09204002211845481F
:1022D0002A460746FEF7C4FA132000022118424896
:1022E0002A460646FEF7BCFA0520800221182A4637
:1022F0003648FEF7B5FA1520000221182A46029842
:10230000FEF7AEFA0B20400221182A460198FEF78C
:10231000A7FA1720000221182A460098FEF7A0FA13
:102320000320C00221182A462C48FEF799FA1920EA
:10233000000221182A460398FEF792FA0D20400267
:1023400021182A463846FEF78BFA1B200002211876
:102350002A463046FEF784FA0720800221182A46D2
:102360001A48FEF77DFA1D20000221182A4602981D
:10237000FEF776FA0F20400221182A460198FEF750
:102380006FFA1F20000221182A460098FEF768FA0B
:10239000680121182A461548FEF762FA212000023A
:1023A00021182A461248FEF75BFA11204002211834
:1023B0002A461048FEF754FA2320000221182A4624
:1023C0000D48FEF74DFA05B0F0BD0000EA08002008
:1023D000EA090020EA0A0020EA0B0020EA100020A7
:1023E000EA110020EA120020EA130020EA0C002083
:1023F000EA0D0020EA0E0020EA0F0020F0B5FF25CC
:1024000004460135014685B02A467D48FEF728FA84
:102410007C482A4661190290FEF722FAE11DFF313D
:1024200079482A46FA310190FEF71AFA0320000291
:10243000211876482A460090FEF712FAA8002118C3
:102440002A466F48FEF70CFA0520000221182A469A
:102450000298FEF705FA0320400221182A46019847
:10246000FEF7FEF90720000221182A460098FEF721
:10247000F7F9E80021182A466548FEF7F1F9092026
:10248000000221182A466348FEF7EAF905204002B7
:1024900021182A466048FEF7E3F90B2000022118B4
:1024A0002A465E48FEF7DCF90320800221182A46FE
:1024B0005B48FEF7D5F90D20000221182A4659483D
:1024C000FEF7CEF90720400221182A465648FEF7AB
:1024D000C7F90F20000221182A465448FEF7C0F918
:1024E000280121182A465248FEF7BAF911200002A5
:1024F000211850482A460390FEF7B2F909204002FD
:1025000021184D482A460746FEF7AAF91320000273
:1025100021184A482A460646FEF7A2F905208002FD
:1025200021182A464248FEF79BF91520000221187F
:102530002A460398FEF794F90B20400221182A46F8
:102540003846FEF78DF91720000221182A4630463A
:10255000FEF786F90320C00221182A463848FEF704
:102560007FF91920000221182A463648FEF778F92B
:102570000D20400221182A463348FEF771F91B202E
:10258000000221182A463148FEF76AF90720800226
:1025900021182A461A48FEF763F91D200002211867
:1025A0002A460298FEF75CF90F20400221182A46BD
:1025B0000198FEF755F91F20000221182A460098BD
:1025C000FEF74EF9680121182A462148FEF748F91E
:1025D0002120000221182A461E48FEF741F9112049
:1025E000400221182A461C48FEF73AF9232000022F
:1025F00021182A461948FEF733F905B0F0BD00004E
:10260000EA080020EA090020EA0A0020EA0B00207C
:10261000EA140020EA150020EA160020EA1700203C
:10262000EA180020EA190020EA1A0020EA1B00201C
:10263000EA1C0020EA1D0020EA1E0020EA1F0020FC
:10264000EA200020EA210020EA220020EA230020DC
:10265000EA0C0020EA0D0020EA0E0020EA0F00201C
:10266000F0B5054600230E46184699005B1C7050D5
:102670001E2BFADB00240B4F0FE020460A214843B3
:10268000024640190179002906D04088C1B2A85AF3
:102690003246C0B201F02CFB641C38788442ECDB7B
:1026A000F0BD0000703E000010B5C3790022002B81
:1026B00006D0017A05290ED0017A0A290BD012E042
:1026C0000B78012B06D1C371027243720A7003208A
:1026D000FDF7BCFF10BD417A0429418801D8C91E0D
:1026E00000E0C91C4180017A0A290AD30272417AAA
:1026F000072902D3C271427210BD417A491C41724E
:1027000010BD017A491C017210BD0000F3B583B001
:102710000446049800250678C4480078002804D0B0
:10272000012804D0022804D004E0082502E028256E
:1027300000E030252079002860D0607A0300FEF7A1
:102740005FF908051DFE5F8CDBFEFD580095608873
:102750000527C2B220883323C1B2304601F07CFB8A
:1027600000956088C2B2208834230830C1B2701C42
:10277000C0B201F071FB4020284335E1009560882C
:102780000527C2B220883723C1B2304601F064FB6E
:1027900000956088C2B2208838230830C1B2701C0E
:1027A000C0B201F059FB28464021084300906088E0
:1027B000C2B2208837231030C1B2B01CC0B201F0C1
:1027C0004BFB00956088C01DC2B220883923001DD4
:1027D000C1B2F01CC0B201F03FFB00956088C01D83
:1027E000C2B22088361D0C30C1B2F0B2392301F0DC
:1027F00033FB049804990078C019087005B0F0BD47
:10280000009560880427C2B220883D23C1B23046BB
:1028100001F022FB00956088C2B220883E23083078
:10282000C1B2701CC0B201F017FB402005430095F7
:102830006088C2B220883D231030C1B2B01CC0B243
:1028400001F00AFB00956088C01FC2B220880830E2
:10285000F61CC1B2F0B23C23C9E700956088072797
:102860000F38C2B220883F23001DC1B2304601F0AC
:10287000F3FA009560880F38C2B22088F0230C303C
:10288000C1B2701CC0B201F0E7FA00956088C01FA9
:10289000C2B22088F123001DC1B2B01CC0B201F049
:1028A000DBFA00956088C01FC2B22088F2230C308A
:1028B000C1B2F01CC0B201F0CFFA00956088C2B27C
:1028C0002088F323C1B2301DC0B201F0C5FA0095D3
:1028D0006088C2B22088F4230830C1B2701DC0B233
:1028E00001F0BAFA00956088C2B220881030B61D97
:1028F000C1B2F0B2F5237AE7009560880627C01FC1
:10290000C2B22088F623001DC1B2304601F0A4FAFD
:10291000284640210843019000906088C01FC2B241
:102920002088F6230C30C1B2701CC0B201F094FABA
:1029300000956088C2B22088C1B201E03CE01AE094
:10294000B01CC0B2F72301F087FA00956088C2B2CC
:102950002088F8230830C1B2F01CC0B201F07CFA24
:10296000019800906088C2B220881030361DC1B234
:10297000F0B2F7233BE7009560880327C2B22088B6
:102980003A23C1B2304601F067FA00956088C2B2BE
:1029900020883B230830C1B2701CC0B201F05CFA41
:1029A0004020054300956088C2B220881030B61CD4
:1029B000C1B2F0B23A231AE7009560880527C2B287
:1029C00020883323C1B2304601F046FA0095608872
:1029D000C2B2208834230830C1B2701CC0B201F0EA
:1029E0003BFA28464021084300906088C2B2208804
:1029F00033231030C1B2B01CC0B201F02DFA0095E3
:102A00006088C01DC2B220883523001DC1B2F01CF1
:102A1000C0B201F021FA00956088C01DC2B22088C2
:102A20000C30361DC1B2F0B23623E0E608000020BB
:102A300078210180B4214180012101710022C271FD
:102A4000027242728171417170470000F8B5002432
:102A50000D460646102712E00A21614388190279C3
:102A6000002A0BD000974088C2B2705A3123C1B2FD
:102A7000287801F0F1F92878401C2870641C02487D
:102A800000788442E8DBF8BD703E000010B50021FC
:102A90000A46054C04E00A234B431B181A71491CD3
:102AA00023789942F7DB10BD703E0000F8B502793B
:102AB000002A5AD08279464C002A06D08279012A0F
:102AC0001BD08279022A3CD04FE00A2353435B1883
:102AD0001B79002B03D0521C042AF6DB45E0038847
:102AE0000A256A4308338B5243885018083B4380B9
:102AF000012101712068401C67E000220A2315466D
:102B00005D436B181E79002E02D19E7B002E03D0F0
:102B1000521C082AF2DB28E006880A277A43361D71
:102B20008E5242886918083A4A8001211971028838
:102B30000C325A8140880838988199732068801C2B
:102B400043E000230A79002A0CD10A225A43521882
:102B5000957B002D06D1157E002D03D12225AD5C7D
:102B6000002D0FD05B1C102BECDB9F2001F0A2F896
:102B7000FF2001F0A5F80F2001F0A8F89C2001F03B
:102B8000ABF8F8BD05882D1F0D804588083D4D80A8
:102B900001250D7106880A277B435918361D4E8181
:102BA000418808399181957301880C31918241885F
:102BB0000839D182157601881431D18340880838CC
:102BC0001084203295702068001D2060CDE7000041
:102BD0002C00002030B5002214460A4D0EE00A21D8
:102BE000514309180B79002B07D04B885B1F4B8092
:102BF0000223CB5E052B00DA0C71521C29788A4225
:102C0000EDDB30BD703E0000F3B581B020250095AE
:102C10000C467827642608780C233246394601F0A2
:102C20001BF920780D23401CC0B220703246882149
:102C3000009501F011F920787426401CC0B2207074
:102C4000702100953246019B01F006F92078802121
:102C5000401CC0B220700E233246009501F0FCF8F3
:102C600020789021401CC0B220700F23324600957E
:102C700001F0F2F820788426401CC0B220701023A6
:102C800032463946009501F0E7F820781123401CC0
:102C9000C0B2207032468821009501F0DDF820781E
:102CA000401C2070FEBD0000F0B5064685B00C4605
:102CB0000020274901900978884247DAC700BD19EA
:102CC000287900283FD068794000029010200090B9
:102CD0000298E030C3B203906888C2B2F05BC1B220
:102CE000207801F0B9F8102000900298E130C3B2CA
:102CF00002906888C2B2F05B0830C1B22078401CF4
:102D0000C0B201F0A9F8D02000900298C3B2688840
:102D1000C01DC2B2F05BC1B22078801CC0B201F00D
:102D20009BF8D02000900398C3B26888C01DC2B23F
:102D3000F05B0830C1B22078C01CC0B201F08CF842
:102D40002078001D20700198401CB2E705B0F0BD4E
:102D5000763E000010B500210A46054B03E0CC008A
:102D600024182271491C1C78A142F8DB10BD000018
:102D7000763E000030B50B4C0023247805E0DD00E2
:102D8000AD182D79002D03D05B1CA342F7DB30BDBD
:102D90000025DC00A3185D711053598001201871C3
:102DA0009D7130BD763E000030B5002214460D4DB9
:102DB00014E0D10009180B79002B0ED08B79052B6C
:102DC00003D28B795B1C8B7107E08C714B795B1C98
:102DD0004B714B79042B00D30C71521C29788A4219
:102DE000E7DB30BD763E0000FFB51646494A81B0AC
:102DF0001D460021127805E01E234B43C35C002BC7
:102E000004D0491C9142F7DB05B0F0BD01221E231E
:102E10005943425400270C186770FDF7AFF903219E
:102E2000FDF798F914204143681A3C38A080E771F7
:102E3000FDF7A4F9C10F091849084900401A60724A
:102E40000298A071A079002827D0F120608004208A
:102E50002077FDF793F94042C10F0918490849004E
:102E6000401A801E2072FDF789F91421FDF772F9CE
:102E700088193230A081A0893C38E081143D258238
:102E8000FDF77CF91E21FDF765F9208A1431081839
:102E90006082E0891E30A082B6E70F20608027772D
:102EA000FDF76CF9C10F091849084900401A801C48
:102EB0002072FDF763F90A214843C10F0918490838
:102EC0004900401A80193238A081FDF757F91421C2
:102ED0004843A189C20F121852085200801A1E30AE
:102EE0000818E081FDF74AF914214843C10F091879
:102EF00049084900401A281A14382082FDF73EF983
:102F00001E21FDF727F9208A143108186082E08914
:102F10001E38C0E7723E0000F8B514460D4606465E
:102F2000FDF72CF9C10F091849084900401AC7B22A
:102F300023462A4639463046FFF756FF143423B25B
:102F40002A4639463046FFF74FFFF8BDF8B514461C
:102F50000D460646FDF712F9C10F09184908490048
:102F6000401AC1B2012901D0012700E00027234601
:102F70002A463046FFF738FF23462A463946304670
:102F8000FFF732FFF8BDF7B514460D460098FFF77E
:102F9000DDFFFDF7F3F8C10F091849084900401A91
:102FA000C6B2FDF7EBF8C10F091849084900401AED
:102FB000C7B223462A4631460098FFF715FF23463D
:102FC0002A4639460098FFF70FFFFEBD10B50446AC
:102FD000FDF7D4F8C10F091849084900401A000646
:102FE000000E04D0D0212046FEF7D0FB10BD3021CA
:102FF000F9E770B50546FDF7C1F8C10F0918490892
:103000004900401A0406240E0AD0D0212846FEF7B3
:10301000BDFB012C06D0D0212846FEF7B7FB70BDC2
:103020003021F3E73021F7E7F3B581B00D460026F4
:10303000B8E030461E2148430199095C00297DD043
:1030400001994418207F0300FDF7DAFC05042152A2
:1030500079B2AB0060270097A088C2B2608859237C
:10306000C1B2287800F0F8FE0097A088C01DC2B257
:1030700060885A23C1B22878401CC0B200F0ECFE30
:103080000097A088C01CC2B260880838ACE0A027B6
:103090000097A088401CC2B260885E23401CC1B269
:1030A000287800F0D9FE0097A088401CC2B2608842
:1030B0005F230830C1B22878401CC0B200F0CCFEBB
:1030C0000097A0880830C2B260885C23C1B228781B
:1030D000801CC0B200F0C0FE0097A0880830C2B2C9
:1030E00060880830C1B22878C01CC0B25D2353E0AC
:1030F00020270097A088C2B260884023C1B22878F8
:1031000000F0AAFE0097A088C2B260884123083070
:10311000C1B22878401CC0B200F09EFE0097A08883
:103120000838C2B260884223001DC1B22878801CD2
:10313000C0B200F091FE2878C01C31E031E0E027F9
:103140000097A088C2B260885F23C1B2287800F0DF
:1031500083FE0097A088C2B260885E230830C1B2A7
:103160002878401CC0B200F077FE0097A088083095
:10317000C2B260885D23C1B22878801CC0B200F062
:103180006BFE0097A0880830C2B260885C230830CC
:10319000C1B22878C01CC0B200F05EFE2878001DC5
:1031A0002870761C13480078864200DA41E7FEBD9D
:1031B00020270097A088C2B260885923C1B228781E
:1031C00000F04AFE0097A088C01DC2B260885A2352
:1031D000C1B22878401CC0B200F03EFE0097A08823
:1031E000C01CC2B260880830C1B22878801CC0B24E
:1031F0005B239EE7723E0000F8B5002507460126D6
:103200000DE029461E204143785C002806D0CC19E9
:103210006078022808D06078401C60706D1CA0485F
:1032200000788542EDDBF8BD002060700222A25ECE
:10323000052A0BDB0222A25EFB2A07DC0422A25E27
:103240000A2A03DB0422A25EE62A01DD7854E5E7C0
:10325000E17900290ED0E1790129DFD1A179002996
:10326000A17A26D00B00FDF7CBFB05A4B8D8E7FD6B
:103270000400D3E7A179002905D10221615E0C2267
:10328000A25E914208DAA179012907D10221615E8B
:103290000C22A25E914201DCE67144E060880821C4
:1032A000615640186080A088092161564018A080AE
:1032B000B4E70B00FDF7A4FB050519394C690400C0
:1032C000ACE720776088C01C6080FCF757FF0321C3
:1032D000FCF740FFA0880818A0800220205E0E2185
:1032E000615E88429ADBA67298E72677FCF746FF74
:1032F0006188C20F121852085200801A801C0818E8
:103300006080FCF73BFFA188C20F121852085200E0
:10331000801A801C0818A0800420205E1021615EA5
:10332000884278DA7AE7A07278E70220207760880E
:103330006080A088C01CA0800420205E1221615EF5
:10334000884284DB0320A0720020FDF77FF965E747
:1033500003202077FCF712FF6188C20F1218520871
:103360005200801A081A801E6080FCF707FFA188AF
:10337000C20F121852085200801A801C0818A08030
:103380000220205E1421615E10E004202077FCF70B
:10339000F5FE6188C20F121852085200801A081AEE
:1033A000801E60800220205E1621615E884261DD01
:1033B00034E7042020776088C01E6080FCF7DEFEC2
:1033C0000321FCF7C7FEA0880818A0800220205E19
:1033D0000E21615E884286DD20E703202077FCF71E
:1033E000CDFE6188C20F121852085200801A081AC6
:1033F000801E6080FCF7C2FEA188C20F121852081E
:103400005200801A801C0818A0800420205E102121
:10341000615E884286DC022085E702202077608892
:103420006080A088C01CA0800420205E1221615E04
:1034300088428CDB032076E72677FCF79FFE6188C5
:10344000C20F121852085200801A801C081860809F
:10345000FCF794FEA188C20F121852085200801A7D
:10346000801C00E008E00818A0800220205E1421E3
:10347000615E11E0042056E72077FCF77FFE61884B
:10348000C20F121852085200801A801C081860805F
:103490000220205E1621615E8842EBDABEE6000063
:1034A000723E000030B500210B46074D08E01E2299
:1034B0004A43144612185380938003555370491C95
:1034C0002A789142F3DB30BD723E0000F8B5304CF3
:1034D0000B460021247806E00A254D432D182D794E
:1034E000002D03D0491CA142F6DBF8BD9C880A25BB
:1034F000694308344452DC880D18083C6C80012074
:1035000028710420185E0620185E0020105E02203C
:10351000105E10889988401A06B25088D988401ADF
:1035200007B2002E01DA704200E03046FCF70CFFD3
:103530000446002F01DA784200E03846FCF704FF29
:103540002146FCF7C3FE002400901248A100405819
:103550000099FCF776FEFF21C905C84213D20D4938
:1035600060001439095AE9800A492839085A288123
:10357000002E02DAE8884042E880002FB5DA288978
:1035800040422881F8BD641C0A2CDEDBF8BD000037
:10359000753E000090440000F8B5274A0E46002111
:1035A000127804E00B01C35C002B03D0491C91424C
:1035B000F8DBF8BD012509010C186570455400279A
:1035C000E773A770A772FCF7D9FDC10F0918A943CB
:1035D000401A60722572B088A080FCF7CFFDC10F41
:1035E0000918A943401A0A2148430F30E080F07AB5
:1035F000E072E07A02260325042808D0E07A052844
:1036000015D0E07A0628D4D1267365730BE02773B2
:103610006573FCF7B3FDC10F091849084900401A4A
:103620000006000E01D0A573F8BDA673F8BD0120F9
:10363000C04320736573F8E7713E000020B505466E
:10364000FCF79CFDAA21FCF785FD491DA180042003
:10365000205E052805DD0420205E552801DA0620BD
:103660000AE00420205EAB2805DD0420205EFB2854
:1036700001DA052000E00420E07200231A4621460A
:103680002846FFF789FF20BD70B50646FCF776FD9A
:10369000AA21FCF75FFD0D461935A5800420E072D4
:1036A00000231A4621463046FFF776FF1435A580E1
:1036B00000231A4621463046FFF76EFF70BDE0B585
:1036C0000646FCF75BFDAA21FCF744FD491DA180DD
:1036D0000420205E06250527052805DD0420205E40
:1036E000552801DAE5720BE00420205EAB2805DDE9
:1036F0000420205EFB2801DAE77201E00420E0727A
:1037000000231A4621463046FFF746FFA088FF21D6
:103710000131081AA080E07A062803D0E07A052853
:1037200002D002E0E77200E0E57200231A4621466B
:103730003046FFF731FFE0BD70B50646FCF71EFDD1
:10374000AA21FCF707FD0D461935A5800420E0727B
:1037500000231A4621463046FFF71EFF2946143142
:10376000A18000231A4621463046FFF715FF29465F
:103770002831A18000231A4621463046FFF70CFF6E
:103780003C35A58000231A4621463046FFF704FF4A
:1037900070BDE0B50646FCF7F1FCAA21FCF7DAFCA7
:1037A000491DA1800420205E06250527052805DD8A
:1037B0000420205E552801DAE5720BE00420205E2B
:1037C000AB2805DD0420205EFB2801DAE77201E06A
:1037D0000420E07200231A4621463046FFF7DCFE43
:1037E000A0881430A08000231A4621463046FFF7F7
:1037F000D3FEA088FF210131081AA080E07A0628B4
:1038000003D0E07A052802D002E0E77200E0E5721A
:1038100000231A4621463046FFF7BEFEA08814302A
:10382000A08000231A4621463046FFF7B5FEE0BDD2
:1038300010B50446FFF780FF2046FFF725FF10BDB7
:10384000F3B583B00D4600274EE003993801095CBB
:10385000002948D0039900264418E07B0300FDF7B7
:10386000CFF808051D49607B98BAD3420096E088DE
:103870004023C2B2A088C1B2287800F0EDFA0096C9
:10388000E0884123C2B2A0880830C1B22878401C29
:10389000C0B200F0E1FA4223009619E043200096FE
:1038A0000190E088C2B2A088019BC1B2287800F0E4
:1038B000D3FA40200090E088C2B2A088019B083073
:1038C000C1B22878401CC0B200F0C6FA442300966A
:1038D000E0880838C2B2A088001DC1B22878801CD8
:1038E000C0B2B2E028707F1C5A4800788742ACDB37
:1038F00005B0F0BD452000960190E088C2B2A088D6
:10390000019BC1B2287800F0A7FA40200090E0881F
:10391000C2B2A088019B0830C1B22878401CC0B256
:103920006DE0462000960190E088C2B2A088019B1D
:10393000C1B2287800F090FA40200090E088C2B22E
:10394000A088019B0830C1B22878401CC0B200F0AA
:1039500083FA4723009619E0482000960190E088FA
:10396000C2B2A088019BC1B2287800F075FA40204D
:103970000090E088C2B2A088019B0830C1B22878CC
:10398000401CC0B200F068FA49230096E088083075
:10399000A0E70096E088C2B2A0884B23C1B2287885
:1039A00000F05AFA40200090E088C2B2A0884A2372
:1039B0000830C1B22878401CC0B200F04DFA009621
:1039C000E0880838C2B2A088001DC1B22878801CE7
:1039D000C0B24C2339E00096E088C2B2A0884D23E3
:1039E000C1B2287800F038FA40200090E08808380A
:1039F000C2B2A0884E23C1B22878401CC0B200F0E9
:103A00002BFA2878801C6DE740260096E088C2B229
:103A1000A0885023C1B2287800F01EFA0096E088F2
:103A2000C2B2A0884F230830C1B22878401CC0B26F
:103A300000F012FA0096E088C01FC2B2A08851239D
:103A4000001DC1B22878801CC0B200F005FA2878A9
:103A5000C01C47E7713E0000F7B500260D4637460B
:103A60000DE000993001095C002907D00099441845
:103A7000A178022908D0A078401CA070761C72485A
:103A800000788642EDDBFEBDA7700421615E05294A
:103A90000BDB0421615EFB2907DC0621615E0A293C
:103AA00003DB0621615EE62904DD00990F54A7803F
:103AB000E780E3E7A07A00280FD0A07A012879D028
:103AC000A07A0228DAD1A07B0300FCF799FF070552
:103AD0009FA5A8AEB3B60500D0E7FCF74FFB1421B5
:103AE00048430321FCF736FB0220285E401A0621DA
:103AF000615E2838884264DC207A012805D121469D
:103B00002A460298FFF7E2FC2772607A002809D063
:103B1000E07A042834D0E07A05284CD0E07A0628F0
:103B20003BD03CE00420205E0021695E88420FDA31
:103B30000020285E0421615E401A3C2808DA00203B
:103B4000285E0421615E401A002801DD062025E080
:103B50000420205E0021695E88420FDD0420205E83
:103B60000021695E401A322808DA0420205E002114
:103B7000695E401A002801DD05200FE004200DE0F9
:103B8000277303206073FCF7F9FAC10F091849087D
:103B90004900401A0006000E0DD00320A073607A81
:103BA00001280AD0A07B04282ED00120A072052075
:103BB000E07363E70FE00220F0E7E7730120A072F3
:103BC0005CE7A0880C2161564018A080E0880D2198
:103BD000615640181EE0607A0128A088A080E08825
:103BE000E080E07B08D00728E3D2E07B401CE07354
:103BF000E07B072808D041E70428DAD2E07B401CAC
:103C0000E073E07B0428D4D10220D8E7A088A0800C
:103C1000E088001FE08031E7A088801E01E0A088D6
:103C2000801CA080E088C01EF4E7A088A080E08807
:103C3000401DEFE7A088801E01E0A088801CA080C6
:103C4000E088C01CE6E70000713E000070B500226D
:103C500013460125074E09E0140121188B80CB8003
:103C600003554D708B700B724D72521C31788A4225
:103C7000F2DB70BD713E00000149C875704700005D
:103C80000000035001490873704700000000035012
:103C900001494873704700000000035001498873D0
:103CA00070470000000003500149C87370470000CE
:103CB00000000350014908717047000000000350E4
:103CC00001494871704700000000035001498871A4
:103CD00070470000000003500149C87170470000A0
:103CE0000000035001494875704700000000035070
:103CF000C008CB0801218140980013580B43135092
:103D000070470221C16070470121C160704742685D
:103D1000D207FCD101607047F0B50024059F069ED4
:103D2000079D002A00D00124002B01D00222144359
:103D3000002F01D004221443002E01D00822144386
:103D4000002D01D010221443089A002A01D020220D
:103D50001443002282600161846040680007800F84
:103D600000D00120F0BD0000F0B500231C46164F26
:103D70000AE01A460A214A4311184D79042D07D04A
:103D80004A79521C4A715B1C39788B42F1DBF0BDD9
:103D90004C710D79002DF6D04D880E89AD194D80EE
:103DA000855ACE88AD19855202254D5FE62D09DC76
:103DB00002254D5F0A2D05DB855EFB2D02DC825E50
:103DC000052AE0DA0C71DEE7753E00001748002294
:103DD000007801280DD002280AD115490878401C26
:103DE000C0B208700A2803D10A7012490120087075
:103DF0007047114908780128FAD110480369092B46
:103E000002D18369002B0CD002220A700C49097977
:103E1000002902D080690028EAD10A490878401CAC
:103E2000E5E703230B700260F0E7000001000020CB
:103E300002000020040000200600002000080250BC
:103E4000F02400200E000020490108180149401804
:103E5000027070470000025030B585000348039C93
:103E60002818C17082704370047030BD000001508A
:103E70000C0C0803010A050000000000000000000F
:103E8000000000000000000000000000001FCC0047
:103E90000C00000000000000000800300060000876
:103EA00000300060000000022003FC1E20022003FE
:103EB000FC1E200220000000000E1811043FFF101D
:103EC000840C78000000000F0010840F3800C00739
:103ED0007818840078000000780F8410C411240E34
:103EE0009800E400840008080068007000000000EA
:103EF0000000000000000000000000000007E018C3
:103F00001820044002000000004002200418180796
:103F1000E00000000000000240024001800FF001BC
:103F2000800240024000000080008000800FF80006
:103F3000800080008000000001000D000E000000E5
:103F400000000000000000000000800080008000F1
:103F5000800080008000800000000C000C00000049
:103F600000000000000000000000060018006001D2
:103F700080060018002000000007F0080810041058
:103F800004080807F000000000080408041FFC00F3
:103F90000400040000000000000E0C101410241097
:103FA0004411840E0C000000000C181004110411C0
:103FB0000412880C700000000000E00320042408B4
:103FC000241FFC0024000000001F9810841104111D
:103FD00004108810700000000007F0088811041118
:103FE0000418880070000000001C00100010FC1372
:103FF000001C001000000000000E38114410841056
:104000008411440E38000000000700088C10441092
:1040100044088807F00000000000000000030C03C3
:104020000C0000000000000000000000010106007C
:104030000000000000000000000080014002200499
:1040400010080810040000022002200220022002B2
:1040500020022002200000000010040808041002C2
:104060002001400080000000000E001200100C1023
:104070006C10800F00000003E00C1813E4142417E8
:10408000C4082807D000000004003C03C41C4007FB
:104090004000E4001C000410041FFC110411041172
:1040A000040E880070000003E00C181004100410C7
:1040B0000410081C10000010041FFC100410041051
:1040C00004080807F0000010041FFC110411041775
:1040D000C410040818000010041FFC11041100177C
:1040E000C010000800000003E00C181004100410B9
:1040F000441C780040000010041FFC108400800065
:104100008010841FFC10040000100410041FFC1019
:104110000410040000000000030001100110011F42
:10412000FE10001000000010041FFC110403801496
:1041300064181C1004000010041FFC10040004008C
:10414000040004000C000010041FFC1F0000FC1FF2
:10415000001FFC1004000010041FFC0C04030000EE
:10416000E010181FFC100007F008081004100410DD
:1041700004080807F0000010041FFC1084108010D1
:104180008010800F00000007F00818102410241081
:104190001C080A07F2000010041FFC110411001192
:1041A000C011300E0C000400000E1C11041084100D
:1041B0008410441C3800001800100010041FFC106C
:1041C0000410001800000010001FF8100400040084
:1041D0000410041FF8100010001E0011E0001C0065
:1041E0007013801C0010001FC0103C00E01F000076
:1041F000E0103C1FC000001004180C163401C00170
:10420000C01634180C100410001C00130400FC131A
:10421000041C00100000000804101C10641084131B
:10422000041C04101800000000000000007FFE4085
:1042300002400240020000000030000C0003800039
:1042400060001C0003000000004002400240027FAA
:10425000FE000000000000000000002000400040C0
:1042600000400020000000000100010001000100EA
:10427000010001000100010000400040002000009A
:10428000000000000000000000009801240144012B
:1042900044014400FC000410001FFC0088010401DC
:1042A0000400880070000000000070008801040114
:1042B000040104008800000000007000880104016F
:1042C0000411081FFC0004000000F801440144012F
:1042D00044014400C800000000010401040FFC1167
:1042E00004110411001800000000D6012901290161
:1042F0002901C90106000010041FFC00840100010F
:1043000000010400FC000400000104190419FC0071
:104310000400040000000000000003000101011976
:104320000119FE0000000010041FFC0024004001E1
:10433000B4010C010400000000100410041FFC0074
:1043400004000400000000010401FC01040100015C
:10435000FC0104010000FC010401FC0084010001D7
:1043600000010400FC0004000000F8010401040145
:1043700004010400F80000010101FF0085010401AF
:104380000400880070000000000070008801040133
:1043900004010501FF00010104010401FC00840186
:1043A00004010001800000000000CC012401240170
:1043B0002401240198000000000100010007F80119
:1043C00004010400000000010001F80004000400E2
:1043D00004010801FC0004010001800170000C00D0
:1043E0001001600180010001F0010C003001C000EB
:1043F00030010C01F0010000000104018C00740187
:1044000070018C01040000010101810171000E00A6
:104410001801600180010000000184010C013401D9
:10442000440184010C0000000000000000000001B5
:10443000003EFC400240020000000000000000FFBF
:10444000FF0000000000000000400240023EFC01AE
:1044500000000000000000000060008000800040BC
:1044600000400020002000000100020002000200C5
:10447000030004000400040005000500040004001B
:104480000400040004000300020002000100000018
:1044900000000000EC51383EEC51B83EE17A143F88
:1044A0003D0A573FEC51983FA470DD3F000030407B
:1044B000A470B54000004843D8440000000000202C
:1044C000F02400003C040000F8520000F02400201A
:1044D000080800002A0A0000220001031001000160
:1044E000031F400001920104213352023B021103D9
:1044F00024A120612CD20220613CD20328021501A4
:10450000A392022C0211084C520708021504B8D2DB
:104510000040A108021103CC2517D20C289202F802
:104520000112CCA13C52088C02110178011648619D
:10453000A8D20B7821E00619069C0211022802116C
:104540000838061D06E4920604D209040522E46137
:104550003005FFE40591E43C0980F0FA02000F0108
:1045600010CC032A42981E0280031404040005EEB6
:104570001A07AE100409000A9450140C000D000E26
:10458000000F00100010FF12FF13FF14FF1108109E
:104590001ED1D2D3FFD1DEDFE0FFFFEDEED3FFF877
:1045A000F9F9E0D4D5D6FFE1E2E3E4FFEFF00A1039
:1045B00006FAFBFCE4D708502BE5E6E7E4FFF1F24E
:1045C000D9F3FFFDFEC0C1D8D9DAFFE8E9EAEBFF75
:1045D000F4F5F6F7FFC2C3C4D0DBDCDDFFDBDCDCC7
:1045E000ECFFFF0A005741DD17FF02000203FF1531
:1045F000FF16FF18303018503019A83000B03000C6
:10460000B83000C03000C83000D0300030401B50FF
:10461000401CB84000C04000C84000D040003050AE
:104620001D40501E50501FC05000C85000D0502593
:104630006EA0127EA0138EA0149EA015FF01A005EF
:104640000906090911A0050C0D0E0F2090050404A0
:10465000151610321601028BFF010510B5C1E405D5
:1046600010C3C5040510D1C5240510DFC5440510CD
:10467000ED05710529C608043700FF01083602EE72
:1046800003B703FF010008AA170405060708FF0186
:10469000EDBE04D255018DD80401132F200400CFA4
:1046A000CE0213CECF04910842CF0D61123125A165
:1046B000088118514082CE0A41208106810E811264
:1046C00061029128513C81906192C142A188911070
:1046D0009155A1128168E17CA1927148C502B1E8AF
:1046E000817A0111DCF1B4E124C53AB10261079588
:1046F0003A051230A10AE194E151854EB6CEBCE5EF
:10470000107192D5C4C912C578E106E900C93A0909
:10471000123CC5040A17CF3AA59A0510FEC590C9E8
:10472000BAF55DB5C005104EE13CC900E13CC19051
:104730000613CE7CDD4A03051142B9960610CEC69B
:10474000C50005147A25EA023D0001A53E0C0916B4
:10475000FFFF22232425FFFF0004100526313031FE
:10476000030E162700040C0916262E333433342E7C
:104770002700040C0916282E353635362E2900045C
:104780000C09162A2E373837382E2B000410052C2A
:104790002E322E030E142D00042005FF262E20207D
:1047A0000C0512212E27FF00044004FF2831C00C05
:1047B00004123129FF000443FF2A400C05122E2E5B
:1047C0002BFF00043004FF2E20800C0512393A3BE9
:1047D000FF000443FF32400C05123C3D3EFF000445
:1047E00043FF32400C05123F4041FF000461400C82
:1047F0000512424344FF000443FF32C00C0512453A
:104800004647FF000461400C051248494AFF000476
:1048100061800C05124B4C4DFF000461400C0512E9
:104820004E4F1FFF000461E00C05122E2E2EFF00DC
:104830000461E03221200D100004614021200D129E
:104840000004B004FF2E2E40ED000415E0490045A1
:10485000E0FD000467FF26E00F1227FF0004480474
:10486000FFFF2C207A2DE2DD0004422AC00E162B19
:1048700000044A28200E162900044A26A00E1627F6
:10488000000433FF19010E4DFF00045D05082C05DF
:10489000C0FFFF30D20700051ACCFFFF3308BE006F
:1048A00035080D8A000819E40C041A5051FF00085D
:1048B0000C051656818757000815E2B411608187F0
:1048C000878054555253575051505255516ACC1508
:1048D000CECF515688898F8C878087898889808739
:1048E000888987570008100D5E87891D808B878116
:1048F0008088888E08AC0680878157FFB2078C15A8
:104900006080808D8B8F80888F8989818B8F8F8C41
:104910008088806300041009CFCE6188808B8F1D52
:1049200020A80C1D87808B8C8F1D8F898762A81310
:10493000FF5E1F10048F8F890410078C8D8E1D8FD2
:104940008D408D000411202006568180891D3A314A
:104950003EBC061D888E8962420330065E808780D9
:104960008D3A113E115FBC04815FFF34081007CE01
:10497000585E878181C6213EEC058F895F592A07E1
:1049800013FF61DC200489808D3EBC058D8862FFA9
:10499000FC063D3A081142080A108F1D89898F884C
:1049A0001D5F59802142A00B5A5B5C5D5F59585EC8
:1049B00062FF7A0D120008FECE3E070D1410090D9D
:1049C0008E00080E1DCF0008B1120D8800081C06CD
:1049D000A8A2A0A020090422AA011110128A082E60
:1049E0002A26130C04170A0A0A00082B81806A2958
:1049F000B0193A20048080810830088781888E8B26
:104A00008C80102B80872C29B019EE3004872E80E3
:104A10000820088889818D8E2E8010396C22892E7D
:104A200012873C10058F89808B4A213810058B80B6
:104A300088873F296C338D882E110618048D888B4A
:104A4000BC1C048F8C2E29031E8F8C0318068087B4
:104A5000707689E8116C100587888E81311F8B8CE8
:104A6000C403113E39C2119810088A68808D89816B
:104A70002E732005898188898019C052881F1D8462
:104A80000340172E817176878987817770887772C6
:104A9000757680878F8789891DD621421013818082
:104AA0008A86707680888A8471858485847076771A
:104AB0000E428DD62121131A84E820042E7071062F
:104AC00010062E2E81808104400570768781D810D3
:104AD000058F89841918200481848A0620042E2ECB
:104AE0008023122E945288D81288312113111D254B
:104AF000303141212021402689142156111F1144B3
:104B00001122411F14042E8A690E24048D8D8814ED
:104B100011723174217A3142310C21D445185280FE
:104B2000745280422184118221D4351841381116E3
:104B300041C03111210211C626715C413831BD31AD
:104B4000E110056D6A1E6CE4114427848A5C41748F
:104B500045EC200581806D6A4A431E6CD6100580A5
:104B60008170760C41583104236E84EA20058486D6
:104B70001E6C883281EA136B1E52112C215C218D30
:104B8000218C432E8016136D6B2E20068584866A39
:104B90006B24436E84AC252C4116538685D211F5C7
:104BA000236B1EC6213F31F662810E212121B247BF
:104BB00084858335AA5280D453805E2C21363104FB
:104BC000456E500C2E805F595E5F58585ECF5E1F59
:104BD0002580358E458F3E5F720D5005CE60CE61CB
:104BE0003E416741087C042E5F58D40E42603E5619
:104BF0002EE441909E630004216850045A5B80A912
:104C0000235F5810DD480E3404CECF61B715446ED3
:104C100063EB0DDD000C2C05595E5D595A050D172F
:104C2000000C4D2408FD000852AA01529A081F5694
:104C300059021011083D08100C0C10599AAA45553C
:104C40005515000555590C165DEE141D7A034DF8E7
:104C50000319355D80034D90033DC2033D7A035D2A
:104C6000F8036E8780034D90032DC2031F80885C7C
:104C7000033E812C042D50071D88032DCE033E8159
:104C80004E046DC003213C21461A77902D38031E37
:104C90008954042D4E046DC0033D0204240489741C
:104CA00075A220077273777071764A3D42034DC03A
:104CB0000319A62C0577718A8588032C0B86848AB4
:104CC000848A867170707642032DE50639A64E718E
:104CD000380389CC132E81973D4C0729A64B848A33
:104CE0006645BD4D88034F68894C07192435783BCC
:104CF000585E5D1D8B034D0A032768870A7F8F1D51
:104D000022144E61E60319EA3D3E032F8A768A0497
:104D10008F1D8F431461482DC0032D4B042DDA04E1
:104D200091407148492A41D8A140814821442C052D
:104D300080818A6814050D13AE143E617C032E69D0
:104D400014050113202E6048042DA604438B8C54B7
:104D5000E35150842D860440068F898D8E6230B3D6
:104D60002E624025082B8466141F57514B0980067C
:104D7000562E815751A22F505626051E69D0051D6B
:104D800023091DF404457E71423E60EE0415422D58
:104D900012062DF4044D5403300757515253545505
:104DA0004E35461E8A96052C068D8E6564648205F6
:104DB0004280483DE903313E15003E694E092C040E
:104DC0008788677E0441484E816C0535842F646670
:104DD0004E0919A82004887884016D3E054D4605CA
:104DE000153E3D84091DF209100589676564026D51
:104DF0003E054906115E19861F1D8FBA061DEA0978
:104E000029B24F78848B05394821201DC8093C05FB
:104E10008F1D8D8EEA0919B212674269002C052E8A
:104E2000816466C8095F1D8FAA0619FA100481877C
:104E3000676712648C2C058A6464664A07214041C6
:104E40001F1D28061D78093D760A112512662C2D96
:104E5000160349C05E8940072D820725B221921DA5
:104E6000DB0931184A8FA63D40072D7A0725B2216C
:104E700092115041186E8800041C0B596A56595AF9
:104E80005AAAAA0505F2032C04559AAAAA1C1C04C6
:104E900004559908041004515050081C04AAA56533
:104EA00019042EA91C085007A5A5A5AAAA0A012D18
:104EB0006A074E872E071D99033C06808B888E87D4
:104EC0003E0621AE3C05878F7770B20A528CC43201
:104ED00087992DB8061C04877771CF035C04778A05
:104EE000846C0A3DF6033D38046C0880777070715D
:104EF000727596064DA603315D2E87B00617808722
:104F0000AE1E8ACC055DB0062D32041D68031D421D
:104F1000082DFA032377703A4D94032DBE051192A4
:104F20001D3204278889021E78FA03238A843A9E58
:104F30006208032D7004168F5A4B74751C2DBC0328
:104F400089CC2F585E70042F8D884004311F3DC6D8
:104F5000069E634A03128877BB72753CAE810C03D0
:104F60001D360811AEA93C2D14038D391839B41D16
:104F700030063D44041DBA034DE0068142392E81BE
:104F8000103E6182061D4E035E5050032DEF07AFA9
:104F90005F58BA034D0E03438180A62DE007DE6201
:104FA000FA032D0E03528054BD7A036DA6043D888A
:104FB000084DDA034D7A039DDA0341C811561B5799
:104FC000511A4E564907A5324DC4087D8E083D162C
:104FD000099DFE034E61C4086D8E082D7803B574DB
:104FE00042607E6D92052D7803BE81FE03417E7581
:104FF000503DBE034D7C054D7E09762EC82D86049E
:105000004DBE035D6209411B8DC6054E2E6A061E0C
:105010008055032D78035384844261A3297F3D3654
:10502000031D7C032D9D0376651D4D24081DC805B9
:105030002DB60A4D7E032D08042D040469085DD6A3
:10504000092DB60A3D7E032D08042D040469084D80
:10505000D6092D360B3D44045DF2094D040441BCD4
:105060001D7C0A1D46042DEE062D360E4DF2094D0F
:10507000040441BC2E80C4041DF00A2DEC062D3220
:10508000072DFC033D7E034E87D204238A69C02D81
:10509000F60A2DAA06418A2D7E035E88D2041D667B
:1050A000044E87FE072DFA031C096A5A561505455A
:1050B0005A56F6171008511000551100440A1C04E6
:1050C000506555FF032D13083EA601042D1B082D26
:1050D0000B046E9500048D00129DB70DFD80150D1B
:1050E00014C2151D650F0E145178163D8E0E2E60DC
:1050F000B50A01103E6DF3162F52532C0B3DFA0EDC
:10510000EDBC0D2D12144E616A09AC075455515671
:105110005750F2084A504A39BA6D700A6E63740EDD
:105120005176490051221D900321462F54554210BB
:105130004176490045CC4D340A1E848A0A1DAD0FC4
:105140003D0E0A6280585E2E5D0B1D200A2C046500
:10515000642E0C076256595D550A19B71E869404D1
:105160001E84F20B5F6E86040A7D900A4DC80A1DEC
:10517000F0051E67F30558042E6764357D900A21FB
:105180003E7B8468B011421D2C0B2E858C0A814A0F
:105190007365661F10048067644A6F648001047140
:1051A000886DC20B4DC20C736E86FA2E80BA048DC8
:1051B00030034DC20C11886E2E2C0C2F65646A08CA
:1051C0005E8440074D000D21CA31D411D65D6A07B7
:1051D0005D40074D000D21CA31D41DC9061538297F
:1051E000A61D2C096C05808178843A044D40034D3E
:1051F000440C29A61DC0051D2E0E1D40076D9703EA
:105200005D500C3DFA0B2E8BC2073D2A0E90048197
:10521000798A3A4DD0092C042E8B8FC2072D2A0E85
:105220002E2E9E03713A41463D2A086E8BC20E6FA8
:10523000678A8C081D5E0931B51D5C084E878207A0
:105240002DC20E6F8F788C081C04802E6690062D60
:105250005C085DEA0D3DC2074F89797A052DFC088F
:1052600021584D92076D2E113404808877E22DD29B
:10527000083E690C072D94032D380B3DC20E1DF816
:105280000E11C05D440E3E69C8072D82082D240909
:105290002D8406212E6F7884440E3F6687CC031D33
:1052A0001A043DEE0E3D3C0F1E88E2063D3C0815FB
:1052B000522D0E043D0A122DAA123D280E34058DE2
:1052C0008E8981731E8142083E66860F1D1404FF7D
:1052D0008D88A1247F5051081C110A5C0640A5AAA4
:1052E000A655F8032C04665555FA0711088E990047
:0852F000084D40180000000009
:04000005000000698E
:00000001FF
