:020000040000FA
:1000000070220020750000008100000089000000BF
:100010009100000099000000A10000000000000015
:10002000000000000000000000000000A900000027
:10003000B100000000000000B9000000C100000095
:10004000D1000000C9000000D9000000E10000005C
:10005000E9000000F1000000F900000001010000CB
:100060000348854600F0A2F800480047BD0E000096
:100070007022002024488046C1468047234800471C
:1000800000B500F038FA00BD00B500F0CEF800BDB4
:1000900000B500F02FFA00BD00B500F0C4F800BDB7
:1000A00000B500F0CFFA00BD00B500F049FA00BD80
:1000B00000B500F0B9F800BD00B500F031FA00BDA0
:1000C00000B500F051FA00BD00B500F085FA00BDA2
:1000D00000B500F099FA00BD00B500F07BFA00BD54
:1000E00007B500F0A3F807BD07B500F0AFF807BDEE
:1000F00007B500F0BBF807BD07B500F0BFF807BDB6
:1001000007B500F05BFA07BD85050000610000003F
:1001100030B50B46014600202022012409E00D469F
:10012000D5409D4205D31D469540491B2546954027
:1001300040191546521E002DF1DC30BD70B500246B
:100140002546002801DA01244042002901DA012570
:100150004942FFF7DDFFAC4200D04042002C00D006
:10016000494270BD0549064A08685043054A80184F
:10017000086040087047014908607047000B002084
:100180006D4EC6413930000003460B439B0703D038
:1001900009E008C9121F08C0042AFAD203E00B784C
:1001A0000370401C491C521EF9D27047064C0125B1
:1001B000064E05E0E36807CC2B430C3C984710340F
:1001C000B442F7D3FFF750FFA81C0000C81C000082
:1001D00070B58C180578401C6B075B0F01D1037854
:1001E000401C2A1106D10278401C03E006780E70EC
:1001F000401C491C5B1EF9D12B0705D40023521E5D
:100200000DD40B70491CFAE70378401CCB1A921CE2
:1002100003E01D780D70491C5B1C521EF9D5A142EC
:10022000D8D3002070BD70477047704710B50020CC
:1002300000F040F9044800781E2804DD02480078E8
:10024000401F0149087010BD140C002010B501209A
:1002500000F030F904480078C82804DA0248007831
:10026000401D0149087010BD140C002010B502207B
:1002700000F020F900F038FB10BD000010B503209D
:1002800000F018F9044840781E2804DD0248407840
:10029000401F0149487010BD140C002030B50346C2
:1002A0000C4615461349488900F0F2F8181200F080
:1002B000DCF8D8B200F0D9F80E49888900F0E8F8E7
:1002C000201200F0D2F8E0B200F0CFF800200521B3
:1002D0000907486008600749088900F007F900200D
:1002E000052109078860012088600860284600F021
:1002F000BCF830BD5E0D0020FFB585B00E46174638
:10030000102402962046E217520F1218D210E3175B
:100310005B0F1B18DB10DB000094E31A01D00123F4
:1003200000E00023D2182146E30F5B185B105A430C
:10033000D2B2019238462038C7B2002556E00C2CC4
:1003400005D138012C494018405D049011E0102C73
:1003500005D1380128494018405D049009E0182C67
:1003600005D1380124494018405D049001E009B0EE
:10037000F0BD0020039033E080210498084000285D
:1003800006D01E48028831460598FFF787FF08E02F
:100390000898002805D11A48028831460598FFF7C9
:1003A0007DFF04984006000E0490701C86B215482C
:1003B0004088B04200DCDAE70298301AA0420BD144
:1003C000029E0598401C80B205900E480188059851
:1003D000814200DCCBE706E00398401CC0B20390EA
:1003E00003980828C8DB00BF681CC5B20198854285
:1003F000A5DB00BFBBE70000B8160000E00A002044
:10040000E20A00205E0D0020FFB581B004460D46D3
:100410000A9E1027E0B200900398001980B2039062
:100420000498401980B2049016E00398844202DBDD
:10043000009CE81985B20498854200DB12E032780E
:10044000002329462046FFF757FF3846F90F0918C1
:10045000491009198CB2761C30787E2802DC30787D
:100460002028E2DA00BF05B0F0BD00B50246012049
:1004700005210907486000200860104600F036F8A2
:10048000002005210907886001208860086000BD00
:1004900000B50246002005210907486008601046A3
:1004A00000F024F8002005210907886001208860F9
:1004B000086000BD30B502460020002100230A4C30
:1004C000216801249440204604460C402346002B1A
:1004D00004D10C460443044D2C6003E00C468443D5
:1004E000014D2C6030BD00000010004005210907BF
:1004F0008861704770477047C206D20E0121914053
:10050000014A11607047000000E100E0C206D20E0F
:1005100001219140014A11607047000000E100E0B4
:10052000704700000148006870470000002000404C
:10053000024948600121014A1160704700400040B3
:1005400070470000014908617047000000E000E0CA
:10055000014948617047000000E000E001498861FE
:100560007047000000E000E010B50020FFF7EAFF50
:10057000034840680121490608430149486010BD0D
:1005800000ED00E010B50120FFF7C0FF0020FFF7ED
:10059000BDFF0720FFF7BAFF10BD000030B50523EF
:1005A00054002343044C23600024034D6C602C460C
:1005B000A060216130BD00000030004010B504484B
:1005C000006800F0F9FA00200149086010BD000041
:1005D000DC0A00207047000010B50120800700F001
:1005E000A3FF0120FFF766FF01A000F02DF810BD6A
:1005F000756172745F727820696E74206F636375C1
:10060000722121210A00000008B50120800700F0B6
:100610008EFF0220FFF74EFF04A0FF234133F0229C
:10062000002100900846FFF7EFFE08BD55415254E7
:1006300054585F4952516E204F434355524544210F
:10064000212100007047000010B5024A024900F065
:1006500014F810BD990B0000E40A002002E008C85D
:10066000121F08C1002AFAD170477047002001E02C
:1006700001C1121F002AFBD17047F8B516460F467C
:100680000446002503E03946B047641C6D1C207801
:100690000028F8D12846F8BDFEB53725002481E0B2
:1006A000A0002018424940188078002856D0A000A9
:1006B00020184018C078460030203246E032D3B2CD
:1006C000A200A2180F46D219009052780192A200FF
:1006D000A218B95CE8B2019A00F0C8FF3020324697
:1006E000E132D3B2A200A218D2190090527801923E
:1006F000A200A218BA5C0832D1B26A1CD0B2019A28
:1007000000F0B4FFF0203146E131CBB2A100611816
:10071000C919009049780831CAB2A1006118795C02
:100720000191A91CC8B2019900F0A0FFF02000902F
:100730003046E030C3B2A0002018C019407808301D
:10074000C2B2A0002018385C0830C1B2E81CC0B2A8
:10075000019000F08BFF281DC5B222E01020009010
:10076000E8B21F23EF22FA2100F080FF1020691C5D
:100770000090C8B21F23EF22FA2100F077FFD020AB
:10078000A91C0090C8B21F23EF22FA2100F06EFFCF
:10079000D020E91C0090C8B21F23EF22FA2100F0FC
:1007A00065FF641C03480078844200DA78E7FEBDE8
:1007B000440D0020B716000038B5002428E0600082
:1007C0002018164940188078002810D010206300A7
:1007D000E3180D465B1900905A786300E318E95C52
:1007E00023460D33D8B2312300F040FF0FE0102034
:1007F0006300E318094D5B1900905A786300E31811
:10080000E95C23460D33D8B2FF2300F02FFF641CB0
:10081000034800788442D2DB38BD0000040B00207E
:10082000B4160000002006E0002142008218044BAC
:10083000D2189170401C034909788842F4DB704754
:10084000040B0020B416000070B505460E460020CB
:1008500003E000218200B150401C1E28F9DB002477
:1008600010E06000201840198078002809D062004C
:10087000A218521951786200A218A85C324600F002
:1008800047FE641C024800788442EADB70BD000029
:10089000B416000030B5034600201CE084000419A3
:1008A000A418A478002C15D185004519AD18EC705A
:1008B00084000419135584000419A41861700124DC
:1008C00085004519AD18AC70002485004519AD1898
:1008D0002C7104E0401C034C2478A042DEDB00BFF6
:1008E00030BD0000B716000000201FE04100411895
:1008F000114A89188978002917D110498978002967
:1009000013D00E4909780831420082180A4B9954D5
:100910000A494978083942008218D21851700121D9
:1009200042008218D218917004E0401C04490978F2
:100930008842DBDB00BF7047040B0020140C002052
:10094000B41600003FB50446002038E00A224243B6
:100950001E4BD2189278002A30D10A2242439C546E
:100960000A224243D218517001230A224243174DF2
:100970005219937000230A224243521953726A4655
:10098000137A0A224243521913716A46937A0A2251
:100990004243521993716A46537A0A2242435219CA
:1009A00053716A46D37A0A2242435219D3716A4676
:1009B000137B0A2242435219137204E0401C044A7A
:1009C00012789042C2DB00BF3FBD0000980C0020AF
:1009D000B616000000B502460020FFF7B3FD104632
:1009E000FFF7B6FD0020FFF7B9FD0720FFF7AAFDCE
:1009F00030BF00BD10B503461C4603E00348FFF7B7
:100A0000E9FF641E002CF9D110BD000050C30000A6
:100A100070B505460E46002003E000218200B1506B
:100A2000401C1E28F9DB00242AE00A2060434019FC
:100A30008078002823D00A226243521951780A2272
:100A40006243A85C324600F063FD0A2262435219F9
:100A500051780A226243AA5C0832D0B2324600F0D2
:100A600057FD0A22624352195278083AD1B20A223B
:100A70006243AA5C121DD0B2324600F049FD641CEC
:100A8000024800788442D0DB70BD0000B61600003A
:100A9000F8B5002464E040250A206043334940183B
:100AA000807800283AD020200A2363430E469B1901
:100AB00000905A780A236343F15C6300E31814330F
:100AC000D8B22B4600F0D2FD20206E1CF3B20A26CD
:100AD0006643264FF619009072780A266643BE5D7B
:100AE0000836F1B26600A6191536F0B200F0BEFD68
:100AF0002020AE1CF3B20A266643F61900907678E1
:100B0000083EF2B20A266643BE5D361DF1B26600AB
:100B1000A6191636F0B200F0A9FD20E020206100F1
:100B2000611814310090C8B2FF230022114600F072
:100B30009DFD20206100611815310090C8B2FF238F
:100B40000022114600F092FD20206100611816314C
:100B50000090C8B2FF230022114600F087FD641CFC
:100B600003480078844296DBF8BD0000980C002012
:100B7000B6160000002006E000220A214143044B83
:100B8000C9188A70401C034909788842F4DB704711
:100B9000980C0020B616000070B504460D460A2CCD
:100BA00003D10D21400700F0C5FCE1B20120800710
:100BB00000F0C0FC204670BDFEB504460A21204668
:100BC000FFF7A6FA01910A212046FFF7A1FA0A21B0
:100BD0000090FFF79DFA0D4664212046FFF798FA32
:100BE0000A210090FFF794FA0E467D21C9002046A5
:100BF000FFF78EFA0A210090FFF78AFA0F4630209D
:100C00003B46DC2211460090042000F02FFD3020EE
:100C10003346DC22E4210090052000F027FD30203F
:100C20002B46DC22EC210090062000F01FFD302036
:100C30000090DC22F4210720019B00F017FDFEBD8F
:100C4000F0B585B004460D4616460A213046FFF73A
:100C50005FFA03910A213046FFF75AFA0A21009001
:100C6000FFF756FA0F4664213046FFF751FA0A2182
:100C70000090FFF74DFA02917D21C9003046FFF741
:100C800047FA0A210090FFF743FA019130200090C3
:100C90002A4621460020019B00F0E8FC302000900D
:100CA00020460830C1B22A460120029B00F0DEFC3B
:100CB0003020009020461030C1B23B462A46022028
:100CC00000F0D4FC3020009020461830C1B22A46F3
:100CD0000320039B00F0CAFC05B0F0BD0FB470B553
:100CE0000446002030E041004118091989780029A4
:100CF00029D045004519655DE910450045192D19B4
:100D00006D78EA10950005AE755901268E40354084
:100D10002B46002B08D1450045192D19AD7846000A
:100D200086193619B5700DE000254600861936196A
:100D3000B570FD2546008619A555EF254600861994
:100D40003619757000BF401C034909788842CADB18
:100D500070BC08BC04B01847B41600000FB4F8B556
:100D60000546002451E00A2060434019807800289D
:100D70004AD00A206043285CC7100A20604340190B
:100D80004078C610B00007A908580121B9400840B2
:100D9000B10007AA51587A1C012393401940084317
:100DA000711E890007AA51587A1C012393401940EB
:100DB000084300900098002808D10A206043401999
:100DC00081780A206043401981701CE00A22624346
:100DD000521951780A226243A85C104AFFF75AFD63
:100DE00000210A20604340198170FD210A206043E0
:100DF0002954EF210A2060434019417008480068D7
:100E00000A300749086000BF641C06480078844225
:100E1000A9DBF8BC08BC04B018470000440D002052
:100E2000D80A0020B6160000F8B504460F46394629
:100E30001F48FFF7EDFD2078C6106078C510A800A8
:100E400038580121B1400840A9007958721C01238B
:100E5000934019400843A9007958B21C01239340DC
:100E600019400843691C890079580122B240114099
:100E70000843691C89007958721C0123934019406A
:100E8000084300900098002803D1A078A0700020AB
:100E9000F8BD084A51781078074AFFF7FBFCFF209D
:100EA0002070EF2060700020A0700120F0E70000AB
:100EB000980C0020140C0020440D00209EB000244B
:100EC00008E000200090E0B21F23F022114600F05D
:100ED000CDFB641C402CF4DB00F0E4FAFFF7A2FC2D
:100EE000FFF748FE002000900190029001231A466F
:100EF000FF21B3310390480700F027FB6420FFF780
:100F000017FB0320FFF7F8FA0420FFF7F5FA052096
:100F1000FFF7F2FA0620FFF7EFFA012200215A4804
:100F2000FFF73CFB00250120000300F0D7FA05463F
:100F3000284600F0C3FAA5E0FFF714F90A211B9038
:100F4000FFF7FCF8142041431E31CEB2FFF70AF937
:100F50000A211B90FFF7F2F848000A30C7B2FFF7EA
:100F600001F903211B90FFF7E9F8091D18A8017486
:100F7000FFF7F8F803211B90FFF7E0F8491C18A8C9
:100F80008174FFF7EFF814211B90FFF7D7F83F4863
:100F9000407808180A38C1B218A841740021C174F9
:100FA0000175017C0172417C4172817C8172C17C3E
:100FB000C172017D0173394630461B9B1A9AFFF7B7
:100FC000C1FC324A5178107800F0EEF9FFF7F4FBDB
:100FD000FFF75EFDFFF760FB2D492E48FFF718FD78
:100FE0002D492E48FFF730FC29492848FFF71CFF00
:100FF0006C2229490C316846FFF7C6F826480EC80E
:101000002448FFF7ABFE6C2221490C316846FFF7FC
:10101000BBF81F480EC82148FFF760FE20480A2190
:1010200002680320FFF70CFE1A4800F0CDF800F02C
:10103000F3FA1C4800F0B6FAFFF774FA0446012CE4
:1010400008D1124800781E2804DD10480078401F9F
:101050000E490870022C08D10C480078C82804DA20
:101060000A480078401D09490870042C01D1FFF797
:101070003BFC0D480068401C0B4908601E20FFF730
:10108000B9FC00BF58E7000080F0FA02140C002001
:10109000CC0C0020980C0020140B0020040B002026
:1010A000D80A0020440D0020DC0A002070B5054657
:1010B0001048007C002804D10E49086880470120B0
:1010C00070BD01200003854211D269090948C0683A
:1010D0004B00C25A002406E00020064BDB680E19C4
:1010E00076009853641C9442F6DB0020E8E7022067
:1010F000E6E70000EC0A002000B50949FF220132B2
:10110000C868002100F0FAF9054901221203886835
:10111000002100F0F3F901200149087400BD00002E
:10112000EC0A0020F8B506460024002000901B4879
:10113000007C002802D1194908688047002E01D19F
:10114000701EF8BDF002050CF006C00E002801D09C
:10115000681C85B27F241CE01048C0686100405ABA
:10116000002804D10098401C80B2009001E00020CB
:1011700000900098A8420BD1002705E00748C068FE
:10118000E119490045527F1CAF42F7D36001D8E70F
:10119000641E002CE0DA0020C043D2E7EC0A0020F5
:1011A0000022002107E00748C0684B00C05A002811
:1011B00000D0521C491C8029F5D3642050434004C0
:1011C000000E7047EC0A002070B505460024E0E0F0
:1011D000FEF7C8FF06460A21FEF7B0FF70484078C8
:1011E00009180A20604340194078814204DC01213B
:1011F0000A2060434019C1710A2060434019807879
:10120000002825D00A2060434019407A02287BD16B
:1012100000210A206043401941720A206043285C83
:10122000052810DB0A206043285CFB280BDC0A2021
:101230006043401940780A2805DB0A2060434019C2
:101240004078E62805DD00210A20604340198170BE
:101250009EE00A2060434019C079002843D10A204B
:10126000604340190079042804D0052813D00628CB
:1012700037D123E00A206043285C0A216143685487
:101280000A20604340194078801CC1B20A206043A4
:101290004019417026E00A206043285C801EC1B2DC
:1012A0000A20604329540A20604340194078C01C3A
:1012B000C1B20A2060434019417013E00A20604324
:1012C000285C801CC1B20A20604329540A20604374
:1012D00040194078C01CC1B20A20604340194170D7
:1012E00000E000BF54E00A2060434019C0790128A3
:1012F0004ED10A20604340198079012805D0022888
:1013000014D0032838D124E038E00A206043285C58
:101310000A21614368540A20604340194078801EC6
:10132000C1B20A2060434019417026E00A206043A0
:10133000285C801EC1B20A20604329540A20604301
:1013400040194078C01EC1B20A2060434019417064
:1013500013E00A206043285C801CC1B20A2060436D
:1013600029540A20604340194078C01EC1B20A20A7
:1013700060434019417000E000BF09E00A2060436B
:101380004019407A401CC1B20A20604340194172A2
:10139000641C04480078844200DA19E770BD00003C
:1013A000140C0020B6160000FEB504460F460825B2
:1013B00033263B48807800283AD03020F3B2E1B29F
:1013C0000090E8B23A4600F051F93020721CD3B2D6
:1013D0006219D1B26A1C0090D0B23A4600F046F9C8
:1013E0007020F3B222461032D1B2AA1C0090D0B2C3
:1013F0003A4600F03BF93020B31CDBB20193009079
:101400007B19DAB2231DD9B2EB1CD8B2019B00F0D4
:101410002DF930200090F01CC3B27819C2B22046DA
:101420000C30C1B2281DC0B2019000F01FF935E0A8
:1014300010202246083AD1B20090E8B21F233A4663
:1014400000F014F91020E1B26A1C0090D0B21F2302
:101450003A4600F00BF9502022460832D1B2AA1CBD
:101460000090D0B21F233A4600F000F910203B460E
:101470000833DAB2231FD9B2EB1C0090D8B21F2375
:1014800000F0F4F810203B460833DAB2231DD9B23D
:101490002B1D0090D8B21F2300F0E8F8FEBD00001D
:1014A000140C0020782004490870B42048700120F2
:1014B00088700F20C8707047140C002070B5044667
:1014C000002C00D170BD04488068251A2846FFF71B
:1014D000EDFD00BFF6E70000EC0A002070B5054600
:1014E0002846FFF71FFE0446601C002800D170BD8F
:1014F000014880680019FAE7EC0A002030B503467D
:1015000001E019705B1C1446521E002CF9D130BD4D
:10151000F0B5C510CB100126AE4034469E0096595A
:1015200026439F00D651F0BD0221C16070470121C2
:10153000C160704705E04268D207D20F002A00D18F
:1015400000E0F8E700BF01607047F0B50446059D74
:101550000026002A01D001200643002B01D00220E2
:101560000643002D01D0042006430698002801D030
:10157000082006430798002801D010200643089849
:10158000002801D0202006430020A0602161A66031
:1015900060680C273840002801D00120F0BD0020F1
:1015A000FCE70000014600202FE08200821852185C
:1015B0009278002A28D082008218521812790E2AB6
:1015C00009DA8200821852181279521C8300C3185B
:1015D0005B181A7118E000228300C3185B181A7197
:1015E000820082185218D278521C8300C3185B18EC
:1015F000DA70820082185218D278042A04D10022AC
:101600008300C3185B189A70401C024A12789042FB
:10161000CBDB7047B716000000201DE041004118E9
:10162000104A89188978002915D041004118891875
:101630004978C91E420082180A4BD21851704100E5
:1016400041181A4689184978052904DA0021420010
:101650008218D2189170401C034909788842DDDB5A
:1016600070470000040B0020B416000070B5049C05
:101670008500064EAD19E9708500AD19AA70850088
:10168000AD196B708500AD192C7070BD0000015054
:101690005A82677F73787C6E816081537C46733B8E
:1016A00067345A374C34403B374532533260376DDC
:1016B00040784C7F05050505000000000000000093
:1016C00000000000000000000000000000001FCC2F
:1016D000000C000000000000000008003000600066
:1016E0000800300060000000022003FC1E200220E1
:1016F00003FC1E200220000000000E1811043FFF12
:1017000010840C78000000000F0010840F3800C017
:10171000077818840078000000780F8410C4112422
:101720000E9800E4008400080800680070000000C3
:10173000000000000000000000000000000007E0C2
:10174000181820044002000000004002200418186D
:1017500007E00000000000000240024001800FF09E
:1017600001800240024000000080008000800FF8ED
:1017700000800080008000000001000D000E0000CD
:1017800000000000000000000000008000800080D9
:1017900000800080008000800000000C000C000031
:1017A00000000000000000000000000600180060BB
:1017B0000180060018002000000007F0080810044F
:1017C0001004080807F000000000080408041FFCCB
:1017D000000400040000000000000E0C101410248F
:1017E000104411840E0C000000000C1810041104A9
:1017F000110412880C700000000000E00320042493
:1018000008241FFC0024000000001F98108411040D
:101810001104108810700000000007F008881104FF
:10182000110418880070000000001C00100010FC5B
:1018300013001C001000000000000E38114410843A
:10184000108411440E38000000000700088C10447A
:101850001044088807F00000000000000000030C9E
:10186000030C000000000000000000000001010661
:101870000000000000000000000000800140022085
:101880000410080810040000022002200220022098
:1018900002200220022000000000100408080410AA
:1018A000022001400080000000000E001200100C19
:1018B000106C10800F00000003E00C1813E41424D7
:1018C00017C4082807D000000004003C03C41C40D3
:1018D000074000E4001C000410041FFC1104110464
:1018E00011040E880070000003E00C1810041004AE
:1018F000100410081C10000010041FFC1004100439
:101900001004080807F0000010041FFC1104110463
:1019100017C410040818000010041FFC1104110063
:1019200017C010000800000003E00C181004100499
:1019300010441C780040000010041FFC108400803C
:10194000008010841FFC10040000100410041FFC11
:101950001004100400000000000300011001100139
:101960001FFE10001000000010041FFC1104038073
:101970001464181C1004000010041FFC1004000460
:1019800000040004000C000010041FFC1F0000FCF9
:101990001F001FFC1004000010041FFC0C040300B7
:1019A00000E010181FFC100007F0080810041004D5
:1019B0001004080807F0000010041FFC10841080B9
:1019C000108010800F00000007F008181024102469
:1019D000101C080A07F2000010041FFC110411007B
:1019E00011C011300E0C000400000E1C11041084F4
:1019F000108410441C3800001800100010041FFC54
:101A0000100410001800000010001FF8100400045B
:101A1000000410041FF8100010001E0011E0001C4C
:101A2000007013801C0010001FC0103C00E01F005D
:101A300000E0103C1FC000001004180C163401C058
:101A400001C01634180C100410001C00130400FC14
:101A500013041C00100000000804101C1064108403
:101A600013041C04101800000000000000007FFE9A
:101A70004002400240020000000030000C000380E1
:101A80000060001C00030000000040024002400211
:101A90007FFE000000000000000000002000400069
:101AA0004000400020000000000100010001000192
:101AB0000001000100010001000040004000200082
:101AC0000000000000000000000000980124014414
:101AD0000144014400FC000410001FFC00880104C4
:101AE00001040088007000000000007000880104FC
:101AF0000104010400880000000000700088010457
:101B0000010411081FFC0004000000F80144014416
:101B10000144014400C800000000010401040FFC5E
:101B20001104110411001800000000D60129012938
:101B3000012901C90106000010041FFC00840100F6
:101B40000100010400FC000400000104190419FC58
:101B50000004000400000000000000030001010177
:101B6000190119FE0000000010041FFC00240040B1
:101B700001B4010C010400000000100410041FFC5B
:101B80000004000400000000010401FC0104010045
:101B900001FC0104010000FC010401FC00840100BF
:101BA0000100010400FC0004000000F8010401042D
:101BB0000104010400F80000010101FF0085010497
:101BC000010400880070000000000070008801041B
:101BD0000104010501FF00010104010401FC00846E
:101BE0000104010001800000000000CC0124012458
:101BF000012401240198000000000100010007F801
:101C00000104010400000000010001F800040004C8
:101C10000004010801FC0004010001800170000CB7
:101C2000001001600180010001F0010C003001C0D2
:101C30000030010C01F0010000000104018C00746F
:101C40000170018C01040000010101810171000E8D
:101C5000001801600180010000000184010C0134C2
:101C600001440184010C000000000000000000009D
:101C700001003EFC400240020000000000000000A5
:101C8000FFFF0000000000000000400240023EFC98
:101C900001000000000000000000600080008000E3
:101CA0004000400020002000C81C00000000002070
:101CB000040B0000D001000058210000040B00209C
:101CC0006C1700006C060000212301801B03FF013C
:101CD0003AE00612C03A3F06250C07E030F9062923
:101CE0001D4BFFFE0629055BFFFF12480CCC07E0E9
:101CF00033FE03CC018033F00611220C2936F9069D
:101D00000D123F8001FC0609112A2BFFFF1E390628
:101D100029666906A924418A03043C01FFFE0411D7
:101D20004B7FF8044B1FE004992439043B3FF00437
:101D30002D01FFFF80044B3FFC022BFFFC6F3B3F5C
:101D4000FF0E29791A1F2829041A0F441904192C87
:101D50002AC004913B0130863B01800D89061A039D
:101D60005569061C07FFFF3E4906296D6906111AD1
:101D70001FA169063A035449061A0F710942061A4F
:101D80000771112D0607E0608919B6490619D8397F
:101D9000E4890629054CFFFF7F0739012A1F05103A
:101DA00008F81FFFFE7FFFF81C1F8661A349061D70
:101DB00006066060062119061DFF87E1FF068BE716
:101DC000E7062A0712112AFF05B90601AE041B0314
:101DD000FFF0041B3FFFFE0519FFFFFF801A011EE5
:101DE0000A19C0770419FFFFE01A071E0918970A9D
:101DF000390F1E1A1F1E0A35F81E0A3D3F1E0A190A
:101E0000FC1E0A1BE71E7AE31E1A3E02319301C034
:101E10009C7FFFC31EFA7F1E7AC71E1A7E1E7A3071
:101E20001E6A801E4A7F101A7E3E1B70021E4202EE
:101E300012C04B04021E19B9292B111202CB7003D8
:101E40001E2C87FFF81E114A041E12023B03801E3F
:101E50003A801E148FFFF81A1F1E230C1F12062A29
:101E6000601E62061E07FE7FFF0F1E111A011E1361
:101E70003FFCCA1E1E2AF41E1AF01E12FE4E183F08
:101E8000FC01FC1E29653129072A3F1E1303FC149F
:101E9000300184120C6BE0061E42011973491E1AB0
:101EA000202C191E12043A0335196C491E1AE063DE
:101EB0001AF854591E61791E4AC01E1B06081E7A64
:101EC000C01E19342A3C1E2280130FF01AC01E9A1D
:101ED000081E19031AF89529431A1F1E3A0E1E727E
:101EE0000C3A0351591E1CE001801E171801C00F47
:101EF000FFFC1A078B291E9A801E5A1C1E3AF81ED8
:101F000022022A06EF2978143FC0031B3C101E1B37
:101F1000800E651A03131C0201F083491E5C7FC00A
:101F2000071E12085230AA061E1380063A7C1E12A3
:101F3000185A60B54A801E19F014FF800F137810EC
:101F40001B10031E190F61891E112F0F8FF810042B
:101F5000301E194BC91E1301FF151F03F820191E4F
:101F60008B10011E3C03FFE01E12FE1218391E19D1
:101F70005D511B07E01E1D07FFF07F1E9A031E190F
:101F8000E6311C0FE00823591E12FC123816F0200F
:101F90000820071330062A101E8AC01E1307FC6A89
:101FA0007C1E1A0C2921120E191E3C27FFF81E2A2E
:101FB000F81E12601A601E121832782A0C1E4AEFA0
:101FC0001E130FF05AFC1E3B20101E1A0889BA017E
:101FD0001E12401360061B20300B491E2B03CF1E20
:101FE00012807C1FF0011E3A601E1A18022E078F05
:101FF000FFF8FF1E1AE01E1360401A401E1AC0FDB3
:10200000291E12104B070F1E1B3FC0D41360C013B4
:10201000400E5D61C0039E1E7A061E19D4491E3D06
:102020004180071F1E12302D040FFFF01E4B7F80D2
:102030001E13C00E1A4351319A101E15FF8007FE61
:1020400013608013C00C12479A0E1E24F1FFFF1577
:10205000FF800FFE16618020C01C12C6241C0F805A
:102060008A301E1301FF191E3A411E12CC3B38075D
:102070001E1B20101E4AF31E10091FFF0FC18020D7
:10208000801C1ADC1E3AC01E1A701E14FFFFFE13BD
:1020900003FE1F3FFF3FC180211E12B81B70031EAD
:1020A00012208B20F01E1236130FC1291E12F02CA5
:1020B000E003E01E1361F0291E12FC19B1311A0170
:1020C0007A1A18072AC01E216B63D01E5AFC1E11F3
:1020D0002A381E3A011E3BEF801E12F8430FF84AC1
:1020E000031E3B03801E2301DE591E1809FFF00169
:1020F000FF0713C0C31E1B7FE7C32808F8E007C70C
:10210000D80FFF1E1AF0CF19012ADF0539A51139A2
:10211000081D900FFF07076AE01E3AEF1619572BAC
:10212000FFF9251C0FFE030F19DE81C401E06029B1
:102130001E021A80396801191A3FB3011AAA0F77D3
:102140000121840F01101AF90A23A111136C0D1437
:08215000206C1D82200000003C
:040000050000006196
:00000001FF
