:020000040000FA
:100000000834002079000000850000008D00000009
:10001000950000009D000000A50000000000000009
:10002000000000000000000000000000AD00000023
:10003000B500000000000000BD000000C500000089
:10004000D5000000CD000000DD000000E50000004C
:10005000ED000000F5000000FD00000005010000BB
:100060000D0100000348854600F00AFA00480047E9
:10007000D92000000834002026488046C146804729
:100080002548004700B500F0A8FB00BD00B500F012
:100090005CFA00BD00B500F09FFB00BD00B500F0AC
:1000A00052FA00BD00B500F0B1FD00BD00B500F092
:1000B00045FD00BD00B500F047FA00BD00B500F0F9
:1000C0006BFC00BD00B500F04DFD00BD00B500F0BB
:1000D00067FD00BD00B500F07BFD00BD00B500F080
:1000E0005EFD00BD07B500F037FA07BD07B500F0AB
:1000F00038FA07BD07B500F039FA07BD07B500F0BB
:100100003AFA07BD07B500F049FD07BD07B504F091
:10011000DFFB07BD810B00006500000030B50B461A
:10012000014600202022012409E00D46D5409D42D1
:1001300005D31D469540491B254695404019154657
:10014000521E002DF1DC30BD70B50024254600287C
:1001500001DA01244042002901DA01254942FFF772
:10016000DDFFAC4200D04042002C00D0494270BDBF
:100170000549064A08685043054A80180860400847
:100180007047014908607047F41B00206D4EC6415E
:1001900039300000F8B502464A40D40F42004B0007
:1001A00052085B089A4202D20246084611464A00AB
:1001B00023D0C30D4A00DDB2120EAD1A202D35DA60
:1001C00049020126490AF6058A19002C00D052423C
:1001D00020214F1B1146B9402A411018C20D9A42E6
:1001E00021D0002C17D0012D08DCDA05801AD20F9F
:1001F0008019D207DBB200F009F9F8BDDA05801AE0
:10020000012340001B06C01880185A428018CA0FEC
:100210001043490007E04908C2071143DA05801A74
:1002200080194008801800F0E9F8F8BD610001224B
:10023000511A001BF7E70122D2075140AAE7012219
:10024000D2075040A6E7024670B54A40D30FDB07FD
:1002500040002DD04A002AD0010E140E00021202D6
:100260000919400A520A8418E50104465443000A59
:10027000120A2E045043A4194219200CC543AA188F
:10028000120C0125AD03521C521912047F392404AB
:1002900000D0521C104301D44000491EC2B20C06CB
:1002A000C0092018401C4008802A02D003E000202A
:1002B00070BD40084000002900DA0020184370BDDE
:1002C00070B502464A40D50F40004A00ED0740088D
:1002D0005208002814D0002A12D0C40DD30D4102B8
:1002E0000120C0055202490A520AE41A09181218DC
:1002F0007D34914201D3641C00E04900002C01DAF6
:10030000002070BD0023914201D3891A03434008A5
:1003100049000028F7D100290AD0914202D10121D9
:10032000C90705E0914201D2012101E00121C94341
:10033000E005C018401900F061F870BDC217C10F88
:10034000504010B54018CA079623002100F05EF80F
:1003500010BD10B500229623114600F057F810BDCD
:10036000410040020122400AD205090E80187F296F
:1003700001DA00207047962903DC9622511AC84002
:1003800070479639884070470122D207002800DB69
:10039000101A002900DB511A88427047F0B51FB4CB
:1003A0000646002082B005464024019100901BE0E3
:1003B000019922460F46304600F084F8049A059BC6
:1003C000801A994110D310461946224600F06AF867
:1003D000361A8F410197224601200021009F00F02C
:1003E00061F838184D4100902046641E0028DFDC7B
:1003F000019B00982946324607B0F0BD002904DA77
:10040000401C490001D140084000704770B40024EE
:10041000050C05D11024000402D1002921D011249B
:10042000050E01D100020834050F01D10001241D81
:10043000850F01D18000A41C002801DB4000641C52
:10044000002908D020252E1B0D46F540A14000D0E4
:1004500001212943084301061B1B000ADB1D02D5AD
:10046000002070BC7047DB05181880180029F8DAE6
:10047000401C4900F5D170BC4008400070470000A6
:10048000064C0125064E05E0E36807CC2B430C3CE7
:1004900098471034B442F7D3FFF7E8FDD44F00007B
:1004A000F44F000010B5202A04DB0146203A9140A9
:1004B000002010BD914020239C1A0346E3401943BD
:1004C000904010BD10B5202A04DB0846203AD040E9
:1004D000002110BD0B46D340D0402024A21A9140E9
:1004E0000843194610BD70B58D180478401CA2074A
:1004F000920F01D10278401C231106D10378401CD1
:1005000003E006780E70401C491C521EF9D1002BE6
:1005100015D002780C268A1A3440401C0C2C03D0CB
:10052000A401121B9B1C08E004782402121B401C2F
:10053000F8E714780C70491C521C5B1EF9D5A942CF
:10054000D3D3002070BD70477047704701484069A1
:10055000C0B270470040004010B5002000F01CF908
:1005600010BD10B5012000F017F910BD10B5022024
:1005700000F012F910BD10B5032000F00DF910BD08
:1005800030B503460C4615461349488900F0F2F889
:10059000181200F0DCF8D8B200F0D9F80E498889BA
:1005A00000F0E8F8201200F0D2F8E0B200F0CFF846
:1005B000002005210907486008600749088900F004
:1005C00007F900200521090788600120886008607C
:1005D000284600F0BCF830BDE81E0020FFB585B00D
:1005E0000E461746102402962046E217520F1218A4
:1005F000D210E3175B0F1B18DB10DB000094E31A2B
:1006000001D0012300E00023D2182146E30F5B183C
:100610005B105A43D2B2019238462038C7B2002547
:1006200056E00C2C05D138012C494018405D04904F
:1006300011E0102C05D1380128494018405D049084
:1006400009E0182C05D1380124494018405D049078
:1006500001E009B0F0BD0020039033E08021049850
:100660000840002806D01E48028831460598FFF74A
:1006700087FF08E00898002805D11A48028831460B
:100680000598FFF77DFF04984006000E0490701C4B
:1006900086B215484088B04200DCDAE70298301A8A
:1006A000A0420BD1029E0598401C80B205900E48D6
:1006B00001880598814200DCCBE706E00398401CE6
:1006C000C0B2039003980828C8DB00BF681CC5B2FD
:1006D00001988542A5DB00BFBBE700008F49000001
:1006E000FC1A0020FE1A0020E81E0020FFB581B091
:1006F00004460D460A9E1027E0B2009003980019A8
:1007000080B203900498401980B2049016E00398D8
:10071000844202DB009CE81985B20498854200DB24
:1007200012E03278002329462046FFF757FF38466B
:10073000F90F0918491009198CB2761C30787E28F7
:1007400002DC30782028E2DA00BF05B0F0BD00B549
:100750000246012005210907486000200860104674
:1007600000F036F800200521090788600120886024
:10077000086000BD00B50246002005210907486059
:100780000860104600F024F8002005210907886061
:1007900001208860086000BD30B5024600200021BD
:1007A00000230A4C216801249440204604460C4052
:1007B0002346002B04D10C460443044D2C6003E077
:1007C0000C468443014D2C6030BD000000100040F9
:1007D000052109078861704770477047C206D20E2D
:1007E00001219140014A11607047000000E100E0E2
:1007F000002004E00021034A1154411CC8B209281A
:10080000F8DB7047F82F002038B50446012100912D
:1008100000201C494870012100912AE068460088A8
:100820002040002803D001201749886002E0002002
:1008300015498860012014494860052000F0BCFE7D
:10084000002011494860052000F0B6FE01200E4945
:10085000486002F0A5FE002806D00A4840786946A4
:100860000988084307494870684600884004010C1D
:10087000009168460088FF28D0DD102000F09CFE23
:1008800038BD0000F82F00200050004010B5FFF7E1
:10089000AFFF00F02DF80F48007900020D49C9782C
:1008A00008430D49088000240FE060000B49095CF3
:1008B000491E01208840084909880840002802D1C3
:1008C000601CC0B210BD601CC4B2102CEDDB002057
:1008D000F8E70000F82F00201C1B0020201B002040
:1008E000002002490860486088607047005000405E
:1008F0001CB50021019101210091002023490860CD
:1009000023490878FFF780FF21494878FFF77CFFEB
:100910000221019131E00120009022E001201B49D9
:100920004860052000F048FE002018494860052076
:1009300000F042FE01201549486002F031FE002817
:100940000AD0144968460079095C6846008801436A
:10095000104A684600791154684600884004010C2A
:10096000009168460088FF28D8DD102000F024FEA2
:1009700068460079401CC1B2019168460079092897
:10098000C9DB0120014908601CBD00000050004087
:100990001E1B0020F82F00207047000000B500202B
:1009A00004490860062000F09BF801200149086016
:1009B00000BD00000040004010B504462404FFF7CD
:1009C000EDFF00F053F800200A490860D82000F03D
:1009D00087F82102080E00F083F82104080E00F0C9
:1009E0007FF8E0B200F07CF801200249086000F0D6
:1009F0003DF810BD00400040F0B506460C461746D5
:100A000000200F490860032000F06AF82102080E58
:100A100000F066F82104080E00F062F8E0B200F081
:100A20005FF8002505E0FF2000F05AF87055681CBB
:100A300085B2BD42F7DB012001490860F0BD00002E
:100A40000040004010B50024002007490860052040
:100A500000F046F8FF2000F043F804460120024968
:100A60000860204610BD00000040004000B500BFF7
:100A7000FFF7E8FFC007C00F0028F9D100BD000054
:100A8000F0B506460C461746FFF788FF00200F49D1
:100A90000860022000F024F82102080E00F020F87F
:100AA0002104080E00F01CF8E0B200F019F800254F
:100AB00004E0705D00F014F8681C85B2BD42F8DBFC
:100AC000012002490860FFF7D1FFF0BD004000405F
:100AD000024948600121014A11607047004000400E
:100AE00010B50446002305E0581CC3B2C82B01DD35
:100AF000002010BDFFF72AFD0028F5D0204600F0A9
:100B000013F8002305E0581CC3B2C82B01DD0020F8
:100B1000EFE7FFF71BFD0028F5D002480069C0B2DF
:100B2000E7E7000000400040034988600121024AD5
:100B3000D1600021D1607047004000407047000044
:100B4000014908617047000000E000E00149486188
:100B50007047000000E000E0014988617047000034
:100B600000E000E010B50020FFF7EAFF034840680E
:100B70000121490608430149486010BD00ED00E02D
:100B800010B50120FFF72AFE0020FFF727FE0720FF
:100B9000FFF724FE0820FFF721FE10BD70477047C5
:100BA00010B50120800703F0F1FD0120FFF7F4FDEF
:100BB00001A000F02DF810BD756172745F7278208D
:100BC000696E74206F636375722121210A00000031
:100BD00008B50120800703F0DCFD0220FFF7DCFDF3
:100BE00004A0FF234133F022002100900846FFF7C4
:100BF0007DFD08BD5541525454585F4952516E20F5
:100C00004F434355524544212121000070470000C5
:100C10000FB410B503A9044B044A029800F026F85B
:100C200010BC08BC04B0184755180000001B002079
:100C300030B47446641E2578641CAB4204D3635DF3
:100C40005B00E31830BC18471D46F8E702E008C80F
:100C5000121F08C1002AFAD170477047002001E036
:100C600001C1121F002AFBD170470000FFB58FB0F1
:100C70000F460446002606E025280AD0129A11994C
:100C80009047641C761C20780028F5D1304613B0BC
:100C9000F0BD00250121A14A009500E00543641C38
:100CA00023780846203B98401042F7D120782E2820
:100CB00015D1042005436078641C2A280AD101CF8D
:100CC000641C00900BE000990A225143303940180F
:100CD000641C00902078014630390929F3D9207826
:100CE0006C280ED004DC4C2813D06A2812D104E002
:100CF00074280ED07A280DD10BE001204005054361
:100D000007E00121090562780D43824201D16D1887
:100D1000641C641C2078864669284AD008DC0028B8
:100D2000B4D058286DD0632810D0642808D140E092
:100D300070286BD0732812D0752860D0782860D0C6
:100D4000129A704611999047761CE5E0387869460A
:100D500008720020487202A80190012003E0386860
:100D600001900020C0433F1D69070CD5002500E01D
:100D70006D1C00998D420FDA8542F9DB0199495DBE
:100D80000029F5D108E0002500E06D1C8542FCDB60
:100D90000199495D0029F8D1761907E00198019978
:100DA0000078491C0191129A119990476D1EF5D255
:100DB000B2E00A20029000216802400F039102284D
:100DC0000CD001CFC117844600290DDA62460846CF
:100DD00052420021814194462D2008E0FF1DFF086A
:100DE000FF0003CF8446EFE7280504D52B206A4691
:100DF000107401203CE0E8073AD02020F7E70A20F1
:100E000000E0102000210391029007E010200290E2
:100E10000021042005430820039100906802400F40
:100E2000022810D001CF0021844600200D90280711
:100E30001FD5704670280CD0029A1020039B4240A8
:100E40001A430CD015E0FF1DFF08FF0003CF8446B6
:100E5000EBE740206A46107401200D900CE06046DC
:100E6000084306D030206A46107470465074022041
:100E70000D907046582804D029A001900DA80E901E
:100E80000DE02CA0F9E76046039B029AFFF786FA73
:100E9000019B84469B5C0E9A521E0E921370604614
:100EA0000843F0D10E9805A9081A20300190680770
:100EB00001D5009801E0012000900199884203DDEE
:100EC00001460198081A00E000200025009006E085
:100ED00004A8129A405D119990476D1C761C0D98DC
:100EE0008542F5DB04E0129A302011999047761C78
:100EF0000099481E00900029F5DC08E00E980E9934
:100F00000078491C0E91129A11999047761C01990C
:100F1000481E01900029F1DC641CB4E60928010098
:100F2000303132333435363738396162636465665F
:100F30000000000030313233343536373839414221
:100F40004344454600000000014600204EE01A22BE
:100F500042438A5C002A48D101231A2242438B541F
:100F600014231A2242435218537000231A22424378
:100F70005218937096231A22424352189380B42336
:100F80001A2242435218D38000231A224243521895
:100F900013721A224243521853721A2242435218B1
:100FA00093729B1E1A224243521893811E231A22C7
:100FB00042435218D3815A231A22424352181382B1
:100FC00028231A224243521853823C231A224243B6
:100FD00052189382A0231A2242435218D382B42378
:100FE0001A2242435218138304E0401C024A12782A
:100FF0009042ACDB00BF70478C490000F8B5054655
:101000000E4600241BE11A206043285C00287DD096
:1010100020201A2363435B190090DB88DAB21A237D
:1010200063435B199B88D9B23078C02303F09AFCE4
:1010300020201A2363435B190090DB88DB1DDAB2A2
:101040001A2363435B199B88D9B233785B1CD8B2EF
:10105000C12303F087FC20201A2363435B1900900F
:10106000DB880E33DAB21A2363435B199B88D9B24B
:1010700033789B1CD8B2C22303F074FC20201A23BF
:1010800063435B190090DB881533DAB21A2363439C
:101090005B199B88D9B23378DB1CD8B2C32303F029
:1010A00061FC20201A2363435B190090DB881C330A
:1010B000DAB21A2363435B199B881B1FD9B23378BA
:1010C0001B1DD8B2C42303F04DFC20201A23634318
:1010D0005B190090DB881C33DAB21A2363435B1977
:1010E0009B881B1DD9B233785B1DD8B2C52303F092
:1010F00039FC60201A2363435B190090DB885B1D79
:10110000DAB21A2363435B199B8800E096E0DB1F89
:10111000D9B233789B1DD8B2C62303F023FC20201C
:101120001A2363435B190090DB885B1DDAB21A2334
:1011300063435B199B88DB1DD9B23378DB1DD8B2C2
:10114000C62303F00FFC20201A2363435B19009091
:10115000DB880C33DAB21A2363435B199B88DB1FED
:10116000D9B233780833D8B2C92303F0FBFB20206F
:101170001A2363435B190090DB880C33DAB21A231D
:1011800063435B199B88DB1DD9B233780933D8B22E
:10119000CA2303F0E7FB20201A2363435B19009066
:1011A000DB880A33DAB21A2363435B199B880E3B50
:1011B000D9B233780A33D8B2C82303F0D3FB602006
:1011C0001A2363435B190090DB880A33DAB21A23CF
:1011D00063435B199B880E33D9B233780B33D8B293
:1011E000C82303F0BFFB20201A2363435B19009040
:1011F000DB880A33DAB21A2363435B199B88153BF9
:10120000D9B233780C33D8B2C72303F0ABFB6020DC
:101210001A2363435B190090DB880A33DAB21A237E
:1012200063435B199B881533D9B233780D33D8B239
:10123000C72303F097FB30780E303070641C0348EE
:101240000078844200DADEE6F8BD00008C49000038
:1012500070B5054600244FE11A206043285C002841
:101260002AD01A2060434019807802287ED10021BC
:101270001A206043401981701A2060434019007A97
:10128000002829D11A20604340190621415E1A2006
:10129000604340191022825E91420EDC00211A2028
:1012A0006043401981721A20604340194172012144
:1012B0001A206043401901721DE11A206043401951
:1012C000C1881A20604340198089081801B21A2089
:1012D00060434019C1800EE11A2060434019007A32
:1012E00001287DD11A2060434019407A00282CD172
:1012F0001A20604340198088801E01B21A20604382
:1013000040198180FEF734FF06460321FEF71CFFDB
:10131000491E1A2060434019C088081801B21A20DB
:1013200060434019C1801A20604340190421415E86
:101330001A20604340191222825E9142BCDA0121D8
:101340001A20604340194172D5E01A2060434019C9
:10135000407A01282AD11A20604340198088801CD5
:1013600001B21A2060434019818000E0B9E01A20E0
:1013700060434019C088801E01B21A2060434019A2
:10138000C1801A20604340190421415E1A20604345
:1013900040191422825E91428EDD02211A206043A0
:1013A000401941720120FFF7F7F9A4E01A206043C9
:1013B0004019407A022837D1FEF7DAFE0646C00F00
:1013C000801940104000301A401C1A21614349190D
:1013D0008988401801B21A2060434019818000E0DA
:1013E00063E0FEF7C5FE06460321FEF7ADFE491E8B
:1013F0001A2060434019C088081801B21A206043BF
:101400004019C1801A20604340190421415E1A200E
:10141000604340191822825E91426CDD03211A203C
:1014200060434019417266E01A2060434019407AD7
:10143000032860D11A20604340198088801E01B2C1
:101440001A206043401981801A2060434019C088E7
:10145000801C01B21A2060434019C1801A206043E9
:1014600040190421415E1A20604340191622825E11
:10147000914240DA00211A206043401941721A203B
:1014800060434019807A401CC1B21A206043401961
:1014900081721A2060434019807A02282BD10221E0
:1014A0001A2060434019017225E01A206043401958
:1014B000007A02281FD11A2060434019C088C01E3C
:1014C00001B21A2060434019C1801A2060434019BC
:1014D0000621415E0A290EDA00211A2060432954B0
:1014E00009E01A20604340198078401CC1B21A20DC
:1014F000604340198170641C02480078844200DA1D
:10150000AAE670BD8C490000014600201AE00023C5
:101510001A224243521893801A2242435218D3800F
:101520001A2242438B5405231A2242435218537005
:1015300000231A224243521893701A22424352182F
:101540001372401C024A12789042E0DB70470000A0
:101550008C49000030B500240CE0002506E0FF2295
:101560002146284603F0F6F9681CC5B2202DF6DBAB
:10157000601CC4B21E2CF0DB30BD00B5024600205A
:10158000FFF7DEFA1046FFF7E1FA0020FFF7E4FA72
:101590000720FFF7D5FA30BF00BD000010B50346A5
:1015A0001C4603E00348FFF7E8FF641E002CF9D156
:1015B00010BD000050C3000010B503461C4603E0F8
:1015C0003220FFF7DAFF641E002CF9D110BD0000B5
:1015D000F0B589B005460C4616461F460A2130462E
:1015E000FEF79CFD08910A213046FEF797FD0A217F
:1015F0000390FEF793FD079164213046FEF78EFDC0
:101600000A210390FEF78AFD06917D21C90030462C
:10161000FEF784FD0A210390FEF780FD059127491E
:101620000598887306984874079808750898C875CF
:1016300023493846FEF707FE0390FEF791FEC0B23D
:1016400004900A210498FEF77FFDC8B208900A2191
:101650000498FEF779FD0A210390FEF775FDC8B2E4
:1016600007901649273107988870C91C0898887018
:101670002878012820D1207814281DDA0020009035
:101680002078410040180D494018837820784100A7
:1016900040180A494018427820784100401807490C
:1016A000085C039020780290039903F05BF920789E
:1016B000401C20700020287009B0F0BDB61B00202F
:1016C0000000C842FFB505460E461746002004E05C
:1016D000002283000399CA50401C1E28F8DB002416
:1016E00028E02001285C002823D022015219D2884A
:1016F000D1B2220152199288D0B2039A03F03AF87B
:1017000022015219D288D1B222015219928808328C
:10171000D0B2039A03F02EF822015219D288083A67
:10172000D1B2220152199288121DD0B2039A03F04D
:1017300021F8641C294800788442D2DB00242FE081
:101740001C206043305C002829D01C22624392197F
:101750009288D1B21C22624392195288D0B2039A65
:1017600003F008F81C22624392199288D1B21C221D
:101770006243921952880832D0B2039A02F0FAFFFB
:101780001C22624392199288083AD1B21C22624309
:1017900092195288121DD0B2039A02F0EBFF641C1A
:1017A0000F4800788442CBDB002412E00A2060431B
:1017B000C019007900280BD00A226243D21952883E
:1017C000D1B20A226243BA5AD0B2039A02F0D2FFCF
:1017D000641C044800788442E8DBFFBD89490000AE
:1017E0008A4900008D490000F8B505460E460024E0
:1017F00018E00A20604340190079002811D0102019
:101800000A2363435B1900905B88DAB20A236343BF
:10181000EB5AD9B23078302303F0A4F83078401C6A
:101820003070641C024800788442E2DBF8BD00009E
:101830008D4900000146002005E000230A224243B2
:1018400052181371401C024A12789042F5DB70471F
:101850008D49000070B504460D460A2C03D10D21B8
:10186000400702F099FFE1B20120800702F094FFE7
:10187000204670BDF8B50646502500243078002873
:1018800002D0012804D101E0802403E0902401E08B
:10189000802400BF00BFA020E2B2E9B24023009044
:1018A000002003F05FF8A020E2B200902846083044
:1018B000C1B24123012003F055F8A020009020463A
:1018C0000830C2B2281DC1B24223022003F04AF8F8
:1018D000F8BDF0B585B005460E4617461C460A21F0
:1018E0003846FEF71BFC04910A213846FEF716FC29
:1018F0000A210090FEF712FC039164213846FEF79E
:101900000DFC0A210090FEF709FC02917D21C9001F
:101910003846FEF703FC0A210090FEF7FFFB019119
:1019200030200090207832462946019B03F01AF8B7
:1019300030202A460832D1B200902278521CD0B210
:101940003246029B03F00EF830202A461032D1B204
:1019500000902278921CD0B23246039B03F002F82A
:1019600030202A461832D1B200902278D21CD0B250
:101970003246049B02F0F6FF2078001D207005B06F
:10198000F0BD0000F3B587B0079F089806900025CA
:1019900020E000261AE0BD4216DB384612308542B0
:1019A00012DA069886420FDB0698401D86420BDA53
:1019B0000698301A1221484347494018E91B425CF7
:1019C0003146284602F0C6FF701CC6B21E2EE2DB6E
:1019D000681CC5B2202DDCDBB81DC4B206980830E7
:1019E000C0B20590002517E0002611E0A5420DDBEE
:1019F00020460830854209DA0598864206D1281B20
:101A000036490A5C3146284602F0A4FF701CC6B273
:101A10001E2EEBDB681CC5B2202DE5DB0494059877
:101A2000801CC0B20390002519E0002613E0049842
:101A300085420EDB0498083085420ADA0398864214
:101A400007D10498281A26490A5C3146284602F034
:101A500081FF701CC6B21E2EE9DB681CC5B2202DAA
:101A6000E3DB201FC0B2029005980830C0B201909D
:101A7000002519E0002613E0029885420EDB02984B
:101A80000C3085420ADA0198864207D10298281A5A
:101A900014490A5C3146284602F05CFF701CC6B24D
:101AA0001E2EE9DB681CC5B2202DE3DB00250EE00D
:101AB000002609E0680180190B4B1A5CA9B2B0B28C
:101AC000009002F047FF761C202EF3DB6D1C202DCA
:101AD000EEDB09B0F0BD0000401B0020A61B00207B
:101AE000AE1B00209A1B0020D60A0020F3B581B05F
:101AF000024600203BE00A21414389180979002968
:101B000034D00A244443145B6405230E0A2444435E
:101B1000A41864886405210E8D00029C6459012577
:101B20009D402C408E00029DAD595E1C0127B740A0
:101B30003D402C434D1EAE00029DAD595E1C012759
:101B4000B7403D402C430094009C002C0DD0002554
:101B50000A244443A4182571FD250A24444315533F
:101B6000EF250A244443A418658000BF401C0249A5
:101B700009788842BFDBFEBD88490000FFB583B00D
:101B800005460E46174600244CE02001285C00283C
:101B900047D02001401980884005000E02902001A6
:101BA0004019C0884005000E019001988000395806
:101BB00001220298824008461040019989007A5813
:101BC0000299491C01238B401A4010430199491E78
:101BD00089007A580299491C01238B401A4010430E
:101BE0000090009800281BD0200140190621415E7A
:101BF000200140190423C35E1846069A01F07AFCBE
:101C0000002021016854FD20210149198880EF201E
:101C100021014919C880344800680A3032490860F7
:101C200000BF641C314800788442AEDB002454E0DD
:101C30001C206043305C00284ED01C20604380197B
:101C400040884005000E02901C2060438019808867
:101C50004005000E01900198800039580122029839
:101C6000824008461040019989007A580299491C1F
:101C700001238B401A4010430199491E89007A586C
:101C80000299491C01238B401A4010430090009890
:101C9000002820D01C20604380190421415E1C20B4
:101CA000604380190223C35E1846069A01F022FCA5
:101CB00000211C2060433154FD211C206043801909
:101CC0004180EF211C206043801981800648006814
:101CD0000A300549086000BF641C0548007884424A
:101CE000A6DB07B0F0BD0000DC1A00208949000027
:101CF0008A490000F8B505460F4600243CE00C2058
:101D00006043285C002836D101210C20604329540F
:101D100005210C2060434019417000210C206043D4
:101D2000401981700C20604340198780E1210C200C
:101D300060434019C18001210C20604340190172A9
:101D4000FEF716FA0646C00F801940104000301A00
:101D5000C1B20C20604340194172FEF709FA0646F1
:101D6000C00F801940104000301AC1B20C206043EF
:101D70004019817204E0641C024800788442BEDB92
:101D800000BFF8BD8B490000F8B505460F4600249A
:101D900013E10C206043285C00287DD00C206043B8
:101DA0004019807A002801D1002600E020260C206E
:101DB00060434019407A002802D001286DD19AE092
:101DC0000C2363435B190096DB88DAB20C23634370
:101DD0005B199B88D9B23878902302F0C3FD0C239D
:101DE00063435B190096DB88DAB20C2363435B190B
:101DF0009B880833D9B23B785B1CD8B2912302F0A0
:101E0000B1FD0C2363435B190096DB880833DAB21B
:101E10000C2363435B199B88D9B23B789B1CD8B2D7
:101E2000922302F09FFD0C2363435B190096DB882D
:101E30000833DAB20C2363435B199B880833D9B2A9
:101E40003B78DB1CD8B2932302F08CFD0C23634358
:101E50005B190096DB881033DAB20C2363435B19FD
:101E60009B88D9B23B781B1DD8B2942302F07AFD2F
:101E70000C2363435B190096DB881033DAB20C2322
:101E800063435B199B880833D9B23B785B1DD8B29A
:101E9000952302F067FD01E08EE08AE00C236343A6
:101EA0005B190096DB88DB1CDAB20C2363435B19F9
:101EB0009B88083BD9B23B789B1DD8B2962302F091
:101EC00051FD3046402108430C2363435B190090C9
:101ED000DB88DB1CDAB20C2363435B199B8810336D
:101EE000D9B23B78DB1DD8B2962302F03BFD38789F
:101EF000083038705EE00C2363435B190096DB8882
:101F0000DAB20C2363435B199B88D9B23878B323C8
:101F100002F028FD0C2363435B190096DB88083B25
:101F2000DAB20C2363435B199B88D9B23B785B1C04
:101F3000D8B2B12302F016FD0C2363435B1900965F
:101F4000DB880833DAB20C2363435B199B88D9B270
:101F50003B789B1CD8B2B52302F004FD0C236343ED
:101F60005B190096DB88DAB20C2363435B199B880C
:101F7000083BD9B23B78DB1CD8B2B22302F0F2FCAA
:101F80003046402108430C2363435B190090DB88F3
:101F9000DAB20C2363435B199B880833D9B23B78D0
:101FA0001B1DD8B2B22302F0DDFC3878401D38701A
:101FB00000E000BF00BF00BF641C034800788442FB
:101FC00000DAE6E6F8BD00008B49000010B50146D6
:101FD00000204CE00C2242438A5C002A46D00C22AE
:101FE000424352189278022A36D100230C224243EF
:101FF000521893700C22424352180423D35E052BCF
:1020000015DB0C22424352180423D35EFB2B0EDC5B
:102010000C224243531806229A5E08320A2A06DB33
:102020000C22424352180623D35EE62B04DD002324
:102030000C2242438B5419E00C2242435218D3889D
:102040000C2242435218082414571A1B13B20C22B4
:1020500042435218D38009E00C224243521892782E
:10206000521CD3B20C22424352189370401C024AB5
:1020700012789042AEDB10BD8B4900000146002073
:1020800022E000230C224243521893800C22424348
:102090005218D3800C224243521813720C2242432E
:1020A0008B5405230C2242435218537000230C22F8
:1020B0004243521893700C224243521853720C221E
:1020C000424352189372401C024A12789042D8DB65
:1020D000704700008B49000086B0002000900190FE
:1020E000029001231A46FF21B3310390480702F002
:1020F0005EFBFEF7F5FB6420FEF7EAFC0020FD49DD
:102100000860FEF759FC01200003FEF755FC012092
:102110004003FEF751FCFF2201320021F648FEF792
:10212000AFFCFF2201321146F448FEF7A9FCFF2262
:1021300001325100F248FEF7A3FCFF2201320321D5
:102140000902ED484018FEF79BFC002601208002A2
:1021500001F03EF906460122920200213046FEF7C8
:102160004BFC002405E0325D2146E6A0FEF750FD61
:10217000641C012080028442F5D3304601F018F936
:10218000FF2201329100DC48FEF77AFCFF22013287
:1021900005210902D948FEF773FCFF220132032111
:1021A0004902D748FEF76CFCFF22013207210902E1
:1021B000D948FEF765FCFF220132D100CE48FEF778
:1021C0005FFCFF22013209210902CC48FEF758FCCE
:1021D000FF22013205214902C948FEF751FCFF22C6
:1021E00001320B210902CC48FEF74AFCFF220132E2
:1021F00003218902C048FEF743FCFF2201320D2172
:102200000902BE48FEF73CFCFF22013207214902C9
:10221000BB48FEF735FCFF2201320F210902BE4800
:10222000FEF72EFCFF2201321101BC48FEF728FC0C
:10223000FF22013211210902B948FEF721FCFF22D9
:10224000013209214902B748FEF71AFCFF22013288
:1022500013210902B448FEF713FCFF2201320521C5
:102260008902A548FEF70CFCFF2201321521090264
:10227000A248FEF705FCFF2201320B214902A048CB
:10228000FEF7FEFBFF22013217210902A248FEF7EA
:10229000F7FBFF2201320321C902A048FEF7F0FB41
:1022A000FF220132192109029D48FEF7E9FBFF22B6
:1022B00001320D2149029B48FEF7E2FBFF22013269
:1022C0001B2109029848FEF7DBFBFF2201320721A0
:1022D00089028948FEF7D4FBFF2201321D21090241
:1022E0008648FEF7CDFBFF2201320F2149028448C8
:1022F000FEF7C6FBFF2201321F2109028648FEF7C6
:10230000BFFBFF22013251018848FEF7B9FBFF22D3
:102310000132212109028648FEF7B2FBFF22013279
:10232000112149028348FEF7ABFBFF220132232132
:1023300009028148FEF7A4FBC2E280480078012828
:1023400020D100207D4908707D48007800281AD1EE
:10235000002409E00020FF23E622FB210090204614
:1023600002F000FB601CC4B2402CF3DBFFF7F2F874
:1023700000207449087008210720FFF703FB71480B
:10238000FFF778FA78E06E480078012854D10020F1
:102390006D4908706D4908706D4908706D49086095
:1023A0006D4908606D4908606D4908706D490860A5
:1023B0006D4800F0CAFE6D4800F0FCFE6C4802F06B
:1023C000B5F96C4801F09EFC6B48FFF757FE6B486F
:1023D000FFF79AF86A48FFF72DFA6A4801F07AF891
:1023E000002409E00020FF23E622FB210090204684
:1023F00002F0B8FA601CC4B2402CF3DBFFF7AAF875
:1024000000240DE0002508E063015B19474FFA5CEA
:10241000A1B2A8B202F09EFA6D1C202DF4DB641C60
:10242000202CEFDB01203349486000208860082021
:10243000C860012008601FE04148007802281BD1D5
:10244000002409E00020FF23E622FB210090204623
:1024500002F088FA601CC4B2402CF3DB002025494E
:102460000860FFF777F8002047490870474908706F
:10247000474908704749087031480078002838D12A
:102480002E480078002834D1FEF700FA424908604F
:102490000846006805280CD12A480078002826DD67
:1024A00028480078401E274908700846FFF7E2F9DF
:1024B0001DE03948006807280CD12248007801281F
:1024C00015DA20480078401C1E4908700846FFF7BE
:1024D000D1F90CE0304800680D2808D1194800787F
:1024E000002804D10120154908701549087096206C
:1024F00054E056E000080250D60E0020D60F00200F
:10250000D6100020616464723D256C75206461748E
:10251000613D25780A000000D6110020D616002063
:10252000D6170020D6180020D6190020D612002079
:10253000D6130020D6140020D6150020FA1A002049
:10254000F41A0020D91A0020D61A0020D71A002029
:10255000FB1A0020DC1A0020E01A0020E41A0020F8
:10256000F51A0020E81A0020F81B0020021C0020A9
:102570007A1C0020AA1C0020C61C0020D21C0020AF
:10258000EC1C0020881E0020F91A0020D81A002018
:10259000F61A0020F81A0020F01A0020FEF7FEFFBD
:1025A0008EE1C848007801287ED1C748007800280D
:1025B000FAD1C6480078002877D1FDF7D9FD044646
:1025C000C821FDF7C1FD0F3109B2684681810C2198
:1025D000415EBF480022825E914203DD05206946CC
:1025E000C87402E006206946C874FDF7C1FD0446C0
:1025F000C00F001940104000201A69464874B448C2
:102600000223C35E0022825E02A9B24801F03AFCB6
:10261000B1484069782816D1AD480222825E002177
:10262000415EAE4800F0C2FFFDF7A2FD0546322133
:10263000FDF78AFD32310CB22146A948FFF75AFB5B
:10264000A848FEF781FCFEF721F9A7490860A748D2
:102650000078401CA549087008460078102817DB50
:1026600000200870A248007910210840002808D1F5
:102670009748C07900280BD19E49954800F0AAFDE3
:1026800006E0994800680E2802D101209A49087096
:10269000032196480078FDF757FD01293DD1924866
:1026A000006808280DD101E0D3E08BE088480021C4
:1026B000415E192931DD0088401F00B2844908803D
:1026C0002BE08948006806280AD181480021415E34
:1026D000E72922DA0088401D00B27D4908801CE00D
:1026E0008148006805280AD179480221415E1E29E7
:1026F00013DD4088401F00B2754948800DE07A48DC
:102700000068072809D172480221415ED22904DA03
:102710004088401D00B26E49488077496C4800F0FF
:10272000BBF9744800F01CFE744A6949694801F01D
:102730000BFE724A6649694801F040F96848FFF7A4
:1027400045FC6848FEF784FD6C4802F05DF86C4873
:1027500000F0F4FE6B49674800F076F96A4B674A6F
:102760005E495C48FEF7AEFF654B664A5B495948D7
:10277000FFF704FA64495F48FFF7B8F95448007955
:10278000002803D054488069002817D15F4800789A
:10279000F02813DB01204C490870022049490870D9
:1027A000002409E00020FF23E622FB2100902046C0
:1027B00002F0D8F8601CC4B2402CF3DB012043497E
:1027C00008707DE041480078022879D10020504906
:1027D00008700B464F480A2102680320FFF779F87A
:1027E0004B493B4800F092F94949424800F0BCFC93
:1027F0004749384801F0C4FB4549384800F068FFB4
:1028000043493748FFF7C0FA41493648FEF7F6FB1F
:102810003F493A48FEF7E8FF3D49394800F0F2FDEC
:102820003B4804780FE00020FF23E622FB210090C4
:102830003748007802F096F835480078401C344953
:102840000870601CC4B2402CEDDB00201F490870EA
:1028500036E01C480078022832D11B480078002856
:102860002ED12D480068FDF774FD04462B48006802
:10287000FDF76FFD05462146FDF722FD284908605A
:10288000084603682548274902682748FEF7A0FE46
:1028900024480078142813DBFDF7F8FF124908607C
:1028A00008460068102808D1002006490870012059
:1028B0000549087000201B4908706420FEF76EFE71
:1028C0003BE50000F41A0020FA1A0020FB1A002051
:1028D000F81B00207A1C002000080250AA1C0020CF
:1028E000C61C0020D21C0020F01A0020D61A00209E
:1028F000F82F0020021C0020D71A0020EC1C00201A
:10290000881E0020981D0020101E0020F51A0020AF
:10291000D81A0020DC1A0020E01A0020E41A002057
:10292000E81A0020F81A0020F91A002070B50546B0
:102930001048007C002804D10E4908688047012017
:1029400070BD01200003854211D269090948C068A1
:102950004B00C25A002406E00020064BDB680E192B
:1029600076009853641C9442F6DB0020E8E70220CE
:10297000E6E70000081B002000B50949FF220132EC
:10298000C868002100F034FD05490122120388685F
:10299000002100F02DFD01200149087400BD000058
:1029A000081B0020F8B506460024002000901B48B4
:1029B000007C002802D1194908688047002E01D107
:1029C000701EF8BDF002050CF006C00E002801D004
:1029D000681C85B27F241CE01048C0686100405A22
:1029E000002804D10098401C80B2009001E0002033
:1029F00000900098A8420BD1002705E00748C06866
:102A0000E119490045527F1CAF42F7D36001D8E776
:102A1000641E002CE0DA0020C043D2E7081B00202F
:102A20000022002107E00748C0684B00C05A002878
:102A300000D0521C491C8029F5D364205043400427
:102A4000000E7047081B002070B505460E4600209A
:102A500003E000218200B150401C1E28F9DB002455
:102A600012E00A2060434019007900280BD00A22A6
:102A7000624352195288D1B20A226243AA5AD0B292
:102A8000324601F077FE641C024800788442E8DB9D
:102A900070BD00008849000070B504460D46E0791D
:102AA00000280DD1287801282FD1E0710020207254
:102AB00001206072002028700320FDF76DFE24E0E5
:102AC000207A052802D0207A0A280BD1607A0428BF
:102AD00004DC6088C01E00B2608003E06088C01C17
:102AE00000B26080207A0A280CDB00202072607A15
:102AF000072803DB0020E071607206E0607A401C6A
:102B0000607202E0207A401C207270BD03B587B06D
:102B100008980078069007980079002870D00798E8
:102B2000407A0300FEF784F808056DD4FDFCFBFA3B
:102B3000F9F8052005903020009007984088C0B231
:102B4000049007980088C0B203900698C0B233235F
:102B50000290049A039901F005FF30200090079835
:102B60004088C0B20490079800880830C0B2039033
:102B70000698401CC0B234230290049A039901F0D5
:102B8000F1FE7020009007984088C0B2049007982A
:102B900000881030C0B203900698801CC0B2332366
:102BA0000290049A039901F0DDFE3020009007980E
:102BB00040880830C0B2049007980088001DC0B259
:102BC00003900698C01CC0B235230290049A039962
:102BD00001F0C8FE30200090079840880830C0B24D
:102BE0000490079800880C30C0B203900698001D2E
:102BF000C0B236230290049A039901F0B3FE9AE220
:102C0000A1E2052005903020009007984088C0B2CE
:102C1000049007980088C0B203900698C0B237238A
:102C20000290049A039901F09DFE302000900798CD
:102C30004088C0B20490079800880830C0B2039062
:102C40000698401CC0B238230290049A039901F000
:102C500089FE7020009007984088C0B204900798C1
:102C600000881030C0B203900698801CC0B2372391
:102C70000290049A039901F075FE302000900798A5
:102C800040880830C0B2049007980088001DC0B288
:102C900003900698C01CC0B239230290049A03998D
:102CA00001F060FE30200090079840880830C0B2E4
:102CB0000490079800880C30C0B203900698001D5D
:102CC000C0B239230290049A039901F04BFE32E21C
:102CD000032005903020009007984088C0B20490EF
:102CE00007980088C0B203900698C0B23A230290B9
:102CF000049A039901F036FE30200090079840882E
:102D0000C0B20490079800880830C0B203900698BB
:102D1000401CC0B23B2305E00CE2A4E166E1FEE00A
:102D20006CE019E00290049A039901F01BFE7020F8
:102D3000009007984088C0B204900798008810302F
:102D4000C0B203900698801CC0B23A230290049A45
:102D5000039901F007FEEEE1042005903020009079
:102D600007984088C0B2049007980088C0B20390CA
:102D70000698C0B23D230290049A039901F0F2FD37
:102D80003020009007984088C0B2049007980088CF
:102D90000830C0B203900698401CC0B23E23029097
:102DA000049A039901F0DEFD702000900798408896
:102DB000C0B20490079800881030C0B20390069803
:102DC000801CC0B23D230290049A039901F0CAFD11
:102DD00070200090079840880838C0B20490079887
:102DE00000880830C0B203900698C01CC0B23C23D3
:102DF0000290049A039901F0B5FD9CE1072005902B
:102E000030200090079840881038C0B2049007988E
:102E10000088001DC0B203900698C0B23F23029004
:102E2000049A039901F09EFD302000900798408895
:102E30001038C0B20490079800880C30C0B20390DC
:102E40000698401CC0B2F0230290049A039901F046
:102E500089FD30200090079840880838C0B204905F
:102E600007980088001DC0B203900698801CC0B26D
:102E7000F1230290049A039901F074FD3020009030
:102E8000079840880838C0B20490079800880C3032
:102E9000C0B203900698C01CC0B2F2230290049AFC
:102EA000039901F05FFD3020009007984088C0B280
:102EB000049007980088C0B203900698001DC0B225
:102EC000F3230290049A039901F04CFD3020009006
:102ED00007984088C0B20490079800880830C0B2B4
:102EE00003900698401DC0B2F4230290049A0399FF
:102EF00001F038FD3020009007984088C0B204905F
:102F0000079800881030C0B203900698801DC0B2A8
:102F1000F5230290049A039901F024FD0BE10620A9
:102F2000059030200090079840880838C0B204907F
:102F300007980088001DC0B203900698C0B2F6231F
:102F40000290049A039901F00DFD702000900798FB
:102F500040880838C0B20490079800880C30C0B28E
:102F600003900698401CC0B2F6230290049A03997D
:102F700001F0F8FC3020009007984088C0B204901F
:102F800007980088C0B203900698801CC0B2F7234F
:102F90000290049A039901F0E5FC30200090079814
:102FA0004088C0B20490079800880830C0B20390EF
:102FB0000698C01CC0B2F8230290049A039901F04D
:102FC000D1FC7020009007984088C0B20490079808
:102FD00000881030C0B203900698001DC0B2F723DD
:102FE0000290049A039901F0BDFCA4E0032005902F
:102FF0003020009007984088C0B20490079800885D
:10300000C0B203900698C0B23A230290049A039982
:1030100001F0A8FC3020009007984088C0B20490CE
:10302000079800880830C0B203900698401CC0B2D0
:103030003B230290049A039901F094FC70200090C5
:1030400007984088C0B20490079800881030C0B23A
:1030500003900698801CC0B23A230290049A039908
:1030600001F080FC67E00520059030200090079873
:103070004088C0B2049007980088C0B203900698B8
:10308000C0B233230290049A039901F06BFC302004
:10309000009007984088C0B20490079800880830D4
:1030A000C0B203900698401CC0B234230290049A28
:1030B000039901F057FC7020009007984088C0B237
:1030C0000490079800881030C0B203900698801CC6
:1030D000C0B233230290049A039901F043FC3020DC
:1030E0000090079840880830C0B204900798008884
:1030F000001DC0B203900698C01CC0B235230290D8
:10310000049A039901F02EFC302000900798408823
:103110000830C0B20490079800880C30C0B2039009
:103120000698001DC0B236230290049A039901F05C
:1031300019FC00E000BF00BF089801780598081846
:10314000C1B20898017009B000BD78210180B42196
:103150004180012101710021C1710172417201217F
:103160008171417170470000F8B505460E46002494
:1031700018E00A20604340190079002811D010207F
:103180000A2363435B1900905B88DAB20A23634326
:10319000EB5AD9B23078312301F0E4FB3078401C8F
:1031A0003070641C024800788442E2DBF8BD000005
:1031B000884900000146002005E000230A2242431E
:1031C00052181371401C024A12789042F5DB704786
:1031D0008849000010B50279002A20D08279002A9F
:1031E0001ED100BF19E00A2353435B181B79002B43
:1031F00012D1038808331CB20A235343CC524388AC
:10320000083B1CB20A2353435B185C8001240A2349
:1032100053435B181C7102E0521C042AE3DB9EE05E
:103220008279012A37D1002232E00A2353435B1806
:103230001B79002B2BD10A2353435B189B7B002B5C
:1032400025D103881B1D1CB20A235343CC5243884B
:10325000083B1CB20A2353435B185C8001240A23F9
:1032600053435B181C7103880C331CB20A2353436D
:103270005B185C814388083B1CB20A2353435B18EC
:103280009C8101240A2353435B189C7302E0521C67
:10329000082ACADB63E08279022A60D100225BE05F
:1032A0000B79002B57D10A2353435B189B7B002BD0
:1032B00051D10A2353435B181B7E002B4BD10A23A9
:1032C00053435B181E331B79002B44D103881B1F0B
:1032D0001BB20B804388083B1BB24B8001230B7150
:1032E00003881B1D1CB20A2353435B185C8143886F
:1032F000083B1CB20A2353435B189C8101240A2318
:1033000053435B189C7303880C331CB20A2353434A
:103310005B189C824388083B1CB20A2353435B180A
:10332000DC8201240A2353435B181C760388143380
:103330001CB20A2353435B18DC834388083B1CB24E
:103340000A2353435B181C8401240A2353435B184C
:103350001E331C7102E0521C102AA1DB00BF10BDFD
:10336000014600201CE00A22424352181279002A2A
:1033700015D00A22424352185288D21E13B20A2292
:103380004243521853800A22424352180223D35E0A
:10339000052B04DA00230A22424352181371401C01
:1033A000024A12789042DEDB704700008849000034
:1033B00070B50446002C00D170BD04488068251A01
:1033C0002846FFF7B3FA00BFF6E70000081B00200D
:1033D00070B505462846FFF7E5FA0446601C00284C
:1033E00000D170BD014880680019FAE7081B002071
:1033F00030B5034601E019705B1C1446521E002CC8
:10340000F9D130BDFEB505460E4600245AE0E00075
:1034100040190079002854D0E00040194079400656
:10342000070E10203946E031CBB2E1004919009077
:103430004988CAB2E100695AC9B20191307801F0F5
:1034400091FA10203B46E133DBB201930090E30098
:103450005B195B88DAB2E300EB5A0833D9B23378F0
:103460005B1CD8B2019B01F07DFAD0203946E131D6
:10347000CBB2E100491900904988C91DCAB2E100E8
:10348000695AC9B201913178891CC8B2019901F019
:1034900069FAD02000903846E030C3B2E00040190D
:1034A0004088C01DC2B2E000285A0830C1B230784E
:1034B000C01CC0B2019001F055FA3078001D307088
:1034C00000BF641C024800788442A0DBFEBD0000FF
:1034D0008E4900000146002004E00022C3005B1872
:1034E0001A71401C024A12789042F6DB70470000C5
:1034F0008E49000030B50346002016E0C400A41831
:103500002479002C10D1C500AD186C71C400135380
:10351000C400A41861800124C500AD182C710024DA
:10352000C500AD18AC7104E0401C034C2478A042E7
:10353000E4DB00BF30BD00008E49000001460020E2
:1035400026E0C20052181279002A20D0C200521878
:1035500092790A2A07DAC20052189279521CC300E3
:103560005B189A7113E00022C3005B189A71C200C5
:1035700052185279521CC3005B185A71C20052187B
:103580005279042A03DB0022C3005B181A71401C25
:10359000024A12789042D4DB704700008E49000046
:1035A0000148C0687047000000500040F7B505466C
:1035B0001646002482E01C206043285C00287CD151
:1035C00001211C206043295400211C206043401924
:1035D00041700F211C20604340194180FCF7C8FD59
:1035E00007461E21FCF7B0FD30463C38401A01B2B8
:1035F0001C2060434019818000211C206043401939
:103600008171FCF7B5FD0746C00FC019401040009E
:10361000381A801C41B21C2060434019C171FCF76C
:10362000A7FD0746C00FC01940104000381A41B22C
:103630001C20604340190172FCF79AFD07461421D3
:10364000FCF782FD01983238081801B21C20604353
:10365000401941811C206043401940893C3001B22F
:103660001C206043401981813046143801B21C206F
:1036700060434019C181FCF77BFD07461E21FCF722
:1036800063FD1C2060434019C0891430081801B242
:103690001C206043401901821C206043401980892E
:1036A0001E3801B21C2060434019418200211C20B9
:1036B00060434019817606E0FFE7641C0348007808
:1036C000844200DA77E700BFFEBD00008A490000AF
:1036D000F8B505460E46002467E11C206043285CCF
:1036E00000287DD01C2060434019807E0300FDF738
:1036F0009FFA05043F92CDFEFD0060201C2363432A
:103700005B1900909B88DAB21C2363435B195B88CA
:10371000D9B23078592301F025F960201C23634386
:103720005B1900909B88DB1DDAB21C2363435B1995
:103730005B88D9B233785B1CD8B25A2301F012F9F6
:1037400060201C2363435B1900909B88DB1CDAB26A
:103750001C2363435B195B88083BD9B233789B1CFD
:10376000D8B25B2301F0FEF83078C01C30701AE14B
:10377000A0201C2363435B1900909B885B1CDAB27A
:103780001C2363435B195B885B1CD9B230785E23D2
:1037900001F0E8F8A0201C2363435B1900909B888C
:1037A0005B1CDAB21C2363435B195B880833D9B214
:1037B00033785B1CD8B25F2301F0D4F8A0201C231F
:1037C00063435B1900909B880833DAB21C23634380
:1037D0005B195B88D9B233789B1CD8B25C2300E0BC
:1037E000E2E001F0BFF8A0201C2363435B190090C6
:1037F0009B880833DAB21C2363435B195B88083368
:10380000D9B23378DB1CD8B25D2301F0ABF8307845
:10381000001D3070C7E020201C2363435B1900901B
:103820009B88DAB21C2363435B195B88D9B230787A
:10383000402301F097F820201C2363435B1900907C
:103840009B88DAB21C2363435B195B880833D9B2C7
:1038500033785B1CD8B2412301F084F820201C236C
:1038600063435B1900909B88083BDAB21C236343D7
:103870005B195B881B1DD9B233789B1CD8B24223DD
:1038800001F070F83078C01C30708CE0E0201C2310
:1038900063435B1900909B88DAB21C2363435B1976
:1038A0005B88D9B230785F2301F05CF8E0201C23FC
:1038B00063435B1900909B88DAB21C2363435B1956
:1038C0005B880833D9B233785B1CD8B25E2301F031
:1038D00049F8E0201C2363435B1900909B88083360
:1038E000DAB21C2363435B195B8801E05AE01EE0F7
:1038F000D9B233789B1CD8B25D2301F033F8E020B5
:103900001C2363435B1900909B880833DAB21C23A5
:1039100063435B195B880833D9B23378DB1CD8B2B8
:103920005C2301F01FF83078001D30703BE0202050
:103930001C2363435B1900909B88DAB21C2363430A
:103940005B195B88D9B23078592301F00BF820203D
:103950001C2363435B1900909B88DB1DDAB21C2398
:1039600063435B195B88D9B233785B1CD8B25A23A6
:1039700000F0F8FF20201C2363435B1900909B8814
:10398000DB1CDAB21C2363435B195B880833D9B2B2
:1039900033789B1CD8B25B2300F0E4FF3078C01C66
:1039A000307000E000BF00BF641C03480078844210
:1039B00000DA92E6F8BD00008A490000F8B5054635
:1039C0000E46002495E11C206043285C00282AD084
:1039D0001C2060434019407802287DD100211C2022
:1039E0006043401941701C20604340190221415E30
:1039F000052914DB1C20604340190221415EFB298C
:103A00000DDC1C20604340190421415E0A2906DBBD
:103A10001C20604340190421415EE62904DD002199
:103A20001C206043295463E11C20604340198079C5
:103A300000283AD11C20604340190221415E1C201D
:103A4000604340190A22825E91420ADB01211C2058
:103A500060434019817100211C206043401941726C
:103A60001DE01C206043401941881C206043401920
:103A700007228256881801B21C20604340194180F9
:103A80001C206043401981881C2060434019082293
:103A90008256881801B21C206043401981800021A1
:103AA0001C2060434019817622E11C2060434019AC
:103AB00080790128B7D11C2060434019407A030067
:103AC000FDF7B6F805043774A1DEFE0000211C20C6
:103AD00060434019817600E000E11C2060434019FA
:103AE0004088C01C01B21C20604340194180FCF793
:103AF0003FFB07460321FCF727FB1C2060434019CE
:103B00008088081801B21C206043401981801C2065
:103B1000604340190221415E1C20604340190C2281
:103B2000825E914204DB01211C20604340194172F6
:103B3000D3E001211C20604340198176FCF718FB7B
:103B40000746C00FC01940104000381A801C1C21C5
:103B5000614349194988401801B21C20604340194B
:103B60004180FCF705FB0746C00FC019401040001C
:103B7000381A801C1C21614349198988401801B2F8
:103B80001C206043401981801C206043401904219F
:103B9000415E1C20604340190E22825E914204DB8C
:103BA00002211C2060434019417296E002211C2032
:103BB0006043401981761C20604341190220085E51
:103BC0001C216143491948801C20604340198088AA
:103BD000C01C01B21C206043401981801C2060433E
:103BE00040190421415E1C20604340191022825E6E
:103BF000914207DB03211C206043401941720020E1
:103C0000FCF7CAFD69E003211C206043401981765E
:103C1000FCF7AEFA0746C00FC01940104000381A32
:103C2000801C1C21614349194988081A01B21C20D3
:103C3000604340194180FCF79BFA0746C00FC0194A
:103C400040104000381A801C1C21614349198988A2
:103C5000401801B21C206043401981801C20604341
:103C600040190221415E1C20604340191222825EED
:103C7000914204DC04211C206043401941722CE075
:103C800004211C20604340198176FCF771FA074635
:103C9000C00FC01940104000381A801C1C2161431D
:103CA00049194988081A01B21C2060434019418013
:103CB0001C20604340190221415E1C20604300E04B
:103CC0000AE040191422825E914204DC04211C2087
:103CD00060434019417200E000BF09E01C206043CE
:103CE00040194078401CC1B21C206043401941700B
:103CF000641C03480078844200DA64E6F8BD0000E2
:103D00008A4900000146002010E000231C224243A3
:103D1000521853801C224243521893801C22424363
:103D20008B541C22424352185370401C024A127892
:103D30009042EADB704700008A490000F0B58BB082
:103D400005460E46174600248CE00A2060434019C1
:103D5000007900287CD1B088083001B20A20604385
:103D60002952F088083801B20A2060434019418086
:103D700001210A206043401901710420305E0A903D
:103D80000620305E09900020385E08900220385EE0
:103D900007903888B188401A00B206907888F18878
:103DA000401A00B205900699002902DA06994942A4
:103DB00000E006990846FCF7C1FA0490059900292D
:103DC00002DA0599494200E005990846FCF7B6FA7F
:103DD000039004990398FCF773FA02900020019075
:103DE0003AE001998900234A50580299FCF723FAD6
:103DF00000210090FCF7C8FA2BD8019840001E491A
:103E0000095A0A2060434019C180019840001B49AB
:103E1000095A0A206043401901810698002809DAEE
:103E20000A2060434019C088404201B20A20604322
:103E30004019C1800598002809DA0A20604340191A
:103E40000089404201B20A2060434019018106E026
:103E500007E00198401C019001980A28C1DB00BFCF
:103E600005E0641C06480078844200DA6DE700BF74
:103E70000BB0F0BDAC4F0000964F0000824F000029
:103E80008D490000F8B505460E4600246FE020017C
:103E9000285C00286AD101202101491948702101BC
:103EA0006854002021014919C873210149198870FB
:103EB000210149198872707A21014919487201203B
:103EC000210149190872B0882101491988800F2001
:103ED00021014919C880F07A21014919C8722001CD
:103EE0004019C07A04281ED1002021014919087305
:103EF0000320210149194873FCF73AF90746C00F1E
:103F0000C01940104000381AC0B200900098002834
:103F100004D1022021014919887303E00320210103
:103F20004919887321E020014019C07A05280CD175
:103F3000C01F210149190873032021014919487341
:103F400002202101491988730FE020014019C07A2D
:103F500006280AD1022021014919087303202101F2
:103F60004919487321014919887304E0641C034806
:103F7000007884428BDB00BFF8BD00008949000057
:103F8000FEB505460E460024D5E12001285C002838
:103F90007ED000270020029020014019C07B030042
:103FA000FCF746FE0805407DA6E4FDFCFBFA402038
:103FB0000290220152190097D288D2B201922201B6
:103FC00052199288D1B23078029B019A00F0CAFC53
:103FD0000097029A531C22015219D288D2B2019240
:103FE0002201521992880832D1B23278521CD0B2D2
:103FF000019A00F0B7FC00970298831C2001401939
:10400000C0880838C2B2200140198088001DC1B2A2
:104010003078801CC0B2019000F0A4FC3078C01C45
:10402000307085E143200290210149190097C98829
:10403000CAB2210149198988C9B201913078029B1D
:1040400000F090FC384640210843009020014019C0
:10405000C088C2B22001401980880830C1B23078CF
:10406000401CC0B20190029B00F07CFC00970298BB
:10407000431C20014019C0880838C2B220014019F1
:104080008088001DC1B23078801CC0B2019000E071
:1040900050E100F067FC3078C01C307048E14520EA
:1040A0000290210149190097C988CAB22101491912
:1040B0008988C9B201913078029B00F053FC3846E0
:1040C00040210843210149190090C988CAB2210141
:1040D000491989880831C9B201913178491CC8B29F
:1040E000029B019900F03EFC3078801C30701FE18B
:1040F00046200290220152190097D288D2B2019232
:10410000220152199288D1B23078029B019A00F0B4
:1041100029FC384640210843210149190090C988EB
:10412000CAB22101491989880831C9B2019131788F
:10413000491CC8B2029B019900F014FC0097029937
:104140004B1C21014919C9880831CAB221014919FA
:104150008988091DC9B201913178891CC8B20199B9
:1041600000F000FC3078C01C3070E1E04820029084
:10417000210149190097C988CAB2210149198988C2
:10418000C9B201913078029B00F0ECFB3846402127
:1041900008430090200103E0C9E088E060E025E0EA
:1041A0004019C088C2B22001401980880830C1B2CD
:1041B0003078401CC0B20190029B00F0D3FB009706
:1041C0000298431C20014019C0880830C2B2200167
:1041D00040198088001DC1B23078801CC0B20190A7
:1041E00000F0C0FB3078C01C3070A1E021014919FB
:1041F0000097C988CAB2210149198988C9B20191B9
:1042000030784B2300F0AEFB3846402108432101B3
:1042100049190090C988CAB2210149198988083111
:10422000C9B201913178491CC8B24A23019900F002
:1042300099FB210149190097C9880839CAB221019F
:1042400049198988091DC9B201913178891CC8B200
:104250004C23019900F086FB3078C01C307067E079
:10426000220152190097D288D2B20192220152192A
:104270009288D1B230784D23019A00F073FB384612
:1042800040210843009020014019C0880838C2B27C
:10429000200140198088C1B23078401CC0B24E2342
:1042A000019000F05FFB3078801C307040E04A20C5
:1042B0000290384640210843009020014019C088F0
:1042C000C2B2200140198088C1B2307850230190D9
:1042D00000F048FB38464021084300902001401977
:1042E000C088C2B22001401980880830C1B230783D
:1042F000401CC0B24F23019000F034FB38464021EF
:104300000843009020014019C088C01FC2B220019C
:1043100040198088001DC1B23078801CC0B2512382
:10432000019000F01FFB3078C01C307000E000BF2F
:1043300000BF00BF641C03480078844200DA24E612
:10434000FEBD000089490000F7B582B005460E4663
:104350000024E1E12001285C002829D02001401937
:10436000807802287ED1002021014919887020011F
:1043700040190421415E052911DB20014019042167
:10438000415EFB290BDC200140190621415E0A2910
:1043900005DB200140190621415EE62909DD0020E8
:1043A0002101685421014919888021014919C880D7
:1043B000B1E120014019807A00287DD1FBF7D8FEB9
:1043C00007461421FBF7C0FE0220305E1438401A65
:1043D0002101491906228A5E90426EDC20014019B3
:1043E000007A012809D12001411932460498FFF7CB
:1043F000A5FC002021014919087220014019407ACA
:10440000002844D1200141190420085E0021715E7A
:10441000884216DA0020305E2101491904228A5EA2
:10442000801A3C280DDA0020305E2101491904224F
:104430008A5E801A002804DD06202101491988734C
:104440005FE0200141190420085E0021715E88426E
:1044500018DD200141190420085E0021715E401A18
:10446000322800E050E10DDA200141190420085EF5
:104470000021715E401A002804DD05202101491940
:1044800088733EE0042021014919887339E0200136
:104490004019C07A042821D100202101491908734C
:1044A0000320210149194873FBF762FE0746C00F3C
:1044B000C0194010400001E05DE043E0381AC0B28E
:1044C00001900198002804D1022021014919887324
:1044D00003E0032021014919887312E020014019EB
:1044E000C07A052804D1022021014919887308E007
:1044F00020014019C07A062803D10320210149195F
:10450000887320014019407A012808D10020210138
:104510004919C8730120210149198872FBE0200163
:104520004019807B042804D1022021014919887296
:10453000F1E0012021014919887205202101491962
:10454000C873E8E0200140198088210149190C2234
:104550008A56801800B2210149198880200140192B
:10456000C088210149190D228A56801800B2210104
:104570004919C880CFE020014019807A01284CD128
:1045800020014019407A012823D12001411904203B
:10459000085E210149198880200141190620085E22
:1045A00021014919C88020014019C07B0428B5DACF
:1045B00020014019C07B401C21014919C87320010A
:1045C0004019C07B0428A9D1022021014919887211
:1045D000A1E0200141190420085E210149198880C9
:1045E000200141190620085E21014919C8802001D7
:1045F0004019C07B07280FDA20014019C07B401CFE
:1046000021014919C87320014019C07B072803D133
:1046100002202101491988727DE020014019807A29
:10462000022878D120014019807B0300FCF700FBB1
:10463000076A0515263747586A00200141190420EA
:10464000085E21014919888020014019C088001F97
:1046500000B221014919C88055E020014019808825
:10466000801E00B221014919888020014019C088AC
:10467000C01E00B221014919C88044E02001401940
:104680008088801C00B221014919888020014019CE
:10469000C088C01E00B221014919C88033E0200142
:1046A00041190420085E2101491988802001401920
:1046B000C088401D00B221014919C88023E02001B3
:1046C00040198088801E00B221014919888020018C
:1046D0004019C088C01C00B221014919C88012E0ED
:1046E000200140198088801C00B22101491988806E
:1046F00020014019C088C01C00B221014919C8809E
:1047000001E008E000BF06E0200140198078401C6D
:10471000210149198870641C03480078844200DA3A
:1047200018E605B0F0BD00008949000001460020F0
:1047300018E0002203015B189A8003015B18DA80FD
:104740000301CA54012203015B185A7000220301BD
:104750005B189A7003015B181A72012203015B183F
:104760005A72401C024A12789042E2DB7047000005
:1047700089490000F0B5C510CB100126AE40344683
:104780009E00965926439F00D651F0BD0221C1607C
:1047900070470121C160704705E04268D207D20F1F
:1047A000002A00D100E0F8E700BF01607047F0B5D3
:1047B0000446059D0026002A01D001200643002B57
:1047C00001D002200643002D01D0042006430698A4
:1047D000002801D0082006430798002801D01020A7
:1047E00006430898002801D0202006430020A0603E
:1047F0002161A66060680C273840002801D00120A4
:10480000F0BD0020FCE700000146002059E00A222C
:10481000424352185279042A48D100230A224243C3
:10482000521853710A22424352181279002A47D073
:104830000A224243521853880A22424352181289CC
:104840009A1813B20A224243521853800A22424352
:104850008B5A0A2242435218D2889A1813B20A225B
:1048600042438B520A22424352180223D35EE62B64
:1048700006DC0A22424352180223D35E0A2B05DAD1
:1048800000230A2242435218137119E00A224243BC
:104890008A5EFB2A04DC0A2242438A5E052A0FDA7A
:1048A00000230A2242435218137109E00A224243AC
:1048B00052185279521CD3B20A22424352185371F1
:1048C000401C024A12789042A1DB70478D490000DB
:1048D00010B519480078012817D118480078012828
:1048E00029D10220FBF758FF022014490870144810
:1048F0000079002803D01348806900281BD1124892
:104900000078401C1049087015E00B480078022818
:1049100011D10E480078401C0C49087008460078F8
:104920000A2808D10320FBF737FF00200749087049
:1049300001200749087010BDF41A0020FB1A00205E
:10494000F81B002000080250F51A0020F61A00207B
:10495000F91A002010B54B01014C1B191A5410BD57
:104960000000025070B5049C8500064EAD19E97038
:104970008500AD19AA708500AD196B708500AD1961
:104980002C7070BD000001500C03010101050C00EA
:104990000000000000000000000000000000000017
:1049A00000000000001FCC000C0000000000000010
:1049B00000080030006000080030006000000002C5
:1049C0002003FC1E20022003FC1E20022000000009
:1049D000000E1811043FFF10840C78000000000F37
:1049E0000010840F3800C007781884007800000099
:1049F000780F8410C411240E9800E4008400080885
:104A000000680070000000000000000000000000CE
:104A1000000000000007E018182004400200000019
:104A20000040022004181807E00000000000000207
:104A300040024001800FF00180024002400000006F
:104A400080008000800FF80080008000800000005F
:104A500001000D000E00000000000000000000003A
:104A600000008000800080008000800080008000C6
:104A700000000C000C00000000000000000000001E
:104A800000000600180060018006001800200000E9
:104A90000007F0080810041004080807F0000000E0
:104AA00000080408041FFC000400040000000000CB
:104AB000000E0C10141024104411840E0C00000081
:104AC000000C1810041104110412880C700000006E
:104AD0000000E00320042408241FFC002400000040
:104AE000001F981084110411041088107000000039
:104AF0000007F008881104110418880070000000F5
:104B0000001C00100010FC13001C0010000000002E
:104B1000000E3811441084108411440E3800000037
:104B2000000700088C10441044088807F0000000BB
:104B30000000000000030C030C0000000000000057
:104B4000000000000101060000000000000000005D
:104B50000000800140022004100808100400000238
:104B60002002200220022002200220022000000059
:104B7000001004080804100220014000800000001A
:104B8000000E001200100C106C10800F00000003CB
:104B9000E00C1813E4142417C4082807D000000000
:104BA00004003C03C41C40074000E4001C00041047
:104BB000041FFC1104110411040E8800700000038E
:104BC000E00C1810041004100410081C1000001051
:104BD000041FFC100410041004080807F000001063
:104BE000041FFC1104110417C4100408180000105D
:104BF000041FFC1104110017C0100008000000037E
:104C0000E00C181004100410441C78004000001040
:104C1000041FFC10840080008010841FFC1004001E
:104C200000100410041FFC10041004000000000019
:104C3000030001100110011FFE1000100000001001
:104C4000041FFC110403801464181C1004000010DD
:104C5000041FFC1004000400040004000C000010F9
:104C6000041FFC1F0000FC1F001FFC1004000010AC
:104C7000041FFC0C04030000E010181FFC100007C8
:104C8000F00808100410041004080807F0000010D1
:104C9000041FFC10841080108010800F000000079B
:104CA000F0081810241024101C080A07F200001045
:104CB000041FFC1104110011C011300E0C0004007F
:104CC000000E1C11041084108410441C38000018BD
:104CD00000100010041FFC10041000180000001049
:104CE000001FF810040004000410041FF810001046
:104CF000001E0011E0001C007013801C0010001F3B
:104D0000C0103C00E01F0000E0103C1FC00000107D
:104D100004180C163401C001C01634180C1004100D
:104D2000001C00130400FC13041C00100000000809
:104D300004101C1064108413041C041018000000DC
:104D400000000000007FFE40024002400200000020
:104D50000030000C0003800060001C000300000015
:104D6000004002400240027FFE0000000000000000
:104D70000000002000400040004000200000000033
:104D8000010001000100010001000100010001001B
:104D90000040004000200000000000000000000073
:104DA000000098012401440144014400FC00041067
:104DB000001FFC008801040104008800700000004E
:104DC0000000700088010401040104008800000054
:104DD00000007000880104010411081FFC00040099
:104DE0000000F8014401440144014400C8000000EF
:104DF00000010401040FFC1104110411001800004B
:104E00000000D601290129012901C901060000106D
:104E1000041FFC008401000100010400FC000400E8
:104E2000000104190419FC00040004000000000043
:104E300000000300010101190119FE00000000102B
:104E4000041FFC0024004001B4010C010400000018
:104E500000100410041FFC00040004000000000106
:104E60000401FC0104010001FC0104010000FC013B
:104E70000401FC008401000100010400FC000400A6
:104E80000000F8010401040104010400F80000011D
:104E90000101FF008501040104008800700000008A
:104EA000000070008801040104010501FF000101F8
:104EB00004010401FC0084010401000180000000E1
:104EC0000000CC01240124012401240198000000E9
:104ED000000100010007F8010401040000000001C6
:104EE0000001F8000400040004010801FC000401B2
:104EF0000001800170000C001001600180010001C0
:104F0000F0010C003001C00030010C01F001000084
:104F1000000104018C00740170018C010400000187
:104F20000101810171000E00180160018001000083
:104F3000000184010C013401440184010C000000D3
:104F40000000000000000001003EFC4002400200A2
:104F500000000000000000FFFF0000000000000053
:104F600000400240023EFC01000000000000000082
:104F70000060008000800040004000200020000011
:104F80000A00010002000200020003000400040005
:104F900004000500050004000400040004000400EF
:104FA00003000200020001000000000000000000F9
:104FB000EC51383EEC51B83EE17A143F3D0A573F80
:104FC000EC51983FA470DD3F00003040A470B54024
:104FD00000004843F44F000000000020F81B0000D0
:104FE000E604000044590000F81B002010180000DF
:104FF0005C0C0000100900000180000003FF01327A
:10500000E0063004C0003F060006100C07E0300048
:1050100006211D43FFFE06210553FFFF12400CCC65
:1050200007E033FE03CC018033F0062005000C00BE
:105030000042F1060005123F8001FC0601112A60C2
:1050400004FFFFFC06216B6106A15A2101820304C3
:10505000300401FFFE044004007FF804431FE00415
:10506000C203283004003FF004200501FFFF800444
:10507000433FFC0223FFFC6F333FFF0E2179121FD9
:10508000282104330FE004112C22C00462000133F4
:105090000130862546B106154D62800616075D6112
:1050A000062171610613001FA161068303C0060378
:1050B000440FF0061207714406000607E060E24262
:1050C000C00635B2A2FC0645CA837FFF01221F2419
:1050D000240CF81FFFFE7FFFF8001F86614A31068F
:1050E00010050606606006130000062404FF87E131
:1050F0009483E7E70622071215A7D2000601AC0148
:1051000000041903FFF01E2A3F6001171E46FFDB53
:10511000011459AB01FF3C011077392301157719B0
:105120004601199702390F1E25ED0235F81E023D82
:105130003F1E0619FC67021BE71E72E33C123E028B
:10514000255D8D960390047FFFC31EF27F1E72C7FC
:105150001E127E1E72301E62801E427F10127E3E24
:105160001370021E2A02CB4005C00004021E65E532
:10517000C005020070031E200487FFF81E430004D0
:105180001E3005020003801E32803C2E8F4E03111C
:105190001E2F0C1F440322601E5606DE1D6A0326C6
:1051A0000F2C12011EC0053FFC001E1E22F41E1D06
:1051B00087041C0701FE00183FFC4105311E420414
:1051C0001E216C223F1E1C0703FC003001843E059B
:1051D00063E0061E5601E1411E12202C111E1E0422
:1051E0002B0521A15301FF1E2D9F0412F890511E83
:1051F00069AD511E42C01E1306081E72C01E1D5905
:1052000005223C1E3E80B00412C01E92081E11AB47
:105210002EF8C1052DE004111E320E1E6E0C600327
:10522000316F511E1004E001801E1C051801C00FD3
:105230006F051E072A05211E92801E521C1E32F881
:105240001E3E027E04323F7810073FC003003C1030
:105250001E13800E6512031360050201F0041E5038
:10526000047FC0071E5E082A06A2061E157A327C3D
:105270003C2E18CC044DB905413C11F0100AFF80BA
:105280000F0078100010031E7939811E2008000FCE
:105290008FF81004301EE2801E15C110061F03F89F
:1052A00020001E8310011E300403FFE01E15C132D2
:1052B000001E115D6E00A5051C060407FFF07F7639
:1052C0000792031E49192C040FE0083B06411E20DB
:1052D0000FFC003800F02008200700300600101EE8
:1052E00082C01E600507FC007C1E120C29140400FD
:1052F000000E922B002791111E22F81E1004600050
:10530000601E10041800781E220C1E42EF1E15C1EC
:1053100052FC1E3320101E1574B300011E1A4002E9
:1053200010040020300B411E2303CF5A1680DF7279
:10533000011E32601E1218021A07EB258615C119CC
:10534000AD10044000401E12C0FD211E400510009B
:10535000070F1E15C1111E500AC000400E0061C08B
:10536000039E1E72061E62071E30054180071F5AEB
:105370001C043000040903211E437F801E1005C059
:105380000E004351113C92101E2808FF8007FE00BA
:10539000608074900447000E1E3EF14808180F808C
:1053A0000FFE00618020C01C00C6001C0F4B823025
:1053B0001E15C1111E32411E3005CC0038071E13C8
:1053C00020101E42F31E100B1FFF0FC18020801CF7
:1053D00000DC1E32C01E12701E1D070925C11D3DB6
:1053E000081004C180211E1EB81D04111E80052056
:1053F0000020F01E200636000FC1001E1C05F00024
:10540000E00343033C05200061F09F0519FC3D5774
:105410000612017A2E189104211E6005000063D047
:105420001E52FC1E25DB2F01C07F0315BF32801EDC
:105430004C04F8000F4408411E3303801E60040131
:10544000DE001E1809FFF001FF0713C0C3401F7FD5
:10545000E721094C08F8E007C7D80FFF17063DEC15
:10546000075EDFFA074EFE6B092C05FF900FFF71F8
:105470000662E01E32EF1E1DF40323FFF9E8CC04A0
:105480000FFE03CB06EC0401E060CB060E1A80256C
:10549000070D1A43070E193F8E062DEA060E1EC091
:1054A000C0070242FF012F0A0BAE073408FFFF0CB2
:1054B000FF0DFF0E2BA11E8169014973014D011CD7
:1054C00008D1D2D3FFD1DEDF7804C009EDEED3FFDF
:1054D000F8F9F9E0C5100CD4D5D6FFE1E2E3E4FF1A
:1054E000EFF00AC005FAFBFCE4E512D716C40FE59D
:1054F000E6E7E4FFF1F2D9F3FFFDFEC0C105C413F6
:10550000D8D9DAFFE8E9EAEBFFF4F5F6F7FFC2C312
:10551000C4D0251004DBDCDD0473DCEC0A0671DD8D
:105520000504083710FF12FF13FF1445023D114018
:10553000097B02000EA817FF01090805FF15FF16D9
:10554000FF18FF01ED2F04D25501DDEA03FD5F04D2
:1055500023CFCE0213CECF04910842CF0D6112317A
:1055600025A1088118514082CE0A41208106810E72
:10557000811261029128513C81906192C142A188BF
:1055800091109155A1128168E17CA1927148C502E8
:10559000B1E8817A0111DCF1B4E124C53AB10261CC
:1055A00007953A051230A10AE194E151854EB6CE35
:1055B000BCE5107192D5C4C912C578E106E900C9ED
:1055C0003A09123CC5040A17CF3AA59A0510FEC540
:1055D00090C9BAF55DB5C005104EE13CC900E13C8B
:1055E000C1900613CE7CDD4A03051142B996061020
:1055F000CEC6C50005147A25EA0D3EC00FA53E0CA7
:105600000916FFFF22232425FFFF00041005263181
:105610003031030E162700040C0916262E333433BE
:10562000342E2700040C0916282E353635362E293F
:1056300000040C09162A2E373837382E2B00041098
:10564000052C2E322E030E142D00042005FF262ECD
:1056500020200C0512212E27FF00044004FF2831D2
:10566000C00C04123129FF000443FF2A400C05122C
:105670002E2E2BFF00043004FF2E20800C05123943
:105680003A3BFF000443FF32400C05123C3D3EFF15
:10569000000443FF32400C05123F4041FF0004610B
:1056A000400C0512424344FF000443FF32C00C0586
:1056B00012454647FF000461400C051248494AFF65
:1056C000000461800C05124B4C4DFF000461400C3E
:1056D00005124E4F1FFF000461E00C05122E2E2E06
:1056E000FF000461E03221200D1000046140212000
:1056F0000D120004B004FF2E2E40ED000415E04909
:105700000045E0FD000467FF26E00F1227FF0004BC
:105710004804FFFF2C207A2DE2DD0004422AC00E4F
:10572000162B00044A28200E162900044A26A00E33
:105730001627000433FF19010E4DFF00045D580BBE
:105740003C04C0FFFFBB0F00051ACCFFFF3308CDA0
:1057500067140D8A000819E40C041A5051FF000860
:105760000C051656818757000815E2B41160818731
:10577000878054555253575051505255516ACC1549
:10578000CECF515688898F8C87808789888980877A
:10579000888987570008100D5E87891D808B878157
:1057A0008088888E08AC0680878157FFB2078C15E9
:1057B0006080808D8B8F80888F8989818B8F8F8C83
:1057C0008088806300041009CFCE6188808B8F1D94
:1057D00020A80C1D87808B8C8F1D8F898762A81352
:1057E000FF5E1F10048F8F890410078C8D8E1D8F14
:1057F0008D408D000411202006568180891D3A318C
:105800003EBC061D888E8962420330065E8087801A
:105810008D3A113E115FBC04815FFF34081007CE42
:10582000585E878181C6213EEC058F895F592A0722
:1058300013FF61DC200489808D3EBC058D8862FFEA
:10584000FC063D3A081142080A108F1D89898F888D
:105850001D5F59802142A00B5A5B5C5D5F59585E09
:1058600062FF7A0D120008FECE3E070D1410090DDE
:105870008E00080E1DCF0008B1120D8800081C060E
:10588000A8A2A0A0205E1522AA011110128A082E3B
:105890002A19130C04380A0A0A21083E3BA2146C88
:1058A000040F0110311610067929000021581C0739
:1058B000F81E0020F82E28154D11141F4201C515A1
:1058C0002D2C151E05AF151E0715131C0609000A01
:1058D000000B07151E0D5D131E0F53120D10630FE5
:1058E0000D10550F0D10470F0D10390F0D102B0F08
:1058F0004C0717FF02000203BB0D6DC40E6D8C0E2A
:105900004C3D20401230401340401B50401CBC40D6
:1059100000C44000CC4000D440002050123050134E
:1059200040501D50501E60501FC85000D05000D82D
:1059300050256EA0127EA0138EA0149EA0155C1997
:045940000000000063
:040000050000006592
:00000001FF
